Archive member included to satisfy reference by file (symbol)

c:/nxp/mcuxpressoide_11.1.0_3209/ide/plugins/com.nxp.mcuxpresso.tools.win32_11.1.0.201909161352/tools/bin/../lib/gcc/arm-none-eabi/8.3.1/../../../../arm-none-eabi/lib/thumb/v7-m/nofp\libcr_nohost.a(_cr__main.o)
                              ./board/src/cr_startup_lpc177x_8x.o (__main)
c:/nxp/mcuxpressoide_11.1.0_3209/ide/plugins/com.nxp.mcuxpresso.tools.win32_11.1.0.201909161352/tools/bin/../lib/gcc/arm-none-eabi/8.3.1/../../../../arm-none-eabi/lib/thumb/v7-m/nofp\libcr_c.a(memcpy.o)
                              ./mcu/src/ring_buffer.o (memcpy)
c:/nxp/mcuxpressoide_11.1.0_3209/ide/plugins/com.nxp.mcuxpresso.tools.win32_11.1.0.201909161352/tools/bin/../lib/gcc/arm-none-eabi/8.3.1/../../../../arm-none-eabi/lib/thumb/v7-m/nofp\libcr_c.a(memmove.o)
                              ./FreeRTOS-Plus-TCP/FreeRTOS_IP.o (memmove)
c:/nxp/mcuxpressoide_11.1.0_3209/ide/plugins/com.nxp.mcuxpresso.tools.win32_11.1.0.201909161352/tools/bin/../lib/gcc/arm-none-eabi/8.3.1/../../../../arm-none-eabi/lib/thumb/v7-m/nofp\libcr_c.a(memset.o)
                              ./freertos/stream_buffer.o (memset)
c:/nxp/mcuxpressoide_11.1.0_3209/ide/plugins/com.nxp.mcuxpresso.tools.win32_11.1.0.201909161352/tools/bin/../lib/gcc/arm-none-eabi/8.3.1/../../../../arm-none-eabi/lib/thumb/v7-m/nofp\libcr_c.a(fpprintf.o)
                              ./app/src/App.o (sprintf)
c:/nxp/mcuxpressoide_11.1.0_3209/ide/plugins/com.nxp.mcuxpresso.tools.win32_11.1.0.201909161352/tools/bin/../lib/gcc/arm-none-eabi/8.3.1/../../../../arm-none-eabi/lib/thumb/v7-m/nofp\libcr_c.a(initio.o)
                              c:/nxp/mcuxpressoide_11.1.0_3209/ide/plugins/com.nxp.mcuxpresso.tools.win32_11.1.0.201909161352/tools/bin/../lib/gcc/arm-none-eabi/8.3.1/../../../../arm-none-eabi/lib/thumb/v7-m/nofp\libcr_nohost.a(_cr__main.o) (_initio)
c:/nxp/mcuxpressoide_11.1.0_3209/ide/plugins/com.nxp.mcuxpresso.tools.win32_11.1.0.201909161352/tools/bin/../lib/gcc/arm-none-eabi/8.3.1/../../../../arm-none-eabi/lib/thumb/v7-m/nofp\libcr_c.a(memcmp.o)
                              ./FreeRTOS-Plus-TCP/FreeRTOS_ARP.o (memcmp)
c:/nxp/mcuxpressoide_11.1.0_3209/ide/plugins/com.nxp.mcuxpresso.tools.win32_11.1.0.201909161352/tools/bin/../lib/gcc/arm-none-eabi/8.3.1/../../../../arm-none-eabi/lib/thumb/v7-m/nofp\libcr_c.a(printf.o)
                              c:/nxp/mcuxpressoide_11.1.0_3209/ide/plugins/com.nxp.mcuxpresso.tools.win32_11.1.0.201909161352/tools/bin/../lib/gcc/arm-none-eabi/8.3.1/../../../../arm-none-eabi/lib/thumb/v7-m/nofp\libcr_c.a(fpprintf.o) (__vfprintf)
c:/nxp/mcuxpressoide_11.1.0_3209/ide/plugins/com.nxp.mcuxpresso.tools.win32_11.1.0.201909161352/tools/bin/../lib/gcc/arm-none-eabi/8.3.1/../../../../arm-none-eabi/lib/thumb/v7-m/nofp\libcr_c.a(scanf.o)
                              ./app/src/App.o (atoi)
c:/nxp/mcuxpressoide_11.1.0_3209/ide/plugins/com.nxp.mcuxpresso.tools.win32_11.1.0.201909161352/tools/bin/../lib/gcc/arm-none-eabi/8.3.1/../../../../arm-none-eabi/lib/thumb/v7-m/nofp\libcr_c.a(setvbuf.o)
                              c:/nxp/mcuxpressoide_11.1.0_3209/ide/plugins/com.nxp.mcuxpresso.tools.win32_11.1.0.201909161352/tools/bin/../lib/gcc/arm-none-eabi/8.3.1/../../../../arm-none-eabi/lib/thumb/v7-m/nofp\libcr_c.a(initio.o) (setvbuf)
c:/nxp/mcuxpressoide_11.1.0_3209/ide/plugins/com.nxp.mcuxpresso.tools.win32_11.1.0.201909161352/tools/bin/../lib/gcc/arm-none-eabi/8.3.1/../../../../arm-none-eabi/lib/thumb/v7-m/nofp\libcr_c.a(strcat.o)
                              ./JSON/src/JSON.o (strcat)
c:/nxp/mcuxpressoide_11.1.0_3209/ide/plugins/com.nxp.mcuxpresso.tools.win32_11.1.0.201909161352/tools/bin/../lib/gcc/arm-none-eabi/8.3.1/../../../../arm-none-eabi/lib/thumb/v7-m/nofp\libcr_c.a(strcmp.o)
                              ./app/src/App.o (strcmp)
c:/nxp/mcuxpressoide_11.1.0_3209/ide/plugins/com.nxp.mcuxpresso.tools.win32_11.1.0.201909161352/tools/bin/../lib/gcc/arm-none-eabi/8.3.1/../../../../arm-none-eabi/lib/thumb/v7-m/nofp\libcr_c.a(strcpy.o)
                              ./FreeRTOS-Plus-TCP/FreeRTOS_DNS.o (strcpy)
c:/nxp/mcuxpressoide_11.1.0_3209/ide/plugins/com.nxp.mcuxpresso.tools.win32_11.1.0.201909161352/tools/bin/../lib/gcc/arm-none-eabi/8.3.1/../../../../arm-none-eabi/lib/thumb/v7-m/nofp\libcr_c.a(strlen.o)
                              ./app/src/App.o (strlen)
c:/nxp/mcuxpressoide_11.1.0_3209/ide/plugins/com.nxp.mcuxpresso.tools.win32_11.1.0.201909161352/tools/bin/../lib/gcc/arm-none-eabi/8.3.1/../../../../arm-none-eabi/lib/thumb/v7-m/nofp\libcr_c.a(strstr.o)
                              ./app/src/App.o (strstr)
c:/nxp/mcuxpressoide_11.1.0_3209/ide/plugins/com.nxp.mcuxpresso.tools.win32_11.1.0.201909161352/tools/bin/../lib/gcc/arm-none-eabi/8.3.1/../../../../arm-none-eabi/lib/thumb/v7-m/nofp\libcr_c.a(ungetc.o)
                              c:/nxp/mcuxpressoide_11.1.0_3209/ide/plugins/com.nxp.mcuxpresso.tools.win32_11.1.0.201909161352/tools/bin/../lib/gcc/arm-none-eabi/8.3.1/../../../../arm-none-eabi/lib/thumb/v7-m/nofp\libcr_c.a(scanf.o) (ungetc)
c:/nxp/mcuxpressoide_11.1.0_3209/ide/plugins/com.nxp.mcuxpresso.tools.win32_11.1.0.201909161352/tools/bin/../lib/gcc/arm-none-eabi/8.3.1/../../../../arm-none-eabi/lib/thumb/v7-m/nofp\libcr_c.a(__fillbuf.o)
                              c:/nxp/mcuxpressoide_11.1.0_3209/ide/plugins/com.nxp.mcuxpresso.tools.win32_11.1.0.201909161352/tools/bin/../lib/gcc/arm-none-eabi/8.3.1/../../../../arm-none-eabi/lib/thumb/v7-m/nofp\libcr_c.a(scanf.o) (__filbuf)
c:/nxp/mcuxpressoide_11.1.0_3209/ide/plugins/com.nxp.mcuxpresso.tools.win32_11.1.0.201909161352/tools/bin/../lib/gcc/arm-none-eabi/8.3.1/../../../../arm-none-eabi/lib/thumb/v7-m/nofp\libcr_c.a(_deferredlazyseek.o)
                              c:/nxp/mcuxpressoide_11.1.0_3209/ide/plugins/com.nxp.mcuxpresso.tools.win32_11.1.0.201909161352/tools/bin/../lib/gcc/arm-none-eabi/8.3.1/../../../../arm-none-eabi/lib/thumb/v7-m/nofp\libcr_c.a(__fillbuf.o) (_deferredlazyseek)
c:/nxp/mcuxpressoide_11.1.0_3209/ide/plugins/com.nxp.mcuxpresso.tools.win32_11.1.0.201909161352/tools/bin/../lib/gcc/arm-none-eabi/8.3.1/../../../../arm-none-eabi/lib/thumb/v7-m/nofp\libcr_c.a(_fdopen.o)
                              c:/nxp/mcuxpressoide_11.1.0_3209/ide/plugins/com.nxp.mcuxpresso.tools.win32_11.1.0.201909161352/tools/bin/../lib/gcc/arm-none-eabi/8.3.1/../../../../arm-none-eabi/lib/thumb/v7-m/nofp\libcr_c.a(initio.o) (_fdopen)
c:/nxp/mcuxpressoide_11.1.0_3209/ide/plugins/com.nxp.mcuxpresso.tools.win32_11.1.0.201909161352/tools/bin/../lib/gcc/arm-none-eabi/8.3.1/../../../../arm-none-eabi/lib/thumb/v7-m/nofp\libcr_c.a(_fflush.o)
                              c:/nxp/mcuxpressoide_11.1.0_3209/ide/plugins/com.nxp.mcuxpresso.tools.win32_11.1.0.201909161352/tools/bin/../lib/gcc/arm-none-eabi/8.3.1/../../../../arm-none-eabi/lib/thumb/v7-m/nofp\libcr_c.a(__fillbuf.o) (_fflush)
c:/nxp/mcuxpressoide_11.1.0_3209/ide/plugins/com.nxp.mcuxpresso.tools.win32_11.1.0.201909161352/tools/bin/../lib/gcc/arm-none-eabi/8.3.1/../../../../arm-none-eabi/lib/thumb/v7-m/nofp\libcr_c.a(_frexpl.o)
                              c:/nxp/mcuxpressoide_11.1.0_3209/ide/plugins/com.nxp.mcuxpresso.tools.win32_11.1.0.201909161352/tools/bin/../lib/gcc/arm-none-eabi/8.3.1/../../../../arm-none-eabi/lib/thumb/v7-m/nofp\libcr_c.a(fpprintf.o) (_frexpl)
c:/nxp/mcuxpressoide_11.1.0_3209/ide/plugins/com.nxp.mcuxpresso.tools.win32_11.1.0.201909161352/tools/bin/../lib/gcc/arm-none-eabi/8.3.1/../../../../arm-none-eabi/lib/thumb/v7-m/nofp\libcr_c.a(_ldexpl.o)
                              c:/nxp/mcuxpressoide_11.1.0_3209/ide/plugins/com.nxp.mcuxpresso.tools.win32_11.1.0.201909161352/tools/bin/../lib/gcc/arm-none-eabi/8.3.1/../../../../arm-none-eabi/lib/thumb/v7-m/nofp\libcr_c.a(fpprintf.o) (_ldexpl)
c:/nxp/mcuxpressoide_11.1.0_3209/ide/plugins/com.nxp.mcuxpresso.tools.win32_11.1.0.201909161352/tools/bin/../lib/gcc/arm-none-eabi/8.3.1/../../../../arm-none-eabi/lib/thumb/v7-m/nofp\libcr_c.a(_writebuf.o)
                              c:/nxp/mcuxpressoide_11.1.0_3209/ide/plugins/com.nxp.mcuxpresso.tools.win32_11.1.0.201909161352/tools/bin/../lib/gcc/arm-none-eabi/8.3.1/../../../../arm-none-eabi/lib/thumb/v7-m/nofp\libcr_c.a(_deferredlazyseek.o) (_Cwritebuf)
c:/nxp/mcuxpressoide_11.1.0_3209/ide/plugins/com.nxp.mcuxpresso.tools.win32_11.1.0.201909161352/tools/bin/../lib/gcc/arm-none-eabi/8.3.1/../../../../arm-none-eabi/lib/thumb/v7-m/nofp\libcr_c.a(alloc.o)
                              c:/nxp/mcuxpressoide_11.1.0_3209/ide/plugins/com.nxp.mcuxpresso.tools.win32_11.1.0.201909161352/tools/bin/../lib/gcc/arm-none-eabi/8.3.1/../../../../arm-none-eabi/lib/thumb/v7-m/nofp\libcr_c.a(fpprintf.o) (malloc)
c:/nxp/mcuxpressoide_11.1.0_3209/ide/plugins/com.nxp.mcuxpresso.tools.win32_11.1.0.201909161352/tools/bin/../lib/gcc/arm-none-eabi/8.3.1/../../../../arm-none-eabi/lib/thumb/v7-m/nofp\libcr_c.a(ctype.o)
                              c:/nxp/mcuxpressoide_11.1.0_3209/ide/plugins/com.nxp.mcuxpresso.tools.win32_11.1.0.201909161352/tools/bin/../lib/gcc/arm-none-eabi/8.3.1/../../../../arm-none-eabi/lib/thumb/v7-m/nofp\libcr_c.a(scanf.o) (__ctype)
c:/nxp/mcuxpressoide_11.1.0_3209/ide/plugins/com.nxp.mcuxpresso.tools.win32_11.1.0.201909161352/tools/bin/../lib/gcc/arm-none-eabi/8.3.1/../../../../arm-none-eabi/lib/thumb/v7-m/nofp\libcr_c.a(errno.o)
                              c:/nxp/mcuxpressoide_11.1.0_3209/ide/plugins/com.nxp.mcuxpresso.tools.win32_11.1.0.201909161352/tools/bin/../lib/gcc/arm-none-eabi/8.3.1/../../../../arm-none-eabi/lib/thumb/v7-m/nofp\libcr_c.a(scanf.o) (errno)
c:/nxp/mcuxpressoide_11.1.0_3209/ide/plugins/com.nxp.mcuxpresso.tools.win32_11.1.0.201909161352/tools/bin/../lib/gcc/arm-none-eabi/8.3.1/../../../../arm-none-eabi/lib/thumb/v7-m/nofp\libcr_c.a(fclose.o)
                              c:/nxp/mcuxpressoide_11.1.0_3209/ide/plugins/com.nxp.mcuxpresso.tools.win32_11.1.0.201909161352/tools/bin/../lib/gcc/arm-none-eabi/8.3.1/../../../../arm-none-eabi/lib/thumb/v7-m/nofp\libcr_c.a(initio.o) (fclose)
c:/nxp/mcuxpressoide_11.1.0_3209/ide/plugins/com.nxp.mcuxpresso.tools.win32_11.1.0.201909161352/tools/bin/../lib/gcc/arm-none-eabi/8.3.1/../../../../arm-none-eabi/lib/thumb/v7-m/nofp\libcr_c.a(fflush.o)
                              c:/nxp/mcuxpressoide_11.1.0_3209/ide/plugins/com.nxp.mcuxpresso.tools.win32_11.1.0.201909161352/tools/bin/../lib/gcc/arm-none-eabi/8.3.1/../../../../arm-none-eabi/lib/thumb/v7-m/nofp\libcr_c.a(fclose.o) (fflush)
c:/nxp/mcuxpressoide_11.1.0_3209/ide/plugins/com.nxp.mcuxpresso.tools.win32_11.1.0.201909161352/tools/bin/../lib/gcc/arm-none-eabi/8.3.1/../../../../arm-none-eabi/lib/thumb/v7-m/nofp\libcr_c.a(fseek.o)
                              c:/nxp/mcuxpressoide_11.1.0_3209/ide/plugins/com.nxp.mcuxpresso.tools.win32_11.1.0.201909161352/tools/bin/../lib/gcc/arm-none-eabi/8.3.1/../../../../arm-none-eabi/lib/thumb/v7-m/nofp\libcr_c.a(_deferredlazyseek.o) (fseek)
c:/nxp/mcuxpressoide_11.1.0_3209/ide/plugins/com.nxp.mcuxpresso.tools.win32_11.1.0.201909161352/tools/bin/../lib/gcc/arm-none-eabi/8.3.1/../../../../arm-none-eabi/lib/thumb/v7-m/nofp\libcr_c.a(ftell.o)
                              c:/nxp/mcuxpressoide_11.1.0_3209/ide/plugins/com.nxp.mcuxpresso.tools.win32_11.1.0.201909161352/tools/bin/../lib/gcc/arm-none-eabi/8.3.1/../../../../arm-none-eabi/lib/thumb/v7-m/nofp\libcr_c.a(fseek.o) (ftell)
c:/nxp/mcuxpressoide_11.1.0_3209/ide/plugins/com.nxp.mcuxpresso.tools.win32_11.1.0.201909161352/tools/bin/../lib/gcc/arm-none-eabi/8.3.1/../../../../arm-none-eabi/lib/thumb/v7-m/nofp\libcr_c.a(remove.o)
                              c:/nxp/mcuxpressoide_11.1.0_3209/ide/plugins/com.nxp.mcuxpresso.tools.win32_11.1.0.201909161352/tools/bin/../lib/gcc/arm-none-eabi/8.3.1/../../../../arm-none-eabi/lib/thumb/v7-m/nofp\libcr_c.a(fclose.o) (remove)
c:/nxp/mcuxpressoide_11.1.0_3209/ide/plugins/com.nxp.mcuxpresso.tools.win32_11.1.0.201909161352/tools/bin/../lib/gcc/arm-none-eabi/8.3.1/../../../../arm-none-eabi/lib/thumb/v7-m/nofp\libcr_c.a(__init_alloc.o)
                              c:/nxp/mcuxpressoide_11.1.0_3209/ide/plugins/com.nxp.mcuxpresso.tools.win32_11.1.0.201909161352/tools/bin/../lib/gcc/arm-none-eabi/8.3.1/../../../../arm-none-eabi/lib/thumb/v7-m/nofp\libcr_c.a(alloc.o) (__heaps)
c:/nxp/mcuxpressoide_11.1.0_3209/ide/plugins/com.nxp.mcuxpresso.tools.win32_11.1.0.201909161352/tools/bin/../lib/gcc/arm-none-eabi/8.3.1/../../../../arm-none-eabi/lib/thumb/v7-m/nofp\libcr_c.a(_cr_sbrk.o)
                              c:/nxp/mcuxpressoide_11.1.0_3209/ide/plugins/com.nxp.mcuxpresso.tools.win32_11.1.0.201909161352/tools/bin/../lib/gcc/arm-none-eabi/8.3.1/../../../../arm-none-eabi/lib/thumb/v7-m/nofp\libcr_c.a(alloc.o) (_sbrk)
c:/nxp/mcuxpressoide_11.1.0_3209/ide/plugins/com.nxp.mcuxpresso.tools.win32_11.1.0.201909161352/tools/bin/../lib/gcc/arm-none-eabi/8.3.1/../../../../arm-none-eabi/lib/thumb/v7-m/nofp\libcr_c.a(_do_fflush.o)
                              c:/nxp/mcuxpressoide_11.1.0_3209/ide/plugins/com.nxp.mcuxpresso.tools.win32_11.1.0.201909161352/tools/bin/../lib/gcc/arm-none-eabi/8.3.1/../../../../arm-none-eabi/lib/thumb/v7-m/nofp\libcr_c.a(fflush.o) (_do_fflush)
c:/nxp/mcuxpressoide_11.1.0_3209/ide/plugins/com.nxp.mcuxpresso.tools.win32_11.1.0.201909161352/tools/bin/../lib/gcc/arm-none-eabi/8.3.1/thumb/v7-m/nofp\libcr_eabihelpers.a(division_64.o)
                              ./mcu/src/i2s_17xx_40xx.o (__aeabi_uldivmod)
c:/nxp/mcuxpressoide_11.1.0_3209/ide/plugins/com.nxp.mcuxpresso.tools.win32_11.1.0.201909161352/tools/bin/../lib/gcc/arm-none-eabi/8.3.1/thumb/v7-m/nofp\libcr_eabihelpers.a(division_idiv0.o)
                              c:/nxp/mcuxpressoide_11.1.0_3209/ide/plugins/com.nxp.mcuxpresso.tools.win32_11.1.0.201909161352/tools/bin/../lib/gcc/arm-none-eabi/8.3.1/thumb/v7-m/nofp\libcr_eabihelpers.a(division_64.o) (__aeabi_idiv0)
c:/nxp/mcuxpressoide_11.1.0_3209/ide/plugins/com.nxp.mcuxpresso.tools.win32_11.1.0.201909161352/tools/bin/../lib/gcc/arm-none-eabi/8.3.1/thumb/v7-m/nofp\libcr_eabihelpers.a(double.o)
                              c:/nxp/mcuxpressoide_11.1.0_3209/ide/plugins/com.nxp.mcuxpresso.tools.win32_11.1.0.201909161352/tools/bin/../lib/gcc/arm-none-eabi/8.3.1/../../../../arm-none-eabi/lib/thumb/v7-m/nofp\libcr_c.a(fpprintf.o) (__aeabi_dmul)
c:/nxp/mcuxpressoide_11.1.0_3209/ide/plugins/com.nxp.mcuxpresso.tools.win32_11.1.0.201909161352/tools/bin/../lib/gcc/arm-none-eabi/8.3.1/thumb/v7-m/nofp\libcr_eabihelpers.a(memcpy.o)
                              c:/nxp/mcuxpressoide_11.1.0_3209/ide/plugins/com.nxp.mcuxpresso.tools.win32_11.1.0.201909161352/tools/bin/../lib/gcc/arm-none-eabi/8.3.1/../../../../arm-none-eabi/lib/thumb/v7-m/nofp\libcr_c.a(memcpy.o) (__aeabi_memcpy)
c:/nxp/mcuxpressoide_11.1.0_3209/ide/plugins/com.nxp.mcuxpresso.tools.win32_11.1.0.201909161352/tools/bin/../lib/gcc/arm-none-eabi/8.3.1/../../../../arm-none-eabi/lib/thumb/v7-m/nofp\libcr_nohost.a(__ciob.o)
                              c:/nxp/mcuxpressoide_11.1.0_3209/ide/plugins/com.nxp.mcuxpresso.tools.win32_11.1.0.201909161352/tools/bin/../lib/gcc/arm-none-eabi/8.3.1/../../../../arm-none-eabi/lib/thumb/v7-m/nofp\libcr_c.a(fpprintf.o) (__Ciob)
c:/nxp/mcuxpressoide_11.1.0_3209/ide/plugins/com.nxp.mcuxpresso.tools.win32_11.1.0.201909161352/tools/bin/../lib/gcc/arm-none-eabi/8.3.1/../../../../arm-none-eabi/lib/thumb/v7-m/nofp\libcr_nohost.a(__sys_appexit.o)
                              c:/nxp/mcuxpressoide_11.1.0_3209/ide/plugins/com.nxp.mcuxpresso.tools.win32_11.1.0.201909161352/tools/bin/../lib/gcc/arm-none-eabi/8.3.1/../../../../arm-none-eabi/lib/thumb/v7-m/nofp\libcr_c.a(alloc.o) (__sys_appexit)
c:/nxp/mcuxpressoide_11.1.0_3209/ide/plugins/com.nxp.mcuxpresso.tools.win32_11.1.0.201909161352/tools/bin/../lib/gcc/arm-none-eabi/8.3.1/../../../../arm-none-eabi/lib/thumb/v7-m/nofp\libcr_nohost.a(__sys_close.o)
                              c:/nxp/mcuxpressoide_11.1.0_3209/ide/plugins/com.nxp.mcuxpresso.tools.win32_11.1.0.201909161352/tools/bin/../lib/gcc/arm-none-eabi/8.3.1/../../../../arm-none-eabi/lib/thumb/v7-m/nofp\libcr_c.a(fclose.o) (__sys_close)
c:/nxp/mcuxpressoide_11.1.0_3209/ide/plugins/com.nxp.mcuxpresso.tools.win32_11.1.0.201909161352/tools/bin/../lib/gcc/arm-none-eabi/8.3.1/../../../../arm-none-eabi/lib/thumb/v7-m/nofp\libcr_nohost.a(__sys_flen.o)
                              c:/nxp/mcuxpressoide_11.1.0_3209/ide/plugins/com.nxp.mcuxpresso.tools.win32_11.1.0.201909161352/tools/bin/../lib/gcc/arm-none-eabi/8.3.1/../../../../arm-none-eabi/lib/thumb/v7-m/nofp\libcr_c.a(_writebuf.o) (__sys_flen)
c:/nxp/mcuxpressoide_11.1.0_3209/ide/plugins/com.nxp.mcuxpresso.tools.win32_11.1.0.201909161352/tools/bin/../lib/gcc/arm-none-eabi/8.3.1/../../../../arm-none-eabi/lib/thumb/v7-m/nofp\libcr_nohost.a(__sys_istty.o)
                              c:/nxp/mcuxpressoide_11.1.0_3209/ide/plugins/com.nxp.mcuxpresso.tools.win32_11.1.0.201909161352/tools/bin/../lib/gcc/arm-none-eabi/8.3.1/../../../../arm-none-eabi/lib/thumb/v7-m/nofp\libcr_c.a(_deferredlazyseek.o) (__sys_istty)
c:/nxp/mcuxpressoide_11.1.0_3209/ide/plugins/com.nxp.mcuxpresso.tools.win32_11.1.0.201909161352/tools/bin/../lib/gcc/arm-none-eabi/8.3.1/../../../../arm-none-eabi/lib/thumb/v7-m/nofp\libcr_nohost.a(__sys_read.o)
                              c:/nxp/mcuxpressoide_11.1.0_3209/ide/plugins/com.nxp.mcuxpresso.tools.win32_11.1.0.201909161352/tools/bin/../lib/gcc/arm-none-eabi/8.3.1/../../../../arm-none-eabi/lib/thumb/v7-m/nofp\libcr_c.a(__fillbuf.o) (__sys_read)
c:/nxp/mcuxpressoide_11.1.0_3209/ide/plugins/com.nxp.mcuxpresso.tools.win32_11.1.0.201909161352/tools/bin/../lib/gcc/arm-none-eabi/8.3.1/../../../../arm-none-eabi/lib/thumb/v7-m/nofp\libcr_nohost.a(__sys_remove.o)
                              c:/nxp/mcuxpressoide_11.1.0_3209/ide/plugins/com.nxp.mcuxpresso.tools.win32_11.1.0.201909161352/tools/bin/../lib/gcc/arm-none-eabi/8.3.1/../../../../arm-none-eabi/lib/thumb/v7-m/nofp\libcr_c.a(remove.o) (__sys_remove)
c:/nxp/mcuxpressoide_11.1.0_3209/ide/plugins/com.nxp.mcuxpresso.tools.win32_11.1.0.201909161352/tools/bin/../lib/gcc/arm-none-eabi/8.3.1/../../../../arm-none-eabi/lib/thumb/v7-m/nofp\libcr_nohost.a(__sys_rename.o)
                              c:/nxp/mcuxpressoide_11.1.0_3209/ide/plugins/com.nxp.mcuxpresso.tools.win32_11.1.0.201909161352/tools/bin/../lib/gcc/arm-none-eabi/8.3.1/../../../../arm-none-eabi/lib/thumb/v7-m/nofp\libcr_c.a(remove.o) (__sys_rename)
c:/nxp/mcuxpressoide_11.1.0_3209/ide/plugins/com.nxp.mcuxpresso.tools.win32_11.1.0.201909161352/tools/bin/../lib/gcc/arm-none-eabi/8.3.1/../../../../arm-none-eabi/lib/thumb/v7-m/nofp\libcr_nohost.a(__sys_seek.o)
                              c:/nxp/mcuxpressoide_11.1.0_3209/ide/plugins/com.nxp.mcuxpresso.tools.win32_11.1.0.201909161352/tools/bin/../lib/gcc/arm-none-eabi/8.3.1/../../../../arm-none-eabi/lib/thumb/v7-m/nofp\libcr_c.a(__fillbuf.o) (__sys_seek)
c:/nxp/mcuxpressoide_11.1.0_3209/ide/plugins/com.nxp.mcuxpresso.tools.win32_11.1.0.201909161352/tools/bin/../lib/gcc/arm-none-eabi/8.3.1/../../../../arm-none-eabi/lib/thumb/v7-m/nofp\libcr_nohost.a(__sys_tmpnam.o)
                              c:/nxp/mcuxpressoide_11.1.0_3209/ide/plugins/com.nxp.mcuxpresso.tools.win32_11.1.0.201909161352/tools/bin/../lib/gcc/arm-none-eabi/8.3.1/../../../../arm-none-eabi/lib/thumb/v7-m/nofp\libcr_c.a(fclose.o) (__sys_tmpnam)

Allocating common symbols
Common symbol       size              file

IOT_MANAGER         0x28              ./app/src/App.o
IOT_Config          0x38              ./app/src/App.o
buf_log_tcp         0x200             ./app/src/App.o
SystemCoreClock     0x4               ./mcu/src/chip_17xx_40xx.o
ADDR                0x4               ./app/src/App.o
xQueueRegistry      0x50              ./freertos/queue.o
json_variable       0x14              ./app/src/App.o
json_value          0x28              ./app/src/App.o

Discarded input sections

 .group         0x00000000        0xc ./utilities/src/lpc_nandflash_k9f1g.o
 .group         0x00000000        0xc ./utilities/src/lpc_nandflash_k9f1g.o
 .group         0x00000000        0xc ./utilities/src/lpc_nandflash_k9f1g.o
 .group         0x00000000        0xc ./utilities/src/lpc_nandflash_k9f1g.o
 .group         0x00000000        0xc ./utilities/src/lpc_nandflash_k9f1g.o
 .group         0x00000000        0xc ./utilities/src/lpc_nandflash_k9f1g.o
 .group         0x00000000        0xc ./utilities/src/lpc_nandflash_k9f1g.o
 .group         0x00000000        0xc ./utilities/src/lpc_nandflash_k9f1g.o
 .group         0x00000000        0xc ./utilities/src/lpc_nandflash_k9f1g.o
 .group         0x00000000        0xc ./utilities/src/lpc_nandflash_k9f1g.o
 .group         0x00000000        0xc ./utilities/src/lpc_nandflash_k9f1g.o
 .group         0x00000000        0xc ./utilities/src/lpc_nandflash_k9f1g.o
 .group         0x00000000        0xc ./utilities/src/lpc_nandflash_k9f1g.o
 .group         0x00000000        0xc ./utilities/src/lpc_nandflash_k9f1g.o
 .group         0x00000000        0xc ./utilities/src/lpc_nandflash_k9f1g.o
 .group         0x00000000        0xc ./utilities/src/lpc_nandflash_k9f1g.o
 .group         0x00000000        0xc ./utilities/src/lpc_nandflash_k9f1g.o
 .group         0x00000000        0xc ./utilities/src/lpc_nandflash_k9f1g.o
Memory Configuration

Name             Origin             Length             Attributes
MFlash512        0x00006000         0x0007a000         xr
RamLoc64         0x10000000         0x00010000         xrw
RamPeriph32      0x20000000         0x00008000         xrw
SDRAM32          0xa0000000         0x02000000         xrw
*default*        0x00000000         0xffffffff

Linker script and memory map

LOAD ./utilities/src/lpc_nandflash_k9f1g.o
LOAD ./utilities/src/lpc_norflash_sst39vf320.o
LOAD ./utilities/src/lpc_phy_smsc87x0.o
LOAD ./utilities/src/mem_tests.o
LOAD ./utilities/src/uda1380.o
LOAD ./mcu/src/adc_17xx_40xx.o
LOAD ./mcu/src/can_17xx_40xx.o
LOAD ./mcu/src/chip_17xx_40xx.o
LOAD ./mcu/src/clock_17xx_40xx.o
LOAD ./mcu/src/cmp_17xx_40xx.o
LOAD ./mcu/src/crc_17xx_40xx.o
LOAD ./mcu/src/dac_17xx_40xx.o
LOAD ./mcu/src/eeprom_17xx_40xx.o
LOAD ./mcu/src/emc_17xx_40xx.o
LOAD ./mcu/src/enet_17xx_40xx.o
LOAD ./mcu/src/gpdma_17xx_40xx.o
LOAD ./mcu/src/gpio_17xx_40xx.o
LOAD ./mcu/src/gpioint_17xx_40xx.o
LOAD ./mcu/src/i2c_17xx_40xx.o
LOAD ./mcu/src/i2s_17xx_40xx.o
LOAD ./mcu/src/iap.o
LOAD ./mcu/src/iocon_17xx_40xx.o
LOAD ./mcu/src/lcd_17xx_40xx.o
LOAD ./mcu/src/pmu_17xx_40xx.o
LOAD ./mcu/src/ring_buffer.o
LOAD ./mcu/src/ritimer_17xx_40xx.o
LOAD ./mcu/src/rtc_17xx_40xx.o
LOAD ./mcu/src/sdc_17xx_40xx.o
LOAD ./mcu/src/sdmmc_17xx_40xx.o
LOAD ./mcu/src/spi_17xx_40xx.o
LOAD ./mcu/src/ssp_17xx_40xx.o
LOAD ./mcu/src/stopwatch_17xx_40xx.o
LOAD ./mcu/src/sysctl_17xx_40xx.o
LOAD ./mcu/src/sysinit_17xx_40xx.o
LOAD ./mcu/src/timer_17xx_40xx.o
LOAD ./mcu/src/uart_17xx_40xx.o
LOAD ./mcu/src/wwdt_17xx_40xx.o
LOAD ./freertos/portable/gcc/ARM_CM3/port.o
LOAD ./freertos/portable/heap_5.o
LOAD ./freertos/croutine.o
LOAD ./freertos/event_groups.o
LOAD ./freertos/list.o
LOAD ./freertos/queue.o
LOAD ./freertos/stream_buffer.o
LOAD ./freertos/tasks.o
LOAD ./freertos/timers.o
LOAD ./board/src/board.o
LOAD ./board/src/board_pinout.o
LOAD ./board/src/board_sysinit.o
LOAD ./board/src/cr_redlib_heap_fix.o
LOAD ./board/src/cr_startup_lpc177x_8x.o
LOAD ./board/src/sysinit.o
LOAD ./app/src/App.o
LOAD ./app/src/tcp_conn.o
LOAD ./JSON/src/JSON.o
LOAD ./FreeRTOS-Plus-TCP/portable/NetworkInterface/LPC17xx/NetworkInterface.o
LOAD ./FreeRTOS-Plus-TCP/portable/BufferManagement/BufferAllocation_2.o
LOAD ./FreeRTOS-Plus-TCP/FreeRTOS_ARP.o
LOAD ./FreeRTOS-Plus-TCP/FreeRTOS_DHCP.o
LOAD ./FreeRTOS-Plus-TCP/FreeRTOS_DNS.o
LOAD ./FreeRTOS-Plus-TCP/FreeRTOS_IP.o
LOAD ./FreeRTOS-Plus-TCP/FreeRTOS_Sockets.o
LOAD ./FreeRTOS-Plus-TCP/FreeRTOS_Stream_Buffer.o
LOAD ./FreeRTOS-Plus-TCP/FreeRTOS_TCP_IP.o
LOAD ./FreeRTOS-Plus-TCP/FreeRTOS_TCP_WIN.o
LOAD ./FreeRTOS-Plus-TCP/FreeRTOS_UDP_IP.o
START GROUP
LOAD c:/nxp/mcuxpressoide_11.1.0_3209/ide/plugins/com.nxp.mcuxpresso.tools.win32_11.1.0.201909161352/tools/bin/../lib/gcc/arm-none-eabi/8.3.1/../../../../arm-none-eabi/lib/thumb/v7-m/nofp\libcr_nohost.a
LOAD c:/nxp/mcuxpressoide_11.1.0_3209/ide/plugins/com.nxp.mcuxpresso.tools.win32_11.1.0.201909161352/tools/bin/../lib/gcc/arm-none-eabi/8.3.1/../../../../arm-none-eabi/lib/thumb/v7-m/nofp\libcr_c.a
LOAD c:/nxp/mcuxpressoide_11.1.0_3209/ide/plugins/com.nxp.mcuxpresso.tools.win32_11.1.0.201909161352/tools/bin/../lib/gcc/arm-none-eabi/8.3.1/thumb/v7-m/nofp\libcr_eabihelpers.a
LOAD c:/nxp/mcuxpressoide_11.1.0_3209/ide/plugins/com.nxp.mcuxpresso.tools.win32_11.1.0.201909161352/tools/bin/../lib/gcc/arm-none-eabi/8.3.1/thumb/v7-m/nofp\libgcc.a
END GROUP
                0x00006000                __base_MFlash512 = 0x6000
                0x00006000                __base_Flash = 0x6000
                0x00080000                __top_MFlash512 = 0x80000
                0x00080000                __top_Flash = 0x80000
                0x10000000                __base_RamLoc64 = 0x10000000
                0x10000000                __base_RAM = 0x10000000
                0x10010000                __top_RamLoc64 = 0x10010000
                0x10010000                __top_RAM = 0x10010000
                0x20000000                __base_RamPeriph32 = 0x20000000
                0x20000000                __base_RAM2 = 0x20000000
                0x20008000                __top_RamPeriph32 = 0x20008000
                0x20008000                __top_RAM2 = 0x20008000
                0xa0000000                __base_SDRAM32 = 0xa0000000
                0xa0000000                __base_RAM3 = 0xa0000000
                0xa2000000                __top_SDRAM32 = 0xa2000000
                0xa2000000                __top_RAM3 = 0xa2000000

.text           0x00006000    0x114a4
 FILL mask 0xff
                0x00006000                __vectors_start__ = ABSOLUTE (.)
 *(.isr_vector)
 .isr_vector    0x00006000       0xe4 ./board/src/cr_startup_lpc177x_8x.o
                0x00006000                g_pfnVectors
                0x000060e4                . = ALIGN (0x4)
                0x000060e4                __section_table_start = .
                0x000060e4                __data_section_table = .
                0x000060e4        0x4 LONG 0x174a4 LOADADDR (.data)
                0x000060e8        0x4 LONG 0x10000000 ADDR (.data)
                0x000060ec        0x4 LONG 0xd8 SIZEOF (.data)
                0x000060f0        0x4 LONG 0x174a4 LOADADDR (.data_RAM2)
                0x000060f4        0x4 LONG 0x20000000 ADDR (.data_RAM2)
                0x000060f8        0x4 LONG 0x0 SIZEOF (.data_RAM2)
                0x000060fc        0x4 LONG 0x174a4 LOADADDR (.data_RAM3)
                0x00006100        0x4 LONG 0xa0000000 ADDR (.data_RAM3)
                0x00006104        0x4 LONG 0x0 SIZEOF (.data_RAM3)
                0x00006108                __data_section_table_end = .
                0x00006108                __bss_section_table = .
                0x00006108        0x4 LONG 0x100000d8 ADDR (.bss)
                0x0000610c        0x4 LONG 0x8a8 SIZEOF (.bss)
                0x00006110        0x4 LONG 0x20000000 ADDR (.bss_RAM2)
                0x00006114        0x4 LONG 0x1894 SIZEOF (.bss_RAM2)
                0x00006118        0x4 LONG 0xa0000000 ADDR (.bss_RAM3)
                0x0000611c        0x4 LONG 0x0 SIZEOF (.bss_RAM3)
                0x00006120                __bss_section_table_end = .
                0x00006120                __section_table_end = .
 *(.after_vectors*)
 .after_vectors
                0x00006120      0x12c ./board/src/cr_startup_lpc177x_8x.o
                0x00006120                data_init
                0x00006162                bss_init
                0x00006198                ResetISR
                0x00006210                NMI_Handler
                0x00006216                HardFault_Handler
                0x0000621c                MemManage_Handler
                0x00006222                BusFault_Handler
                0x00006228                UsageFault_Handler
                0x00006234                DebugMon_Handler
                0x00006246                USBActivity_IRQHandler
                0x00006246                I2C1_IRQHandler
                0x00006246                EINT2_IRQHandler
                0x00006246                UART1_IRQHandler
                0x00006246                EINT3_IRQHandler
                0x00006246                CANActivity_IRQHandler
                0x00006246                TIMER3_IRQHandler
                0x00006246                UART0_IRQHandler
                0x00006246                I2C0_IRQHandler
                0x00006246                SDIO_IRQHandler
                0x00006246                IntDefaultHandler
                0x00006246                PLL0_IRQHandler
                0x00006246                CAN_IRQHandler
                0x00006246                PLL1_IRQHandler
                0x00006246                RIT_IRQHandler
                0x00006246                I2S_IRQHandler
                0x00006246                I2C2_IRQHandler
                0x00006246                TIMER0_IRQHandler
                0x00006246                SPI_IRQHandler
                0x00006246                LCD_IRQHandler
                0x00006246                PWM1_IRQHandler
                0x00006246                EINT1_IRQHandler
                0x00006246                TIMER1_IRQHandler
                0x00006246                UART2_IRQHandler
                0x00006246                UART4_IRQHandler
                0x00006246                ADC_IRQHandler
                0x00006246                SSP1_IRQHandler
                0x00006246                USB_IRQHandler
                0x00006246                BOD_IRQHandler
                0x00006246                TIMER2_IRQHandler
                0x00006246                WDT_IRQHandler
                0x00006246                QEI_IRQHandler
                0x00006246                EINT0_IRQHandler
                0x00006246                PWM0_IRQHandler
                0x00006246                SSP2_IRQHandler
                0x00006246                EEPROM_IRQHandler
                0x00006246                SSP0_IRQHandler
                0x00006246                DMA_IRQHandler
                0x00006246                GPIO_IRQHandler
                0x00006246                UART3_IRQHandler
                0x00006246                MCPWM_IRQHandler
 *(.text*)
 .text.Chip_ENET_IsMIIBusy
                0x0000624c       0x24 ./utilities/src/lpc_phy_smsc87x0.o
 .text.lpc_mii_write
                0x00006270       0x64 ./utilities/src/lpc_phy_smsc87x0.o
 .text.lpc_mii_read
                0x000062d4       0x70 ./utilities/src/lpc_phy_smsc87x0.o
 .text.smsc_update_phy_sts
                0x00006344       0xe8 ./utilities/src/lpc_phy_smsc87x0.o
 .text.lpc_phy_init
                0x0000642c       0xac ./utilities/src/lpc_phy_smsc87x0.o
                0x0000642c                lpc_phy_init
 .text.lpcPHYStsPoll
                0x000064d8       0xc0 ./utilities/src/lpc_phy_smsc87x0.o
                0x000064d8                lpcPHYStsPoll
 .text.SystemCoreClockUpdate
                0x00006598       0x18 ./mcu/src/chip_17xx_40xx.o
                0x00006598                SystemCoreClockUpdate
 .text.Chip_Clock_IsMainPLLEnabled
                0x000065b0       0x24 ./mcu/src/clock_17xx_40xx.o
 .text.Chip_Clock_FeedPLL
                0x000065d4       0x34 ./mcu/src/clock_17xx_40xx.o
 .text.Chip_Clock_GetMainPLLSource
                0x00006608       0x20 ./mcu/src/clock_17xx_40xx.o
 .text.Chip_Clock_GetPCLKDiv
                0x00006628       0x1c ./mcu/src/clock_17xx_40xx.o
 .text.Chip_Clock_GetMainOscRate
                0x00006644       0x14 ./mcu/src/clock_17xx_40xx.o
 .text.Chip_Clock_GetIntOscRate
                0x00006658       0x14 ./mcu/src/clock_17xx_40xx.o
 .text.Chip_Clock_GetMainPLLInClockRate
                0x0000666c        0xe ./mcu/src/clock_17xx_40xx.o
 *fill*         0x0000667a        0x2 ff
 .text.Chip_Clock_EnablePLL
                0x0000667c       0x44 ./mcu/src/clock_17xx_40xx.o
                0x0000667c                Chip_Clock_EnablePLL
 .text.Chip_Clock_DisablePLL
                0x000066c0       0x48 ./mcu/src/clock_17xx_40xx.o
                0x000066c0                Chip_Clock_DisablePLL
 .text.Chip_Clock_SetupPLL
                0x00006708       0x4c ./mcu/src/clock_17xx_40xx.o
                0x00006708                Chip_Clock_SetupPLL
 .text.Chip_Clock_EnablePeriphClock
                0x00006754       0x34 ./mcu/src/clock_17xx_40xx.o
                0x00006754                Chip_Clock_EnablePeriphClock
 .text.Chip_Clock_SetCPUClockSource
                0x00006788       0x40 ./mcu/src/clock_17xx_40xx.o
                0x00006788                Chip_Clock_SetCPUClockSource
 .text.Chip_Clock_GetCPUClockSource
                0x000067c8       0x30 ./mcu/src/clock_17xx_40xx.o
                0x000067c8                Chip_Clock_GetCPUClockSource
 .text.Chip_Clock_SetCPUClockDiv
                0x000067f8       0x30 ./mcu/src/clock_17xx_40xx.o
                0x000067f8                Chip_Clock_SetCPUClockDiv
 .text.Chip_Clock_GetCPUClockDiv
                0x00006828       0x1c ./mcu/src/clock_17xx_40xx.o
                0x00006828                Chip_Clock_GetCPUClockDiv
 .text.Chip_Clock_GetSYSCLKRate
                0x00006844       0x2a ./mcu/src/clock_17xx_40xx.o
                0x00006844                Chip_Clock_GetSYSCLKRate
 *fill*         0x0000686e        0x2 ff
 .text.Chip_Clock_GetMainPLLOutClockRate
                0x00006870       0x40 ./mcu/src/clock_17xx_40xx.o
                0x00006870                Chip_Clock_GetMainPLLOutClockRate
 .text.Chip_Clock_GetMainClockRate
                0x000068b0       0x28 ./mcu/src/clock_17xx_40xx.o
                0x000068b0                Chip_Clock_GetMainClockRate
 .text.Chip_Clock_GetSystemClockRate
                0x000068d8       0x18 ./mcu/src/clock_17xx_40xx.o
                0x000068d8                Chip_Clock_GetSystemClockRate
 .text.Chip_Clock_SetSPIFIClockSource
                0x000068f0       0x34 ./mcu/src/clock_17xx_40xx.o
                0x000068f0                Chip_Clock_SetSPIFIClockSource
 .text.Chip_Clock_SetSPIFIClockDiv
                0x00006924       0x30 ./mcu/src/clock_17xx_40xx.o
                0x00006924                Chip_Clock_SetSPIFIClockDiv
 .text.Chip_Clock_GetPeripheralClockRate
                0x00006954       0x2e ./mcu/src/clock_17xx_40xx.o
                0x00006954                Chip_Clock_GetPeripheralClockRate
 *fill*         0x00006982        0x2 ff
 .text.Chip_Clock_GetEMCClockDiv
                0x00006984       0x18 ./mcu/src/emc_17xx_40xx.o
 .text.Chip_Clock_GetEMCClockRate
                0x0000699c       0x18 ./mcu/src/emc_17xx_40xx.o
 .text.convertTimmingParam
                0x000069b4       0x68 ./mcu/src/emc_17xx_40xx.o
 .text.getColsLen
                0x00006a1c       0x4c ./mcu/src/emc_17xx_40xx.o
 .text.initDynMem
                0x00006a68      0x292 ./mcu/src/emc_17xx_40xx.o
                0x00006a68                initDynMem
 .text.initStaticMem
                0x00006cfa       0xb0 ./mcu/src/emc_17xx_40xx.o
                0x00006cfa                initStaticMem
 *fill*         0x00006daa        0x2 ff
 .text.Chip_EMC_Dynamic_Init
                0x00006dac       0x24 ./mcu/src/emc_17xx_40xx.o
                0x00006dac                Chip_EMC_Dynamic_Init
 .text.Chip_EMC_Static_Init
                0x00006dd0       0x24 ./mcu/src/emc_17xx_40xx.o
                0x00006dd0                Chip_EMC_Static_Init
 .text.Chip_EMC_Init
                0x00006df4       0x4c ./mcu/src/emc_17xx_40xx.o
                0x00006df4                Chip_EMC_Init
 .text.Chip_Clock_GetENETClockRate
                0x00006e40        0xe ./mcu/src/enet_17xx_40xx.o
 .text.Chip_ENET_Reset
                0x00006e4e       0x22 ./mcu/src/enet_17xx_40xx.o
 .text.resetENET
                0x00006e70       0x2e ./mcu/src/enet_17xx_40xx.o
 .text.Chip_ENET_Init
                0x00006e9e       0x8e ./mcu/src/enet_17xx_40xx.o
                0x00006e9e                Chip_ENET_Init
 .text.Chip_ENET_SetupMII
                0x00006f2c       0x44 ./mcu/src/enet_17xx_40xx.o
                0x00006f2c                Chip_ENET_SetupMII
 .text.Chip_ENET_FindMIIDiv
                0x00006f70       0x50 ./mcu/src/enet_17xx_40xx.o
                0x00006f70                Chip_ENET_FindMIIDiv
 .text.Chip_ENET_StartMIIWrite
                0x00006fc0       0x3c ./mcu/src/enet_17xx_40xx.o
                0x00006fc0                Chip_ENET_StartMIIWrite
 .text.Chip_ENET_StartMIIRead
                0x00006ffc       0x30 ./mcu/src/enet_17xx_40xx.o
                0x00006ffc                Chip_ENET_StartMIIRead
 .text.Chip_ENET_ReadMIIData
                0x0000702c       0x1e ./mcu/src/enet_17xx_40xx.o
                0x0000702c                Chip_ENET_ReadMIIData
 .text.Chip_ENET_SetFullDuplex
                0x0000704a       0x34 ./mcu/src/enet_17xx_40xx.o
                0x0000704a                Chip_ENET_SetFullDuplex
 .text.Chip_ENET_SetHalfDuplex
                0x0000707e       0x34 ./mcu/src/enet_17xx_40xx.o
                0x0000707e                Chip_ENET_SetHalfDuplex
 .text.Chip_ENET_InitTxDescriptors
                0x000070b2       0x3a ./mcu/src/enet_17xx_40xx.o
                0x000070b2                Chip_ENET_InitTxDescriptors
 .text.Chip_ENET_InitRxDescriptors
                0x000070ec       0x3a ./mcu/src/enet_17xx_40xx.o
                0x000070ec                Chip_ENET_InitRxDescriptors
 .text.Chip_ENET_IncTXProduceIndex
                0x00007126       0x3c ./mcu/src/enet_17xx_40xx.o
                0x00007126                Chip_ENET_IncTXProduceIndex
 .text.Chip_ENET_IncRXConsumeIndex
                0x00007162       0x3c ./mcu/src/enet_17xx_40xx.o
                0x00007162                Chip_ENET_IncRXConsumeIndex
 .text.Chip_IOCON_PinMuxSet
                0x0000719e       0x2c ./mcu/src/iocon_17xx_40xx.o
 .text.Chip_IOCON_SetPinMuxing
                0x000071ca       0x62 ./mcu/src/iocon_17xx_40xx.o
                0x000071ca                Chip_IOCON_SetPinMuxing
 .text.Chip_RTC_Init
                0x0000722c       0x4e ./mcu/src/rtc_17xx_40xx.o
                0x0000722c                Chip_RTC_Init
 .text.Chip_RTC_ResetClockTickCounter
                0x0000727a       0x42 ./mcu/src/rtc_17xx_40xx.o
                0x0000727a                Chip_RTC_ResetClockTickCounter
 .text.Chip_RTC_Enable
                0x000072bc       0x42 ./mcu/src/rtc_17xx_40xx.o
                0x000072bc                Chip_RTC_Enable
 .text.Chip_RTC_CntIncrIntConfig
                0x000072fe       0x4a ./mcu/src/rtc_17xx_40xx.o
                0x000072fe                Chip_RTC_CntIncrIntConfig
 .text.Chip_RTC_CalibCounterCmd
                0x00007348       0x42 ./mcu/src/rtc_17xx_40xx.o
                0x00007348                Chip_RTC_CalibCounterCmd
 *fill*         0x0000738a        0x2 ff
 .text.Chip_SYSCTL_PeriphReset
                0x0000738c       0x64 ./mcu/src/sysctl_17xx_40xx.o
                0x0000738c                Chip_SYSCTL_PeriphReset
 .text.Chip_Clock_IsMainPLLEnabled
                0x000073f0       0x24 ./mcu/src/sysinit_17xx_40xx.o
 .text.Chip_Clock_IsMainPLLLocked
                0x00007414       0x24 ./mcu/src/sysinit_17xx_40xx.o
 .text.Chip_Clock_EnableCrystal
                0x00007438       0x20 ./mcu/src/sysinit_17xx_40xx.o
 .text.Chip_Clock_IsCrystalEnabled
                0x00007458       0x24 ./mcu/src/sysinit_17xx_40xx.o
 .text.Chip_Clock_SetMainPLLSource
                0x0000747c       0x20 ./mcu/src/sysinit_17xx_40xx.o
 .text.Chip_Clock_SetPCLKDiv
                0x0000749c       0x20 ./mcu/src/sysinit_17xx_40xx.o
 .text.Chip_SetupXtalClocking
                0x000074bc       0x82 ./mcu/src/sysinit_17xx_40xx.o
                0x000074bc                Chip_SetupXtalClocking
 .text.Chip_UART_SetupFIFOS
                0x0000753e       0x1a ./mcu/src/uart_17xx_40xx.o
 .text.Chip_UART_ConfigData
                0x00007558       0x1a ./mcu/src/uart_17xx_40xx.o
 .text.Chip_UART_EnableDivisorAccess
                0x00007572       0x1e ./mcu/src/uart_17xx_40xx.o
 .text.Chip_UART_DisableDivisorAccess
                0x00007590       0x1e ./mcu/src/uart_17xx_40xx.o
 .text.Chip_UART_SetDivisorLatches
                0x000075ae       0x26 ./mcu/src/uart_17xx_40xx.o
 .text.Chip_UART_GetClockIndex
                0x000075d4       0x60 ./mcu/src/uart_17xx_40xx.o
 .text.Chip_UART_Init
                0x00007634       0x78 ./mcu/src/uart_17xx_40xx.o
                0x00007634                Chip_UART_Init
 .text.Chip_UART_TXEnable
                0x000076ac       0x2c ./mcu/src/uart_17xx_40xx.o
                0x000076ac                Chip_UART_TXEnable
 .text.Chip_UART_TXDisable
                0x000076d8       0x2c ./mcu/src/uart_17xx_40xx.o
                0x000076d8                Chip_UART_TXDisable
 .text.Chip_UART_SetBaud
                0x00007704       0x58 ./mcu/src/uart_17xx_40xx.o
                0x00007704                Chip_UART_SetBaud
 .text.pxPortInitialiseStack
                0x0000775c       0x58 ./freertos/portable/gcc/ARM_CM3/port.o
                0x0000775c                pxPortInitialiseStack
 .text.prvTaskExitError
                0x000077b4       0x2e ./freertos/portable/gcc/ARM_CM3/port.o
 *fill*         0x000077e2        0xe ff
 .text.SVC_Handler
                0x000077f0       0x28 ./freertos/portable/gcc/ARM_CM3/port.o
                0x000077f0                SVC_Handler
 .text.prvPortStartFirstTask
                0x00007818       0x20 ./freertos/portable/gcc/ARM_CM3/port.o
 .text.xPortStartScheduler
                0x00007838       0x40 ./freertos/portable/gcc/ARM_CM3/port.o
                0x00007838                xPortStartScheduler
 .text.vPortEnterCritical
                0x00007878       0x30 ./freertos/portable/gcc/ARM_CM3/port.o
                0x00007878                vPortEnterCritical
 .text.vPortExitCritical
                0x000078a8       0x30 ./freertos/portable/gcc/ARM_CM3/port.o
                0x000078a8                vPortExitCritical
 *fill*         0x000078d8        0x8 ff
 .text.PendSV_Handler
                0x000078e0       0x48 ./freertos/portable/gcc/ARM_CM3/port.o
                0x000078e0                PendSV_Handler
 .text.SysTick_Handler
                0x00007928       0x40 ./freertos/portable/gcc/ARM_CM3/port.o
                0x00007928                SysTick_Handler
 .text.vPortSetupTimerInterrupt
                0x00007968       0x44 ./freertos/portable/gcc/ARM_CM3/port.o
                0x00007968                vPortSetupTimerInterrupt
 .text.pvPortMalloc
                0x000079ac      0x124 ./freertos/portable/heap_5.o
                0x000079ac                pvPortMalloc
 .text.vPortFree
                0x00007ad0       0x74 ./freertos/portable/heap_5.o
                0x00007ad0                vPortFree
 .text.prvInsertBlockIntoFreeList
                0x00007b44       0xb0 ./freertos/portable/heap_5.o
 .text.vPortDefineHeapRegions
                0x00007bf4      0x114 ./freertos/portable/heap_5.o
                0x00007bf4                vPortDefineHeapRegions
 .text.xEventGroupCreate
                0x00007d08       0x2e ./freertos/event_groups.o
                0x00007d08                xEventGroupCreate
 *fill*         0x00007d36        0x2 ff
 .text.xEventGroupWaitBits
                0x00007d38      0x114 ./freertos/event_groups.o
                0x00007d38                xEventGroupWaitBits
 .text.xEventGroupClearBits
                0x00007e4c       0x34 ./freertos/event_groups.o
                0x00007e4c                xEventGroupClearBits
 .text.xEventGroupSetBits
                0x00007e80       0xda ./freertos/event_groups.o
                0x00007e80                xEventGroupSetBits
 .text.vEventGroupDelete
                0x00007f5a       0x40 ./freertos/event_groups.o
                0x00007f5a                vEventGroupDelete
 .text.prvTestWaitCondition
                0x00007f9a       0x42 ./freertos/event_groups.o
 .text.vListInitialise
                0x00007fdc       0x3e ./freertos/list.o
                0x00007fdc                vListInitialise
 .text.vListInitialiseItem
                0x0000801a       0x18 ./freertos/list.o
                0x0000801a                vListInitialiseItem
 .text.vListInsertEnd
                0x00008032       0x46 ./freertos/list.o
                0x00008032                vListInsertEnd
 .text.vListInsert
                0x00008078       0x70 ./freertos/list.o
                0x00008078                vListInsert
 .text.uxListRemove
                0x000080e8       0x52 ./freertos/list.o
                0x000080e8                uxListRemove
 *fill*         0x0000813a        0x2 ff
 .text.xQueueGenericReset
                0x0000813c       0xb4 ./freertos/queue.o
                0x0000813c                xQueueGenericReset
 .text.xQueueGenericCreate
                0x000081f0       0x5c ./freertos/queue.o
                0x000081f0                xQueueGenericCreate
 .text.prvInitialiseNewQueue
                0x0000824c       0x46 ./freertos/queue.o
 .text.xQueueCreateCountingSemaphore
                0x00008292       0x2c ./freertos/queue.o
                0x00008292                xQueueCreateCountingSemaphore
 *fill*         0x000082be        0x2 ff
 .text.xQueueGenericSend
                0x000082c0      0x154 ./freertos/queue.o
                0x000082c0                xQueueGenericSend
 .text.xQueueGenericSendFromISR
                0x00008414       0xb2 ./freertos/queue.o
                0x00008414                xQueueGenericSendFromISR
 .text.xQueueGiveFromISR
                0x000084c6       0xa6 ./freertos/queue.o
                0x000084c6                xQueueGiveFromISR
 .text.xQueueReceive
                0x0000856c      0x144 ./freertos/queue.o
                0x0000856c                xQueueReceive
 .text.xQueueSemaphoreTake
                0x000086b0      0x190 ./freertos/queue.o
                0x000086b0                xQueueSemaphoreTake
 .text.uxQueueMessagesWaiting
                0x00008840       0x20 ./freertos/queue.o
                0x00008840                uxQueueMessagesWaiting
 .text.vQueueDelete
                0x00008860       0x20 ./freertos/queue.o
                0x00008860                vQueueDelete
 .text.prvGetDisinheritPriorityAfterTimeout
                0x00008880       0x2e ./freertos/queue.o
 .text.prvCopyDataToQueue
                0x000088ae       0xd4 ./freertos/queue.o
 .text.prvCopyDataFromQueue
                0x00008982       0x4c ./freertos/queue.o
 .text.prvUnlockQueue
                0x000089ce       0xa4 ./freertos/queue.o
 .text.prvIsQueueEmpty
                0x00008a72       0x2c ./freertos/queue.o
 .text.prvIsQueueFull
                0x00008a9e       0x30 ./freertos/queue.o
 *fill*         0x00008ace        0x2 ff
 .text.vQueueAddToRegistry
                0x00008ad0       0x50 ./freertos/queue.o
                0x00008ad0                vQueueAddToRegistry
 .text.vQueueUnregisterQueue
                0x00008b20       0x50 ./freertos/queue.o
                0x00008b20                vQueueUnregisterQueue
 .text.vQueueWaitForMessageRestricted
                0x00008b70       0x68 ./freertos/queue.o
                0x00008b70                vQueueWaitForMessageRestricted
 .text.xTaskCreate
                0x00008bd8       0x82 ./freertos/tasks.o
                0x00008bd8                xTaskCreate
 .text.prvInitialiseNewTask
                0x00008c5a      0x104 ./freertos/tasks.o
 *fill*         0x00008d5e        0x2 ff
 .text.prvAddNewTaskToReadyList
                0x00008d60       0xdc ./freertos/tasks.o
 .text.vTaskDelayUntil
                0x00008e3c       0xa0 ./freertos/tasks.o
                0x00008e3c                vTaskDelayUntil
 .text.vTaskDelay
                0x00008edc       0x48 ./freertos/tasks.o
                0x00008edc                vTaskDelay
 .text.vTaskStartScheduler
                0x00008f24       0x78 ./freertos/tasks.o
                0x00008f24                vTaskStartScheduler
 .text.vTaskSuspendAll
                0x00008f9c       0x1c ./freertos/tasks.o
                0x00008f9c                vTaskSuspendAll
 .text.xTaskResumeAll
                0x00008fb8      0x11c ./freertos/tasks.o
                0x00008fb8                xTaskResumeAll
 .text.xTaskGetTickCount
                0x000090d4       0x1c ./freertos/tasks.o
                0x000090d4                xTaskGetTickCount
 .text.xTaskIncrementTick
                0x000090f0      0x150 ./freertos/tasks.o
                0x000090f0                xTaskIncrementTick
 .text.vTaskSwitchContext
                0x00009240       0xac ./freertos/tasks.o
                0x00009240                vTaskSwitchContext
 .text.vTaskPlaceOnEventList
                0x000092ec       0x2c ./freertos/tasks.o
                0x000092ec                vTaskPlaceOnEventList
 .text.vTaskPlaceOnUnorderedEventList
                0x00009318       0x3c ./freertos/tasks.o
                0x00009318                vTaskPlaceOnUnorderedEventList
 .text.vTaskPlaceOnEventListRestricted
                0x00009354       0x3c ./freertos/tasks.o
                0x00009354                vTaskPlaceOnEventListRestricted
 .text.xTaskRemoveFromEventList
                0x00009390       0xa8 ./freertos/tasks.o
                0x00009390                xTaskRemoveFromEventList
 .text.vTaskRemoveFromUnorderedEventList
                0x00009438       0x84 ./freertos/tasks.o
                0x00009438                vTaskRemoveFromUnorderedEventList
 .text.vTaskSetTimeOutState
                0x000094bc       0x30 ./freertos/tasks.o
                0x000094bc                vTaskSetTimeOutState
 .text.vTaskInternalSetTimeOutState
                0x000094ec       0x2c ./freertos/tasks.o
                0x000094ec                vTaskInternalSetTimeOutState
 .text.xTaskCheckForTimeOut
                0x00009518       0x8c ./freertos/tasks.o
                0x00009518                xTaskCheckForTimeOut
 .text.vTaskMissedYield
                0x000095a4       0x18 ./freertos/tasks.o
                0x000095a4                vTaskMissedYield
 .text.prvIdleTask
                0x000095bc       0x34 ./freertos/tasks.o
 .text.prvInitialiseTaskLists
                0x000095f0       0x80 ./freertos/tasks.o
 .text.prvCheckTasksWaitingTermination
                0x00009670       0x58 ./freertos/tasks.o
 .text.prvDeleteTCB
                0x000096c8       0x20 ./freertos/tasks.o
 .text.prvResetNextTaskUnblockTime
                0x000096e8       0x40 ./freertos/tasks.o
 .text.xTaskGetCurrentTaskHandle
                0x00009728       0x1c ./freertos/tasks.o
                0x00009728                xTaskGetCurrentTaskHandle
 .text.xTaskGetSchedulerState
                0x00009744       0x3c ./freertos/tasks.o
                0x00009744                xTaskGetSchedulerState
 .text.xTaskPriorityInherit
                0x00009780      0x100 ./freertos/tasks.o
                0x00009780                xTaskPriorityInherit
 .text.xTaskPriorityDisinherit
                0x00009880       0xc8 ./freertos/tasks.o
                0x00009880                xTaskPriorityDisinherit
 .text.vTaskPriorityDisinheritAfterTimeout
                0x00009948       0xf0 ./freertos/tasks.o
                0x00009948                vTaskPriorityDisinheritAfterTimeout
 .text.uxTaskResetEventItemValue
                0x00009a38       0x30 ./freertos/tasks.o
                0x00009a38                uxTaskResetEventItemValue
 .text.pvTaskIncrementMutexHeldCount
                0x00009a68       0x28 ./freertos/tasks.o
                0x00009a68                pvTaskIncrementMutexHeldCount
 .text.prvAddCurrentTaskToDelayedList
                0x00009a90       0xcc ./freertos/tasks.o
 .text.xTimerCreateTimerTask
                0x00009b5c       0x48 ./freertos/timers.o
                0x00009b5c                xTimerCreateTimerTask
 .text.xTimerGenericCommand
                0x00009ba4       0x80 ./freertos/timers.o
                0x00009ba4                xTimerGenericCommand
 .text.prvProcessExpiredTimer
                0x00009c24       0x80 ./freertos/timers.o
 .text.prvTimerTask
                0x00009ca4       0x24 ./freertos/timers.o
 .text.prvProcessTimerOrBlockTask
                0x00009cc8       0x9c ./freertos/timers.o
 .text.prvGetNextExpireTime
                0x00009d64       0x44 ./freertos/timers.o
 .text.prvSampleTimeNow
                0x00009da8       0x40 ./freertos/timers.o
 .text.prvInsertTimerInActiveList
                0x00009de8       0x84 ./freertos/timers.o
 .text.prvProcessReceivedCommands
                0x00009e6c      0x150 ./freertos/timers.o
 .text.prvSwitchTimerLists
                0x00009fbc       0xac ./freertos/timers.o
 .text.prvCheckForValidListAndQueue
                0x0000a068       0x6c ./freertos/timers.o
 .text.Chip_IOCON_Init
                0x0000a0d4       0x16 ./board/src/board.o
 .text.Chip_IOCON_PinMuxSet
                0x0000a0ea       0x2c ./board/src/board.o
 .text.Chip_GPIO_Init
                0x0000a116       0x16 ./board/src/board.o
 .text.Chip_GPIO_SetPinState
                0x0000a12c       0x64 ./board/src/board.o
 .text.Chip_GPIO_WritePortBit
                0x0000a190       0x2c ./board/src/board.o
 .text.Chip_GPIO_SetPinDIROutput
                0x0000a1bc       0x36 ./board/src/board.o
 .text.Chip_GPIO_SetPinDIRInput
                0x0000a1f2       0x3a ./board/src/board.o
 .text.Chip_GPIO_SetPinDIR
                0x0000a22c       0x42 ./board/src/board.o
 .text.Chip_GPIO_WriteDirBit
                0x0000a26e       0x2e ./board/src/board.o
 .text.Chip_UART_SendByte
                0x0000a29c       0x1c ./board/src/board.o
 .text.Chip_UART_ConfigData
                0x0000a2b8       0x1a ./board/src/board.o
 .text.Chip_UART_ReadLineStatus
                0x0000a2d2       0x16 ./board/src/board.o
 .text.__sys_write
                0x0000a2e8       0x38 ./board/src/board.o
                0x0000a2e8                __sys_write
 .text.Board_UART_Init
                0x0000a320       0x60 ./board/src/board.o
                0x0000a320                Board_UART_Init
 .text.Board_Debug_Init
                0x0000a380       0x30 ./board/src/board.o
                0x0000a380                Board_Debug_Init
 .text.Board_UARTPutChar
                0x0000a3b0       0x34 ./board/src/board.o
                0x0000a3b0                Board_UARTPutChar
 .text.Board_LED_Init
                0x0000a3e4       0x60 ./board/src/board.o
 .text.Board_Init
                0x0000a444       0x24 ./board/src/board.o
                0x0000a444                Board_Init
 .text.Chip_SYSCTL_EnableBoost
                0x0000a468       0x18 ./board/src/board_sysinit.o
 .text.Chip_Clock_SetEMCClockDiv
                0x0000a480       0x20 ./board/src/board_sysinit.o
 .text.Chip_IOCON_PinMuxSet
                0x0000a4a0       0x2c ./board/src/board_sysinit.o
 .text.Board_SetupClocking
                0x0000a4cc       0x1c ./board/src/board_sysinit.o
                0x0000a4cc                Board_SetupClocking
 .text.Board_SetupMuxing
                0x0000a4e8       0x84 ./board/src/board_sysinit.o
                0x0000a4e8                Board_SetupMuxing
 .text.Board_SetupExtMemory
                0x0000a56c       0x5c ./board/src/board_sysinit.o
                0x0000a56c                Board_SetupExtMemory
 .text.Board_SystemInit
                0x0000a5c8       0x14 ./board/src/board_sysinit.o
                0x0000a5c8                Board_SystemInit
 .text.__check_heap_overflow
                0x0000a5dc       0x2c ./board/src/cr_redlib_heap_fix.o
                0x0000a5dc                __check_heap_overflow
 .text.SystemInit
                0x0000a608       0x24 ./board/src/sysinit.o
                0x0000a608                SystemInit
 .text.NVIC_EnableIRQ
                0x0000a62c       0x30 ./app/src/App.o
 .text.Chip_IOCON_PinMuxSet
                0x0000a65c       0x2c ./app/src/App.o
 .text.Chip_RTC_ClearIntPending
                0x0000a688       0x1a ./app/src/App.o
 .text.Chip_RTC_GetIntPending
                0x0000a6a2       0x26 ./app/src/App.o
 .text.vApplicationIdleHook
                0x0000a6c8        0xc ./app/src/App.o
                0x0000a6c8                vApplicationIdleHook
 .text.vApplicationMallocFailedHook
                0x0000a6d4        0xc ./app/src/App.o
                0x0000a6d4                vApplicationMallocFailedHook
 .text.vApplicationStackOverflowHook
                0x0000a6e0        0xc ./app/src/App.o
                0x0000a6e0                vApplicationStackOverflowHook
 .text.vApplicationIPNetworkEventHook
                0x0000a6ec      0x150 ./app/src/App.o
                0x0000a6ec                vApplicationIPNetworkEventHook
 .text.xApplicationDHCPHook
                0x0000a83c       0x90 ./app/src/App.o
                0x0000a83c                xApplicationDHCPHook
 .text.uxRand   0x0000a8cc       0x3c ./app/src/App.o
                0x0000a8cc                uxRand
 .text.pcApplicationHostnameHook
                0x0000a908       0x14 ./app/src/App.o
                0x0000a908                pcApplicationHostnameHook
 .text.xApplicationDNSQueryHook
                0x0000a91c       0x48 ./app/src/App.o
                0x0000a91c                xApplicationDNSQueryHook
 .text.ulApplicationGetNextSequenceNumber
                0x0000a964       0x22 ./app/src/App.o
                0x0000a964                ulApplicationGetNextSequenceNumber
 .text.vLoggingPrintf
                0x0000a986       0x3a ./app/src/App.o
                0x0000a986                vLoggingPrintf
 .text.TCP_log  0x0000a9c0      0x23c ./app/src/App.o
                0x0000a9c0                TCP_log
 .text.RTC_IRQHandler
                0x0000abfc       0x50 ./app/src/App.o
                0x0000abfc                RTC_IRQHandler
 .text.insert_json_body_TAGO
                0x0000ac4c       0x34 ./app/src/App.o
                0x0000ac4c                insert_json_body_TAGO
 .text.insertINT_json_body_TAGO
                0x0000ac80       0x34 ./app/src/App.o
                0x0000ac80                insertINT_json_body_TAGO
 .text.make_frame_IOT
                0x0000acb4      0x120 ./app/src/App.o
                0x0000acb4                make_frame_IOT
 .text.BoardInit
                0x0000add4       0x7c ./app/src/App.o
                0x0000add4                BoardInit
 .text.MainTask
                0x0000ae50       0x78 ./app/src/App.o
                0x0000ae50                MainTask
 .text.main     0x0000aec8        0xe ./app/src/App.o
                0x0000aec8                main
 *fill*         0x0000aed6        0x2 ff
 .text.task_IOT
                0x0000aed8      0x20c ./app/src/App.o
 .text.json_clear
                0x0000b0e4       0x24 ./JSON/src/JSON.o
                0x0000b0e4                json_clear
 .text._json_print_virgula
                0x0000b108       0x38 ./JSON/src/JSON.o
                0x0000b108                _json_print_virgula
 .text.json_insertStr
                0x0000b140       0x48 ./JSON/src/JSON.o
                0x0000b140                json_insertStr
 .text.json_insertInt
                0x0000b188       0x30 ./JSON/src/JSON.o
                0x0000b188                json_insertInt
 .text.json_openContainer
                0x0000b1b8       0x4c ./JSON/src/JSON.o
                0x0000b1b8                json_openContainer
 .text.json_closeContainer
                0x0000b204        0xc ./JSON/src/JSON.o
                0x0000b204                json_closeContainer
 .text.json_openMatrix
                0x0000b210       0x4c ./JSON/src/JSON.o
                0x0000b210                json_openMatrix
 .text.json_closeMatrix
                0x0000b25c       0x24 ./JSON/src/JSON.o
                0x0000b25c                json_closeMatrix
 .text.json_close
                0x0000b280       0x24 ./JSON/src/JSON.o
                0x0000b280                json_close
 .text.NVIC_EnableIRQ
                0x0000b2a4       0x30 ./FreeRTOS-Plus-TCP/portable/NetworkInterface/LPC17xx/NetworkInterface.o
 .text.NVIC_SetPriority
                0x0000b2d4       0x54 ./FreeRTOS-Plus-TCP/portable/NetworkInterface/LPC17xx/NetworkInterface.o
 .text.Chip_IOCON_PinMuxSet
                0x0000b328       0x2c ./FreeRTOS-Plus-TCP/portable/NetworkInterface/LPC17xx/NetworkInterface.o
 .text.Chip_ENET_SetADDR
                0x0000b354       0x4e ./FreeRTOS-Plus-TCP/portable/NetworkInterface/LPC17xx/NetworkInterface.o
 .text.Chip_ENET_TXEnable
                0x0000b3a2       0x22 ./FreeRTOS-Plus-TCP/portable/NetworkInterface/LPC17xx/NetworkInterface.o
 .text.Chip_ENET_RXEnable
                0x0000b3c4       0x2e ./FreeRTOS-Plus-TCP/portable/NetworkInterface/LPC17xx/NetworkInterface.o
 .text.Chip_ENET_EnableRXFilter
                0x0000b3f2       0x34 ./FreeRTOS-Plus-TCP/portable/NetworkInterface/LPC17xx/NetworkInterface.o
 .text.Chip_ENET_Set100Mbps
                0x0000b426       0x1a ./FreeRTOS-Plus-TCP/portable/NetworkInterface/LPC17xx/NetworkInterface.o
 .text.Chip_ENET_Set10Mbps
                0x0000b440       0x18 ./FreeRTOS-Plus-TCP/portable/NetworkInterface/LPC17xx/NetworkInterface.o
 .text.Chip_ENET_GetTXProduceIndex
                0x0000b458       0x1a ./FreeRTOS-Plus-TCP/portable/NetworkInterface/LPC17xx/NetworkInterface.o
 .text.Chip_ENET_GetTXConsumeIndex
                0x0000b472       0x1a ./FreeRTOS-Plus-TCP/portable/NetworkInterface/LPC17xx/NetworkInterface.o
 .text.Chip_ENET_GetRXConsumeIndex
                0x0000b48c       0x1a ./FreeRTOS-Plus-TCP/portable/NetworkInterface/LPC17xx/NetworkInterface.o
 .text.Chip_ENET_IsTxFull
                0x0000b4a6       0x4a ./FreeRTOS-Plus-TCP/portable/NetworkInterface/LPC17xx/NetworkInterface.o
 .text.Chip_ENET_IsRxEmpty
                0x0000b4f0       0x2c ./FreeRTOS-Plus-TCP/portable/NetworkInterface/LPC17xx/NetworkInterface.o
 .text.Chip_ENET_EnableInt
                0x0000b51c       0x24 ./FreeRTOS-Plus-TCP/portable/NetworkInterface/LPC17xx/NetworkInterface.o
 .text.Chip_ENET_GetIntStatus
                0x0000b540       0x18 ./FreeRTOS-Plus-TCP/portable/NetworkInterface/LPC17xx/NetworkInterface.o
 .text.Chip_ENET_ClearIntStatus
                0x0000b558       0x1c ./FreeRTOS-Plus-TCP/portable/NetworkInterface/LPC17xx/NetworkInterface.o
 .text.prvBoard_ENET_Init
                0x0000b574       0xfc ./FreeRTOS-Plus-TCP/portable/NetworkInterface/LPC17xx/NetworkInterface.o
 .text.prvEMACDeferredInterruptHandlerTask
                0x0000b670      0x120 ./FreeRTOS-Plus-TCP/portable/NetworkInterface/LPC17xx/NetworkInterface.o
 .text.prvDelay
                0x0000b790       0x38 ./FreeRTOS-Plus-TCP/portable/NetworkInterface/LPC17xx/NetworkInterface.o
 .text.prvSetupTxDescriptors
                0x0000b7c8       0x64 ./FreeRTOS-Plus-TCP/portable/NetworkInterface/LPC17xx/NetworkInterface.o
 .text.prvSetupRxDescriptors
                0x0000b82c       0x80 ./FreeRTOS-Plus-TCP/portable/NetworkInterface/LPC17xx/NetworkInterface.o
 .text.prvGenerateCRC32
                0x0000b8ac       0x78 ./FreeRTOS-Plus-TCP/portable/NetworkInterface/LPC17xx/NetworkInterface.o
 .text.prvGetHashIndex
                0x0000b924       0x46 ./FreeRTOS-Plus-TCP/portable/NetworkInterface/LPC17xx/NetworkInterface.o
 *fill*         0x0000b96a        0x2 ff
 .text.prvAddMACAddress
                0x0000b96c       0x54 ./FreeRTOS-Plus-TCP/portable/NetworkInterface/LPC17xx/NetworkInterface.o
 .text.xPhyConfigure
                0x0000b9c0       0x20 ./FreeRTOS-Plus-TCP/portable/NetworkInterface/LPC17xx/NetworkInterface.o
 .text.xPhyCheckLinkStatus
                0x0000b9e0        0xe ./FreeRTOS-Plus-TCP/portable/NetworkInterface/LPC17xx/NetworkInterface.o
 *fill*         0x0000b9ee        0x2 ff
 .text.ETH_IRQHandler
                0x0000b9f0       0x84 ./FreeRTOS-Plus-TCP/portable/NetworkInterface/LPC17xx/NetworkInterface.o
                0x0000b9f0                ETH_IRQHandler
 .text.xNetworkInterfaceInitialise
                0x0000ba74      0x1dc ./FreeRTOS-Plus-TCP/portable/NetworkInterface/LPC17xx/NetworkInterface.o
                0x0000ba74                xNetworkInterfaceInitialise
 .text.xNetworkInterfaceOutput
                0x0000bc50       0xf0 ./FreeRTOS-Plus-TCP/portable/NetworkInterface/LPC17xx/NetworkInterface.o
                0x0000bc50                xNetworkInterfaceOutput
 .text.xNetworkBuffersInitialise
                0x0000bd40       0xdc ./FreeRTOS-Plus-TCP/portable/BufferManagement/BufferAllocation_2.o
                0x0000bd40                xNetworkBuffersInitialise
 .text.vReleaseNetworkBuffer
                0x0000be1c       0x22 ./FreeRTOS-Plus-TCP/portable/BufferManagement/BufferAllocation_2.o
                0x0000be1c                vReleaseNetworkBuffer
 *fill*         0x0000be3e        0x2 ff
 .text.pxGetNetworkBufferWithDescriptor
                0x0000be40       0xd4 ./FreeRTOS-Plus-TCP/portable/BufferManagement/BufferAllocation_2.o
                0x0000be40                pxGetNetworkBufferWithDescriptor
 .text.vReleaseNetworkBufferAndDescriptor
                0x0000bf14       0x68 ./FreeRTOS-Plus-TCP/portable/BufferManagement/BufferAllocation_2.o
                0x0000bf14                vReleaseNetworkBufferAndDescriptor
 .text.uxGetNumberOfFreeNetworkBuffers
                0x0000bf7c       0x14 ./FreeRTOS-Plus-TCP/portable/BufferManagement/BufferAllocation_2.o
                0x0000bf7c                uxGetNumberOfFreeNetworkBuffers
 .text.uxGetMinimumFreeNetworkBuffers
                0x0000bf90       0x14 ./FreeRTOS-Plus-TCP/portable/BufferManagement/BufferAllocation_2.o
                0x0000bf90                uxGetMinimumFreeNetworkBuffers
 .text.eARPProcessPacket
                0x0000bfa4      0x10c ./FreeRTOS-Plus-TCP/FreeRTOS_ARP.o
                0x0000bfa4                eARPProcessPacket
 .text.vARPRefreshCacheEntry
                0x0000c0b0      0x1f4 ./FreeRTOS-Plus-TCP/FreeRTOS_ARP.o
                0x0000c0b0                vARPRefreshCacheEntry
 .text.eARPGetCacheEntry
                0x0000c2a4       0xb8 ./FreeRTOS-Plus-TCP/FreeRTOS_ARP.o
                0x0000c2a4                eARPGetCacheEntry
 .text.prvCacheLookup
                0x0000c35c       0x80 ./FreeRTOS-Plus-TCP/FreeRTOS_ARP.o
 .text.vARPAgeCache
                0x0000c3dc      0x11c ./FreeRTOS-Plus-TCP/FreeRTOS_ARP.o
                0x0000c3dc                vARPAgeCache
 .text.vARPSendGratuitous
                0x0000c4f8       0x18 ./FreeRTOS-Plus-TCP/FreeRTOS_ARP.o
                0x0000c4f8                vARPSendGratuitous
 .text.FreeRTOS_OutputARPRequest
                0x0000c510       0x34 ./FreeRTOS-Plus-TCP/FreeRTOS_ARP.o
                0x0000c510                FreeRTOS_OutputARPRequest
 .text.vARPGenerateRequestPacket
                0x0000c544       0x68 ./FreeRTOS-Plus-TCP/FreeRTOS_ARP.o
                0x0000c544                vARPGenerateRequestPacket
 .text.FreeRTOS_ClearARP
                0x0000c5ac       0x18 ./FreeRTOS-Plus-TCP/FreeRTOS_ARP.o
                0x0000c5ac                FreeRTOS_ClearARP
 .text.xIsDHCPSocket
                0x0000c5c4       0x2c ./FreeRTOS-Plus-TCP/FreeRTOS_DHCP.o
                0x0000c5c4                xIsDHCPSocket
 .text.vDHCPProcess
                0x0000c5f0      0x338 ./FreeRTOS-Plus-TCP/FreeRTOS_DHCP.o
                0x0000c5f0                vDHCPProcess
 .text.prvCreateDHCPSocket
                0x0000c928       0x94 ./FreeRTOS-Plus-TCP/FreeRTOS_DHCP.o
 .text.prvInitialiseDHCP
                0x0000c9bc       0x44 ./FreeRTOS-Plus-TCP/FreeRTOS_DHCP.o
 .text.prvProcessDHCPReplies
                0x0000ca00      0x444 ./FreeRTOS-Plus-TCP/FreeRTOS_DHCP.o
 .text.prvCreatePartDHCPMessage
                0x0000ce44      0x110 ./FreeRTOS-Plus-TCP/FreeRTOS_DHCP.o
 .text.prvSendDHCPRequest
                0x0000cf54       0x74 ./FreeRTOS-Plus-TCP/FreeRTOS_DHCP.o
 .text.prvSendDHCPDiscover
                0x0000cfc8       0x50 ./FreeRTOS-Plus-TCP/FreeRTOS_DHCP.o
 .text.usChar2u16
                0x0000d018       0x28 ./FreeRTOS-Plus-TCP/FreeRTOS_DNS.o
 .text.FreeRTOS_dnslookup
                0x0000d040       0x24 ./FreeRTOS-Plus-TCP/FreeRTOS_DNS.o
                0x0000d040                FreeRTOS_dnslookup
 .text.FreeRTOS_gethostbyname
                0x0000d064       0x5a ./FreeRTOS-Plus-TCP/FreeRTOS_DNS.o
                0x0000d064                FreeRTOS_gethostbyname
 .text.prvGetHostByName
                0x0000d0be      0x11e ./FreeRTOS-Plus-TCP/FreeRTOS_DNS.o
 .text.prvCreateDNSMessage
                0x0000d1dc       0xc8 ./FreeRTOS-Plus-TCP/FreeRTOS_DNS.o
 .text.prvReadNameField
                0x0000d2a4       0xf8 ./FreeRTOS-Plus-TCP/FreeRTOS_DNS.o
 .text.prvSkipNameField
                0x0000d39c       0x90 ./FreeRTOS-Plus-TCP/FreeRTOS_DNS.o
 .text.ulNBNSHandlePacket
                0x0000d42c       0x3e ./FreeRTOS-Plus-TCP/FreeRTOS_DNS.o
                0x0000d42c                ulNBNSHandlePacket
 .text.prvParseDNSReply
                0x0000d46a      0x20a ./FreeRTOS-Plus-TCP/FreeRTOS_DNS.o
 .text.prvTreatNBNS
                0x0000d674      0x2c4 ./FreeRTOS-Plus-TCP/FreeRTOS_DNS.o
 .text.prvCreateDNSSocket
                0x0000d938       0x6e ./FreeRTOS-Plus-TCP/FreeRTOS_DNS.o
 *fill*         0x0000d9a6        0x2 ff
 .text.prvReplyDNSMessage
                0x0000d9a8      0x124 ./FreeRTOS-Plus-TCP/FreeRTOS_DNS.o
 .text.prvProcessDNSCache
                0x0000dacc      0x208 ./FreeRTOS-Plus-TCP/FreeRTOS_DNS.o
 .text.prvIPTask
                0x0000dcd4      0x16c ./FreeRTOS-Plus-TCP/FreeRTOS_IP.o
 .text.xIsCallingFromIPTask
                0x0000de40       0x2c ./FreeRTOS-Plus-TCP/FreeRTOS_IP.o
                0x0000de40                xIsCallingFromIPTask
 .text.prvHandleEthernetPacket
                0x0000de6c       0x16 ./FreeRTOS-Plus-TCP/FreeRTOS_IP.o
 *fill*         0x0000de82        0x2 ff
 .text.prvCalculateSleepTime
                0x0000de84       0x70 ./FreeRTOS-Plus-TCP/FreeRTOS_IP.o
 .text.prvCheckNetworkTimers
                0x0000def4       0x98 ./FreeRTOS-Plus-TCP/FreeRTOS_IP.o
 .text.prvIPTimerStart
                0x0000df8c       0x48 ./FreeRTOS-Plus-TCP/FreeRTOS_IP.o
 .text.prvIPTimerReload
                0x0000dfd4       0x20 ./FreeRTOS-Plus-TCP/FreeRTOS_IP.o
 .text.prvIPTimerCheck
                0x0000dff4       0x60 ./FreeRTOS-Plus-TCP/FreeRTOS_IP.o
 .text.FreeRTOS_NetworkDown
                0x0000e054       0x38 ./FreeRTOS-Plus-TCP/FreeRTOS_IP.o
                0x0000e054                FreeRTOS_NetworkDown
 .text.FreeRTOS_GetUDPPayloadBuffer
                0x0000e08c       0x50 ./FreeRTOS-Plus-TCP/FreeRTOS_IP.o
                0x0000e08c                FreeRTOS_GetUDPPayloadBuffer
 .text.pxDuplicateNetworkBufferWithDescriptor
                0x0000e0dc       0x56 ./FreeRTOS-Plus-TCP/FreeRTOS_IP.o
                0x0000e0dc                pxDuplicateNetworkBufferWithDescriptor
 .text.pxUDPPayloadBuffer_to_NetworkBuffer
                0x0000e132       0x40 ./FreeRTOS-Plus-TCP/FreeRTOS_IP.o
                0x0000e132                pxUDPPayloadBuffer_to_NetworkBuffer
 .text.FreeRTOS_ReleaseUDPPayloadBuffer
                0x0000e172       0x1e ./FreeRTOS-Plus-TCP/FreeRTOS_IP.o
                0x0000e172                FreeRTOS_ReleaseUDPPayloadBuffer
 .text.FreeRTOS_IPInit
                0x0000e190      0x164 ./FreeRTOS-Plus-TCP/FreeRTOS_IP.o
                0x0000e190                FreeRTOS_IPInit
 .text.FreeRTOS_GetAddressConfiguration
                0x0000e2f4       0x58 ./FreeRTOS-Plus-TCP/FreeRTOS_IP.o
                0x0000e2f4                FreeRTOS_GetAddressConfiguration
 .text.xSendEventToIPTask
                0x0000e34c       0x2c ./FreeRTOS-Plus-TCP/FreeRTOS_IP.o
                0x0000e34c                xSendEventToIPTask
 .text.xSendEventStructToIPTask
                0x0000e378       0x94 ./FreeRTOS-Plus-TCP/FreeRTOS_IP.o
                0x0000e378                xSendEventStructToIPTask
 .text.prvProcessNetworkDownEvent
                0x0000e40c       0x58 ./FreeRTOS-Plus-TCP/FreeRTOS_IP.o
 .text.vIPNetworkUpCalls
                0x0000e464       0x28 ./FreeRTOS-Plus-TCP/FreeRTOS_IP.o
                0x0000e464                vIPNetworkUpCalls
 .text.prvProcessEthernetPacket
                0x0000e48c       0xa2 ./FreeRTOS-Plus-TCP/FreeRTOS_IP.o
 *fill*         0x0000e52e        0x2 ff
 .text.prvAllowIPPacket
                0x0000e530       0x88 ./FreeRTOS-Plus-TCP/FreeRTOS_IP.o
 .text.prvProcessIPPacket
                0x0000e5b8      0x1e0 ./FreeRTOS-Plus-TCP/FreeRTOS_IP.o
 .text.prvProcessICMPEchoRequest
                0x0000e798       0xac ./FreeRTOS-Plus-TCP/FreeRTOS_IP.o
 .text.prvProcessICMPPacket
                0x0000e844       0x36 ./FreeRTOS-Plus-TCP/FreeRTOS_IP.o
 .text.usGenerateProtocolChecksum
                0x0000e87a      0x1ca ./FreeRTOS-Plus-TCP/FreeRTOS_IP.o
                0x0000e87a                usGenerateProtocolChecksum
 .text.usGenerateChecksum
                0x0000ea44      0x1a6 ./FreeRTOS-Plus-TCP/FreeRTOS_IP.o
                0x0000ea44                usGenerateChecksum
 *fill*         0x0000ebea        0x2 ff
 .text.vReturnEthernetFrame
                0x0000ebec       0x40 ./FreeRTOS-Plus-TCP/FreeRTOS_IP.o
                0x0000ebec                vReturnEthernetFrame
 .text.vIPSetDHCPTimerEnableState
                0x0000ec2c       0x34 ./FreeRTOS-Plus-TCP/FreeRTOS_IP.o
                0x0000ec2c                vIPSetDHCPTimerEnableState
 .text.vIPReloadDHCPTimer
                0x0000ec60       0x1c ./FreeRTOS-Plus-TCP/FreeRTOS_IP.o
                0x0000ec60                vIPReloadDHCPTimer
 .text.xIPIsNetworkTaskReady
                0x0000ec7c       0x14 ./FreeRTOS-Plus-TCP/FreeRTOS_IP.o
                0x0000ec7c                xIPIsNetworkTaskReady
 .text.FreeRTOS_IsNetworkUp
                0x0000ec90       0x14 ./FreeRTOS-Plus-TCP/FreeRTOS_IP.o
                0x0000ec90                FreeRTOS_IsNetworkUp
 .text.FreeRTOS_max_uint32
                0x0000eca4       0x1e ./FreeRTOS-Plus-TCP/FreeRTOS_Sockets.o
 .text.FreeRTOS_min_uint32
                0x0000ecc2       0x1e ./FreeRTOS-Plus-TCP/FreeRTOS_Sockets.o
 .text.FreeRTOS_round_up
                0x0000ece0       0x28 ./FreeRTOS-Plus-TCP/FreeRTOS_Sockets.o
 .text.uxStreamBufferSpace
                0x0000ed08       0x3c ./FreeRTOS-Plus-TCP/FreeRTOS_Sockets.o
 .text.uxStreamBufferDistance
                0x0000ed44       0x3a ./FreeRTOS-Plus-TCP/FreeRTOS_Sockets.o
 .text.uxStreamBufferGetSpace
                0x0000ed7e       0x28 ./FreeRTOS-Plus-TCP/FreeRTOS_Sockets.o
 .text.uxStreamBufferFrontSpace
                0x0000eda6       0x28 ./FreeRTOS-Plus-TCP/FreeRTOS_Sockets.o
 .text.uxStreamBufferGetSize
                0x0000edce       0x28 ./FreeRTOS-Plus-TCP/FreeRTOS_Sockets.o
 .text.uxStreamBufferGetPtr
                0x0000edf6       0x40 ./FreeRTOS-Plus-TCP/FreeRTOS_Sockets.o
 .text.prvValidSocket
                0x0000ee36       0x56 ./FreeRTOS-Plus-TCP/FreeRTOS_Sockets.o
 .text.vNetworkSocketsInit
                0x0000ee8c       0x20 ./FreeRTOS-Plus-TCP/FreeRTOS_Sockets.o
                0x0000ee8c                vNetworkSocketsInit
 .text.prvDetermineSocketSize
                0x0000eeac       0x62 ./FreeRTOS-Plus-TCP/FreeRTOS_Sockets.o
 *fill*         0x0000ef0e        0x2 ff
 .text.FreeRTOS_socket
                0x0000ef10      0x130 ./FreeRTOS-Plus-TCP/FreeRTOS_Sockets.o
                0x0000ef10                FreeRTOS_socket
 .text.FreeRTOS_recvfrom
                0x0000f040      0x18c ./FreeRTOS-Plus-TCP/FreeRTOS_Sockets.o
                0x0000f040                FreeRTOS_recvfrom
 .text.FreeRTOS_sendto
                0x0000f1cc      0x11c ./FreeRTOS-Plus-TCP/FreeRTOS_Sockets.o
                0x0000f1cc                FreeRTOS_sendto
 .text.FreeRTOS_bind
                0x0000f2e8       0xbe ./FreeRTOS-Plus-TCP/FreeRTOS_Sockets.o
                0x0000f2e8                FreeRTOS_bind
 *fill*         0x0000f3a6        0x2 ff
 .text.vSocketBind
                0x0000f3a8       0xe0 ./FreeRTOS-Plus-TCP/FreeRTOS_Sockets.o
                0x0000f3a8                vSocketBind
 .text.FreeRTOS_closesocket
                0x0000f488       0x4c ./FreeRTOS-Plus-TCP/FreeRTOS_Sockets.o
                0x0000f488                FreeRTOS_closesocket
 .text.vSocketClose
                0x0000f4d4       0xc0 ./FreeRTOS-Plus-TCP/FreeRTOS_Sockets.o
                0x0000f4d4                vSocketClose
 .text.prvTCPSetSocketCount
                0x0000f594       0x6c ./FreeRTOS-Plus-TCP/FreeRTOS_Sockets.o
 .text.FreeRTOS_setsockopt
                0x0000f600      0x330 ./FreeRTOS-Plus-TCP/FreeRTOS_Sockets.o
                0x0000f600                FreeRTOS_setsockopt
 .text.prvGetPrivatePortNumber
                0x0000f930       0xbc ./FreeRTOS-Plus-TCP/FreeRTOS_Sockets.o
 .text.pxListFindListItemWithValue
                0x0000f9ec       0x54 ./FreeRTOS-Plus-TCP/FreeRTOS_Sockets.o
 .text.pxUDPSocketLookup
                0x0000fa40       0x30 ./FreeRTOS-Plus-TCP/FreeRTOS_Sockets.o
                0x0000fa40                pxUDPSocketLookup
 .text.FreeRTOS_inet_addr
                0x0000fa70       0xe8 ./FreeRTOS-Plus-TCP/FreeRTOS_Sockets.o
                0x0000fa70                FreeRTOS_inet_addr
 .text.vSocketWakeUpUser
                0x0000fb58       0x76 ./FreeRTOS-Plus-TCP/FreeRTOS_Sockets.o
                0x0000fb58                vSocketWakeUpUser
 .text.bMayConnect
                0x0000fbce       0x32 ./FreeRTOS-Plus-TCP/FreeRTOS_Sockets.o
 .text.prvTCPConnectStart
                0x0000fc00       0xea ./FreeRTOS-Plus-TCP/FreeRTOS_Sockets.o
 .text.FreeRTOS_connect
                0x0000fcea       0xa4 ./FreeRTOS-Plus-TCP/FreeRTOS_Sockets.o
                0x0000fcea                FreeRTOS_connect
 .text.FreeRTOS_recv
                0x0000fd8e      0x1a8 ./FreeRTOS-Plus-TCP/FreeRTOS_Sockets.o
                0x0000fd8e                FreeRTOS_recv
 .text.prvTCPSendCheck
                0x0000ff36       0x9a ./FreeRTOS-Plus-TCP/FreeRTOS_Sockets.o
 .text.FreeRTOS_send
                0x0000ffd0      0x180 ./FreeRTOS-Plus-TCP/FreeRTOS_Sockets.o
                0x0000ffd0                FreeRTOS_send
 .text.FreeRTOS_shutdown
                0x00010150       0x62 ./FreeRTOS-Plus-TCP/FreeRTOS_Sockets.o
                0x00010150                FreeRTOS_shutdown
 *fill*         0x000101b2        0x2 ff
 .text.xTCPTimerCheck
                0x000101b4       0xe8 ./FreeRTOS-Plus-TCP/FreeRTOS_Sockets.o
                0x000101b4                xTCPTimerCheck
 .text.pxTCPSocketLookup
                0x0001029c       0x88 ./FreeRTOS-Plus-TCP/FreeRTOS_Sockets.o
                0x0001029c                pxTCPSocketLookup
 .text.prvTCPCreateStream
                0x00010324       0xbc ./FreeRTOS-Plus-TCP/FreeRTOS_Sockets.o
 .text.lTCPAddRxdata
                0x000103e0       0xc4 ./FreeRTOS-Plus-TCP/FreeRTOS_Sockets.o
                0x000103e0                lTCPAddRxdata
 .text.FreeRTOS_tx_space
                0x000104a4       0x46 ./FreeRTOS-Plus-TCP/FreeRTOS_Sockets.o
                0x000104a4                FreeRTOS_tx_space
 .text.FreeRTOS_tx_size
                0x000104ea       0x44 ./FreeRTOS-Plus-TCP/FreeRTOS_Sockets.o
                0x000104ea                FreeRTOS_tx_size
 .text.FreeRTOS_issocketconnected
                0x0001052e       0x46 ./FreeRTOS-Plus-TCP/FreeRTOS_Sockets.o
                0x0001052e                FreeRTOS_issocketconnected
 .text.FreeRTOS_rx_size
                0x00010574       0x44 ./FreeRTOS-Plus-TCP/FreeRTOS_Sockets.o
                0x00010574                FreeRTOS_rx_size
 .text.vTCPNetStat
                0x000105b8      0x184 ./FreeRTOS-Plus-TCP/FreeRTOS_Sockets.o
                0x000105b8                vTCPNetStat
 .text.vSocketSelect
                0x0001073c      0x23c ./FreeRTOS-Plus-TCP/FreeRTOS_Sockets.o
                0x0001073c                vSocketSelect
 .text.FreeRTOS_min_uint32
                0x00010978       0x1e ./FreeRTOS-Plus-TCP/FreeRTOS_Stream_Buffer.o
 .text.uxStreamBufferSpace
                0x00010996       0x3c ./FreeRTOS-Plus-TCP/FreeRTOS_Stream_Buffer.o
 .text.uxStreamBufferDistance
                0x000109d2       0x3a ./FreeRTOS-Plus-TCP/FreeRTOS_Stream_Buffer.o
 .text.uxStreamBufferGetSpace
                0x00010a0c       0x28 ./FreeRTOS-Plus-TCP/FreeRTOS_Stream_Buffer.o
 .text.uxStreamBufferGetSize
                0x00010a34       0x28 ./FreeRTOS-Plus-TCP/FreeRTOS_Stream_Buffer.o
 .text.xStreamBufferLessThenEqual
                0x00010a5c       0x68 ./FreeRTOS-Plus-TCP/FreeRTOS_Stream_Buffer.o
 .text.uxStreamBufferAdd
                0x00010ac4       0xfc ./FreeRTOS-Plus-TCP/FreeRTOS_Stream_Buffer.o
                0x00010ac4                uxStreamBufferAdd
 .text.uxStreamBufferGet
                0x00010bc0       0xe8 ./FreeRTOS-Plus-TCP/FreeRTOS_Stream_Buffer.o
                0x00010bc0                uxStreamBufferGet
 .text.FreeRTOS_max_int32
                0x00010ca8       0x1e ./FreeRTOS-Plus-TCP/FreeRTOS_TCP_IP.o
 .text.FreeRTOS_min_int32
                0x00010cc6       0x1e ./FreeRTOS-Plus-TCP/FreeRTOS_TCP_IP.o
 .text.FreeRTOS_min_uint32
                0x00010ce4       0x1e ./FreeRTOS-Plus-TCP/FreeRTOS_TCP_IP.o
 .text.uxStreamBufferSpace
                0x00010d02       0x3c ./FreeRTOS-Plus-TCP/FreeRTOS_TCP_IP.o
 .text.uxStreamBufferDistance
                0x00010d3e       0x3a ./FreeRTOS-Plus-TCP/FreeRTOS_TCP_IP.o
 .text.uxStreamBufferGetSpace
                0x00010d78       0x28 ./FreeRTOS-Plus-TCP/FreeRTOS_TCP_IP.o
 .text.uxStreamBufferFrontSpace
                0x00010da0       0x28 ./FreeRTOS-Plus-TCP/FreeRTOS_TCP_IP.o
 .text.uxStreamBufferMidSpace
                0x00010dc8       0x28 ./FreeRTOS-Plus-TCP/FreeRTOS_TCP_IP.o
 .text.vStreamBufferMoveMid
                0x00010df0       0x4c ./FreeRTOS-Plus-TCP/FreeRTOS_TCP_IP.o
 .text.ulChar2u32
                0x00010e3c       0x34 ./FreeRTOS-Plus-TCP/FreeRTOS_TCP_IP.o
 .text.usChar2u16
                0x00010e70       0x28 ./FreeRTOS-Plus-TCP/FreeRTOS_TCP_IP.o
 .text.prvTCPSocketIsActive
                0x00010e98       0x54 ./FreeRTOS-Plus-TCP/FreeRTOS_TCP_IP.o
 .text.prvTCPStatusAgeCheck
                0x00010eec       0xac ./FreeRTOS-Plus-TCP/FreeRTOS_TCP_IP.o
 .text.xTCPSocketCheck
                0x00010f98       0xc4 ./FreeRTOS-Plus-TCP/FreeRTOS_TCP_IP.o
                0x00010f98                xTCPSocketCheck
 .text.prvTCPSendPacket
                0x0001105c       0xb6 ./FreeRTOS-Plus-TCP/FreeRTOS_TCP_IP.o
 .text.prvTCPSendRepeated
                0x00011112       0x5a ./FreeRTOS-Plus-TCP/FreeRTOS_TCP_IP.o
 .text.prvTCPReturnPacket
                0x0001116c      0x3c0 ./FreeRTOS-Plus-TCP/FreeRTOS_TCP_IP.o
 .text.prvTCPCreateWindow
                0x0001152c       0x50 ./FreeRTOS-Plus-TCP/FreeRTOS_TCP_IP.o
 .text.prvTCPPrepareConnect
                0x0001157c      0x1d0 ./FreeRTOS-Plus-TCP/FreeRTOS_TCP_IP.o
 .text.prvCheckOptions
                0x0001174c      0x24c ./FreeRTOS-Plus-TCP/FreeRTOS_TCP_IP.o
 .text.prvWinScaleFactor
                0x00011998       0x40 ./FreeRTOS-Plus-TCP/FreeRTOS_TCP_IP.o
 .text.prvSetSynAckOptions
                0x000119d8       0xa8 ./FreeRTOS-Plus-TCP/FreeRTOS_TCP_IP.o
 .text.prvTCPTouchSocket
                0x00011a80       0x48 ./FreeRTOS-Plus-TCP/FreeRTOS_TCP_IP.o
 .text.vTCPStateChange
                0x00011ac8      0x19a ./FreeRTOS-Plus-TCP/FreeRTOS_TCP_IP.o
                0x00011ac8                vTCPStateChange
 *fill*         0x00011c62        0x2 ff
 .text.prvTCPBufferResize
                0x00011c64       0xc8 ./FreeRTOS-Plus-TCP/FreeRTOS_TCP_IP.o
 .text.prvTCPPrepareSend
                0x00011d2c      0x2ce ./FreeRTOS-Plus-TCP/FreeRTOS_TCP_IP.o
 *fill*         0x00011ffa        0x2 ff
 .text.prvTCPNextTimeout
                0x00011ffc      0x100 ./FreeRTOS-Plus-TCP/FreeRTOS_TCP_IP.o
 .text.prvTCPAddTxData
                0x000120fc       0x54 ./FreeRTOS-Plus-TCP/FreeRTOS_TCP_IP.o
 .text.prvTCPHandleFin
                0x00012150      0x14a ./FreeRTOS-Plus-TCP/FreeRTOS_TCP_IP.o
 .text.prvCheckRxData
                0x0001229a       0xcc ./FreeRTOS-Plus-TCP/FreeRTOS_TCP_IP.o
 .text.prvStoreRxData
                0x00012366       0xe8 ./FreeRTOS-Plus-TCP/FreeRTOS_TCP_IP.o
 .text.prvSetOptions
                0x0001244e       0xbc ./FreeRTOS-Plus-TCP/FreeRTOS_TCP_IP.o
 .text.prvHandleSynReceived
                0x0001250a      0x182 ./FreeRTOS-Plus-TCP/FreeRTOS_TCP_IP.o
 .text.prvHandleEstablished
                0x0001268c      0x22c ./FreeRTOS-Plus-TCP/FreeRTOS_TCP_IP.o
 .text.prvSendData
                0x000128b8      0x17c ./FreeRTOS-Plus-TCP/FreeRTOS_TCP_IP.o
 .text.prvTCPHandleState
                0x00012a34      0x220 ./FreeRTOS-Plus-TCP/FreeRTOS_TCP_IP.o
 .text.prvTCPSendReset
                0x00012c54       0x38 ./FreeRTOS-Plus-TCP/FreeRTOS_TCP_IP.o
 .text.prvSocketSetMSS
                0x00012c8c       0x78 ./FreeRTOS-Plus-TCP/FreeRTOS_TCP_IP.o
 .text.xProcessReceivedTCPPacket
                0x00012d04      0x242 ./FreeRTOS-Plus-TCP/FreeRTOS_TCP_IP.o
                0x00012d04                xProcessReceivedTCPPacket
 *fill*         0x00012f46        0x2 ff
 .text.prvHandleListen
                0x00012f48      0x1b8 ./FreeRTOS-Plus-TCP/FreeRTOS_TCP_IP.o
 .text.prvTCPSocketCopy
                0x00013100       0xec ./FreeRTOS-Plus-TCP/FreeRTOS_TCP_IP.o
 .text.FreeRTOS_GetTCPStateName
                0x000131ec       0x28 ./FreeRTOS-Plus-TCP/FreeRTOS_TCP_IP.o
                0x000131ec                FreeRTOS_GetTCPStateName
 .text.xTCPCheckNewClient
                0x00013214       0x88 ./FreeRTOS-Plus-TCP/FreeRTOS_TCP_IP.o
                0x00013214                xTCPCheckNewClient
 .text.FreeRTOS_min_int32
                0x0001329c       0x1e ./FreeRTOS-Plus-TCP/FreeRTOS_TCP_WIN.o
 .text.FreeRTOS_min_uint32
                0x000132ba       0x1e ./FreeRTOS-Plus-TCP/FreeRTOS_TCP_WIN.o
 .text.xSequenceLessThanOrEqual
                0x000132d8       0x20 ./FreeRTOS-Plus-TCP/FreeRTOS_TCP_WIN.o
 .text.xSequenceLessThan
                0x000132f8       0x22 ./FreeRTOS-Plus-TCP/FreeRTOS_TCP_WIN.o
 .text.xSequenceGreaterThan
                0x0001331a       0x22 ./FreeRTOS-Plus-TCP/FreeRTOS_TCP_WIN.o
 .text.xSequenceGreaterThanOrEqual
                0x0001333c       0x20 ./FreeRTOS-Plus-TCP/FreeRTOS_TCP_WIN.o
 .text.vListInsertFifo
                0x0001335c       0x20 ./FreeRTOS-Plus-TCP/FreeRTOS_TCP_WIN.o
 .text.vTCPTimerSet
                0x0001337c       0x1a ./FreeRTOS-Plus-TCP/FreeRTOS_TCP_WIN.o
 .text.ulTimerGetAge
                0x00013396       0x1c ./FreeRTOS-Plus-TCP/FreeRTOS_TCP_WIN.o
 .text.vListInsertGeneric
                0x000133b2       0x42 ./FreeRTOS-Plus-TCP/FreeRTOS_TCP_WIN.o
                0x000133b2                vListInsertGeneric
 .text.prvCreateSectors
                0x000133f4       0xa0 ./FreeRTOS-Plus-TCP/FreeRTOS_TCP_WIN.o
 .text.xTCPWindowRxFind
                0x00013494       0x4c ./FreeRTOS-Plus-TCP/FreeRTOS_TCP_WIN.o
 .text.xTCPWindowNew
                0x000134e0       0x8c ./FreeRTOS-Plus-TCP/FreeRTOS_TCP_WIN.o
 .text.xTCPWindowRxEmpty
                0x0001356c       0x42 ./FreeRTOS-Plus-TCP/FreeRTOS_TCP_WIN.o
                0x0001356c                xTCPWindowRxEmpty
 .text.xTCPWindowGetHead
                0x000135ae       0x32 ./FreeRTOS-Plus-TCP/FreeRTOS_TCP_WIN.o
 .text.xTCPWindowPeekHead
                0x000135e0       0x2e ./FreeRTOS-Plus-TCP/FreeRTOS_TCP_WIN.o
 *fill*         0x0001360e        0x2 ff
 .text.vTCPWindowFree
                0x00013610       0x58 ./FreeRTOS-Plus-TCP/FreeRTOS_TCP_WIN.o
 .text.vTCPWindowDestroy
                0x00013668       0x62 ./FreeRTOS-Plus-TCP/FreeRTOS_TCP_WIN.o
                0x00013668                vTCPWindowDestroy
 *fill*         0x000136ca        0x2 ff
 .text.vTCPWindowCreate
                0x000136cc       0x70 ./FreeRTOS-Plus-TCP/FreeRTOS_TCP_WIN.o
                0x000136cc                vTCPWindowCreate
 .text.vTCPWindowInit
                0x0001373c       0xb4 ./FreeRTOS-Plus-TCP/FreeRTOS_TCP_WIN.o
                0x0001373c                vTCPWindowInit
 .text.xTCPWindowRxConfirm
                0x000137f0       0x96 ./FreeRTOS-Plus-TCP/FreeRTOS_TCP_WIN.o
 *fill*         0x00013886        0x2 ff
 .text.lTCPWindowRxCheck
                0x00013888      0x1b8 ./FreeRTOS-Plus-TCP/FreeRTOS_TCP_WIN.o
                0x00013888                lTCPWindowRxCheck
 .text.lTCPIncrementTxPosition
                0x00013a40       0x30 ./FreeRTOS-Plus-TCP/FreeRTOS_TCP_WIN.o
 .text.lTCPWindowTxAdd
                0x00013a70      0x168 ./FreeRTOS-Plus-TCP/FreeRTOS_TCP_WIN.o
                0x00013a70                lTCPWindowTxAdd
 .text.xTCPWindowTxDone
                0x00013bd8       0x22 ./FreeRTOS-Plus-TCP/FreeRTOS_TCP_WIN.o
                0x00013bd8                xTCPWindowTxDone
 .text.prvTCPWindowTxHasSpace
                0x00013bfa       0x8c ./FreeRTOS-Plus-TCP/FreeRTOS_TCP_WIN.o
 .text.xTCPWindowTxHasData
                0x00013c86       0xc0 ./FreeRTOS-Plus-TCP/FreeRTOS_TCP_WIN.o
                0x00013c86                xTCPWindowTxHasData
 *fill*         0x00013d46        0x2 ff
 .text.ulTCPWindowTxGet
                0x00013d48      0x18c ./FreeRTOS-Plus-TCP/FreeRTOS_TCP_WIN.o
                0x00013d48                ulTCPWindowTxGet
 .text.prvTCPWindowTxCheckAck
                0x00013ed4      0x188 ./FreeRTOS-Plus-TCP/FreeRTOS_TCP_WIN.o
 .text.prvTCPWindowFastRetransmit
                0x0001405c       0xac ./FreeRTOS-Plus-TCP/FreeRTOS_TCP_WIN.o
 .text.ulTCPWindowTxAck
                0x00014108       0x3a ./FreeRTOS-Plus-TCP/FreeRTOS_TCP_WIN.o
                0x00014108                ulTCPWindowTxAck
 *fill*         0x00014142        0x2 ff
 .text.ulTCPWindowTxSack
                0x00014144       0x48 ./FreeRTOS-Plus-TCP/FreeRTOS_TCP_WIN.o
                0x00014144                ulTCPWindowTxSack
 .text.vProcessGeneratedUDPPacket
                0x0001418c      0x1a4 ./FreeRTOS-Plus-TCP/FreeRTOS_UDP_IP.o
                0x0001418c                vProcessGeneratedUDPPacket
 .text.xProcessReceivedUDPPacket
                0x00014330       0xec ./FreeRTOS-Plus-TCP/FreeRTOS_UDP_IP.o
                0x00014330                xProcessReceivedUDPPacket
 .text.__main   0x0001441c        0xe c:/nxp/mcuxpressoide_11.1.0_3209/ide/plugins/com.nxp.mcuxpresso.tools.win32_11.1.0.201909161352/tools/bin/../lib/gcc/arm-none-eabi/8.3.1/../../../../arm-none-eabi/lib/thumb/v7-m/nofp\libcr_nohost.a(_cr__main.o)
                0x0001441c                __main
 .text.memcpy   0x0001442a        0x4 c:/nxp/mcuxpressoide_11.1.0_3209/ide/plugins/com.nxp.mcuxpresso.tools.win32_11.1.0.201909161352/tools/bin/../lib/gcc/arm-none-eabi/8.3.1/../../../../arm-none-eabi/lib/thumb/v7-m/nofp\libcr_c.a(memcpy.o)
                0x0001442a                memcpy
 .text.memmove  0x0001442e        0x4 c:/nxp/mcuxpressoide_11.1.0_3209/ide/plugins/com.nxp.mcuxpresso.tools.win32_11.1.0.201909161352/tools/bin/../lib/gcc/arm-none-eabi/8.3.1/../../../../arm-none-eabi/lib/thumb/v7-m/nofp\libcr_c.a(memmove.o)
                0x0001442e                memmove
 .text.memset   0x00014432        0x4 c:/nxp/mcuxpressoide_11.1.0_3209/ide/plugins/com.nxp.mcuxpresso.tools.win32_11.1.0.201909161352/tools/bin/../lib/gcc/arm-none-eabi/8.3.1/../../../../arm-none-eabi/lib/thumb/v7-m/nofp\libcr_c.a(memset.o)
                0x00014432                memset
 .text.fp_round
                0x00014436       0x4c c:/nxp/mcuxpressoide_11.1.0_3209/ide/plugins/com.nxp.mcuxpresso.tools.win32_11.1.0.201909161352/tools/bin/../lib/gcc/arm-none-eabi/8.3.1/../../../../arm-none-eabi/lib/thumb/v7-m/nofp\libcr_c.a(fpprintf.o)
 .text.pr_dec.constprop.1
                0x00014482       0x26 c:/nxp/mcuxpressoide_11.1.0_3209/ide/plugins/com.nxp.mcuxpresso.tools.win32_11.1.0.201909161352/tools/bin/../lib/gcc/arm-none-eabi/8.3.1/../../../../arm-none-eabi/lib/thumb/v7-m/nofp\libcr_c.a(fpprintf.o)
 .text.sprintf  0x000144a8       0x6c c:/nxp/mcuxpressoide_11.1.0_3209/ide/plugins/com.nxp.mcuxpresso.tools.win32_11.1.0.201909161352/tools/bin/../lib/gcc/arm-none-eabi/8.3.1/../../../../arm-none-eabi/lib/thumb/v7-m/nofp\libcr_c.a(fpprintf.o)
                0x000144a8                sprintf
 *fill*         0x00014514        0x4 ff
 .text.fp_display
                0x00014518      0x948 c:/nxp/mcuxpressoide_11.1.0_3209/ide/plugins/com.nxp.mcuxpresso.tools.win32_11.1.0.201909161352/tools/bin/../lib/gcc/arm-none-eabi/8.3.1/../../../../arm-none-eabi/lib/thumb/v7-m/nofp\libcr_c.a(fpprintf.o)
 .text.snprintf
                0x00014e60       0x78 c:/nxp/mcuxpressoide_11.1.0_3209/ide/plugins/com.nxp.mcuxpresso.tools.win32_11.1.0.201909161352/tools/bin/../lib/gcc/arm-none-eabi/8.3.1/../../../../arm-none-eabi/lib/thumb/v7-m/nofp\libcr_c.a(fpprintf.o)
                0x00014e60                snprintf
 .text.vsnprintf
                0x00014ed8       0x68 c:/nxp/mcuxpressoide_11.1.0_3209/ide/plugins/com.nxp.mcuxpresso.tools.win32_11.1.0.201909161352/tools/bin/../lib/gcc/arm-none-eabi/8.3.1/../../../../arm-none-eabi/lib/thumb/v7-m/nofp\libcr_c.a(fpprintf.o)
                0x00014ed8                vsnprintf
 .text.printf   0x00014f40       0x54 c:/nxp/mcuxpressoide_11.1.0_3209/ide/plugins/com.nxp.mcuxpresso.tools.win32_11.1.0.201909161352/tools/bin/../lib/gcc/arm-none-eabi/8.3.1/../../../../arm-none-eabi/lib/thumb/v7-m/nofp\libcr_c.a(fpprintf.o)
                0x00014f40                printf
 .text._initio  0x00014f94       0x78 c:/nxp/mcuxpressoide_11.1.0_3209/ide/plugins/com.nxp.mcuxpresso.tools.win32_11.1.0.201909161352/tools/bin/../lib/gcc/arm-none-eabi/8.3.1/../../../../arm-none-eabi/lib/thumb/v7-m/nofp\libcr_c.a(initio.o)
                0x00014f94                _initio
 .text.memcmp   0x0001500c       0x42 c:/nxp/mcuxpressoide_11.1.0_3209/ide/plugins/com.nxp.mcuxpresso.tools.win32_11.1.0.201909161352/tools/bin/../lib/gcc/arm-none-eabi/8.3.1/../../../../arm-none-eabi/lib/thumb/v7-m/nofp\libcr_c.a(memcmp.o)
                0x0001500c                memcmp
 *fill*         0x0001504e        0x2 ff
 .text.__vfprintf
                0x00015050      0xbd4 c:/nxp/mcuxpressoide_11.1.0_3209/ide/plugins/com.nxp.mcuxpresso.tools.win32_11.1.0.201909161352/tools/bin/../lib/gcc/arm-none-eabi/8.3.1/../../../../arm-none-eabi/lib/thumb/v7-m/nofp\libcr_c.a(printf.o)
                0x00015050                __vfprintf
 .text.setvbuf  0x00015c24       0x40 c:/nxp/mcuxpressoide_11.1.0_3209/ide/plugins/com.nxp.mcuxpresso.tools.win32_11.1.0.201909161352/tools/bin/../lib/gcc/arm-none-eabi/8.3.1/../../../../arm-none-eabi/lib/thumb/v7-m/nofp\libcr_c.a(setvbuf.o)
                0x00015c24                setvbuf
 .text.strcat   0x00015c64       0x20 c:/nxp/mcuxpressoide_11.1.0_3209/ide/plugins/com.nxp.mcuxpresso.tools.win32_11.1.0.201909161352/tools/bin/../lib/gcc/arm-none-eabi/8.3.1/../../../../arm-none-eabi/lib/thumb/v7-m/nofp\libcr_c.a(strcat.o)
                0x00015c64                strcat
 .text.strcmp   0x00015c84       0x44 c:/nxp/mcuxpressoide_11.1.0_3209/ide/plugins/com.nxp.mcuxpresso.tools.win32_11.1.0.201909161352/tools/bin/../lib/gcc/arm-none-eabi/8.3.1/../../../../arm-none-eabi/lib/thumb/v7-m/nofp\libcr_c.a(strcmp.o)
                0x00015c84                strcmp
 .text.strcpy   0x00015cc8       0x42 c:/nxp/mcuxpressoide_11.1.0_3209/ide/plugins/com.nxp.mcuxpresso.tools.win32_11.1.0.201909161352/tools/bin/../lib/gcc/arm-none-eabi/8.3.1/../../../../arm-none-eabi/lib/thumb/v7-m/nofp\libcr_c.a(strcpy.o)
                0x00015cc8                strcpy
 .text.strlen   0x00015d0a       0x4c c:/nxp/mcuxpressoide_11.1.0_3209/ide/plugins/com.nxp.mcuxpresso.tools.win32_11.1.0.201909161352/tools/bin/../lib/gcc/arm-none-eabi/8.3.1/../../../../arm-none-eabi/lib/thumb/v7-m/nofp\libcr_c.a(strlen.o)
                0x00015d0a                strlen
 .text._deferredlazyseek
                0x00015d56       0x40 c:/nxp/mcuxpressoide_11.1.0_3209/ide/plugins/com.nxp.mcuxpresso.tools.win32_11.1.0.201909161352/tools/bin/../lib/gcc/arm-none-eabi/8.3.1/../../../../arm-none-eabi/lib/thumb/v7-m/nofp\libcr_c.a(_deferredlazyseek.o)
                0x00015d56                _deferredlazyseek
 .text.__flsbuf
                0x00015d96      0x140 c:/nxp/mcuxpressoide_11.1.0_3209/ide/plugins/com.nxp.mcuxpresso.tools.win32_11.1.0.201909161352/tools/bin/../lib/gcc/arm-none-eabi/8.3.1/../../../../arm-none-eabi/lib/thumb/v7-m/nofp\libcr_c.a(_deferredlazyseek.o)
                0x00015d96                __flsbuf
 .text._fdopen  0x00015ed6       0x68 c:/nxp/mcuxpressoide_11.1.0_3209/ide/plugins/com.nxp.mcuxpresso.tools.win32_11.1.0.201909161352/tools/bin/../lib/gcc/arm-none-eabi/8.3.1/../../../../arm-none-eabi/lib/thumb/v7-m/nofp\libcr_c.a(_fdopen.o)
                0x00015ed6                _fdopen
 .text._fflush  0x00015f3e       0x52 c:/nxp/mcuxpressoide_11.1.0_3209/ide/plugins/com.nxp.mcuxpresso.tools.win32_11.1.0.201909161352/tools/bin/../lib/gcc/arm-none-eabi/8.3.1/../../../../arm-none-eabi/lib/thumb/v7-m/nofp\libcr_c.a(_fflush.o)
                0x00015f3e                _fflush
 .text._frexpl  0x00015f90       0x56 c:/nxp/mcuxpressoide_11.1.0_3209/ide/plugins/com.nxp.mcuxpresso.tools.win32_11.1.0.201909161352/tools/bin/../lib/gcc/arm-none-eabi/8.3.1/../../../../arm-none-eabi/lib/thumb/v7-m/nofp\libcr_c.a(_frexpl.o)
                0x00015f90                _frexpl
 *fill*         0x00015fe6        0x2 ff
 .text._ldexpl  0x00015fe8       0x48 c:/nxp/mcuxpressoide_11.1.0_3209/ide/plugins/com.nxp.mcuxpresso.tools.win32_11.1.0.201909161352/tools/bin/../lib/gcc/arm-none-eabi/8.3.1/../../../../arm-none-eabi/lib/thumb/v7-m/nofp\libcr_c.a(_ldexpl.o)
                0x00015fe8                _ldexpl
 .text._Cwritebuf
                0x00016030       0x6c c:/nxp/mcuxpressoide_11.1.0_3209/ide/plugins/com.nxp.mcuxpresso.tools.win32_11.1.0.201909161352/tools/bin/../lib/gcc/arm-none-eabi/8.3.1/../../../../arm-none-eabi/lib/thumb/v7-m/nofp\libcr_c.a(_writebuf.o)
                0x00016030                _Cwritebuf
 .text.malloc   0x0001609c       0xc8 c:/nxp/mcuxpressoide_11.1.0_3209/ide/plugins/com.nxp.mcuxpresso.tools.win32_11.1.0.201909161352/tools/bin/../lib/gcc/arm-none-eabi/8.3.1/../../../../arm-none-eabi/lib/thumb/v7-m/nofp\libcr_c.a(alloc.o)
                0x0001609c                malloc
 .text.free     0x00016164       0x30 c:/nxp/mcuxpressoide_11.1.0_3209/ide/plugins/com.nxp.mcuxpresso.tools.win32_11.1.0.201909161352/tools/bin/../lib/gcc/arm-none-eabi/8.3.1/../../../../arm-none-eabi/lib/thumb/v7-m/nofp\libcr_c.a(alloc.o)
                0x00016164                free
 .text._Csys_alloc
                0x00016194       0x20 c:/nxp/mcuxpressoide_11.1.0_3209/ide/plugins/com.nxp.mcuxpresso.tools.win32_11.1.0.201909161352/tools/bin/../lib/gcc/arm-none-eabi/8.3.1/../../../../arm-none-eabi/lib/thumb/v7-m/nofp\libcr_c.a(alloc.o)
                0x00016194                _Csys_alloc
 .text.fclose   0x000161b4       0x58 c:/nxp/mcuxpressoide_11.1.0_3209/ide/plugins/com.nxp.mcuxpresso.tools.win32_11.1.0.201909161352/tools/bin/../lib/gcc/arm-none-eabi/8.3.1/../../../../arm-none-eabi/lib/thumb/v7-m/nofp\libcr_c.a(fclose.o)
                0x000161b4                fclose
 .text.fflush   0x0001620c       0x44 c:/nxp/mcuxpressoide_11.1.0_3209/ide/plugins/com.nxp.mcuxpresso.tools.win32_11.1.0.201909161352/tools/bin/../lib/gcc/arm-none-eabi/8.3.1/../../../../arm-none-eabi/lib/thumb/v7-m/nofp\libcr_c.a(fflush.o)
                0x0001620c                fflush
 .text.fseek    0x00016250      0x100 c:/nxp/mcuxpressoide_11.1.0_3209/ide/plugins/com.nxp.mcuxpresso.tools.win32_11.1.0.201909161352/tools/bin/../lib/gcc/arm-none-eabi/8.3.1/../../../../arm-none-eabi/lib/thumb/v7-m/nofp\libcr_c.a(fseek.o)
                0x00016250                fseek
 .text.ftell    0x00016350       0x48 c:/nxp/mcuxpressoide_11.1.0_3209/ide/plugins/com.nxp.mcuxpresso.tools.win32_11.1.0.201909161352/tools/bin/../lib/gcc/arm-none-eabi/8.3.1/../../../../arm-none-eabi/lib/thumb/v7-m/nofp\libcr_c.a(ftell.o)
                0x00016350                ftell
 .text.remove   0x00016398       0x14 c:/nxp/mcuxpressoide_11.1.0_3209/ide/plugins/com.nxp.mcuxpresso.tools.win32_11.1.0.201909161352/tools/bin/../lib/gcc/arm-none-eabi/8.3.1/../../../../arm-none-eabi/lib/thumb/v7-m/nofp\libcr_c.a(remove.o)
                0x00016398                remove
 .text._sbrk    0x000163ac       0x3c c:/nxp/mcuxpressoide_11.1.0_3209/ide/plugins/com.nxp.mcuxpresso.tools.win32_11.1.0.201909161352/tools/bin/../lib/gcc/arm-none-eabi/8.3.1/../../../../arm-none-eabi/lib/thumb/v7-m/nofp\libcr_c.a(_cr_sbrk.o)
                0x000163ac                _sbrk
 .text._do_fflush
                0x000163e8       0x40 c:/nxp/mcuxpressoide_11.1.0_3209/ide/plugins/com.nxp.mcuxpresso.tools.win32_11.1.0.201909161352/tools/bin/../lib/gcc/arm-none-eabi/8.3.1/../../../../arm-none-eabi/lib/thumb/v7-m/nofp\libcr_c.a(_do_fflush.o)
                0x000163e8                _do_fflush
 .text.__aeabi_dmul
                0x00016428      0x10c c:/nxp/mcuxpressoide_11.1.0_3209/ide/plugins/com.nxp.mcuxpresso.tools.win32_11.1.0.201909161352/tools/bin/../lib/gcc/arm-none-eabi/8.3.1/thumb/v7-m/nofp\libcr_eabihelpers.a(double.o)
                0x00016428                __aeabi_dmul
 .text.__aeabi_ddiv
                0x00016534      0x140 c:/nxp/mcuxpressoide_11.1.0_3209/ide/plugins/com.nxp.mcuxpresso.tools.win32_11.1.0.201909161352/tools/bin/../lib/gcc/arm-none-eabi/8.3.1/thumb/v7-m/nofp\libcr_eabihelpers.a(double.o)
                0x00016534                __aeabi_ddiv
 .text.__aeabi_dsub
                0x00016674      0x1a8 c:/nxp/mcuxpressoide_11.1.0_3209/ide/plugins/com.nxp.mcuxpresso.tools.win32_11.1.0.201909161352/tools/bin/../lib/gcc/arm-none-eabi/8.3.1/thumb/v7-m/nofp\libcr_eabihelpers.a(double.o)
                0x00016674                __aeabi_dsub
 .text.__aeabi_dadd
                0x0001681c      0x108 c:/nxp/mcuxpressoide_11.1.0_3209/ide/plugins/com.nxp.mcuxpresso.tools.win32_11.1.0.201909161352/tools/bin/../lib/gcc/arm-none-eabi/8.3.1/thumb/v7-m/nofp\libcr_eabihelpers.a(double.o)
                0x0001681c                __aeabi_dadd
 .text.__aeabi_d2iz
                0x00016924       0x40 c:/nxp/mcuxpressoide_11.1.0_3209/ide/plugins/com.nxp.mcuxpresso.tools.win32_11.1.0.201909161352/tools/bin/../lib/gcc/arm-none-eabi/8.3.1/thumb/v7-m/nofp\libcr_eabihelpers.a(double.o)
                0x00016924                __aeabi_d2iz
 .text.__bhs_ui2d
                0x00016964       0x46 c:/nxp/mcuxpressoide_11.1.0_3209/ide/plugins/com.nxp.mcuxpresso.tools.win32_11.1.0.201909161352/tools/bin/../lib/gcc/arm-none-eabi/8.3.1/thumb/v7-m/nofp\libcr_eabihelpers.a(double.o)
                0x00016964                __bhs_ui2d
 .text.__aeabi_i2d
                0x000169aa       0x12 c:/nxp/mcuxpressoide_11.1.0_3209/ide/plugins/com.nxp.mcuxpresso.tools.win32_11.1.0.201909161352/tools/bin/../lib/gcc/arm-none-eabi/8.3.1/thumb/v7-m/nofp\libcr_eabihelpers.a(double.o)
                0x000169aa                __aeabi_i2d
 .text.__aeabi_dcmpeq
                0x000169bc       0x2a c:/nxp/mcuxpressoide_11.1.0_3209/ide/plugins/com.nxp.mcuxpresso.tools.win32_11.1.0.201909161352/tools/bin/../lib/gcc/arm-none-eabi/8.3.1/thumb/v7-m/nofp\libcr_eabihelpers.a(double.o)
                0x000169bc                __aeabi_dcmpeq
 .text.__aeabi_dcmplt
                0x000169e6       0x52 c:/nxp/mcuxpressoide_11.1.0_3209/ide/plugins/com.nxp.mcuxpresso.tools.win32_11.1.0.201909161352/tools/bin/../lib/gcc/arm-none-eabi/8.3.1/thumb/v7-m/nofp\libcr_eabihelpers.a(double.o)
                0x000169e6                __aeabi_dcmplt
 .text.__aeabi_dcmple
                0x00016a38       0x52 c:/nxp/mcuxpressoide_11.1.0_3209/ide/plugins/com.nxp.mcuxpresso.tools.win32_11.1.0.201909161352/tools/bin/../lib/gcc/arm-none-eabi/8.3.1/thumb/v7-m/nofp\libcr_eabihelpers.a(double.o)
                0x00016a38                __aeabi_dcmple
 .text.__aeabi_dcmpge
                0x00016a8a       0x58 c:/nxp/mcuxpressoide_11.1.0_3209/ide/plugins/com.nxp.mcuxpresso.tools.win32_11.1.0.201909161352/tools/bin/../lib/gcc/arm-none-eabi/8.3.1/thumb/v7-m/nofp\libcr_eabihelpers.a(double.o)
                0x00016a8a                __aeabi_dcmpge
 .text.__aeabi_memcpy
                0x00016ae2       0x34 c:/nxp/mcuxpressoide_11.1.0_3209/ide/plugins/com.nxp.mcuxpresso.tools.win32_11.1.0.201909161352/tools/bin/../lib/gcc/arm-none-eabi/8.3.1/thumb/v7-m/nofp\libcr_eabihelpers.a(memcpy.o)
                0x00016ae2                __aeabi_memcpy
                0x00016aec                __aeabi_memcpy8
                0x00016aec                __aeabi_memcpy4
 .text.__aeabi_memmove
                0x00016b16       0x1c c:/nxp/mcuxpressoide_11.1.0_3209/ide/plugins/com.nxp.mcuxpresso.tools.win32_11.1.0.201909161352/tools/bin/../lib/gcc/arm-none-eabi/8.3.1/thumb/v7-m/nofp\libcr_eabihelpers.a(memcpy.o)
                0x00016b16                __aeabi_memmove
                0x00016b16                __aeabi_memmove4
                0x00016b16                __aeabi_memmove8
 .text.__aeabi_memset_lowlevel
                0x00016b32       0x32 c:/nxp/mcuxpressoide_11.1.0_3209/ide/plugins/com.nxp.mcuxpresso.tools.win32_11.1.0.201909161352/tools/bin/../lib/gcc/arm-none-eabi/8.3.1/thumb/v7-m/nofp\libcr_eabihelpers.a(memcpy.o)
                0x00016b32                __aeabi_lowlevel_memset
 .text.__sys_appexit
                0x00016b64        0x2 c:/nxp/mcuxpressoide_11.1.0_3209/ide/plugins/com.nxp.mcuxpresso.tools.win32_11.1.0.201909161352/tools/bin/../lib/gcc/arm-none-eabi/8.3.1/../../../../arm-none-eabi/lib/thumb/v7-m/nofp\libcr_nohost.a(__sys_appexit.o)
                0x00016b64                __sys_appexit
                0x00016b64                __exit
 .text.__sys_close
                0x00016b66        0x6 c:/nxp/mcuxpressoide_11.1.0_3209/ide/plugins/com.nxp.mcuxpresso.tools.win32_11.1.0.201909161352/tools/bin/../lib/gcc/arm-none-eabi/8.3.1/../../../../arm-none-eabi/lib/thumb/v7-m/nofp\libcr_nohost.a(__sys_close.o)
                0x00016b66                __sys_close
 .text.__sys_flen
                0x00016b6c        0x6 c:/nxp/mcuxpressoide_11.1.0_3209/ide/plugins/com.nxp.mcuxpresso.tools.win32_11.1.0.201909161352/tools/bin/../lib/gcc/arm-none-eabi/8.3.1/../../../../arm-none-eabi/lib/thumb/v7-m/nofp\libcr_nohost.a(__sys_flen.o)
                0x00016b6c                __sys_flen
 .text.__sys_istty
                0x00016b72        0x6 c:/nxp/mcuxpressoide_11.1.0_3209/ide/plugins/com.nxp.mcuxpresso.tools.win32_11.1.0.201909161352/tools/bin/../lib/gcc/arm-none-eabi/8.3.1/../../../../arm-none-eabi/lib/thumb/v7-m/nofp\libcr_nohost.a(__sys_istty.o)
                0x00016b72                __sys_istty
 .text.__sys_remove
                0x00016b78        0x6 c:/nxp/mcuxpressoide_11.1.0_3209/ide/plugins/com.nxp.mcuxpresso.tools.win32_11.1.0.201909161352/tools/bin/../lib/gcc/arm-none-eabi/8.3.1/../../../../arm-none-eabi/lib/thumb/v7-m/nofp\libcr_nohost.a(__sys_remove.o)
                0x00016b78                __sys_remove
 .text.__sys_seek
                0x00016b7e        0x6 c:/nxp/mcuxpressoide_11.1.0_3209/ide/plugins/com.nxp.mcuxpresso.tools.win32_11.1.0.201909161352/tools/bin/../lib/gcc/arm-none-eabi/8.3.1/../../../../arm-none-eabi/lib/thumb/v7-m/nofp\libcr_nohost.a(__sys_seek.o)
                0x00016b7e                __sys_seek
 .text.__sys_tmpnam
                0x00016b84        0x6 c:/nxp/mcuxpressoide_11.1.0_3209/ide/plugins/com.nxp.mcuxpresso.tools.win32_11.1.0.201909161352/tools/bin/../lib/gcc/arm-none-eabi/8.3.1/../../../../arm-none-eabi/lib/thumb/v7-m/nofp\libcr_nohost.a(__sys_tmpnam.o)
                0x00016b84                __sys_tmpnam
 */tasks.o(.rodata*)
 *fill*         0x00016b8a        0x2 ff
 .rodata.vTaskStartScheduler.str1.4
                0x00016b8c        0x5 ./freertos/tasks.o
 *fill*         0x00016b91        0x3 ff
 .rodata        0x00016b94       0x10 ./freertos/tasks.o
                0x00016b94                FreeRTOSDebugConfig
 *(.rodata .rodata.* .constdata .constdata.*)
 .rodata.EnetClkDiv
                0x00016ba4        0xf ./mcu/src/enet_17xx_40xx.o
 *fill*         0x00016bb3        0x1 ff
 .rodata.xTimerCreateTimerTask.str1.4
                0x00016bb4        0x8 ./freertos/timers.o
 .rodata.prvCheckForValidListAndQueue.str1.4
                0x00016bbc        0x5 ./freertos/timers.o
 *fill*         0x00016bc1        0x3 ff
 .rodata.OscRateIn
                0x00016bc4        0x4 ./board/src/board.o
                0x00016bc4                OscRateIn
 .rodata.ledports
                0x00016bc8        0x2 ./board/src/board.o
 *fill*         0x00016bca        0x2 ff
 .rodata.ledpins
                0x00016bcc        0x2 ./board/src/board.o
 *fill*         0x00016bce        0x2 ff
 .rodata.pinmuxing
                0x00016bd0       0x9c ./board/src/board_sysinit.o
 .rodata.IS42S32800D_config
                0x00016c6c       0x74 ./board/src/board_sysinit.o
 .rodata.SST39VF320_config
                0x00016ce0       0x20 ./board/src/board_sysinit.o
 .rodata.K9F1G_config
                0x00016d00       0x20 ./board/src/board_sysinit.o
 .rodata.vApplicationIPNetworkEventHook.str1.4
                0x00016d20       0xa8 ./app/src/App.o
                                 0xbc (size before relaxing)
 .rodata.xApplicationDHCPHook.str1.4
                0x00016dc8       0x33 ./app/src/App.o
 *fill*         0x00016dfb        0x1 ff
 .rodata.pcApplicationHostnameHook.str1.4
                0x00016dfc        0x9 ./app/src/App.o
 *fill*         0x00016e05        0x3 ff
 .rodata.xApplicationDNSQueryHook.str1.4
                0x00016e08        0xd ./app/src/App.o
 *fill*         0x00016e15        0x3 ff
 .rodata.http_send.str1.4
                0x00016e18       0x8d ./app/src/App.o
 *fill*         0x00016ea5        0x3 ff
 .rodata.TCP_log.str1.4
                0x00016ea8      0x11f ./app/src/App.o
 *fill*         0x00016fc7        0x1 ff
 .rodata.insert_json_body_TAGO.str1.4
                0x00016fc8       0x12 ./app/src/App.o
 *fill*         0x00016fda        0x2 ff
 .rodata.make_frame_IOT.str1.4
                0x00016fdc       0x98 ./app/src/App.o
 .rodata.MainTask.str1.4
                0x00017074       0x12 ./app/src/App.o
 *fill*         0x00017086        0x2 ff
 .rodata.task_IOT.str1.4
                0x00017088       0x4f ./app/src/App.o
 *fill*         0x000170d7        0x1 ff
 .rodata.__FUNCTION__.9757
                0x000170d8        0x9 ./app/src/App.o
 *fill*         0x000170e1        0x3 ff
 .rodata._json_print_virgula.str1.4
                0x000170e4        0x2 ./JSON/src/JSON.o
 *fill*         0x000170e6        0x2 ff
 .rodata.json_insertStr.str1.4
                0x000170e8        0xa ./JSON/src/JSON.o
 .rodata.json_insertInt.str1.4
                0x000170f2        0xa ./JSON/src/JSON.o
                                  0x3 (size before relaxing)
 *fill*         0x000170f2        0x2 ff
 .rodata.json_openContainer.str1.4
                0x000170f4        0x2 ./JSON/src/JSON.o
 *fill*         0x000170f6        0x2 ff
 .rodata.json_openMatrix.str1.4
                0x000170f8        0x2 ./JSON/src/JSON.o
 *fill*         0x000170fa        0x2 ff
 .rodata.json_closeMatrix.str1.4
                0x000170fc        0x2 ./JSON/src/JSON.o
 *fill*         0x000170fe        0x2 ff
 .rodata.json_close.str1.4
                0x00017100        0x2 ./JSON/src/JSON.o
 *fill*         0x00017102        0x2 ff
 .rodata.xNetworkInterfaceInitialise.str1.4
                0x00017104       0x1b ./FreeRTOS-Plus-TCP/portable/NetworkInterface/LPC17xx/NetworkInterface.o
 *fill*         0x0001711f        0x1 ff
 .rodata.xNetworkInterfaceOutput.str1.4
                0x00017120        0xf ./FreeRTOS-Plus-TCP/portable/NetworkInterface/LPC17xx/NetworkInterface.o
 *fill*         0x0001712f        0x1 ff
 .rodata.xBufferAllocFixedSize
                0x00017130        0x4 ./FreeRTOS-Plus-TCP/portable/BufferManagement/BufferAllocation_2.o
                0x00017130                xBufferAllocFixedSize
 .rodata.xNetworkBuffersInitialise.str1.4
                0x00017134        0xa ./FreeRTOS-Plus-TCP/portable/BufferManagement/BufferAllocation_2.o
 *fill*         0x0001713e        0x2 ff
 .rodata.xDefaultPartARPPacketHeader
                0x00017140       0x26 ./FreeRTOS-Plus-TCP/FreeRTOS_ARP.o
 *fill*         0x00017166        0x2 ff
 .rodata.vDHCPProcess.str1.4
                0x00017168       0x11 ./FreeRTOS-Plus-TCP/FreeRTOS_DHCP.o
                                 0x1e (size before relaxing)
 *fill*         0x00017179        0x3 ff
 .rodata.prvProcessDHCPReplies.str1.4
                0x0001717c       0x27 ./FreeRTOS-Plus-TCP/FreeRTOS_DHCP.o
 *fill*         0x000171a3        0x1 ff
 .rodata.__FUNCTION__.9842
                0x000171a4        0xd ./FreeRTOS-Plus-TCP/FreeRTOS_DHCP.o
 *fill*         0x000171b1        0x3 ff
 .rodata.__FUNCTION__.9874
                0x000171b4       0x16 ./FreeRTOS-Plus-TCP/FreeRTOS_DHCP.o
 *fill*         0x000171ca        0x2 ff
 .rodata.ucDHCPRequestOptions.9902
                0x000171cc       0x18 ./FreeRTOS-Plus-TCP/FreeRTOS_DHCP.o
 .rodata.ucDHCPDiscoverOptions.9909
                0x000171e4       0x11 ./FreeRTOS-Plus-TCP/FreeRTOS_DHCP.o
 *fill*         0x000171f5        0x3 ff
 .rodata.xDefaultPartDNSHeader.9864
                0x000171f8        0xc ./FreeRTOS-Plus-TCP/FreeRTOS_DNS.o
 .rodata.xBroadcastMACAddress
                0x00017204        0x6 ./FreeRTOS-Plus-TCP/FreeRTOS_IP.o
                0x00017204                xBroadcastMACAddress
 *fill*         0x0001720a        0x2 ff
 .rodata.FreeRTOS_IPInit.str1.4
                0x0001720c       0x10 ./FreeRTOS-Plus-TCP/FreeRTOS_IP.o
 .rodata.xNetworkDownEvent.9907
                0x0001721c        0x8 ./FreeRTOS-Plus-TCP/FreeRTOS_IP.o
 .rodata.FreeRTOS_recvfrom.str1.4
                0x00017224       0x28 ./FreeRTOS-Plus-TCP/FreeRTOS_Sockets.o
                                 0x32 (size before relaxing)
 .rodata.vTCPNetStat.str1.4
                0x0001724c       0xe3 ./FreeRTOS-Plus-TCP/FreeRTOS_Sockets.o
 *fill*         0x0001732f        0x1 ff
 .rodata.__FUNCTION__.9851
                0x00017330       0x12 ./FreeRTOS-Plus-TCP/FreeRTOS_Sockets.o
 *fill*         0x00017342        0x2 ff
 .rodata.str1.4
                0x00017344       0xa1 ./FreeRTOS-Plus-TCP/FreeRTOS_TCP_IP.o
 *fill*         0x000173e5        0x3 ff
 .rodata.prvHandleListen.str1.4
                0x000173e8       0x34 ./FreeRTOS-Plus-TCP/FreeRTOS_TCP_IP.o
                                 0x36 (size before relaxing)
 .rodata.fp_display.str1.1
                0x0001741c       0x34 c:/nxp/mcuxpressoide_11.1.0_3209/ide/plugins/com.nxp.mcuxpresso.tools.win32_11.1.0.201909161352/tools/bin/../lib/gcc/arm-none-eabi/8.3.1/../../../../arm-none-eabi/lib/thumb/v7-m/nofp\libcr_c.a(fpprintf.o)
                                 0x35 (size before relaxing)
 .rodata._initio.str1.1
                0x00017450        0x4 c:/nxp/mcuxpressoide_11.1.0_3209/ide/plugins/com.nxp.mcuxpresso.tools.win32_11.1.0.201909161352/tools/bin/../lib/gcc/arm-none-eabi/8.3.1/../../../../arm-none-eabi/lib/thumb/v7-m/nofp\libcr_c.a(initio.o)
 .rodata.__vfprintf.str1.1
                0x00017454       0x31 c:/nxp/mcuxpressoide_11.1.0_3209/ide/plugins/com.nxp.mcuxpresso.tools.win32_11.1.0.201909161352/tools/bin/../lib/gcc/arm-none-eabi/8.3.1/../../../../arm-none-eabi/lib/thumb/v7-m/nofp\libcr_c.a(printf.o)
                                 0x38 (size before relaxing)
 .rodata._Csys_alloc.str1.1
                0x00017485       0x18 c:/nxp/mcuxpressoide_11.1.0_3209/ide/plugins/com.nxp.mcuxpresso.tools.win32_11.1.0.201909161352/tools/bin/../lib/gcc/arm-none-eabi/8.3.1/../../../../arm-none-eabi/lib/thumb/v7-m/nofp\libcr_c.a(alloc.o)
 *fill*         0x0001749d        0x3 ff
 .rodata.__num_Ciob_streams
                0x000174a0        0x4 c:/nxp/mcuxpressoide_11.1.0_3209/ide/plugins/com.nxp.mcuxpresso.tools.win32_11.1.0.201909161352/tools/bin/../lib/gcc/arm-none-eabi/8.3.1/../../../../arm-none-eabi/lib/thumb/v7-m/nofp\libcr_nohost.a(__ciob.o)
                0x000174a0                __num_Ciob_streams
                0x000174a4                . = ALIGN (0x4)

.glue_7         0x000174a4        0x0
 .glue_7        0x000174a4        0x0 linker stubs

.glue_7t        0x000174a4        0x0
 .glue_7t       0x000174a4        0x0 linker stubs

.vfp11_veneer   0x000174a4        0x0
 .vfp11_veneer  0x000174a4        0x0 linker stubs

.v4_bx          0x000174a4        0x0
 .v4_bx         0x000174a4        0x0 linker stubs

.iplt           0x000174a4        0x0
 .iplt          0x000174a4        0x0 ./utilities/src/lpc_phy_smsc87x0.o

.rel.dyn        0x000174a4        0x0
 .rel.iplt      0x000174a4        0x0 ./utilities/src/lpc_phy_smsc87x0.o

.ARM.extab
 *(.ARM.extab* .gnu.linkonce.armextab.*)
                0x000174a4                __exidx_start = .

.ARM.exidx
 *(.ARM.exidx* .gnu.linkonce.armexidx.*)
                0x000174a4                __exidx_end = .
                0x000174a4                _etext = .

.data_RAM2      0x20000000        0x0 load address 0x000174a4
 FILL mask 0xff
                [!provide]                PROVIDE (__start_data_RAM2 = .)
                [!provide]                PROVIDE (__start_data_RamPeriph32 = .)
 *(.ramfunc.$RAM2)
 *(.ramfunc.$RamPeriph32)
 *(.data.$RAM2)
 *(.data.$RamPeriph32)
 *(.data.$RAM2.*)
 *(.data.$RamPeriph32.*)
                0x20000000                . = ALIGN (0x4)
                [!provide]                PROVIDE (__end_data_RAM2 = .)
                [!provide]                PROVIDE (__end_data_RamPeriph32 = .)

.data_RAM3      0xa0000000        0x0 load address 0x000174a4
 FILL mask 0xff
                [!provide]                PROVIDE (__start_data_RAM3 = .)
                [!provide]                PROVIDE (__start_data_SDRAM32 = .)
 *(.ramfunc.$RAM3)
 *(.ramfunc.$SDRAM32)
 *(.data.$RAM3)
 *(.data.$SDRAM32)
 *(.data.$RAM3.*)
 *(.data.$SDRAM32.*)
                0xa0000000                . = ALIGN (0x4)
                [!provide]                PROVIDE (__end_data_RAM3 = .)
                [!provide]                PROVIDE (__end_data_SDRAM32 = .)

.uninit_RESERVED
                0x10000000        0x0
                0x10000000                _start_uninit_RESERVED = .
 *(.bss.$RESERVED*)
                0x10000000                . = ALIGN (0x4)
                0x10000000                _end_uninit_RESERVED = .

.data           0x10000000       0xd8 load address 0x000174a4
 FILL mask 0xff
                0x10000000                _data = .
                [!provide]                PROVIDE (__start_data_RAM = .)
                [!provide]                PROVIDE (__start_data_RamLoc64 = .)
 *(vtable)
 *(.ramfunc*)
 *(CodeQuickAccess)
 *(DataQuickAccess)
 *(RamFunction)
 *(.data*)
 .data.uxCriticalNesting
                0x10000000        0x4 ./freertos/portable/gcc/ARM_CM3/port.o
 .data.LED_MOD  0x10000004        0x6 ./board/src/board_pinout.o
                0x10000004                LED_MOD
 .data._f_DHCP  0x1000000a        0x1 ./app/src/App.o
                0x1000000a                _f_DHCP
 *fill*         0x1000000b        0x1 ff
 .data.server_port
                0x1000000c        0x2 ./app/src/App.o
                0x1000000c                server_port
 *fill*         0x1000000e        0x2 ff
 .data.IP_used  0x10000010       0x14 ./app/src/App.o
                0x10000010                IP_used
 .data.GATWAY_used
                0x10000024       0x14 ./app/src/App.o
                0x10000024                GATWAY_used
 .data.MASK_used
                0x10000038       0x14 ./app/src/App.o
                0x10000038                MASK_used
 .data.DNS_used
                0x1000004c       0x14 ./app/src/App.o
                0x1000004c                DNS_used
 .data.xHeapRegions
                0x10000060       0x10 ./app/src/App.o
 .data.ucMACAddress
                0x10000070        0x6 ./app/src/App.o
                0x10000070                ucMACAddress
 *fill*         0x10000076        0x2 ff
 .data.ucIPAddress
                0x10000078        0x4 ./app/src/App.o
                0x10000078                ucIPAddress
 .data.ucNetMask
                0x1000007c        0x4 ./app/src/App.o
                0x1000007c                ucNetMask
 .data.ucGatewayAddress
                0x10000080        0x4 ./app/src/App.o
                0x10000080                ucGatewayAddress
 .data.ucDNSServerAddress
                0x10000084        0x4 ./app/src/App.o
                0x10000084                ucDNSServerAddress
 .data.ulNextRand
                0x10000088        0x4 ./app/src/App.o
 .data.pcStateNames
                0x1000008c       0x34 ./FreeRTOS-Plus-TCP/FreeRTOS_TCP_IP.o
 .data.xDefaultPartUDPPacketHeader
                0x100000c0       0x18 ./FreeRTOS-Plus-TCP/FreeRTOS_UDP_IP.o
                0x100000c0                xDefaultPartUDPPacketHeader
                0x100000d8                . = ALIGN (0x4)
                0x100000d8                _edata = .
                [!provide]                PROVIDE (__end_data_RAM = .)
                [!provide]                PROVIDE (__end_data_RamLoc64 = .)

.igot.plt       0x100000d8        0x0 load address 0x0001757c
 .igot.plt      0x100000d8        0x0 ./utilities/src/lpc_phy_smsc87x0.o

.bss_RAM2       0x20000000     0x1894
                [!provide]                PROVIDE (__start_bss_RAM2 = .)
                [!provide]                PROVIDE (__start_bss_RamPeriph32 = .)
 *(.bss.$RAM2)
 .bss.$RAM2     0x20000000     0x1870 ./FreeRTOS-Plus-TCP/portable/NetworkInterface/LPC17xx/NetworkInterface.o
                0x20000000                VacEnetData
                0x20000070                EnetRxBuffer
 *(.bss.$RamPeriph32)
 .bss.$RamPeriph32
                0x20001870       0x24 ./FreeRTOS-Plus-TCP/FreeRTOS_DHCP.o
 *(.bss.$RAM2.*)
 *(.bss.$RamPeriph32.*)
                0x20001894                . = ALIGN ((. != 0x0)?0x4:0x1)
                [!provide]                PROVIDE (__end_bss_RAM2 = .)
                [!provide]                PROVIDE (__end_bss_RamPeriph32 = .)

.bss_RAM3       0xa0000000        0x0
                [!provide]                PROVIDE (__start_bss_RAM3 = .)
                [!provide]                PROVIDE (__start_bss_SDRAM32 = .)
 *(.bss.$RAM3)
 *(.bss.$SDRAM32)
 *(.bss.$RAM3.*)
 *(.bss.$SDRAM32.*)
                0xa0000000                . = ALIGN ((. != 0x0)?0x4:0x1)
                [!provide]                PROVIDE (__end_bss_RAM3 = .)
                [!provide]                PROVIDE (__end_bss_SDRAM32 = .)

.bss            0x100000d8      0x8a8
                0x100000d8                _bss = .
                [!provide]                PROVIDE (__start_bss_RAM = .)
                [!provide]                PROVIDE (__start_bss_RamLoc64 = .)
 *(.bss*)
 .bss.physts    0x100000d8        0x4 ./utilities/src/lpc_phy_smsc87x0.o
 .bss.olddphysts
                0x100000dc        0x4 ./utilities/src/lpc_phy_smsc87x0.o
 .bss.phyustate
                0x100000e0        0x4 ./utilities/src/lpc_phy_smsc87x0.o
 .bss.pDelayMs  0x100000e4        0x4 ./utilities/src/lpc_phy_smsc87x0.o
 .bss.sts.8205  0x100000e8        0x2 ./utilities/src/lpc_phy_smsc87x0.o
 *fill*         0x100000ea        0x2 
 .bss.phyAddr   0x100000ec        0x4 ./mcu/src/enet_17xx_40xx.o
 .bss.xStart    0x100000f0        0x8 ./freertos/portable/heap_5.o
 .bss.pxEnd     0x100000f8        0x4 ./freertos/portable/heap_5.o
 .bss.xFreeBytesRemaining
                0x100000fc        0x4 ./freertos/portable/heap_5.o
 .bss.xMinimumEverFreeBytesRemaining
                0x10000100        0x4 ./freertos/portable/heap_5.o
 .bss.xBlockAllocatedBit
                0x10000104        0x4 ./freertos/portable/heap_5.o
 .bss.pxCurrentTCB
                0x10000108        0x4 ./freertos/tasks.o
                0x10000108                pxCurrentTCB
 .bss.pxReadyTasksLists
                0x1000010c      0x12c ./freertos/tasks.o
 .bss.xDelayedTaskList1
                0x10000238       0x14 ./freertos/tasks.o
 .bss.xDelayedTaskList2
                0x1000024c       0x14 ./freertos/tasks.o
 .bss.pxDelayedTaskList
                0x10000260        0x4 ./freertos/tasks.o
 .bss.pxOverflowDelayedTaskList
                0x10000264        0x4 ./freertos/tasks.o
 .bss.xPendingReadyList
                0x10000268       0x14 ./freertos/tasks.o
 .bss.xTasksWaitingTermination
                0x1000027c       0x14 ./freertos/tasks.o
 .bss.uxDeletedTasksWaitingCleanUp
                0x10000290        0x4 ./freertos/tasks.o
 .bss.xSuspendedTaskList
                0x10000294       0x14 ./freertos/tasks.o
 .bss.uxCurrentNumberOfTasks
                0x100002a8        0x4 ./freertos/tasks.o
 .bss.xTickCount
                0x100002ac        0x4 ./freertos/tasks.o
 .bss.uxTopReadyPriority
                0x100002b0        0x4 ./freertos/tasks.o
 .bss.xSchedulerRunning
                0x100002b4        0x4 ./freertos/tasks.o
 .bss.uxPendedTicks
                0x100002b8        0x4 ./freertos/tasks.o
 .bss.xYieldPending
                0x100002bc        0x4 ./freertos/tasks.o
 .bss.xNumOfOverflows
                0x100002c0        0x4 ./freertos/tasks.o
 .bss.uxTaskNumber
                0x100002c4        0x4 ./freertos/tasks.o
 .bss.xNextTaskUnblockTime
                0x100002c8        0x4 ./freertos/tasks.o
 .bss.xIdleTaskHandle
                0x100002cc        0x4 ./freertos/tasks.o
 .bss.uxSchedulerSuspended
                0x100002d0        0x4 ./freertos/tasks.o
 .bss.xActiveTimerList1
                0x100002d4       0x14 ./freertos/timers.o
 .bss.xActiveTimerList2
                0x100002e8       0x14 ./freertos/timers.o
 .bss.pxCurrentTimerList
                0x100002fc        0x4 ./freertos/timers.o
 .bss.pxOverflowTimerList
                0x10000300        0x4 ./freertos/timers.o
 .bss.xTimerQueue
                0x10000304        0x4 ./freertos/timers.o
 .bss.xTimerTaskHandle
                0x10000308        0x4 ./freertos/timers.o
 .bss.xLastTime.8825
                0x1000030c        0x4 ./freertos/timers.o
 .bss._c_ETH_TIMER
                0x10000310        0x1 ./app/src/App.o
                0x10000310                _c_ETH_TIMER
 .bss.FreeRTOS_TCP_Init
                0x10000311        0x1 ./app/src/App.o
                0x10000311                FreeRTOS_TCP_Init
 .bss._c_ETH_Tempo_resposta
                0x10000312        0x2 ./app/src/App.o
                0x10000312                _c_ETH_Tempo_resposta
 .bss.IOT_TIME_ERROR
                0x10000314        0x2 ./app/src/App.o
                0x10000314                IOT_TIME_ERROR
 .bss.IOT_SENDED
                0x10000316        0x2 ./app/src/App.o
                0x10000316                IOT_SENDED
 .bss.IOT_ERROR
                0x10000318        0x1 ./app/src/App.o
                0x10000318                IOT_ERROR
 *fill*         0x10000319        0x1 
 .bss.IOT_WAIT_CLOSE_ALL_CONNECTIONS
                0x1000031a        0x2 ./app/src/App.o
                0x1000031a                IOT_WAIT_CLOSE_ALL_CONNECTIONS
 .bss.IOT_LINE_PASS
                0x1000031c        0x1 ./app/src/App.o
                0x1000031c                IOT_LINE_PASS
 .bss._f_send_tcp_log
                0x1000031d        0x1 ./app/src/App.o
                0x1000031d                _f_send_tcp_log
 *fill*         0x1000031e        0x2 
 .bss.xTasksAlreadyCreated.9583
                0x10000320        0x4 ./app/src/App.o
 .bss.json_sub  0x10000324        0x1 ./JSON/src/JSON.o
                0x10000324                json_sub
 .bss.json_print_virgula
                0x10000325        0x1 ./JSON/src/JSON.o
                0x10000325                json_print_virgula
 .bss.configUSE_RMII
                0x10000326        0x1 ./FreeRTOS-Plus-TCP/portable/NetworkInterface/LPC17xx/NetworkInterface.o
                0x10000326                configUSE_RMII
 *fill*         0x10000327        0x1 
 .bss.EthernetRxSem
                0x10000328        0x4 ./FreeRTOS-Plus-TCP/portable/NetworkInterface/LPC17xx/NetworkInterface.o
 .bss.EthernetTxDoneSem
                0x1000032c        0x4 ./FreeRTOS-Plus-TCP/portable/NetworkInterface/LPC17xx/NetworkInterface.o
 .bss.LinkUp    0x10000330        0x4 ./FreeRTOS-Plus-TCP/portable/NetworkInterface/LPC17xx/NetworkInterface.o
 .bss.HwInitialised.9860
                0x10000334        0x1 ./FreeRTOS-Plus-TCP/portable/NetworkInterface/LPC17xx/NetworkInterface.o
 .bss.RxTaskCreated.9859
                0x10000335        0x1 ./FreeRTOS-Plus-TCP/portable/NetworkInterface/LPC17xx/NetworkInterface.o
 *fill*         0x10000336        0x2 
 .bss.xNetworkBufferSemaphore
                0x10000338        0x4 ./FreeRTOS-Plus-TCP/portable/BufferManagement/BufferAllocation_2.o
 .bss.xARPCache
                0x1000033c       0x48 ./FreeRTOS-Plus-TCP/FreeRTOS_ARP.o
 .bss.xLastGratuitousARPTime
                0x10000384        0x4 ./FreeRTOS-Plus-TCP/FreeRTOS_ARP.o
 .bss.xDNSCache
                0x10000388       0x70 ./FreeRTOS-Plus-TCP/FreeRTOS_DNS.o
 .bss.xFreeEntry.9967
                0x100003f8        0x4 ./FreeRTOS-Plus-TCP/FreeRTOS_DNS.o
 .bss.xNetworkEventQueue
                0x100003fc        0x4 ./FreeRTOS-Plus-TCP/FreeRTOS_IP.o
                0x100003fc                xNetworkEventQueue
 .bss.usPacketIdentifier
                0x10000400        0x2 ./FreeRTOS-Plus-TCP/FreeRTOS_IP.o
                0x10000400                usPacketIdentifier
 *fill*         0x10000402        0x2 
 .bss.xNetworkAddressing
                0x10000404       0x14 ./FreeRTOS-Plus-TCP/FreeRTOS_IP.o
                0x10000404                xNetworkAddressing
 .bss.xDefaultAddressing
                0x10000418       0x14 ./FreeRTOS-Plus-TCP/FreeRTOS_IP.o
                0x10000418                xDefaultAddressing
 .bss.xNetworkDownEventPending
                0x1000042c        0x4 ./FreeRTOS-Plus-TCP/FreeRTOS_IP.o
 .bss.xIPTaskHandle
                0x10000430        0x4 ./FreeRTOS-Plus-TCP/FreeRTOS_IP.o
 .bss.xProcessedTCPMessage
                0x10000434        0x4 ./FreeRTOS-Plus-TCP/FreeRTOS_IP.o
 .bss.xNetworkUp
                0x10000438        0x4 ./FreeRTOS-Plus-TCP/FreeRTOS_IP.o
 .bss.xARPTimer
                0x1000043c       0x14 ./FreeRTOS-Plus-TCP/FreeRTOS_IP.o
 .bss.xDHCPTimer
                0x10000450       0x14 ./FreeRTOS-Plus-TCP/FreeRTOS_IP.o
 .bss.xTCPTimer
                0x10000464       0x14 ./FreeRTOS-Plus-TCP/FreeRTOS_IP.o
 .bss.xIPTaskInitialised
                0x10000478        0x4 ./FreeRTOS-Plus-TCP/FreeRTOS_IP.o
 .bss.xCallEventHook.9973
                0x1000047c        0x4 ./FreeRTOS-Plus-TCP/FreeRTOS_IP.o
 .bss.xLastTime.10093
                0x10000480        0x4 ./FreeRTOS-Plus-TCP/FreeRTOS_Sockets.o
 .bss.xTCPSegments
                0x10000484        0x4 ./FreeRTOS-Plus-TCP/FreeRTOS_TCP_WIN.o
 .bss.xSegmentList
                0x10000488       0x14 ./FreeRTOS-Plus-TCP/FreeRTOS_TCP_WIN.o
 .bss.xTCPWindowLoggingLevel
                0x1000049c        0x4 ./FreeRTOS-Plus-TCP/FreeRTOS_TCP_WIN.o
                0x1000049c                xTCPWindowLoggingLevel
 .bss.errno     0x100004a0        0x4 c:/nxp/mcuxpressoide_11.1.0_3209/ide/plugins/com.nxp.mcuxpresso.tools.win32_11.1.0.201909161352/tools/bin/../lib/gcc/arm-none-eabi/8.3.1/../../../../arm-none-eabi/lib/thumb/v7-m/nofp\libcr_c.a(errno.o)
                0x100004a0                errno
 .bss.__end_of_heap
                0x100004a4        0x4 c:/nxp/mcuxpressoide_11.1.0_3209/ide/plugins/com.nxp.mcuxpresso.tools.win32_11.1.0.201909161352/tools/bin/../lib/gcc/arm-none-eabi/8.3.1/../../../../arm-none-eabi/lib/thumb/v7-m/nofp\libcr_c.a(__init_alloc.o)
                0x100004a4                __end_of_heap
 .bss.__heaps   0x100004a8        0x4 c:/nxp/mcuxpressoide_11.1.0_3209/ide/plugins/com.nxp.mcuxpresso.tools.win32_11.1.0.201909161352/tools/bin/../lib/gcc/arm-none-eabi/8.3.1/../../../../arm-none-eabi/lib/thumb/v7-m/nofp\libcr_c.a(__init_alloc.o)
                0x100004a8                __heaps
 .bss.__Ciob    0x100004ac      0x1e0 c:/nxp/mcuxpressoide_11.1.0_3209/ide/plugins/com.nxp.mcuxpresso.tools.win32_11.1.0.201909161352/tools/bin/../lib/gcc/arm-none-eabi/8.3.1/../../../../arm-none-eabi/lib/thumb/v7-m/nofp\libcr_nohost.a(__ciob.o)
                0x100004ac                __Ciob
 *(COMMON)
 COMMON         0x1000068c        0x4 ./mcu/src/chip_17xx_40xx.o
                0x1000068c                SystemCoreClock
 COMMON         0x10000690       0x50 ./freertos/queue.o
                0x10000690                xQueueRegistry
 COMMON         0x100006e0      0x2a0 ./app/src/App.o
                0x100006e0                IOT_MANAGER
                0x10000708                IOT_Config
                0x10000740                buf_log_tcp
                0x10000940                ADDR
                0x10000944                json_variable
                0x10000958                json_value
                0x10000980                . = ALIGN (0x4)
                0x10000980                _ebss = .
                [!provide]                PROVIDE (__end_bss_RAM = .)
                [!provide]                PROVIDE (__end_bss_RamLoc64 = .)
                [!provide]                PROVIDE (end = .)

.noinit_RAM2    0x20001894      0x8b0
                [!provide]                PROVIDE (__start_noinit_RAM2 = .)
                [!provide]                PROVIDE (__start_noinit_RamPeriph32 = .)
 *(.noinit.$RAM2)
 *(.noinit.$RamPeriph32)
 .noinit.$RamPeriph32
                0x20001894      0x888 ./FreeRTOS-Plus-TCP/portable/BufferManagement/BufferAllocation_2.o
 .noinit.$RamPeriph32
                0x2000211c       0x28 ./FreeRTOS-Plus-TCP/FreeRTOS_Sockets.o
                0x2000211c                xBoundUDPSocketsList
                0x20002130                xBoundTCPSocketsList
 *(.noinit.$RAM2.*)
 *(.noinit.$RamPeriph32.*)
                0x20002144                . = ALIGN (0x4)
                [!provide]                PROVIDE (__end_noinit_RAM2 = .)
                [!provide]                PROVIDE (__end_noinit_RamPeriph32 = .)

.noinit_RAM3    0xa0000000   0x202064
                [!provide]                PROVIDE (__start_noinit_RAM3 = .)
                [!provide]                PROVIDE (__start_noinit_SDRAM32 = .)
 *(.TEMP_APP)
 .TEMP_APP      0xa0000000   0x202064 ./app/src/App.o
                0xa0000000                server_url
                0xa0000064                frame
                0xa0001064                json_body
                0xa0002064                sd_backup
                0xa0102064                response
 *(.VRAM)
 *(.GUI_RAM)
 *(.noinit.$RAM3)
 *(.noinit.$SDRAM32)
 *(.noinit.$RAM3.*)
 *(.noinit.$SDRAM32.*)
                0xa0202064                . = ALIGN (0x4)
                [!provide]                PROVIDE (__end_noinit_RAM3 = .)
                [!provide]                PROVIDE (__end_noinit_SDRAM32 = .)

.noinit         0x10000980     0xa000
                0x10000980                _noinit = .
                [!provide]                PROVIDE (__start_noinit_RAM = .)
                [!provide]                PROVIDE (__start_noinit_RamLoc64 = .)
 *(.noinit*)
 .noinit.$RamLoc64
                0x10000980     0xa000 ./app/src/App.o
                0x1000a980                . = ALIGN (0x4)
                0x1000a980                _end_noinit = .
                [!provide]                PROVIDE (__end_noinit_RAM = .)
                [!provide]                PROVIDE (__end_noinit_RamLoc64 = .)
                0x1000a980                PROVIDE (_pvHeapStart = DEFINED (__user_heap_base)?__user_heap_base:.)
                0x10010000                PROVIDE (_vStackTop = DEFINED (__user_stack_top)?__user_stack_top:(__top_RamLoc64 - 0x0))
                [!provide]                PROVIDE (__valid_user_code_checksum = (0x0 - ((((((_vStackTop + (ResetISR + 0x1)) + (NMI_Handler + 0x1)) + (HardFault_Handler + 0x1)) + (DEFINED (MemManage_Handler)?MemManage_Handler:0x0 + 0x1)) + (DEFINED (BusFault_Handler)?BusFault_Handler:0x0 + 0x1)) + (DEFINED (UsageFault_Handler)?UsageFault_Handler:0x0 + 0x1))))
                0x00006000                _image_start = LOADADDR (.text)
                0x0001757c                _image_end = (LOADADDR (.data) + SIZEOF (.data))
                0x0001157c                _image_size = (_image_end - _image_start)
OUTPUT(FreeRTOS+TCP_basic_.axf elf32-littlearm)

.debug_info     0x00000000    0x21811
 .debug_info    0x00000000      0xa32 ./utilities/src/lpc_phy_smsc87x0.o
 .debug_info    0x00000a32      0x686 ./mcu/src/chip_17xx_40xx.o
 .debug_info    0x000010b8      0xc68 ./mcu/src/clock_17xx_40xx.o
 .debug_info    0x00001d20      0xd5e ./mcu/src/emc_17xx_40xx.o
 .debug_info    0x00002a7e      0xcd7 ./mcu/src/enet_17xx_40xx.o
 .debug_info    0x00003755      0x24f ./mcu/src/iocon_17xx_40xx.o
 .debug_info    0x000039a4      0x7c0 ./mcu/src/rtc_17xx_40xx.o
 .debug_info    0x00004164      0x598 ./mcu/src/sysctl_17xx_40xx.o
 .debug_info    0x000046fc      0x57e ./mcu/src/sysinit_17xx_40xx.o
 .debug_info    0x00004c7a      0xeeb ./mcu/src/uart_17xx_40xx.o
 .debug_info    0x00005b65      0x6d4 ./freertos/portable/gcc/ARM_CM3/port.o
 .debug_info    0x00006239      0x75a ./freertos/portable/heap_5.o
 .debug_info    0x00006993      0xa97 ./freertos/event_groups.o
 .debug_info    0x0000742a      0x5cb ./freertos/list.o
 .debug_info    0x000079f5     0x1636 ./freertos/queue.o
 .debug_info    0x0000902b     0x1ef7 ./freertos/tasks.o
 .debug_info    0x0000af22      0xe6f ./freertos/timers.o
 .debug_info    0x0000bd91     0x1f03 ./board/src/board.o
 .debug_info    0x0000dc94      0x2d5 ./board/src/board_pinout.o
 .debug_info    0x0000df69      0xd5e ./board/src/board_sysinit.o
 .debug_info    0x0000ecc7       0x85 ./board/src/cr_redlib_heap_fix.o
 .debug_info    0x0000ed4c      0x276 ./board/src/cr_startup_lpc177x_8x.o
 .debug_info    0x0000efc2      0x3c6 ./board/src/sysinit.o
 .debug_info    0x0000f388     0x2156 ./app/src/App.o
 .debug_info    0x000114de      0x4fb ./JSON/src/JSON.o
 .debug_info    0x000119d9     0x19ae ./FreeRTOS-Plus-TCP/portable/NetworkInterface/LPC17xx/NetworkInterface.o
 .debug_info    0x00013387      0x9ac ./FreeRTOS-Plus-TCP/portable/BufferManagement/BufferAllocation_2.o
 .debug_info    0x00013d33      0xca6 ./FreeRTOS-Plus-TCP/FreeRTOS_ARP.o
 .debug_info    0x000149d9      0xd32 ./FreeRTOS-Plus-TCP/FreeRTOS_DHCP.o
 .debug_info    0x0001570b     0x1342 ./FreeRTOS-Plus-TCP/FreeRTOS_DNS.o
 .debug_info    0x00016a4d     0x24a4 ./FreeRTOS-Plus-TCP/FreeRTOS_IP.o
 .debug_info    0x00018ef1     0x2d6f ./FreeRTOS-Plus-TCP/FreeRTOS_Sockets.o
 .debug_info    0x0001bc60      0x9ae ./FreeRTOS-Plus-TCP/FreeRTOS_Stream_Buffer.o
 .debug_info    0x0001c60e     0x27f3 ./FreeRTOS-Plus-TCP/FreeRTOS_TCP_IP.o
 .debug_info    0x0001ee01     0x1601 ./FreeRTOS-Plus-TCP/FreeRTOS_TCP_WIN.o
 .debug_info    0x00020402     0x140f ./FreeRTOS-Plus-TCP/FreeRTOS_UDP_IP.o

.debug_abbrev   0x00000000     0x5622
 .debug_abbrev  0x00000000      0x1f3 ./utilities/src/lpc_phy_smsc87x0.o
 .debug_abbrev  0x000001f3      0x193 ./mcu/src/chip_17xx_40xx.o
 .debug_abbrev  0x00000386      0x311 ./mcu/src/clock_17xx_40xx.o
 .debug_abbrev  0x00000697      0x235 ./mcu/src/emc_17xx_40xx.o
 .debug_abbrev  0x000008cc      0x2aa ./mcu/src/enet_17xx_40xx.o
 .debug_abbrev  0x00000b76      0x144 ./mcu/src/iocon_17xx_40xx.o
 .debug_abbrev  0x00000cba      0x1cf ./mcu/src/rtc_17xx_40xx.o
 .debug_abbrev  0x00000e89      0x17e ./mcu/src/sysctl_17xx_40xx.o
 .debug_abbrev  0x00001007      0x1b0 ./mcu/src/sysinit_17xx_40xx.o
 .debug_abbrev  0x000011b7      0x341 ./mcu/src/uart_17xx_40xx.o
 .debug_abbrev  0x000014f8      0x298 ./freertos/portable/gcc/ARM_CM3/port.o
 .debug_abbrev  0x00001790      0x208 ./freertos/portable/heap_5.o
 .debug_abbrev  0x00001998      0x271 ./freertos/event_groups.o
 .debug_abbrev  0x00001c09      0x172 ./freertos/list.o
 .debug_abbrev  0x00001d7b      0x2f1 ./freertos/queue.o
 .debug_abbrev  0x0000206c      0x34b ./freertos/tasks.o
 .debug_abbrev  0x000023b7      0x27c ./freertos/timers.o
 .debug_abbrev  0x00002633      0x3d4 ./board/src/board.o
 .debug_abbrev  0x00002a07      0x106 ./board/src/board_pinout.o
 .debug_abbrev  0x00002b0d      0x291 ./board/src/board_sysinit.o
 .debug_abbrev  0x00002d9e       0x85 ./board/src/cr_redlib_heap_fix.o
 .debug_abbrev  0x00002e23      0x12a ./board/src/cr_startup_lpc177x_8x.o
 .debug_abbrev  0x00002f4d      0x127 ./board/src/sysinit.o
 .debug_abbrev  0x00003074      0x513 ./app/src/App.o
 .debug_abbrev  0x00003587      0x14a ./JSON/src/JSON.o
 .debug_abbrev  0x000036d1      0x383 ./FreeRTOS-Plus-TCP/portable/NetworkInterface/LPC17xx/NetworkInterface.o
 .debug_abbrev  0x00003a54      0x244 ./FreeRTOS-Plus-TCP/portable/BufferManagement/BufferAllocation_2.o
 .debug_abbrev  0x00003c98      0x244 ./FreeRTOS-Plus-TCP/FreeRTOS_ARP.o
 .debug_abbrev  0x00003edc      0x217 ./FreeRTOS-Plus-TCP/FreeRTOS_DHCP.o
 .debug_abbrev  0x000040f3      0x202 ./FreeRTOS-Plus-TCP/FreeRTOS_DNS.o
 .debug_abbrev  0x000042f5      0x3e6 ./FreeRTOS-Plus-TCP/FreeRTOS_IP.o
 .debug_abbrev  0x000046db      0x443 ./FreeRTOS-Plus-TCP/FreeRTOS_Sockets.o
 .debug_abbrev  0x00004b1e      0x1ce ./FreeRTOS-Plus-TCP/FreeRTOS_Stream_Buffer.o
 .debug_abbrev  0x00004cec      0x3c1 ./FreeRTOS-Plus-TCP/FreeRTOS_TCP_IP.o
 .debug_abbrev  0x000050ad      0x2e3 ./FreeRTOS-Plus-TCP/FreeRTOS_TCP_WIN.o
 .debug_abbrev  0x00005390      0x292 ./FreeRTOS-Plus-TCP/FreeRTOS_UDP_IP.o

.debug_aranges  0x00000000     0x18b8
 .debug_aranges
                0x00000000       0x48 ./utilities/src/lpc_phy_smsc87x0.o
 .debug_aranges
                0x00000048       0x30 ./mcu/src/chip_17xx_40xx.o
 .debug_aranges
                0x00000078      0x138 ./mcu/src/clock_17xx_40xx.o
 .debug_aranges
                0x000001b0       0x80 ./mcu/src/emc_17xx_40xx.o
 .debug_aranges
                0x00000230       0xa8 ./mcu/src/enet_17xx_40xx.o
 .debug_aranges
                0x000002d8       0x28 ./mcu/src/iocon_17xx_40xx.o
 .debug_aranges
                0x00000300       0x80 ./mcu/src/rtc_17xx_40xx.o
 .debug_aranges
                0x00000380       0x28 ./mcu/src/sysctl_17xx_40xx.o
 .debug_aranges
                0x000003a8       0x60 ./mcu/src/sysinit_17xx_40xx.o
 .debug_aranges
                0x00000408      0x120 ./mcu/src/uart_17xx_40xx.o
 .debug_aranges
                0x00000528       0x70 ./freertos/portable/gcc/ARM_CM3/port.o
 .debug_aranges
                0x00000598       0x48 ./freertos/portable/heap_5.o
 .debug_aranges
                0x000005e0       0x78 ./freertos/event_groups.o
 .debug_aranges
                0x00000658       0x40 ./freertos/list.o
 .debug_aranges
                0x00000698      0x130 ./freertos/queue.o
 .debug_aranges
                0x000007c8      0x1f0 ./freertos/tasks.o
 .debug_aranges
                0x000009b8       0xd0 ./freertos/timers.o
 .debug_aranges
                0x00000a88      0x1e8 ./board/src/board.o
 .debug_aranges
                0x00000c70       0x18 ./board/src/board_pinout.o
 .debug_aranges
                0x00000c88       0x50 ./board/src/board_sysinit.o
 .debug_aranges
                0x00000cd8       0x20 ./board/src/cr_redlib_heap_fix.o
 .debug_aranges
                0x00000cf8       0x80 ./board/src/cr_startup_lpc177x_8x.o
 .debug_aranges
                0x00000d78       0x20 ./board/src/sysinit.o
 .debug_aranges
                0x00000d98      0x168 ./app/src/App.o
 .debug_aranges
                0x00000f00       0x80 ./JSON/src/JSON.o
 .debug_aranges
                0x00000f80      0x108 ./FreeRTOS-Plus-TCP/portable/NetworkInterface/LPC17xx/NetworkInterface.o
 .debug_aranges
                0x00001088       0x58 ./FreeRTOS-Plus-TCP/portable/BufferManagement/BufferAllocation_2.o
 .debug_aranges
                0x000010e0       0x68 ./FreeRTOS-Plus-TCP/FreeRTOS_ARP.o
 .debug_aranges
                0x00001148       0x58 ./FreeRTOS-Plus-TCP/FreeRTOS_DHCP.o
 .debug_aranges
                0x000011a0       0x88 ./FreeRTOS-Plus-TCP/FreeRTOS_DNS.o
 .debug_aranges
                0x00001228      0x170 ./FreeRTOS-Plus-TCP/FreeRTOS_IP.o
 .debug_aranges
                0x00001398      0x210 ./FreeRTOS-Plus-TCP/FreeRTOS_Sockets.o
 .debug_aranges
                0x000015a8       0x58 ./FreeRTOS-Plus-TCP/FreeRTOS_Stream_Buffer.o
 .debug_aranges
                0x00001600      0x170 ./FreeRTOS-Plus-TCP/FreeRTOS_TCP_IP.o
 .debug_aranges
                0x00001770      0x120 ./FreeRTOS-Plus-TCP/FreeRTOS_TCP_WIN.o
 .debug_aranges
                0x00001890       0x28 ./FreeRTOS-Plus-TCP/FreeRTOS_UDP_IP.o

.debug_ranges   0x00000000     0x16d0
 .debug_ranges  0x00000000       0x38 ./utilities/src/lpc_phy_smsc87x0.o
 .debug_ranges  0x00000038       0x20 ./mcu/src/chip_17xx_40xx.o
 .debug_ranges  0x00000058      0x128 ./mcu/src/clock_17xx_40xx.o
 .debug_ranges  0x00000180       0x70 ./mcu/src/emc_17xx_40xx.o
 .debug_ranges  0x000001f0       0x98 ./mcu/src/enet_17xx_40xx.o
 .debug_ranges  0x00000288       0x18 ./mcu/src/iocon_17xx_40xx.o
 .debug_ranges  0x000002a0       0x70 ./mcu/src/rtc_17xx_40xx.o
 .debug_ranges  0x00000310       0x18 ./mcu/src/sysctl_17xx_40xx.o
 .debug_ranges  0x00000328       0x50 ./mcu/src/sysinit_17xx_40xx.o
 .debug_ranges  0x00000378      0x110 ./mcu/src/uart_17xx_40xx.o
 .debug_ranges  0x00000488       0x60 ./freertos/portable/gcc/ARM_CM3/port.o
 .debug_ranges  0x000004e8       0x38 ./freertos/portable/heap_5.o
 .debug_ranges  0x00000520       0x68 ./freertos/event_groups.o
 .debug_ranges  0x00000588       0x30 ./freertos/list.o
 .debug_ranges  0x000005b8      0x120 ./freertos/queue.o
 .debug_ranges  0x000006d8      0x1e0 ./freertos/tasks.o
 .debug_ranges  0x000008b8       0xc0 ./freertos/timers.o
 .debug_ranges  0x00000978      0x1d8 ./board/src/board.o
 .debug_ranges  0x00000b50       0x40 ./board/src/board_sysinit.o
 .debug_ranges  0x00000b90       0x10 ./board/src/cr_redlib_heap_fix.o
 .debug_ranges  0x00000ba0       0x70 ./board/src/cr_startup_lpc177x_8x.o
 .debug_ranges  0x00000c10       0x10 ./board/src/sysinit.o
 .debug_ranges  0x00000c20      0x158 ./app/src/App.o
 .debug_ranges  0x00000d78       0x70 ./JSON/src/JSON.o
 .debug_ranges  0x00000de8       0xf8 ./FreeRTOS-Plus-TCP/portable/NetworkInterface/LPC17xx/NetworkInterface.o
 .debug_ranges  0x00000ee0       0x48 ./FreeRTOS-Plus-TCP/portable/BufferManagement/BufferAllocation_2.o
 .debug_ranges  0x00000f28       0x58 ./FreeRTOS-Plus-TCP/FreeRTOS_ARP.o
 .debug_ranges  0x00000f80       0x48 ./FreeRTOS-Plus-TCP/FreeRTOS_DHCP.o
 .debug_ranges  0x00000fc8       0x78 ./FreeRTOS-Plus-TCP/FreeRTOS_DNS.o
 .debug_ranges  0x00001040      0x178 ./FreeRTOS-Plus-TCP/FreeRTOS_IP.o
 .debug_ranges  0x000011b8      0x230 ./FreeRTOS-Plus-TCP/FreeRTOS_Sockets.o
 .debug_ranges  0x000013e8       0x48 ./FreeRTOS-Plus-TCP/FreeRTOS_Stream_Buffer.o
 .debug_ranges  0x00001430      0x178 ./FreeRTOS-Plus-TCP/FreeRTOS_TCP_IP.o
 .debug_ranges  0x000015a8      0x110 ./FreeRTOS-Plus-TCP/FreeRTOS_TCP_WIN.o
 .debug_ranges  0x000016b8       0x18 ./FreeRTOS-Plus-TCP/FreeRTOS_UDP_IP.o

.debug_macro    0x00000000     0x8773
 .debug_macro   0x00000000      0x344 ./utilities/src/lpc_phy_smsc87x0.o
 .debug_macro   0x00000344       0x28 ./utilities/src/lpc_phy_smsc87x0.o
 .debug_macro   0x0000036c      0x203 ./mcu/src/chip_17xx_40xx.o
 .debug_macro   0x0000056f      0x203 ./mcu/src/clock_17xx_40xx.o
 .debug_macro   0x00000772      0x209 ./mcu/src/emc_17xx_40xx.o
 .debug_macro   0x0000097b      0x203 ./mcu/src/enet_17xx_40xx.o
 .debug_macro   0x00000b7e      0x203 ./mcu/src/iocon_17xx_40xx.o
 .debug_macro   0x00000d81      0x203 ./mcu/src/rtc_17xx_40xx.o
 .debug_macro   0x00000f84      0x203 ./mcu/src/sysctl_17xx_40xx.o
 .debug_macro   0x00001187      0x203 ./mcu/src/sysinit_17xx_40xx.o
 .debug_macro   0x0000138a      0x203 ./mcu/src/uart_17xx_40xx.o
 .debug_macro   0x0000158d      0x39f ./freertos/portable/gcc/ARM_CM3/port.o
 .debug_macro   0x0000192c       0x16 ./freertos/portable/gcc/ARM_CM3/port.o
 .debug_macro   0x00001942       0x11 ./freertos/portable/gcc/ARM_CM3/port.o
 .debug_macro   0x00001953       0x1c ./freertos/portable/gcc/ARM_CM3/port.o
 .debug_macro   0x0000196f      0x12d ./freertos/portable/gcc/ARM_CM3/port.o
 .debug_macro   0x00001a9c      0x15a ./freertos/portable/gcc/ARM_CM3/port.o
 .debug_macro   0x00001bf6       0xdd ./freertos/portable/gcc/ARM_CM3/port.o
 .debug_macro   0x00001cd3       0x1c ./freertos/portable/gcc/ARM_CM3/port.o
 .debug_macro   0x00001cef       0x26 ./freertos/portable/gcc/ARM_CM3/port.o
 .debug_macro   0x00001d15      0x4be ./freertos/portable/gcc/ARM_CM3/port.o
 .debug_macro   0x000021d3       0xb5 ./freertos/portable/gcc/ARM_CM3/port.o
 .debug_macro   0x00002288       0xaa ./freertos/portable/gcc/ARM_CM3/port.o
 .debug_macro   0x00002332      0x31e ./freertos/portable/heap_5.o
 .debug_macro   0x00002650       0x28 ./freertos/portable/heap_5.o
 .debug_macro   0x00002678      0x34a ./freertos/event_groups.o
 .debug_macro   0x000029c2       0x91 ./freertos/event_groups.o
 .debug_macro   0x00002a53      0x2ef ./freertos/list.o
 .debug_macro   0x00002d42      0x35c ./freertos/queue.o
 .debug_macro   0x0000309e       0x80 ./freertos/queue.o
 .debug_macro   0x0000311e      0x3c9 ./freertos/tasks.o
 .debug_macro   0x000034e7       0x10 ./freertos/tasks.o
 .debug_macro   0x000034f7       0x1c ./freertos/tasks.o
 .debug_macro   0x00003513      0x344 ./freertos/timers.o
 .debug_macro   0x00003857       0x97 ./freertos/timers.o
 .debug_macro   0x000038ee      0x3b3 ./board/src/board.o
 .debug_macro   0x00003ca1       0x12 ./board/src/board.o
 .debug_macro   0x00003cb3      0x21c ./board/src/board_pinout.o
 .debug_macro   0x00003ecf       0x22 ./board/src/board_pinout.o
 .debug_macro   0x00003ef1      0x286 ./board/src/board_sysinit.o
 .debug_macro   0x00004177       0x17 ./board/src/cr_redlib_heap_fix.o
 .debug_macro   0x0000418e       0x1d ./board/src/cr_startup_lpc177x_8x.o
 .debug_macro   0x000041ab      0x280 ./board/src/sysinit.o
 .debug_macro   0x0000442b      0x3d7 ./app/src/App.o
 .debug_macro   0x00004802       0xc4 ./app/src/App.o
 .debug_macro   0x000048c6       0x10 ./app/src/App.o
 .debug_macro   0x000048d6      0x1ed ./app/src/App.o
 .debug_macro   0x00004ac3      0x108 ./app/src/App.o
 .debug_macro   0x00004bcb       0xe4 ./app/src/App.o
 .debug_macro   0x00004caf       0xfc ./app/src/App.o
 .debug_macro   0x00004dab       0x64 ./app/src/App.o
 .debug_macro   0x00004e0f       0xcf ./app/src/App.o
 .debug_macro   0x00004ede       0x1c ./app/src/App.o
 .debug_macro   0x00004efa       0x16 ./app/src/App.o
 .debug_macro   0x00004f10       0x6d ./JSON/src/JSON.o
 .debug_macro   0x00004f7d       0xa0 ./JSON/src/JSON.o
 .debug_macro   0x0000501d      0x49a ./FreeRTOS-Plus-TCP/portable/NetworkInterface/LPC17xx/NetworkInterface.o
 .debug_macro   0x000054b7       0x7e ./FreeRTOS-Plus-TCP/portable/NetworkInterface/LPC17xx/NetworkInterface.o
 .debug_macro   0x00005535       0x10 ./FreeRTOS-Plus-TCP/portable/NetworkInterface/LPC17xx/NetworkInterface.o
 .debug_macro   0x00005545       0x35 ./FreeRTOS-Plus-TCP/portable/NetworkInterface/LPC17xx/NetworkInterface.o
 .debug_macro   0x0000557a       0x6d ./FreeRTOS-Plus-TCP/portable/NetworkInterface/LPC17xx/NetworkInterface.o
 .debug_macro   0x000055e7       0x82 ./FreeRTOS-Plus-TCP/portable/NetworkInterface/LPC17xx/NetworkInterface.o
 .debug_macro   0x00005669      0x473 ./FreeRTOS-Plus-TCP/portable/BufferManagement/BufferAllocation_2.o
 .debug_macro   0x00005adc      0x48f ./FreeRTOS-Plus-TCP/FreeRTOS_ARP.o
 .debug_macro   0x00005f6b       0x2d ./FreeRTOS-Plus-TCP/FreeRTOS_ARP.o
 .debug_macro   0x00005f98      0x571 ./FreeRTOS-Plus-TCP/FreeRTOS_DHCP.o
 .debug_macro   0x00006509      0x536 ./FreeRTOS-Plus-TCP/FreeRTOS_DNS.o
 .debug_macro   0x00006a3f       0x34 ./FreeRTOS-Plus-TCP/FreeRTOS_DNS.o
 .debug_macro   0x00006a73      0x512 ./FreeRTOS-Plus-TCP/FreeRTOS_IP.o
 .debug_macro   0x00006f85      0x4aa ./FreeRTOS-Plus-TCP/FreeRTOS_Sockets.o
 .debug_macro   0x0000742f       0x6a ./FreeRTOS-Plus-TCP/FreeRTOS_Sockets.o
 .debug_macro   0x00007499      0x457 ./FreeRTOS-Plus-TCP/FreeRTOS_Stream_Buffer.o
 .debug_macro   0x000078f0      0x54c ./FreeRTOS-Plus-TCP/FreeRTOS_TCP_IP.o
 .debug_macro   0x00007e3c      0x4a5 ./FreeRTOS-Plus-TCP/FreeRTOS_TCP_WIN.o
 .debug_macro   0x000082e1      0x492 ./FreeRTOS-Plus-TCP/FreeRTOS_UDP_IP.o

.debug_line     0x00000000    0x1a8ad
 .debug_line    0x00000000      0x78b ./utilities/src/lpc_phy_smsc87x0.o
 .debug_line    0x0000078b      0x537 ./mcu/src/chip_17xx_40xx.o
 .debug_line    0x00000cc2      0xa04 ./mcu/src/clock_17xx_40xx.o
 .debug_line    0x000016c6      0x82d ./mcu/src/emc_17xx_40xx.o
 .debug_line    0x00001ef3      0x7ac ./mcu/src/enet_17xx_40xx.o
 .debug_line    0x0000269f      0x543 ./mcu/src/iocon_17xx_40xx.o
 .debug_line    0x00002be2      0x7e2 ./mcu/src/rtc_17xx_40xx.o
 .debug_line    0x000033c4      0x513 ./mcu/src/sysctl_17xx_40xx.o
 .debug_line    0x000038d7      0x636 ./mcu/src/sysinit_17xx_40xx.o
 .debug_line    0x00003f0d      0xa9c ./mcu/src/uart_17xx_40xx.o
 .debug_line    0x000049a9      0x929 ./freertos/portable/gcc/ARM_CM3/port.o
 .debug_line    0x000052d2      0x9bf ./freertos/portable/heap_5.o
 .debug_line    0x00005c91      0xa8a ./freertos/event_groups.o
 .debug_line    0x0000671b      0x85b ./freertos/list.o
 .debug_line    0x00006f76     0x11bd ./freertos/queue.o
 .debug_line    0x00008133     0x18f4 ./freertos/tasks.o
 .debug_line    0x00009a27      0xc16 ./freertos/timers.o
 .debug_line    0x0000a63d      0xfd2 ./board/src/board.o
 .debug_line    0x0000b60f      0x525 ./board/src/board_pinout.o
 .debug_line    0x0000bb34      0x6f4 ./board/src/board_sysinit.o
 .debug_line    0x0000c228       0x62 ./board/src/cr_redlib_heap_fix.o
 .debug_line    0x0000c28a      0x166 ./board/src/cr_startup_lpc177x_8x.o
 .debug_line    0x0000c3f0      0x5f3 ./board/src/sysinit.o
 .debug_line    0x0000c9e3     0x13dd ./app/src/App.o
 .debug_line    0x0000ddc0      0x44b ./JSON/src/JSON.o
 .debug_line    0x0000e20b     0x10e6 ./FreeRTOS-Plus-TCP/portable/NetworkInterface/LPC17xx/NetworkInterface.o
 .debug_line    0x0000f2f1      0xbda ./FreeRTOS-Plus-TCP/portable/BufferManagement/BufferAllocation_2.o
 .debug_line    0x0000fecb      0xd6d ./FreeRTOS-Plus-TCP/FreeRTOS_ARP.o
 .debug_line    0x00010c38      0xe4a ./FreeRTOS-Plus-TCP/FreeRTOS_DHCP.o
 .debug_line    0x00011a82     0x1053 ./FreeRTOS-Plus-TCP/FreeRTOS_DNS.o
 .debug_line    0x00012ad5     0x1536 ./FreeRTOS-Plus-TCP/FreeRTOS_IP.o
 .debug_line    0x0001400b     0x1f9d ./FreeRTOS-Plus-TCP/FreeRTOS_Sockets.o
 .debug_line    0x00015fa8      0xb5e ./FreeRTOS-Plus-TCP/FreeRTOS_Stream_Buffer.o
 .debug_line    0x00016b06     0x1e64 ./FreeRTOS-Plus-TCP/FreeRTOS_TCP_IP.o
 .debug_line    0x0001896a     0x1404 ./FreeRTOS-Plus-TCP/FreeRTOS_TCP_WIN.o
 .debug_line    0x00019d6e      0xb3f ./FreeRTOS-Plus-TCP/FreeRTOS_UDP_IP.o

.debug_str      0x00000000    0x2b134
 .debug_str     0x00000000    0x1660f ./utilities/src/lpc_phy_smsc87x0.o
                              0x16784 (size before relaxing)
 .debug_str     0x0001660f      0x4e1 ./mcu/src/chip_17xx_40xx.o
                              0x15796 (size before relaxing)
 .debug_str     0x00016af0      0x6b2 ./mcu/src/clock_17xx_40xx.o
                              0x15c2d (size before relaxing)
 .debug_str     0x000171a2      0x58f ./mcu/src/emc_17xx_40xx.o
                              0x157da (size before relaxing)
 .debug_str     0x00017731      0x534 ./mcu/src/enet_17xx_40xx.o
                              0x15c40 (size before relaxing)
 .debug_str     0x00017c65       0x96 ./mcu/src/iocon_17xx_40xx.o
                              0x1512c (size before relaxing)
 .debug_str     0x00017cfb      0x26f ./mcu/src/rtc_17xx_40xx.o
                              0x156da (size before relaxing)
 .debug_str     0x00017f6a       0x8b ./mcu/src/sysctl_17xx_40xx.o
                              0x1552d (size before relaxing)
 .debug_str     0x00017ff5       0xde ./mcu/src/sysinit_17xx_40xx.o
                              0x15406 (size before relaxing)
 .debug_str     0x000180d3      0x42f ./mcu/src/uart_17xx_40xx.o
                              0x159c1 (size before relaxing)
 .debug_str     0x00018502     0x44bd ./freertos/portable/gcc/ARM_CM3/port.o
                              0x1a6de (size before relaxing)
 .debug_str     0x0001c9bf      0x308 ./freertos/portable/heap_5.o
                              0x1a338 (size before relaxing)
 .debug_str     0x0001ccc7      0xbfd ./freertos/event_groups.o
                              0x1ab18 (size before relaxing)
 .debug_str     0x0001d8c4       0x95 ./freertos/list.o
                              0x198f6 (size before relaxing)
 .debug_str     0x0001d959      0xf3b ./freertos/queue.o
                              0x1b153 (size before relaxing)
 .debug_str     0x0001e894     0x14a2 ./freertos/tasks.o
                              0x1bf76 (size before relaxing)
 .debug_str     0x0001fd36      0x4db ./freertos/timers.o
                              0x1b5b0 (size before relaxing)
 .debug_str     0x00020211     0x1164 ./board/src/board.o
                              0x177cf (size before relaxing)
 .debug_str     0x00021375       0xde ./board/src/board_pinout.o
                              0x1535c (size before relaxing)
 .debug_str     0x00021453      0x135 ./board/src/board_sysinit.o
                              0x16b8a (size before relaxing)
 .debug_str     0x00021588       0x71 ./board/src/cr_redlib_heap_fix.o
                               0x2ea2 (size before relaxing)
 .debug_str     0x000215f9      0x1b1 ./board/src/cr_startup_lpc177x_8x.o
                               0x3001 (size before relaxing)
 .debug_str     0x000217aa       0x21 ./board/src/sysinit.o
                              0x16021 (size before relaxing)
 .debug_str     0x000217cb     0x3788 ./app/src/App.o
                              0x1e9eb (size before relaxing)
 .debug_str     0x00024f53      0x120 ./JSON/src/JSON.o
                               0x49a0 (size before relaxing)
 .debug_str     0x00025073     0x1b23 ./FreeRTOS-Plus-TCP/portable/NetworkInterface/LPC17xx/NetworkInterface.o
                              0x1f41c (size before relaxing)
 .debug_str     0x00026b96      0x246 ./FreeRTOS-Plus-TCP/portable/BufferManagement/BufferAllocation_2.o
                              0x1e5d1 (size before relaxing)
 .debug_str     0x00026ddc      0x3f5 ./FreeRTOS-Plus-TCP/FreeRTOS_ARP.o
                              0x1e88a (size before relaxing)
 .debug_str     0x000271d1      0x955 ./FreeRTOS-Plus-TCP/FreeRTOS_DHCP.o
                              0x1ed52 (size before relaxing)
 .debug_str     0x00027b26      0x82e ./FreeRTOS-Plus-TCP/FreeRTOS_DNS.o
                              0x1ece1 (size before relaxing)
 .debug_str     0x00028354     0x12a9 ./FreeRTOS-Plus-TCP/FreeRTOS_IP.o
                              0x1fd6d (size before relaxing)
 .debug_str     0x000295fd      0xc3e ./FreeRTOS-Plus-TCP/FreeRTOS_Sockets.o
                              0x1fa62 (size before relaxing)
 .debug_str     0x0002a23b       0x9d ./FreeRTOS-Plus-TCP/FreeRTOS_Stream_Buffer.o
                              0x1e254 (size before relaxing)
 .debug_str     0x0002a2d8      0x840 ./FreeRTOS-Plus-TCP/FreeRTOS_TCP_IP.o
                              0x1f803 (size before relaxing)
 .debug_str     0x0002ab18      0x574 ./FreeRTOS-Plus-TCP/FreeRTOS_TCP_WIN.o
                              0x1eb8c (size before relaxing)
 .debug_str     0x0002b08c       0xa8 ./FreeRTOS-Plus-TCP/FreeRTOS_UDP_IP.o
                              0x1ef37 (size before relaxing)

.comment        0x00000000       0x76
 .comment       0x00000000       0x76 ./utilities/src/lpc_phy_smsc87x0.o
                                 0x77 (size before relaxing)
 .comment       0x00000076       0x77 ./mcu/src/chip_17xx_40xx.o
 .comment       0x00000076       0x77 ./mcu/src/clock_17xx_40xx.o
 .comment       0x00000076       0x77 ./mcu/src/emc_17xx_40xx.o
 .comment       0x00000076       0x77 ./mcu/src/enet_17xx_40xx.o
 .comment       0x00000076       0x77 ./mcu/src/iocon_17xx_40xx.o
 .comment       0x00000076       0x77 ./mcu/src/rtc_17xx_40xx.o
 .comment       0x00000076       0x77 ./mcu/src/sysctl_17xx_40xx.o
 .comment       0x00000076       0x77 ./mcu/src/sysinit_17xx_40xx.o
 .comment       0x00000076       0x77 ./mcu/src/uart_17xx_40xx.o
 .comment       0x00000076       0x77 ./freertos/portable/gcc/ARM_CM3/port.o
 .comment       0x00000076       0x77 ./freertos/portable/heap_5.o
 .comment       0x00000076       0x77 ./freertos/event_groups.o
 .comment       0x00000076       0x77 ./freertos/list.o
 .comment       0x00000076       0x77 ./freertos/queue.o
 .comment       0x00000076       0x77 ./freertos/tasks.o
 .comment       0x00000076       0x77 ./freertos/timers.o
 .comment       0x00000076       0x77 ./board/src/board.o
 .comment       0x00000076       0x77 ./board/src/board_pinout.o
 .comment       0x00000076       0x77 ./board/src/board_sysinit.o
 .comment       0x00000076       0x77 ./board/src/cr_redlib_heap_fix.o
 .comment       0x00000076       0x77 ./board/src/cr_startup_lpc177x_8x.o
 .comment       0x00000076       0x77 ./board/src/sysinit.o
 .comment       0x00000076       0x77 ./app/src/App.o
 .comment       0x00000076       0x77 ./JSON/src/JSON.o
 .comment       0x00000076       0x77 ./FreeRTOS-Plus-TCP/portable/NetworkInterface/LPC17xx/NetworkInterface.o
 .comment       0x00000076       0x77 ./FreeRTOS-Plus-TCP/portable/BufferManagement/BufferAllocation_2.o
 .comment       0x00000076       0x77 ./FreeRTOS-Plus-TCP/FreeRTOS_ARP.o
 .comment       0x00000076       0x77 ./FreeRTOS-Plus-TCP/FreeRTOS_DHCP.o
 .comment       0x00000076       0x77 ./FreeRTOS-Plus-TCP/FreeRTOS_DNS.o
 .comment       0x00000076       0x77 ./FreeRTOS-Plus-TCP/FreeRTOS_IP.o
 .comment       0x00000076       0x77 ./FreeRTOS-Plus-TCP/FreeRTOS_Sockets.o
 .comment       0x00000076       0x77 ./FreeRTOS-Plus-TCP/FreeRTOS_Stream_Buffer.o
 .comment       0x00000076       0x77 ./FreeRTOS-Plus-TCP/FreeRTOS_TCP_IP.o
 .comment       0x00000076       0x77 ./FreeRTOS-Plus-TCP/FreeRTOS_TCP_WIN.o
 .comment       0x00000076       0x77 ./FreeRTOS-Plus-TCP/FreeRTOS_UDP_IP.o
 .comment       0x00000076       0x77 c:/nxp/mcuxpressoide_11.1.0_3209/ide/plugins/com.nxp.mcuxpresso.tools.win32_11.1.0.201909161352/tools/bin/../lib/gcc/arm-none-eabi/8.3.1/../../../../arm-none-eabi/lib/thumb/v7-m/nofp\libcr_nohost.a(_cr__main.o)
 .comment       0x00000076       0x77 c:/nxp/mcuxpressoide_11.1.0_3209/ide/plugins/com.nxp.mcuxpresso.tools.win32_11.1.0.201909161352/tools/bin/../lib/gcc/arm-none-eabi/8.3.1/../../../../arm-none-eabi/lib/thumb/v7-m/nofp\libcr_c.a(memcpy.o)
 .comment       0x00000076       0x77 c:/nxp/mcuxpressoide_11.1.0_3209/ide/plugins/com.nxp.mcuxpresso.tools.win32_11.1.0.201909161352/tools/bin/../lib/gcc/arm-none-eabi/8.3.1/../../../../arm-none-eabi/lib/thumb/v7-m/nofp\libcr_c.a(memmove.o)
 .comment       0x00000076       0x77 c:/nxp/mcuxpressoide_11.1.0_3209/ide/plugins/com.nxp.mcuxpresso.tools.win32_11.1.0.201909161352/tools/bin/../lib/gcc/arm-none-eabi/8.3.1/../../../../arm-none-eabi/lib/thumb/v7-m/nofp\libcr_c.a(memset.o)
 .comment       0x00000076       0x77 c:/nxp/mcuxpressoide_11.1.0_3209/ide/plugins/com.nxp.mcuxpresso.tools.win32_11.1.0.201909161352/tools/bin/../lib/gcc/arm-none-eabi/8.3.1/../../../../arm-none-eabi/lib/thumb/v7-m/nofp\libcr_c.a(fpprintf.o)
 .comment       0x00000076       0x77 c:/nxp/mcuxpressoide_11.1.0_3209/ide/plugins/com.nxp.mcuxpresso.tools.win32_11.1.0.201909161352/tools/bin/../lib/gcc/arm-none-eabi/8.3.1/../../../../arm-none-eabi/lib/thumb/v7-m/nofp\libcr_c.a(initio.o)
 .comment       0x00000076       0x77 c:/nxp/mcuxpressoide_11.1.0_3209/ide/plugins/com.nxp.mcuxpresso.tools.win32_11.1.0.201909161352/tools/bin/../lib/gcc/arm-none-eabi/8.3.1/../../../../arm-none-eabi/lib/thumb/v7-m/nofp\libcr_c.a(memcmp.o)
 .comment       0x00000076       0x77 c:/nxp/mcuxpressoide_11.1.0_3209/ide/plugins/com.nxp.mcuxpresso.tools.win32_11.1.0.201909161352/tools/bin/../lib/gcc/arm-none-eabi/8.3.1/../../../../arm-none-eabi/lib/thumb/v7-m/nofp\libcr_c.a(printf.o)
 .comment       0x00000076       0x77 c:/nxp/mcuxpressoide_11.1.0_3209/ide/plugins/com.nxp.mcuxpresso.tools.win32_11.1.0.201909161352/tools/bin/../lib/gcc/arm-none-eabi/8.3.1/../../../../arm-none-eabi/lib/thumb/v7-m/nofp\libcr_c.a(setvbuf.o)
 .comment       0x00000076       0x77 c:/nxp/mcuxpressoide_11.1.0_3209/ide/plugins/com.nxp.mcuxpresso.tools.win32_11.1.0.201909161352/tools/bin/../lib/gcc/arm-none-eabi/8.3.1/../../../../arm-none-eabi/lib/thumb/v7-m/nofp\libcr_c.a(strcat.o)
 .comment       0x00000076       0x77 c:/nxp/mcuxpressoide_11.1.0_3209/ide/plugins/com.nxp.mcuxpresso.tools.win32_11.1.0.201909161352/tools/bin/../lib/gcc/arm-none-eabi/8.3.1/../../../../arm-none-eabi/lib/thumb/v7-m/nofp\libcr_c.a(strcmp.o)
 .comment       0x00000076       0x77 c:/nxp/mcuxpressoide_11.1.0_3209/ide/plugins/com.nxp.mcuxpresso.tools.win32_11.1.0.201909161352/tools/bin/../lib/gcc/arm-none-eabi/8.3.1/../../../../arm-none-eabi/lib/thumb/v7-m/nofp\libcr_c.a(strcpy.o)
 .comment       0x00000076       0x77 c:/nxp/mcuxpressoide_11.1.0_3209/ide/plugins/com.nxp.mcuxpresso.tools.win32_11.1.0.201909161352/tools/bin/../lib/gcc/arm-none-eabi/8.3.1/../../../../arm-none-eabi/lib/thumb/v7-m/nofp\libcr_c.a(strlen.o)
 .comment       0x00000076       0x77 c:/nxp/mcuxpressoide_11.1.0_3209/ide/plugins/com.nxp.mcuxpresso.tools.win32_11.1.0.201909161352/tools/bin/../lib/gcc/arm-none-eabi/8.3.1/../../../../arm-none-eabi/lib/thumb/v7-m/nofp\libcr_c.a(_deferredlazyseek.o)
 .comment       0x00000076       0x77 c:/nxp/mcuxpressoide_11.1.0_3209/ide/plugins/com.nxp.mcuxpresso.tools.win32_11.1.0.201909161352/tools/bin/../lib/gcc/arm-none-eabi/8.3.1/../../../../arm-none-eabi/lib/thumb/v7-m/nofp\libcr_c.a(_fdopen.o)
 .comment       0x00000076       0x77 c:/nxp/mcuxpressoide_11.1.0_3209/ide/plugins/com.nxp.mcuxpresso.tools.win32_11.1.0.201909161352/tools/bin/../lib/gcc/arm-none-eabi/8.3.1/../../../../arm-none-eabi/lib/thumb/v7-m/nofp\libcr_c.a(_fflush.o)
 .comment       0x00000076       0x77 c:/nxp/mcuxpressoide_11.1.0_3209/ide/plugins/com.nxp.mcuxpresso.tools.win32_11.1.0.201909161352/tools/bin/../lib/gcc/arm-none-eabi/8.3.1/../../../../arm-none-eabi/lib/thumb/v7-m/nofp\libcr_c.a(_frexpl.o)
 .comment       0x00000076       0x77 c:/nxp/mcuxpressoide_11.1.0_3209/ide/plugins/com.nxp.mcuxpresso.tools.win32_11.1.0.201909161352/tools/bin/../lib/gcc/arm-none-eabi/8.3.1/../../../../arm-none-eabi/lib/thumb/v7-m/nofp\libcr_c.a(_ldexpl.o)
 .comment       0x00000076       0x77 c:/nxp/mcuxpressoide_11.1.0_3209/ide/plugins/com.nxp.mcuxpresso.tools.win32_11.1.0.201909161352/tools/bin/../lib/gcc/arm-none-eabi/8.3.1/../../../../arm-none-eabi/lib/thumb/v7-m/nofp\libcr_c.a(_writebuf.o)
 .comment       0x00000076       0x77 c:/nxp/mcuxpressoide_11.1.0_3209/ide/plugins/com.nxp.mcuxpresso.tools.win32_11.1.0.201909161352/tools/bin/../lib/gcc/arm-none-eabi/8.3.1/../../../../arm-none-eabi/lib/thumb/v7-m/nofp\libcr_c.a(alloc.o)
 .comment       0x00000076       0x77 c:/nxp/mcuxpressoide_11.1.0_3209/ide/plugins/com.nxp.mcuxpresso.tools.win32_11.1.0.201909161352/tools/bin/../lib/gcc/arm-none-eabi/8.3.1/../../../../arm-none-eabi/lib/thumb/v7-m/nofp\libcr_c.a(errno.o)
 .comment       0x00000076       0x77 c:/nxp/mcuxpressoide_11.1.0_3209/ide/plugins/com.nxp.mcuxpresso.tools.win32_11.1.0.201909161352/tools/bin/../lib/gcc/arm-none-eabi/8.3.1/../../../../arm-none-eabi/lib/thumb/v7-m/nofp\libcr_c.a(fclose.o)
 .comment       0x00000076       0x77 c:/nxp/mcuxpressoide_11.1.0_3209/ide/plugins/com.nxp.mcuxpresso.tools.win32_11.1.0.201909161352/tools/bin/../lib/gcc/arm-none-eabi/8.3.1/../../../../arm-none-eabi/lib/thumb/v7-m/nofp\libcr_c.a(fflush.o)
 .comment       0x00000076       0x77 c:/nxp/mcuxpressoide_11.1.0_3209/ide/plugins/com.nxp.mcuxpresso.tools.win32_11.1.0.201909161352/tools/bin/../lib/gcc/arm-none-eabi/8.3.1/../../../../arm-none-eabi/lib/thumb/v7-m/nofp\libcr_c.a(fseek.o)
 .comment       0x00000076       0x77 c:/nxp/mcuxpressoide_11.1.0_3209/ide/plugins/com.nxp.mcuxpresso.tools.win32_11.1.0.201909161352/tools/bin/../lib/gcc/arm-none-eabi/8.3.1/../../../../arm-none-eabi/lib/thumb/v7-m/nofp\libcr_c.a(ftell.o)
 .comment       0x00000076       0x77 c:/nxp/mcuxpressoide_11.1.0_3209/ide/plugins/com.nxp.mcuxpresso.tools.win32_11.1.0.201909161352/tools/bin/../lib/gcc/arm-none-eabi/8.3.1/../../../../arm-none-eabi/lib/thumb/v7-m/nofp\libcr_c.a(remove.o)
 .comment       0x00000076       0x77 c:/nxp/mcuxpressoide_11.1.0_3209/ide/plugins/com.nxp.mcuxpresso.tools.win32_11.1.0.201909161352/tools/bin/../lib/gcc/arm-none-eabi/8.3.1/../../../../arm-none-eabi/lib/thumb/v7-m/nofp\libcr_c.a(__init_alloc.o)
 .comment       0x00000076       0x77 c:/nxp/mcuxpressoide_11.1.0_3209/ide/plugins/com.nxp.mcuxpresso.tools.win32_11.1.0.201909161352/tools/bin/../lib/gcc/arm-none-eabi/8.3.1/../../../../arm-none-eabi/lib/thumb/v7-m/nofp\libcr_c.a(_cr_sbrk.o)
 .comment       0x00000076       0x77 c:/nxp/mcuxpressoide_11.1.0_3209/ide/plugins/com.nxp.mcuxpresso.tools.win32_11.1.0.201909161352/tools/bin/../lib/gcc/arm-none-eabi/8.3.1/../../../../arm-none-eabi/lib/thumb/v7-m/nofp\libcr_c.a(_do_fflush.o)
 .comment       0x00000076       0x77 c:/nxp/mcuxpressoide_11.1.0_3209/ide/plugins/com.nxp.mcuxpresso.tools.win32_11.1.0.201909161352/tools/bin/../lib/gcc/arm-none-eabi/8.3.1/thumb/v7-m/nofp\libcr_eabihelpers.a(double.o)
 .comment       0x00000076       0x77 c:/nxp/mcuxpressoide_11.1.0_3209/ide/plugins/com.nxp.mcuxpresso.tools.win32_11.1.0.201909161352/tools/bin/../lib/gcc/arm-none-eabi/8.3.1/../../../../arm-none-eabi/lib/thumb/v7-m/nofp\libcr_nohost.a(__ciob.o)
 .comment       0x00000076       0x77 c:/nxp/mcuxpressoide_11.1.0_3209/ide/plugins/com.nxp.mcuxpresso.tools.win32_11.1.0.201909161352/tools/bin/../lib/gcc/arm-none-eabi/8.3.1/../../../../arm-none-eabi/lib/thumb/v7-m/nofp\libcr_nohost.a(__sys_appexit.o)
 .comment       0x00000076       0x77 c:/nxp/mcuxpressoide_11.1.0_3209/ide/plugins/com.nxp.mcuxpresso.tools.win32_11.1.0.201909161352/tools/bin/../lib/gcc/arm-none-eabi/8.3.1/../../../../arm-none-eabi/lib/thumb/v7-m/nofp\libcr_nohost.a(__sys_close.o)
 .comment       0x00000076       0x77 c:/nxp/mcuxpressoide_11.1.0_3209/ide/plugins/com.nxp.mcuxpresso.tools.win32_11.1.0.201909161352/tools/bin/../lib/gcc/arm-none-eabi/8.3.1/../../../../arm-none-eabi/lib/thumb/v7-m/nofp\libcr_nohost.a(__sys_flen.o)
 .comment       0x00000076       0x77 c:/nxp/mcuxpressoide_11.1.0_3209/ide/plugins/com.nxp.mcuxpresso.tools.win32_11.1.0.201909161352/tools/bin/../lib/gcc/arm-none-eabi/8.3.1/../../../../arm-none-eabi/lib/thumb/v7-m/nofp\libcr_nohost.a(__sys_istty.o)
 .comment       0x00000076       0x77 c:/nxp/mcuxpressoide_11.1.0_3209/ide/plugins/com.nxp.mcuxpresso.tools.win32_11.1.0.201909161352/tools/bin/../lib/gcc/arm-none-eabi/8.3.1/../../../../arm-none-eabi/lib/thumb/v7-m/nofp\libcr_nohost.a(__sys_remove.o)
 .comment       0x00000076       0x77 c:/nxp/mcuxpressoide_11.1.0_3209/ide/plugins/com.nxp.mcuxpresso.tools.win32_11.1.0.201909161352/tools/bin/../lib/gcc/arm-none-eabi/8.3.1/../../../../arm-none-eabi/lib/thumb/v7-m/nofp\libcr_nohost.a(__sys_seek.o)
 .comment       0x00000076       0x77 c:/nxp/mcuxpressoide_11.1.0_3209/ide/plugins/com.nxp.mcuxpresso.tools.win32_11.1.0.201909161352/tools/bin/../lib/gcc/arm-none-eabi/8.3.1/../../../../arm-none-eabi/lib/thumb/v7-m/nofp\libcr_nohost.a(__sys_tmpnam.o)

.ARM.attributes
                0x00000000       0x2b
 .ARM.attributes
                0x00000000       0x2d ./utilities/src/lpc_phy_smsc87x0.o
 .ARM.attributes
                0x0000002d       0x2d ./mcu/src/chip_17xx_40xx.o
 .ARM.attributes
                0x0000005a       0x2d ./mcu/src/clock_17xx_40xx.o
 .ARM.attributes
                0x00000087       0x2d ./mcu/src/emc_17xx_40xx.o
 .ARM.attributes
                0x000000b4       0x2d ./mcu/src/enet_17xx_40xx.o
 .ARM.attributes
                0x000000e1       0x2d ./mcu/src/iocon_17xx_40xx.o
 .ARM.attributes
                0x0000010e       0x2d ./mcu/src/rtc_17xx_40xx.o
 .ARM.attributes
                0x0000013b       0x2d ./mcu/src/sysctl_17xx_40xx.o
 .ARM.attributes
                0x00000168       0x2d ./mcu/src/sysinit_17xx_40xx.o
 .ARM.attributes
                0x00000195       0x2d ./mcu/src/uart_17xx_40xx.o
 .ARM.attributes
                0x000001c2       0x2d ./freertos/portable/gcc/ARM_CM3/port.o
 .ARM.attributes
                0x000001ef       0x2d ./freertos/portable/heap_5.o
 .ARM.attributes
                0x0000021c       0x2d ./freertos/event_groups.o
 .ARM.attributes
                0x00000249       0x2d ./freertos/list.o
 .ARM.attributes
                0x00000276       0x2d ./freertos/queue.o
 .ARM.attributes
                0x000002a3       0x2d ./freertos/tasks.o
 .ARM.attributes
                0x000002d0       0x2d ./freertos/timers.o
 .ARM.attributes
                0x000002fd       0x2d ./board/src/board.o
 .ARM.attributes
                0x0000032a       0x33 ./board/src/board_pinout.o
 .ARM.attributes
                0x0000035d       0x2d ./board/src/board_sysinit.o
 .ARM.attributes
                0x0000038a       0x2d ./board/src/cr_redlib_heap_fix.o
 .ARM.attributes
                0x000003b7       0x2d ./board/src/cr_startup_lpc177x_8x.o
 .ARM.attributes
                0x000003e4       0x2d ./board/src/sysinit.o
 .ARM.attributes
                0x00000411       0x2d ./app/src/App.o
 .ARM.attributes
                0x0000043e       0x2d ./JSON/src/JSON.o
 .ARM.attributes
                0x0000046b       0x2d ./FreeRTOS-Plus-TCP/portable/NetworkInterface/LPC17xx/NetworkInterface.o
 .ARM.attributes
                0x00000498       0x2d ./FreeRTOS-Plus-TCP/portable/BufferManagement/BufferAllocation_2.o
 .ARM.attributes
                0x000004c5       0x2d ./FreeRTOS-Plus-TCP/FreeRTOS_ARP.o
 .ARM.attributes
                0x000004f2       0x2d ./FreeRTOS-Plus-TCP/FreeRTOS_DHCP.o
 .ARM.attributes
                0x0000051f       0x2d ./FreeRTOS-Plus-TCP/FreeRTOS_DNS.o
 .ARM.attributes
                0x0000054c       0x2d ./FreeRTOS-Plus-TCP/FreeRTOS_IP.o
 .ARM.attributes
                0x00000579       0x2d ./FreeRTOS-Plus-TCP/FreeRTOS_Sockets.o
 .ARM.attributes
                0x000005a6       0x2d ./FreeRTOS-Plus-TCP/FreeRTOS_Stream_Buffer.o
 .ARM.attributes
                0x000005d3       0x2d ./FreeRTOS-Plus-TCP/FreeRTOS_TCP_IP.o
 .ARM.attributes
                0x00000600       0x2d ./FreeRTOS-Plus-TCP/FreeRTOS_TCP_WIN.o
 .ARM.attributes
                0x0000062d       0x2d ./FreeRTOS-Plus-TCP/FreeRTOS_UDP_IP.o
 .ARM.attributes
                0x0000065a       0x2d c:/nxp/mcuxpressoide_11.1.0_3209/ide/plugins/com.nxp.mcuxpresso.tools.win32_11.1.0.201909161352/tools/bin/../lib/gcc/arm-none-eabi/8.3.1/../../../../arm-none-eabi/lib/thumb/v7-m/nofp\libcr_nohost.a(_cr__main.o)
 .ARM.attributes
                0x00000687       0x2d c:/nxp/mcuxpressoide_11.1.0_3209/ide/plugins/com.nxp.mcuxpresso.tools.win32_11.1.0.201909161352/tools/bin/../lib/gcc/arm-none-eabi/8.3.1/../../../../arm-none-eabi/lib/thumb/v7-m/nofp\libcr_c.a(memcpy.o)
 .ARM.attributes
                0x000006b4       0x2d c:/nxp/mcuxpressoide_11.1.0_3209/ide/plugins/com.nxp.mcuxpresso.tools.win32_11.1.0.201909161352/tools/bin/../lib/gcc/arm-none-eabi/8.3.1/../../../../arm-none-eabi/lib/thumb/v7-m/nofp\libcr_c.a(memmove.o)
 .ARM.attributes
                0x000006e1       0x2d c:/nxp/mcuxpressoide_11.1.0_3209/ide/plugins/com.nxp.mcuxpresso.tools.win32_11.1.0.201909161352/tools/bin/../lib/gcc/arm-none-eabi/8.3.1/../../../../arm-none-eabi/lib/thumb/v7-m/nofp\libcr_c.a(memset.o)
 .ARM.attributes
                0x0000070e       0x2d c:/nxp/mcuxpressoide_11.1.0_3209/ide/plugins/com.nxp.mcuxpresso.tools.win32_11.1.0.201909161352/tools/bin/../lib/gcc/arm-none-eabi/8.3.1/../../../../arm-none-eabi/lib/thumb/v7-m/nofp\libcr_c.a(fpprintf.o)
 .ARM.attributes
                0x0000073b       0x2d c:/nxp/mcuxpressoide_11.1.0_3209/ide/plugins/com.nxp.mcuxpresso.tools.win32_11.1.0.201909161352/tools/bin/../lib/gcc/arm-none-eabi/8.3.1/../../../../arm-none-eabi/lib/thumb/v7-m/nofp\libcr_c.a(initio.o)
 .ARM.attributes
                0x00000768       0x2d c:/nxp/mcuxpressoide_11.1.0_3209/ide/plugins/com.nxp.mcuxpresso.tools.win32_11.1.0.201909161352/tools/bin/../lib/gcc/arm-none-eabi/8.3.1/../../../../arm-none-eabi/lib/thumb/v7-m/nofp\libcr_c.a(memcmp.o)
 .ARM.attributes
                0x00000795       0x2d c:/nxp/mcuxpressoide_11.1.0_3209/ide/plugins/com.nxp.mcuxpresso.tools.win32_11.1.0.201909161352/tools/bin/../lib/gcc/arm-none-eabi/8.3.1/../../../../arm-none-eabi/lib/thumb/v7-m/nofp\libcr_c.a(printf.o)
 .ARM.attributes
                0x000007c2       0x2d c:/nxp/mcuxpressoide_11.1.0_3209/ide/plugins/com.nxp.mcuxpresso.tools.win32_11.1.0.201909161352/tools/bin/../lib/gcc/arm-none-eabi/8.3.1/../../../../arm-none-eabi/lib/thumb/v7-m/nofp\libcr_c.a(setvbuf.o)
 .ARM.attributes
                0x000007ef       0x2d c:/nxp/mcuxpressoide_11.1.0_3209/ide/plugins/com.nxp.mcuxpresso.tools.win32_11.1.0.201909161352/tools/bin/../lib/gcc/arm-none-eabi/8.3.1/../../../../arm-none-eabi/lib/thumb/v7-m/nofp\libcr_c.a(strcat.o)
 .ARM.attributes
                0x0000081c       0x2d c:/nxp/mcuxpressoide_11.1.0_3209/ide/plugins/com.nxp.mcuxpresso.tools.win32_11.1.0.201909161352/tools/bin/../lib/gcc/arm-none-eabi/8.3.1/../../../../arm-none-eabi/lib/thumb/v7-m/nofp\libcr_c.a(strcmp.o)
 .ARM.attributes
                0x00000849       0x2d c:/nxp/mcuxpressoide_11.1.0_3209/ide/plugins/com.nxp.mcuxpresso.tools.win32_11.1.0.201909161352/tools/bin/../lib/gcc/arm-none-eabi/8.3.1/../../../../arm-none-eabi/lib/thumb/v7-m/nofp\libcr_c.a(strcpy.o)
 .ARM.attributes
                0x00000876       0x2d c:/nxp/mcuxpressoide_11.1.0_3209/ide/plugins/com.nxp.mcuxpresso.tools.win32_11.1.0.201909161352/tools/bin/../lib/gcc/arm-none-eabi/8.3.1/../../../../arm-none-eabi/lib/thumb/v7-m/nofp\libcr_c.a(strlen.o)
 .ARM.attributes
                0x000008a3       0x2d c:/nxp/mcuxpressoide_11.1.0_3209/ide/plugins/com.nxp.mcuxpresso.tools.win32_11.1.0.201909161352/tools/bin/../lib/gcc/arm-none-eabi/8.3.1/../../../../arm-none-eabi/lib/thumb/v7-m/nofp\libcr_c.a(_deferredlazyseek.o)
 .ARM.attributes
                0x000008d0       0x2d c:/nxp/mcuxpressoide_11.1.0_3209/ide/plugins/com.nxp.mcuxpresso.tools.win32_11.1.0.201909161352/tools/bin/../lib/gcc/arm-none-eabi/8.3.1/../../../../arm-none-eabi/lib/thumb/v7-m/nofp\libcr_c.a(_fdopen.o)
 .ARM.attributes
                0x000008fd       0x2d c:/nxp/mcuxpressoide_11.1.0_3209/ide/plugins/com.nxp.mcuxpresso.tools.win32_11.1.0.201909161352/tools/bin/../lib/gcc/arm-none-eabi/8.3.1/../../../../arm-none-eabi/lib/thumb/v7-m/nofp\libcr_c.a(_fflush.o)
 .ARM.attributes
                0x0000092a       0x2d c:/nxp/mcuxpressoide_11.1.0_3209/ide/plugins/com.nxp.mcuxpresso.tools.win32_11.1.0.201909161352/tools/bin/../lib/gcc/arm-none-eabi/8.3.1/../../../../arm-none-eabi/lib/thumb/v7-m/nofp\libcr_c.a(_frexpl.o)
 .ARM.attributes
                0x00000957       0x2d c:/nxp/mcuxpressoide_11.1.0_3209/ide/plugins/com.nxp.mcuxpresso.tools.win32_11.1.0.201909161352/tools/bin/../lib/gcc/arm-none-eabi/8.3.1/../../../../arm-none-eabi/lib/thumb/v7-m/nofp\libcr_c.a(_ldexpl.o)
 .ARM.attributes
                0x00000984       0x2d c:/nxp/mcuxpressoide_11.1.0_3209/ide/plugins/com.nxp.mcuxpresso.tools.win32_11.1.0.201909161352/tools/bin/../lib/gcc/arm-none-eabi/8.3.1/../../../../arm-none-eabi/lib/thumb/v7-m/nofp\libcr_c.a(_writebuf.o)
 .ARM.attributes
                0x000009b1       0x2d c:/nxp/mcuxpressoide_11.1.0_3209/ide/plugins/com.nxp.mcuxpresso.tools.win32_11.1.0.201909161352/tools/bin/../lib/gcc/arm-none-eabi/8.3.1/../../../../arm-none-eabi/lib/thumb/v7-m/nofp\libcr_c.a(alloc.o)
 .ARM.attributes
                0x000009de       0x33 c:/nxp/mcuxpressoide_11.1.0_3209/ide/plugins/com.nxp.mcuxpresso.tools.win32_11.1.0.201909161352/tools/bin/../lib/gcc/arm-none-eabi/8.3.1/../../../../arm-none-eabi/lib/thumb/v7-m/nofp\libcr_c.a(errno.o)
 .ARM.attributes
                0x00000a11       0x2d c:/nxp/mcuxpressoide_11.1.0_3209/ide/plugins/com.nxp.mcuxpresso.tools.win32_11.1.0.201909161352/tools/bin/../lib/gcc/arm-none-eabi/8.3.1/../../../../arm-none-eabi/lib/thumb/v7-m/nofp\libcr_c.a(fclose.o)
 .ARM.attributes
                0x00000a3e       0x2d c:/nxp/mcuxpressoide_11.1.0_3209/ide/plugins/com.nxp.mcuxpresso.tools.win32_11.1.0.201909161352/tools/bin/../lib/gcc/arm-none-eabi/8.3.1/../../../../arm-none-eabi/lib/thumb/v7-m/nofp\libcr_c.a(fflush.o)
 .ARM.attributes
                0x00000a6b       0x2d c:/nxp/mcuxpressoide_11.1.0_3209/ide/plugins/com.nxp.mcuxpresso.tools.win32_11.1.0.201909161352/tools/bin/../lib/gcc/arm-none-eabi/8.3.1/../../../../arm-none-eabi/lib/thumb/v7-m/nofp\libcr_c.a(fseek.o)
 .ARM.attributes
                0x00000a98       0x2d c:/nxp/mcuxpressoide_11.1.0_3209/ide/plugins/com.nxp.mcuxpresso.tools.win32_11.1.0.201909161352/tools/bin/../lib/gcc/arm-none-eabi/8.3.1/../../../../arm-none-eabi/lib/thumb/v7-m/nofp\libcr_c.a(ftell.o)
 .ARM.attributes
                0x00000ac5       0x2d c:/nxp/mcuxpressoide_11.1.0_3209/ide/plugins/com.nxp.mcuxpresso.tools.win32_11.1.0.201909161352/tools/bin/../lib/gcc/arm-none-eabi/8.3.1/../../../../arm-none-eabi/lib/thumb/v7-m/nofp\libcr_c.a(remove.o)
 .ARM.attributes
                0x00000af2       0x2d c:/nxp/mcuxpressoide_11.1.0_3209/ide/plugins/com.nxp.mcuxpresso.tools.win32_11.1.0.201909161352/tools/bin/../lib/gcc/arm-none-eabi/8.3.1/../../../../arm-none-eabi/lib/thumb/v7-m/nofp\libcr_c.a(__init_alloc.o)
 .ARM.attributes
                0x00000b1f       0x2d c:/nxp/mcuxpressoide_11.1.0_3209/ide/plugins/com.nxp.mcuxpresso.tools.win32_11.1.0.201909161352/tools/bin/../lib/gcc/arm-none-eabi/8.3.1/../../../../arm-none-eabi/lib/thumb/v7-m/nofp\libcr_c.a(_cr_sbrk.o)
 .ARM.attributes
                0x00000b4c       0x2d c:/nxp/mcuxpressoide_11.1.0_3209/ide/plugins/com.nxp.mcuxpresso.tools.win32_11.1.0.201909161352/tools/bin/../lib/gcc/arm-none-eabi/8.3.1/../../../../arm-none-eabi/lib/thumb/v7-m/nofp\libcr_c.a(_do_fflush.o)
 .ARM.attributes
                0x00000b79       0x2d c:/nxp/mcuxpressoide_11.1.0_3209/ide/plugins/com.nxp.mcuxpresso.tools.win32_11.1.0.201909161352/tools/bin/../lib/gcc/arm-none-eabi/8.3.1/thumb/v7-m/nofp\libcr_eabihelpers.a(double.o)
 .ARM.attributes
                0x00000ba6       0x1b c:/nxp/mcuxpressoide_11.1.0_3209/ide/plugins/com.nxp.mcuxpresso.tools.win32_11.1.0.201909161352/tools/bin/../lib/gcc/arm-none-eabi/8.3.1/thumb/v7-m/nofp\libcr_eabihelpers.a(memcpy.o)
 .ARM.attributes
                0x00000bc1       0x33 c:/nxp/mcuxpressoide_11.1.0_3209/ide/plugins/com.nxp.mcuxpresso.tools.win32_11.1.0.201909161352/tools/bin/../lib/gcc/arm-none-eabi/8.3.1/../../../../arm-none-eabi/lib/thumb/v7-m/nofp\libcr_nohost.a(__ciob.o)
 .ARM.attributes
                0x00000bf4       0x2d c:/nxp/mcuxpressoide_11.1.0_3209/ide/plugins/com.nxp.mcuxpresso.tools.win32_11.1.0.201909161352/tools/bin/../lib/gcc/arm-none-eabi/8.3.1/../../../../arm-none-eabi/lib/thumb/v7-m/nofp\libcr_nohost.a(__sys_appexit.o)
 .ARM.attributes
                0x00000c21       0x2d c:/nxp/mcuxpressoide_11.1.0_3209/ide/plugins/com.nxp.mcuxpresso.tools.win32_11.1.0.201909161352/tools/bin/../lib/gcc/arm-none-eabi/8.3.1/../../../../arm-none-eabi/lib/thumb/v7-m/nofp\libcr_nohost.a(__sys_close.o)
 .ARM.attributes
                0x00000c4e       0x2d c:/nxp/mcuxpressoide_11.1.0_3209/ide/plugins/com.nxp.mcuxpresso.tools.win32_11.1.0.201909161352/tools/bin/../lib/gcc/arm-none-eabi/8.3.1/../../../../arm-none-eabi/lib/thumb/v7-m/nofp\libcr_nohost.a(__sys_flen.o)
 .ARM.attributes
                0x00000c7b       0x2d c:/nxp/mcuxpressoide_11.1.0_3209/ide/plugins/com.nxp.mcuxpresso.tools.win32_11.1.0.201909161352/tools/bin/../lib/gcc/arm-none-eabi/8.3.1/../../../../arm-none-eabi/lib/thumb/v7-m/nofp\libcr_nohost.a(__sys_istty.o)
 .ARM.attributes
                0x00000ca8       0x2d c:/nxp/mcuxpressoide_11.1.0_3209/ide/plugins/com.nxp.mcuxpresso.tools.win32_11.1.0.201909161352/tools/bin/../lib/gcc/arm-none-eabi/8.3.1/../../../../arm-none-eabi/lib/thumb/v7-m/nofp\libcr_nohost.a(__sys_remove.o)
 .ARM.attributes
                0x00000cd5       0x2d c:/nxp/mcuxpressoide_11.1.0_3209/ide/plugins/com.nxp.mcuxpresso.tools.win32_11.1.0.201909161352/tools/bin/../lib/gcc/arm-none-eabi/8.3.1/../../../../arm-none-eabi/lib/thumb/v7-m/nofp\libcr_nohost.a(__sys_seek.o)
 .ARM.attributes
                0x00000d02       0x2d c:/nxp/mcuxpressoide_11.1.0_3209/ide/plugins/com.nxp.mcuxpresso.tools.win32_11.1.0.201909161352/tools/bin/../lib/gcc/arm-none-eabi/8.3.1/../../../../arm-none-eabi/lib/thumb/v7-m/nofp\libcr_nohost.a(__sys_tmpnam.o)

.debug_frame    0x00000000     0x63a4
 .debug_frame   0x00000000       0xec ./utilities/src/lpc_phy_smsc87x0.o
 .debug_frame   0x000000ec       0x70 ./mcu/src/chip_17xx_40xx.o
 .debug_frame   0x0000015c      0x500 ./mcu/src/clock_17xx_40xx.o
 .debug_frame   0x0000065c      0x1fc ./mcu/src/emc_17xx_40xx.o
 .debug_frame   0x00000858      0x2c4 ./mcu/src/enet_17xx_40xx.o
 .debug_frame   0x00000b1c       0x5c ./mcu/src/iocon_17xx_40xx.o
 .debug_frame   0x00000b78      0x210 ./mcu/src/rtc_17xx_40xx.o
 .debug_frame   0x00000d88       0x60 ./mcu/src/sysctl_17xx_40xx.o
 .debug_frame   0x00000de8      0x134 ./mcu/src/sysinit_17xx_40xx.o
 .debug_frame   0x00000f1c      0x508 ./mcu/src/uart_17xx_40xx.o
 .debug_frame   0x00001424      0x160 ./freertos/portable/gcc/ARM_CM3/port.o
 .debug_frame   0x00001584       0xe8 ./freertos/portable/heap_5.o
 .debug_frame   0x0000166c      0x1d0 ./freertos/event_groups.o
 .debug_frame   0x0000183c       0xd8 ./freertos/list.o
 .debug_frame   0x00001914      0x52c ./freertos/queue.o
 .debug_frame   0x00001e40      0x87c ./freertos/tasks.o
 .debug_frame   0x000026bc      0x35c ./freertos/timers.o
 .debug_frame   0x00002a18      0x824 ./board/src/board.o
 .debug_frame   0x0000323c       0xf8 ./board/src/board_sysinit.o
 .debug_frame   0x00003334       0x38 ./board/src/cr_redlib_heap_fix.o
 .debug_frame   0x0000336c      0x170 ./board/src/cr_startup_lpc177x_8x.o
 .debug_frame   0x000034dc       0x34 ./board/src/sysinit.o
 .debug_frame   0x00003510      0x604 ./app/src/App.o
 .debug_frame   0x00003b14      0x1c0 ./JSON/src/JSON.o
 .debug_frame   0x00003cd4      0x480 ./FreeRTOS-Plus-TCP/portable/NetworkInterface/LPC17xx/NetworkInterface.o
 .debug_frame   0x00004154      0x128 ./FreeRTOS-Plus-TCP/portable/BufferManagement/BufferAllocation_2.o
 .debug_frame   0x0000427c      0x170 ./FreeRTOS-Plus-TCP/FreeRTOS_ARP.o
 .debug_frame   0x000043ec      0x138 ./FreeRTOS-Plus-TCP/FreeRTOS_DHCP.o
 .debug_frame   0x00004524      0x224 ./FreeRTOS-Plus-TCP/FreeRTOS_DNS.o
 .debug_frame   0x00004748      0x61c ./FreeRTOS-Plus-TCP/FreeRTOS_IP.o
 .debug_frame   0x00004d64      0x964 ./FreeRTOS-Plus-TCP/FreeRTOS_Sockets.o
 .debug_frame   0x000056c8      0x140 ./FreeRTOS-Plus-TCP/FreeRTOS_Stream_Buffer.o
 .debug_frame   0x00005808      0x668 ./FreeRTOS-Plus-TCP/FreeRTOS_TCP_IP.o
 .debug_frame   0x00005e70      0x4dc ./FreeRTOS-Plus-TCP/FreeRTOS_TCP_WIN.o
 .debug_frame   0x0000634c       0x58 ./FreeRTOS-Plus-TCP/FreeRTOS_UDP_IP.o
