:1060000000000110856100000162000007620000CD
:10601000196200001F6200002562000000000000FD
:1060200000000000000000000000000041C200006D
:10603000316200000000000019C3000059C30000D5
:1060400043620000436200004362000043620000BC
:1060500043620000436200004362000043620000AC
:10606000436200004362000043620000436200009C
:10607000436200004362000043620000436200008C
:10608000436200007D600100436200004362000043
:10609000436200004362000043620000436200006C
:1060A00051B30000253B010019CF000043620000FE
:1060B00089800000258C00004362000043620000DC
:1060C000436200004362000043620000436200003C
:1060D000436200004362000043620000436200002C
:1060E000436200005C3C06000000001094100000B9
:1060F0005C3C06000000002000000000981000102A
:106100007CE50000000000200000000080B489B0A1
:1061100000AFF860B9607A60BB68FB61FB68BB6187
:1061200000237B610AE0BA69131DBB61FB69191D7D
:10613000F96112681A607B6904337B617A697B6854
:106140009A42F0D300BF2437BD4680BC704780B46C
:1061500085B000AF786039607B68FB600023BB606E
:1061600007E0FB681A1DFA6000221A60BB6804335E
:10617000BB60BA683B689A42F3D300BF1437BD4690
:1061800080BC704780B584B000AF1A4BFB6013E051
:10619000FB681A1DFA601B683B60FB681A1DFA60F9
:1061A0001B68BB60FB681A1DFA601B687B607A681D
:1061B000B9683868FFF7AAFFFB680F4A9342E7D334
:1061C0000DE0FB681A1DFA601B68BB60FB681A1DB6
:1061D000FA601B687B607968B868FFF7B8FFFB68F6
:1061E000064A9342EDD30DF037F90BF0A5FC47F0CA
:1061F0003FFBFEE7E4600000FC6000000C61000073
:1062000080B400AFFEE780B500AF02480DF0D4FEC9
:10621000FEE700BF300A050080B400AFFEE780B49F
:1062200000AFFEE780B400AFFEE780B400AFFEE74A
:1062300080B400AFFEE780B400AFFEE780B400AFEB
:10624000FEE780B400AFFEE780B586B000AFF8602F
:10625000B9607A6000F036F85023FB750AE000F070
:1062600091F838613B69002B08D000F041F8FB7DC4
:10627000013BFB75FB7D002BF1D100E000BF3B69CA
:10628000002B07D03B694B220B490C4800F040FB28
:106290003B690DE0F968B86800F0B0F83861FB6858
:1062A0001B68074A1360786800F00AF938613B6997
:1062B00018461837BD4680BD54040500300405005B
:1062C0009810001080B584B002AF084B1B68019392
:1062D0000123009300230022FE21A12005F026FBCC
:1062E00078607B6818460837BD4680BD8C990010E1
:1062F00080B584B002AF062301930323009380236B
:1063000000220021002000F0F9F91B4B18681B4BFC
:106310001A681F234FF4002105F076FA78607B6835
:10632000002B23D1164B1868144B1A6812234FF414
:10633000801105F069FA78607B68002B16D1104B4C
:1063400018680E4B1A680D234FF4801105F05CFAA3
:1063500078607B68002B09D1084B1B680C331B78D5
:10636000DBB2002B02D06FF009037B607B6818461C
:106370000837BD4680BD00BF849900108C9900107D
:106380009499001080B584B002AF062301930023D6
:106390000093012300220021002000F0AFF9144BEC
:1063A0001868144B1A681F234FF4002105F02CFACB
:1063B00078607B68002B16D10F4B18680D4B1A685C
:1063C0000D234FF4801105F01FFA78607B68002BD5
:1063D00009D1084B1B680C331B78DBB2002B02D0B1
:1063E0006FF009037B607B6818460837BD4680BDA7
:1063F000849900108C9900109499001080B586B093
:1064000002AF786039600A2301932523009380232B
:1064100000220021002000F071F9264B1868264B5D
:106420001A681F234FF4002105F0EEF9F860FB68AD
:10643000002B3AD1214B18681F4B1A6808234FF4E0
:10644000801105F0E1F9F860FB68002B2DD17B6825
:10645000002B07D0184B1B68184605F0D7FB0246E7
:106460007B681A603B68002B08D0134B1B68043311
:10647000184605F0CBFB02463B681A600F4B1868C4
:106480000D4B1A680D234FF4801105F0BDF9F8602B
:10649000FB68002B09D1084B1B680C331B78DBB25F
:1064A000002B02D06FF00903FB60FB681846103721
:1064B000BD4680BD849900108C99001094990010FD
:1064C00080B586B002AF7860062301931223009353
:1064D000802300220021002000F010F9264B1868CC
:1064E000264B1A681F234FF4002105F08DF9F86040
:1064F000FB68002B3AD1224B1868204B1A682423E2
:106500004FF4801105F080F9F860FB68002B2DD165
:106510007B68002B13D00023BB600DE0174B1A687B
:10652000531C16490B607B68591C79601278D2B2F3
:106530001A70BB680133BB60BB68232BEED9104BCC
:1065400018680E4B1A680D234FF4801105F05CF9A2
:10655000F860FB68002B09D1084B1B680C331B78D3
:10656000DBB2002B02D06FF00903FB60FB6818461A
:106570001037BD4680BD00BF849900108C99001073
:106580009499001080B58AB002AFF8600B467A602B
:106590007B817B687B610023BB6107E07B695A1CC0
:1065A0007A6100221A70BB690133BB617B89254A7D
:1065B000126802FB03F2BB699A42EFD8214B1968BB
:1065C0007A890A230193282300938023F86800F036
:1065D00095F81D4B18681D4B1A681F234FF40021B6
:1065E00005F012F9F861FB69002B26D1184B1868E9
:1065F0007B89144A126802FB03F37A684FF4801116
:1066000005F002F9F861FB69002B16D1104B1868F0
:106610000E4B1A680D234FF4801105F0F5F8F86160
:10662000FB69002B09D1094B1B680C331B78DBB2CB
:10663000002B02D06FF00903FB61FB69184620377D
:10664000BD4680BD98100010849900108C990010F0
:106650009499001080B588B002AFF8600B467A605C
:106660007B81224B19687A890A2301932A2300939C
:106670000023F86800F042F81D4B18681D4B1A689B
:106680001F234FF4002105F0BFF878617B69002BD0
:1066900026D1174B18687B89144A126802FB03F352
:1066A0007A684FF4002105F0AFF878617B69002B20
:1066B00016D1114B18680F4B1A680D234FF4801137
:1066C00005F0A2F878617B69002B09D1094B1B68A2
:1066D0000C331B78DBB2002B02D06FF009037B6117
:1066E0007B6918461837BD4680BD00BF9810001062
:1066F000849900108C9900109499001080B586B090
:1067000000AFF860B96011461A460B46FB8013468D
:106710007B7100233B6108E05F4B1A683B691344BF
:1067200000221A703B6901333B613B691E2BF3D990
:1067300097F82030252B5BD801A252F823F000BF38
:10674000D9670000F1670000F1670000E56700000D
:10675000F1670000F1670000F1670000F1670000D9
:10676000F1670000F1670000F1670000F1670000C9
:10677000F1670000F1670000F1670000F1670000B9
:10678000F1670000F1670000EB670000F1670000AF
:10679000F1670000F1670000F1670000F167000099
:1067A000F1670000F1670000F1670000F167000089
:1067B000F1670000F1670000F1670000F167000079
:1067C000F1670000F1670000F1670000F167000069
:1067D000F1670000DF67000000237B610EE0082303
:1067E0007B610BE012237B6108E024237B6105E0E1
:1067F000FA88BB6802FB03F37B6100BF264B1B6872
:106800002649184605F0BEF9234B1B681A1D244B78
:106810001B681946104605F0B5F91F4B1B68083375
:106820007969184605F0AEF97B79012B01D07A79A8
:1068300000E00022184B1B680C331A70164B1B68C3
:106840000E3397F824201A70134B1B680F3397F8F8
:1068500020201A7097F82030032B03D097F82030AF
:10686000122B06D10C4B1B6813337A69D2B21A7003
:1068700006E0094B1B681133F968184605F0EBF97F
:10688000054B1B681633FA881146184605F0FDF9CA
:1068900000BF1837BD4680BD8C9900105553424348
:1068A0009C10001080B582B000AF0346FB71054B11
:1068B0001B68FA7911460020984700BF0837BD468B
:1068C00080BD00BF3C99001080B582B000AF7860F9
:1068D00015E07B681B780A2B0AD17B685A1C7A600A
:1068E0001B781846FFF7DEFF0D20FFF7DBFF06E001
:1068F0007B685A1C7A601B781846FFF7D3FF7B68C9
:106900001B78002BE5D100BF0837BD4680BDFFFFD7
:106910000FB480B582B000AF07F114037B607A68D2
:106920003969064847F09AFD0448FFF7CDFF00BFDC
:106930000837BD46BDE8804004B07047A010001085
:1069400080B400AF284B00225A70274B00229A7067
:10695000254B0022DA70244B00221A71224B0022B0
:106960005A71214B00229A711F4B0022DA711E4B83
:1069700000221A721C4B00225A721B4B00229A7280
:10698000194B4FF6FF729A81174B4FF6FF72DA815F
:10699000154B4FF6FF721A82134B4FF6FF725A8255
:1069A000114B4FF6FF729A820F4B4FF6FF72DA824D
:1069B0000D4B4FF6FF721A830B4B4FF6FF725A8343
:1069C000094B4FF6FF729A83074B4FF6FF72DA833B
:1069D000054B002283F82120034B002283F820205E
:1069E00000BFBD4680BC7047DC98001080B582B007
:1069F00000AF05F051FA702005F0D2FA002005F042
:106A0000CFFA05F085FA05F047FA712005F0C8FACB
:106A1000012005F069FB0346FB71002005F064FBD3
:106A200005F076FAFB791B11DBB203F00703DAB24B
:106A3000034B83F8222000BF0837BD4680BD00BF4E
:106A4000DC98001080B582B000AF05F025FA702008
:106A500005F0A6FA012005F0A3FA05F059FA05F0B1
:106A60001BFA712005F09CFA012005F03DFB03465E
:106A7000FB71002005F038FB05F04AFA034AFB7968
:106A800082F8203000BF0837BD4680BDDC9800107A
:106A900080B582B000AF05F0FFF9702005F080FAF4
:106AA000022005F07DFA05F033FA05F0F5F97120C2
:106AB00005F076FA012005F017FB0346FB71002074
:106AC00005F012FB05F024FAFB7903F00F03DAB2AC
:106AD000034B83F8212000BF0837BD4680BD00BFAF
:106AE000DC98001080B582B000AF05F0D5F97020B9
:106AF00005F056FA0346012B59D1032005F050FA50
:106B00000346012B55D105F003FA05F0C5F97120B4
:106B100005F046FA0346012B4DD1012005F0E4FAB9
:106B200003463B71012005F0DFFA03467B7101202B
:106B300005F0DAFA0346BB71012005F0D5FA0346E9
:106B4000FB71002005F0D0FA05F0E2F93B799B09D2
:106B5000DAB21B4B5A70BB799B09DAB2184B9A71A7
:106B60003B791B0203F470637A791343154A128848
:106B700092B202FB03F3144A128892B293FBF2F32F
:106B80009AB20F4B9A81BB791B0203F47063FA79B6
:106B900013430E4A128892B202FB03F30C4A128886
:106BA00092B293FBF2F39AB2054BDA8204E000BF93
:106BB00002E000BF00E000BF0837BD4680BD00BF57
:106BC000DC9800100000001004000010020000100B
:106BD0000600001080B582B000AF05F05DF97020AE
:106BE00005F0DEF90346012B59D1092005F0D8F94B
:106BF0000346012B55D105F08BF905F04DF97120B5
:106C000005F0CEF90346012B4DD1012005F06CFAB9
:106C100003463B71012005F067FA03467B710120B2
:106C200005F062FA0346BB71012005F05DFA0346E8
:106C3000FB71002005F058FA05F06AF93B799B09D1
:106C4000DAB21B4B9A70BB799B09DAB2184BDA7136
:106C50003B791B0203F470637A791343154A128857
:106C600092B202FB03F3144A128892B293FBF2F33E
:106C70009AB20F4BDA81BB791B0203F47063FA7985
:106C800013430E4A128892B202FB03F30C4A128895
:106C900092B293FBF2F39AB2054B1A8304E000BF61
:106CA00002E000BF00E000BF0837BD4680BD00BF66
:106CB000DC9800100000001004000010020000101A
:106CC0000600001080B582B000AF05F0E5F8702036
:106CD00005F066F90346012B59D10F2005F060F944
:106CE0000346012B55D105F013F905F0D5F87120B5
:106CF00005F056F90346012B4DD1012005F0F4F9BA
:106D000003463B71012005F0EFF903467B7101203A
:106D100005F0EAF90346BB71012005F0E5F90346E9
:106D2000FB71002005F0E0F905F0F2F83B799B09D2
:106D3000DAB21B4BDA70BB799B09DAB2184B1A72C4
:106D40003B791B0203F470637A791343154A128866
:106D500092B202FB03F3144A128892B293FBF2F34D
:106D60009AB20F4B1A82BB791B0203F47063FA7953
:106D700013430E4A128892B202FB03F30C4A1288A4
:106D800092B293FBF2F39AB2054B5A8304E000BF30
:106D900002E000BF00E000BF0837BD4680BD00BF75
:106DA000DC98001000000010040000100200001029
:106DB0000600001080B582B000AF05F06DF87020BD
:106DC00005F0EEF80346012B59D1152005F0E8F83F
:106DD0000346012B55D105F09BF805F05DF87120B5
:106DE00005F0DEF80346012B4DD1012005F07CF9BA
:106DF00003463B71012005F077F903467B710120C2
:106E000005F072F90346BB71012005F06DF90346E8
:106E1000FB71002005F068F905F07AF83B799B09D1
:106E2000DAB21B4B1A71BB799B09DAB2184B5A7252
:106E30003B791B0203F470637A791343154A128875
:106E400092B202FB03F3144A128892B293FBF2F35C
:106E50009AB20F4B5A82BB791B0203F47063FA7922
:106E600013430E4A128892B202FB03F30C4A1288B3
:106E700092B293FBF2F39AB2054B9A8304E000BFFF
:106E800002E000BF00E000BF0837BD4680BD00BF84
:106E9000DC98001000000010040000100200001038
:106EA0000600001080B582B000AF04F0F5FF70203E
:106EB00005F076F80346012B59D11B2005F070F838
:106EC0000346012B55D105F023F804F0E5FF7120AE
:106ED00005F066F80346012B4DD1012005F004F9B9
:106EE00003463B71012005F0FFF803467B7101204A
:106EF00005F0FAF80346BB71012005F0F5F80346EA
:106F0000FB71002005F0F0F805F002F83B799B09D1
:106F1000DAB21B4B5A71BB799B09DAB2184B9A72E1
:106F20003B791B0203F470637A791343154A128884
:106F300092B202FB03F3144A128892B293FBF2F36B
:106F40009AB20F4B9A82BB791B0203F47063FA79F1
:106F500013430E4A128892B202FB03F30C4A1288C2
:106F600092B293FBF2F39AB2054BDA8304E000BFCE
:106F700002E000BF00E000BF0837BD4680BD00BF93
:106F8000DC98001000000010040000100200001047
:106F90000600001080B500AF1F4B5B6903F08073E3
:106FA000002B32D11D4B00221A70FFF74BFDFFF76B
:106FB0006FFD1B4B93F82130DBB2002B04D0184B34
:106FC00001221A70FFF78EFD154B93F82130DBB2CA
:106FD000012B01D9FFF7FEFD114B93F82130DBB2F5
:106FE000022B01D9FFF76EFE0D4B93F82130DBB277
:106FF000032B01D9FFF7DEFE094B93F82130DBB2FA
:10700000042B07D9FFF74EFF04E0054B00221A704E
:10701000FFF796FC00BF80BD00800920C91000105A
:10702000DC98001080B483B000AF03460A46FB80B2
:107030001346BB80054AFB881380054ABB88138032
:1070400000BF0C37BD4680BC704700BF0400001075
:107050000600001080B582B000AF03460A46FB80F0
:107060001346BB80074AFB881380074ABB881380FE
:10707000BA88FB8811461846FFF7D4FF00BF0837CF
:10708000BD4680BD000000100200001080B500AFBA
:10709000164B00221A65164B1B68154A43F48013E1
:1070A0001360134B9B69124A43F4801393610F4B97
:1070B0009022DA650E4B1B680D4A43F400031360FF
:1070C0000B4BDB690A4A43F40003D361074B902260
:1070D0001A66074B1B68064A23F080731360FFF79C
:1070E0002FFC04F0BBFE00BF80BD00BF00C002400B
:1070F0000080092080B582B000AF03460A46FB71CC
:107100001346BB71B91DF8790123012203F034FE47
:1071100000BF0837BD4680BD80B584B000AF0346D0
:10712000FB710023FB7307F10F01F87901230122A2
:1071300003F0CAFEFB7B18461037BD4680BD80B504
:1071400082B000AF03463960FB713B68002B01D170
:1071500000230BE0F87900230122396803F0B4FE24
:107160000346002B01D0012300E000231846083716
:10717000BD4680BD80B588B000AF3B600346FB7163
:107180000B46BB7113467B710023FB7200237B7798
:107190007B79002B04D13B6800221A600023EFE0CA
:1071A00000233B61BB79012B06D0BB79002B01D1B9
:1071B0000A2302E0002300E01023BB77BB7F002BF3
:1071C00004D13B6800221A600023D9E000237B61D0
:1071D000CEE001237B7707F10B01F879012301222F
:1071E00003F072FEFB7A2F2B06D9FB7A392B03D8DA
:1071F000FB7A303BBB616FE0BB79012B6AD1102376
:10720000BB77FB7A413B252B60D801A252F823F0D3
:10721000A9720000AF720000B5720000BB720000DE
:10722000C1720000C7720000CD720000CD72000074
:10723000CD720000CD720000CD720000CD72000052
:10724000CD720000CD720000CD720000CD72000042
:10725000CD720000CD720000CD720000CD72000032
:10726000CD720000CD720000CD720000CD72000022
:10727000CD720000CD720000CD720000CD72000012
:10728000CD720000CD720000CD720000CD72000002
:10729000A9720000AF720000B5720000BB7200005E
:1072A000C1720000C77200000A23BB6114E00B2307
:1072B000BB6111E00C23BB610EE00D23BB610BE051
:1072C0000E23BB6108E00F23BB6105E000237B7741
:1072D00000BF01E000237B770123FB607B7F002B55
:1072E0001DD1BB79002B05D1FB792749184600F049
:1072F00051F807E0BB79012B04D1FB7923491846EB
:1073000000F048F83B6901333B613B69092B2FD9F9
:10731000FB791F49184600F03DF8002330E0FA7A67
:10732000FB7911461846FFF7E5FE7B79012B04D166
:107330000123BB770123FB600EE00123FB7707E00D
:10734000BA7FFB6802FB03F3FB60FB7F0133FB7733
:10735000FA7F7B799A42F3D3BB69FA6802FB03F3A5
:10736000BB617A69BB6913447B617B79013B7B71AB
:107370007B79002B7FF42DAF3B687A691A6001237B
:1073800018462037BD4680BD5C0405008804050012
:10739000E404050080B584B000AF03463960FB719A
:1073A0003B68FB6008E0FB685A1CFA601A78FB79BE
:1073B00011461846FFF79EFEFB681B78002BF2D1A2
:1073C00000BF1037BD4680BD80B582B000AF034618
:1073D0003960FB71FB7939681846FFF7DBFFFB79F1
:1073E00003491846FFF7D6FF00BF0837BD4680BDEA
:1073F0001405050080B584B000AF03460A46FB7152
:107400001346BB71BA79234BA3FB0213D9080B4671
:107410009B000B445B00D31AFB73BB791D4AA2FB94
:107420000323DB08DAB21B4BA3FB0213D9080B467C
:107430009B000B445B00D31ABB73BB79164AA2FBBB
:1074400003235B09DAB2134BA3FB0213D9080B46E3
:107450009B000B445B00D31A7B737B7B3033DAB227
:10746000FB7911461846FFF745FEBB7B3033DAB295
:10747000FB7911461846FFF73DFEFB7B3033DAB24D
:10748000FB7911461846FFF735FE00BF1037BD46A1
:1074900080BD00BFCDCCCCCC1F85EB5180B584B076
:1074A00000AF03460A46FB711346BB80BA883D4BCA
:1074B000A3FB0213D9080B469B000B445B00D31AB5
:1074C0009BB2FB73BB88374AA2FB0323DB089AB24B
:1074D000344BA3FB0213D9080B469B000B445B0003
:1074E000D31A9BB2BB73BB882F4AA2FB03235B0951
:1074F0009AB22C4BA3FB0213D9080B469B000B44FA
:107500005B00D31A9BB27B73BB88284AA2FB032380
:107510009B099AB2234BA3FB0213D9080B469B008D
:107520000B445B00D31A9BB23B73BB88204AA2FB7F
:1075300003235B0B9AB21B4BA3FB0213D9080B4628
:107540009B000B445B00D31A9BB2FB72FB7A303377
:10755000DAB2FB7911461846FFF7CCFD3B7B30339E
:10756000DAB2FB7911461846FFF7C4FD7B7B303356
:10757000DAB2FB7911461846FFF7BCFDBB7B30330E
:10758000DAB2FB7911461846FFF7B4FDFB7B3033C6
:10759000DAB2FB7911461846FFF7ACFD00BF103791
:1075A000BD4680BDCDCCCCCC1F85EB51D34D6210F8
:1075B0005917B7D180B586B000AF03463960FB716B
:1075C0003968784BA3FB0123DA0813469B00134468
:1075D0005B00CA1A1346FB753B68724AA2FB032381
:1075E000D908704BA3FB0123DA0813469B00134410
:1075F0005B00CA1A1346BB753B686B4AA2FB0323A8
:107600005909684BA3FB0123DA0813469B00134476
:107610005B00CA1A13467B753B68644AA2FB0323CE
:107620009909604BA3FB0123DA0813469B0013441E
:107630005B00CA1A13463B753B685D4AA2FB0323F5
:10764000590B584BA3FB0123DA0813469B00134444
:107650005B00CA1A1346FB743B685B09554AA2FBE0
:107660000323D9094F4BA3FB0123DA0813469B00E0
:1076700013445B00CA1A1346BB743B684E4AA2FB14
:107680000323990C474BA3FB0123DA0813469B0005
:1076900013445B00CA1A13467B743B68474AA2FB3B
:1076A0000323990D3F4BA3FB0123DA0813469B00EC
:1076B00013445B00CA1A13463B743B68404AA2FB62
:1076C0000323590E374BA3FB0123DA0813469B0013
:1076D00013445B00CA1A1346FB733B685B0A394AC2
:1076E000A2FB0323D9092F4BA3FB0123DA0813467E
:1076F0009B0013445B00CA1A1346BB73BB7B303339
:10770000DAB2FB7911461846FFF7F4FCFB7B303305
:10771000DAB2FB7911461846FFF7ECFC3B7C3033BC
:10772000DAB2FB7911461846FFF7E4FC7B7C303374
:10773000DAB2FB7911461846FFF7DCFCBB7C30332C
:10774000DAB2FB7911461846FFF7D4FCFB7C3033E4
:10775000DAB2FB7911461846FFF7CCFC3B7D30339B
:10776000DAB2FB7911461846FFF7C4FC7B7D303353
:10777000DAB2FB7911461846FFF7BCFCBB7D30330B
:10778000DAB2FB7911461846FFF7B4FCFB7D3033C3
:10779000DAB2FB7911461846FFF7ACFC00BF183788
:1077A000BD4680BDCDCCCCCC1F85EB51D34D6210F6
:1077B0005917B7D1C55A7C0A83DE1B436BCA5F6B6E
:1077C000893BE655834B040080B584B000AF034687
:1077D0000A46FB711346BB710123FB73BA79FB7B2D
:1077E0009B0042FA03F3DBB203F00F03BB73BB7BD6
:1077F000092B03D9BB7B3733DBB202E0BB7B3033D1
:10780000DBB2FA7919461046FFF774FCFB7B5A1E6F
:10781000FA73002BE2D100BF1037BD4680BDFFFFD9
:1078200080B584B000AF03460A46FB711346BB71B6
:10783000FB7913491846FFF7ADFD0123FB73BA79B5
:10784000FB7B9B0042FA03F3DBB203F00F03BB7335
:10785000BB7B092B03D9BB7B3733DBB202E0BB7B9D
:107860003033DBB2FA7919461046FFF743FCFB7B55
:107870005A1EFA73002BE2D100BF1037BD4680BDFF
:107880001805050080B584B000AF03460A46FB71B9
:107890001346BB800323FB73BA88FB7B9B0042FA31
:1078A00003F3DBB203F00F03BB73BB7B092B03D9DC
:1078B000BB7B3733DBB202E0BB7B3033DBB2FA7920
:1078C00019461046FFF716FCFB7B5A1EFA73002B75
:1078D000E2D100BF1037BD4680BDFFFF80B584B048
:1078E00000AF03460A46FB711346BB80FB79134980
:1078F0001846FFF74FFD0323FB73BA88FB7B9B0001
:1079000042FA03F3DBB203F00F03BB73BB7B092B1B
:1079100003D9BB7B3733DBB202E0BB7B3033DBB256
:10792000FA7919461046FFF7E5FBFB7B5A1EFA73FE
:10793000002BE2D100BF1037BD4680BD1805050001
:1079400080B584B000AF03463960FB710723FB7339
:10795000FB7B9B003A6822FA03F3DBB203F00F03D0
:10796000BB73BB7B092B03D9BB7B3733DBB202E094
:10797000BB7B3033DBB2FA7919461046FFF7BAFB0E
:10798000FB7B5A1EFA73002BE2D100BF1037BD46B5
:1079900080BDFFFF80B584B000AF03463960FB7146
:1079A000FB7913491846FFF7F5FC0723FB73FB7BB4
:1079B0009B003A6822FA03F3DBB203F00F03BB73B8
:1079C000BB7B092B03D9BB7B3733DBB202E0BB7B2C
:1079D0003033DBB2FA7919461046FFF78BFBFB7B9D
:1079E0005A1EFA73002BE2D100BF1037BD4680BD8E
:1079F0001805050080B582B000AF012202210020E9
:107A000002F01AFC01220321002002F015FC3B4683
:107A1000184603F025F93B461946002002F09AFF6C
:107A20000121002003F0DCFA184B194A1A60194BA7
:107A3000194A1A60194B1A4A1A601A4B1A4A1A60E4
:107A40001A4B1B4A1A601B4B1B4A1A601B4B1C4AE1
:107A50001A601C4B1C4A1A601C4B1D4A1A601D4BB5
:107A60001D4A1A601D4B1E4A1A601E4B1E4A1A60A0
:107A70001E4B1F4A1A601F4B1F4A1A601F4B204A99
:107A80001A6000BF0837BD4680BD00BF30990010A6
:107A90009573000038990010C97300003C990010DC
:107AA000F5700000409900102178000050990010F6
:107AB000DD78000020990010957900002C990010C5
:107AC000C97700004499001085780000489900109B
:107AD0004179000018990010F573000024990010F6
:107AE0009D7400001C990010B575000034990010B9
:107AF000197100004C990010757100002899001050
:107B00003F71000080B483B000AF0346FB71FB7986
:107B1000032B17D801A252F823F000BF2D7B0000E1
:107B2000337B0000397B00003F7B0000084B1B6863
:107B300009E0084B1B6806E0074B1B6803E0074B96
:107B40001B6800E0FEE718460C37BD4680BC704756
:107B5000F4000010F8000010FC00001000010010FC
:107B600080B483B000AF78600B46FB70FB78012BCC
:107B700008D10D4BD3F8C4200B497B681343C1F8DF
:107B8000C4300BE0FB78002B08D1074BD3F8C4209E
:107B90007B68DB4304491340C1F8C43000BF0C3795
:107BA000BD4680BC704700BF00C00F4080B582B0AA
:107BB00000AF264B00229A610020FFF7A3FF7860F8
:107BC0007B68234AA2FB0323DB0B013B3B601F4A7C
:107BD0003B6853617B681F4AA2FB03239A0C134640
:107BE0001B019B1A1C4AA2FB03239B0901333B6028
:107BF0007B68184AA2FB03239A0C1346DB009B1AEE
:107C0000DB009B1A144AA2FB03239B0901331B02CE
:107C10003A6813433B607B680E4AA2FB03239A0C2D
:107C200013469B001344DA00D31A0B4AA2FB03232A
:107C30009B0901331B043A6813433B60034A3B68CA
:107C4000136100BF0837BD4680BD00BF8000200023
:107C5000819F5E1683DE1B43D34D621080B489B0D2
:107C600000AFBA601A460346FB810B46BB81134640
:107C7000FB71BB68BB61BB687B61BB683B61534BFD
:107C80004FF0A052C3F8682FFB79012B05D1FB8977
:107C900003F00103002B09D0FEE7FB79022B05D18D
:107CA000FB8903F00303002B00D0FEE7FB89474A62
:107CB00003F03F0353600023FB617DE0FB79002B61
:107CC0000DD1424B03221A60BB691A783F4B9A6070
:107CD000BB690133BB61FB890133FB811DE0FB798B
:107CE000012B0DD1394B04221A607B691A88374B5E
:107CF0009A607B6902337B61FB890233FB810CE074
:107D0000324B05221A60314A3B691B6893603B691C
:107D100004333B61FB890433FB8100BF2B4BD3F859
:107D2000603F9B0E03F00103002BF7D0274B4FF071
:107D30008062C3F8682FFB893F2B8CBF012300238F
:107D4000DAB2BB6A013BF96999420CBF01230023F7
:107D5000DBB21343DBB2002B1BD01C4B4FF0805225
:107D6000C3F8682FBB899B01184A03F47C635360F6
:107D7000164B06221A6000BF144BD3F8603F1B0F4E
:107D800003F00103002BF7D0104B4FF08052C3F8E3
:107D9000682FFB893F2B0CD90023FB81BB89013362
:107DA000BB810A4B00225A60BB893E2B01D90023BC
:107DB000BB81FB690133FB61FA69BB6A9A42FFF43C
:107DC0007DAF00BF2437BD4680BC704780002000D7
:107DD00080B489B000AFBA601A460346FB810B46F7
:107DE000BB811346FB71BB68BB61BB687B61BB6831
:107DF0003B614C4B4FF0A052C3F8682FBB899B01ED
:107E000003F47C62FB8903F03F031A43454B5A603D
:107E1000FB79002B03D1434B08221A6013E0FB7956
:107E2000012B08D13F4B09221A60FB8903F00103A3
:107E3000002B08D071E03B4B0A221A60FB8903F04B
:107E40000303002B68D10023FB6160E0FB79002B6A
:107E50000BD1344BDB68DAB2BB691A70BB690133F2
:107E6000BB61FB890133FB8118E0FB79012B0BD14E
:107E70002C4BDB689AB27B691A807B6902337B6189
:107E8000FB890233FB8109E0264BDA683B691A6003
:107E90003B6904333B61FB890433FB8100BF214B09
:107EA000D3F8603F9B0E03F00103002BF7D01D4B6E
:107EB0004FF08062C3F8682FFB893F2B24D9BB6A3F
:107EC000013BFA699A421FD20023FB81BB8901332F
:107ED000BB81BB899B0103F47C62FB8903F03F03F8
:107EE0001A43104B5A60FB79002B03D10D4B08222B
:107EF0001A6009E0FB79012B03D10A4B09221A60B1
:107F000002E0084B0A221A60FB690133FB61FA693F
:107F1000BB6A9A429AD300E000BF2437BD4680BCBA
:107F2000704700BF8000200080B487B000AF0346D8
:107F3000FB71FB79002B0DD11B4BD3F82C317B61EE
:107F4000194BD3F828313B61174BD3F82431013357
:107F5000FB600CE0144BD3F818317B61124BD3F863
:107F600014313B61104BD3F810310133FB607A6957
:107F70003B699A4201D1002311E07B69002B06D1B5
:107F8000FB68013B3A699A4201D1022307E03B6951
:107F900001337A699A4201D1022300E00123184695
:107FA0001C37BD4680BC70470040082080B483B0B9
:107FB00000AF074BD3F828317B607B6803F1006387
:107FC00016339B001B6818460C37BD4680BC7047B3
:107FD0000040082080B483B000AF074BD3F81831BD
:107FE0007B607B6803F180630433DB001B68184609
:107FF0000C37BD4680BC70470040082080B483B079
:1080000000AF094BD3F818317B607B6803F18063C4
:108010000433DB001B68C3F30A03013318460C3733
:10802000BD4680BC704700BF0040082080B483B0CC
:1080300000AF074BD3F818317B607B6803F1806396
:10804000DB001B6818460C37BD4680BC704700BF7C
:108050000040082080B483B000AF0A4BD3F8183139
:108060007B607B6801337B607B68042B01D100233C
:108070007B60044A7B68C2F8183100BF0C37BD46EC
:1080800080BC70470040082080B588B000AF28E170
:108090009C4AFB69C2F8E83FFB6903F00303002B2D
:1080A00046D0FFF797FFF8600023BB60FB68DB0C4E
:1080B00003F01003BA681343BB60FB685B0D03F069
:1080C0000803BA681343BB60FB68DB0D03F00403CD
:1080D000BA681343BB60FB68DB0E03F00103BA68A8
:1080E0001343BB60FB689B0D03F04003BA68134366
:1080F000BB60FB681B0E03F02003BA681343BB6030
:10810000FB681B0A03F48053BA681343BB60BB6867
:10811000002B04D1FB6923F00203FB6108E07A4BDA
:108120001B6A002B04D0784B1B6ABA68104698472C
:10813000FB6903F03003002B30D0FFF737FF786086
:1081400000233B607B685B0C03F400733A681343C5
:108150003B607B68DB0C03F480733A6813433B603D
:108160007B685B0D03F080033A6813433B607B68D8
:10817000DB0C03F480633A6813433B607B68DB0CE1
:1081800003F400633A6813433B605F4B1B6A002BA8
:1081900004D05D4B1B6A3A6810469847FB6903F0B0
:1081A0000803002B79D00120FFF7BEFE0346002B09
:1081B00073D0FFF723FF0346BB61BB69002B6CDD67
:1081C000BB69033BBB61FFF705FF02464F4B134002
:1081D000002B62D14E4B1B7819464E4B1A680B464A
:1081E0005B000B445B0213445B004B4A13447B610E
:1081F000FFF71CFF03463B61464B1A68BB691344FB
:10820000444A1360434B1B68B3F5C06F16D3414B10
:1082100000221A603C4B1B6A002B3ED03A4B1B6A73
:108220000420984739E03A69931C3B617B69991CAB
:10823000796112881A80BB69023BBB61BB69002B64
:10824000F1DCFFF7C7FE034603F08043002B22D08A
:108250002D4B9B69002B0ED02B4B9A692C4B1B7816
:1082600019460B465B000B449B022B495818294BBF
:108270001B6819469047274B00221A60244B1B7835
:108280000133DAB2224B1A70214B1B78012B02D931
:108290001F4B00221A70FFF7DDFEFB6903F040035D
:1082A000002B06D0184BDB69002B02D0164BDB6984
:1082B0009847FB6903F48053002B06D0124B9B6A4E
:1082C000002B02D0104B9B6A9847FB6903F40053C4
:1082D000002B06D00C4B5B6A002B02D00A4B5B6A6A
:1082E0009847084BD3F8E02F064BD3F8E43F1340F0
:1082F000FB61FB69002B7FF4CBAE00BF2037BD468E
:1083000080BD00BF00400820CC1000100000901B72
:10831000FC280010F8280010F810001080B500AFFD
:1083200001214FF00050FFF71BFC104B00221A6197
:108330000F4B00221A610F4B00221A610E4B0022D4
:108340001A610E4B00221A610D4B00221A610D4B6F
:1083500000221A610C4B00221A610C4BFF229A601A
:108360000A4BFF221A6100BF80BD00BF0001082038
:108370002001082040010820600108208001082019
:10838000A0010820C0010820E0010820000008200A
:1083900080B487B000AF7860A54BDA697B681B6852
:1083A000012101FA03F31340DBB2002B01D00023BB
:1083B0008CE17B681B689F4A52F823307B617B68A5
:1083C0001B68012202FA03F3994ADBB293607B68CF
:1083D0001B68012202FA03F3954ADBB213617B6941
:1083E0000022DA607B6900221A617B681A6A7B6965
:1083F0009A607B685B69062B00F2D48001A252F878
:1084000023F000BF218400005F840000C9840000C5
:1084100033850000A58500005F840000C98400004A
:108420007B68DA687B691A607B681A697B695A60C5
:108430007B685B68C3F30B027B689B689B0403F457
:10844000E0131A437B689B685B0503F460031343E6
:1084500043F00C4343F410337A69D360A4E07B68A3
:10846000DA687B691A607B68DB69734A52F82330EB
:108470001A467B695A607B685B68C3F30B027B68B2
:10848000DB696E49CB5C1B0303F4E0431A437B6852
:10849000DB696A49CB5CDB0303F460331A437B6816
:1084A000DB696749CB5C9B0403F4E0131A437B68E8
:1084B000DB696349CB5C5B0503F46003134343F062
:1084C00004427B69DA606FE07B689B695A4A52F824
:1084D00023301A467B691A607B681A697B695A6087
:1084E0007B685B68C3F30B027B689B695349CB5C79
:1084F0001B0303F4E0431A437B689B694F49CB5C41
:10850000DB0303F460331A437B689B694C49CB5C03
:108510009B0403F4E0131A437B689B694849CB5CD6
:108520005B0503F46003134343F008427B69DA60A0
:108530003AE07B689B69404A52F823301A467B69CF
:108540001A607B68DB693C4A52F823301A467B6923
:108550005A607B685B68C3F30B027B689B69374991
:10856000CB5C1B0303F4E0431A437B68DB693349AC
:10857000CB5CDB0303F460331A437B689B693049AF
:10858000CB5C9B0403F4E0131A437B68DB692C4942
:10859000CB5C5B0503F46003134343F000427B694B
:1085A000DA6001E0002391E07B689B69082B24D00E
:1085B0007B689B69092B20D07B689B690F2B0ED9A8
:1085C000204BD3F8C4317A689269103A012101FA3C
:1085D00002F211461B4A0B43C2F8C4310DE0194B9D
:1085E000D3F8C4317A689269012101FA02F2D243C8
:1085F0001146144A0B40C2F8C4317B68DB69082B72
:1086000030D07B68DB69092B2CD07B68DB690F2BB2
:108610001AD90C4BD3F8C4317A68D269103A0121C7
:1086200001FA02F21146074A0B43C2F8C43119E0BD
:108630000000082088000010080000101C0505003C
:108640003C05050000C00F40234BD3F8C4317A68C5
:10865000D269012101FA02F2D24311461E4A0B40AF
:10866000C2F8C4311D4B01221A6300BF1B4B1B6BA8
:1086700003F00103002BF9D07B689B693B613B69E8
:108680000F2B02D93B69103B00E03B693B617B68E3
:10869000DB69FB60FB680F2B02D9FB68103B00E035
:1086A000FB68FB607B685B69DB0203F460523B693B
:1086B0005B0003F03E031A43FB689B0103F4F8637D
:1086C000134343F440427B691A61012318461C3767
:1086D000BD4680BC704700BF00C00F4000000820AE
:1086E00080B485B000AF03460A46FB711346BB71E8
:1086F000FB790C4A52F82330FB60BB79012B06D181
:10870000FB681B6943F00102FB681A6105E0FB6826
:108710001B6923F00102FB681A6100BF1437BD46D4
:1087200080BC70478800001080B483B000AF03465F
:108730000A46FB711346BB71FB79042B52D801A288
:1087400052F823F0598700007587000091870000D8
:10875000AD870000C98700002B4B1A68BB79012147
:1087600001FA03F31340DBB2002B01D0012346E0F2
:10877000002344E0244B5A68BB79012101FA03F33A
:108780001340DBB2002B01D0012338E0002336E098
:108790001D4BDA68BB79012101FA03F31340DBB208
:1087A000002B01D001232AE0002328E0164B9A6910
:1087B000BB79012101FA03F31340DBB2002B01D096
:1087C00001231CE000231AE00F4B5A69BB790121F9
:1087D00001FA03F31340DBB2002B01D001230EE0BA
:1087E00000230CE0084BDA69BB79012101FA03F39D
:1087F0001340DBB2002B01D0012300E00023184618
:108800000C37BD4680BC70470000082080B483B0A0
:1088100000AF03460A46FB711346BB71FB79002B80
:1088200007D1BB79012202FA03F3084ADBB2936055
:1088300006E0BB79012202FA03F3044ADBB21361BA
:1088400000BF0C37BD4680BC704700BF0000082049
:1088500080B483B000AF0346FB71FB7903F01F03C4
:10886000012202FA03F1054A97F907305B0942F841
:10887000231000BF0C37BD4680BC704700E100E00C
:1088800080B58EB000AFF860B9607A604FF40073C5
:10889000BB610223FB617B68BB6200237B63BB6817
:1088A0007B617B68052B0AD1FB683B62154BD3F8D3
:1088B00080307B620023FB6201233B630FE07B6817
:1088C000062B0AD10F4BD3F880303B62FB687B62EA
:1088D0000123FB6200233B6301E000230EE007F16C
:1088E00014031846FFF754FDBB68DBB2012118469C
:1088F000FFF7F6FE1A20FFF7ABFF012318463837C3
:10890000BD4680BD00000C4080B500AF00210020B6
:10891000FFF70AFF0346002B20D000210120FFF7BC
:1089200003FF0346002B08D000210020FFF76EFF55
:108930001F4B1B6801331E4A136000210220FFF702
:10894000F3FE0346002B30D000210120FFF75EFF2D
:10895000184B1B680133174A136026E001210020E1
:10896000FFF7E2FE0346002B1FD001210120FFF795
:10897000DBFE0346002B08D001210020FFF746FF55
:108980000D4B1B6801330C4A136001210220FFF7D5
:10899000CBFE0346002B08D001210120FFF736FF54
:1089A000064B1B680133054A136000BF80BD00BF42
:1089B0006899001064990010609900105499001093
:1089C00080B400AF054BDB6B044A43F4E36343F030
:1089D0000203D36300BFBD4680BC704700000C405B
:1089E00080B400AF054BDB6B044A23F4E36323F050
:1089F0000203D36300BFBD4680BC704700000C403B
:108A000080B400AF054BDB6B044A43F4E56343F0ED
:108A10000203D36300BFBD4680BC704700000C401A
:108A200080B400AF054BDB6B044A23F4E56323F00D
:108A30000203D36300BFBD4680BC704700000C40FA
:108A400080B586B000AF0346FB714FF0FF337B610A
:108A50004FF6FF733B612EE007F10803184601F063
:108A60000BF80346002B2AD1BB6803F48073002B5C
:108A700003D16FF004037B6111E0BB685B1203F06C
:108A80000F02FB799A4208D0BB685B1203F00F0318
:108A9000072B04D06FF0030313E0002311E03B69C0
:108AA000013B3B610023FB6002E0FB680133FB609C
:108AB000FB681F2BF9D93B69002BCDD100E000BF2B
:108AC0007B6918461837BD4680BDFFFF80B483B070
:108AD00000AF194B5B6B7B607B6803F00103002BDD
:108AE00002D0154B01229A637B6803F00403002B2C
:108AF00002D0114B04229A637B6803F04003002BE1
:108B000002D00D4B40229A637B6803F08003002B58
:108B100002D0094B80229A637B6803F40063002B28
:108B200004D0054B4FF400629A6300BF00BF0C37BE
:108B3000BD4680BC704700BF00000C4080B483B0CD
:108B400000AF1B4B5B6B7B607B6803F00203002B69
:108B500002D0174B02229A637B6803F00803002BB4
:108B600002D0134B08229A637B6803F01003002B9A
:108B700002D00F4B10229A637B6803F02003002B76
:108B800002D00B4B20229A637B6803F40073002B06
:108B900003D0074B4FF400729A63064B00221A6011
:108BA000054A7B68136000BF0C37BD4680BC704728
:108BB00000000C40002900100429001080B582B08C
:108BC00000AF124B5B6B7B607B6803F48073002B00
:108BD0000ED00E4B4FF480729A630D4B00221A6038
:108BE0000C4B00221A60FFF7FBFEFFF719FF0AE0AB
:108BF0007B6803F48063002B04D0044B4FF4806245
:108C00009A6300E000BF0837BD4680BD00000C40FD
:108C1000002900100429001080B400AF00BFBD4639
:108C200080BC704780B582B000AF144B5B6B7B603B
:108C30007A6840F23A231340002B02D0FFF77EFF00
:108C400018E07B6803F4A063002B02D0FFF7B6FFA7
:108C500010E07A680A4B1340002B02D0FFF7DCFFCC
:108C600008E07A6840F6C5031340002B02D0FFF7F6
:108C70002DFF00BF0837BD4680BD00BF00000C407F
:108C800000C40F0080B586B000AF786000237B6120
:108C90000120FEF737FF38617B685A003B691344B7
:108CA0005A1E7B685B00B2FBF3F37B617B69002B90
:108CB00002D07B69013B7B610C4B5B6823F4FF7343
:108CC00023F001037A691343084A43F48073536025
:108CD0000023FB6002E0FB680133FB60FB680F2BA5
:108CE000F9D900BF1837BD4680BD00BF00000C4059
:108CF00080B584B000AF78600023FB737B68002BE5
:108D000006D11C4B5B681B4A23F4006353600AE0E6
:108D10007B68012B07D1174B5B68164A43F400634D
:108D200053600A23FB730023BB6002E0BB6801337E
:108D3000BB60BB680F2BF9D90F4B1B785BB2002BC4
:108D400009D00D4B1B785BB2022B04D00A4B1B7869
:108D50005BB2032B09D1FB7B184600F037FF0346BB
:108D6000002B02D04FF0FF3300E0002318461037ED
:108D7000BD4680BD00000C406C99001080B584B0E9
:108D800000AF0346FB718F4BFF221A708E4BD3F856
:108D900088308D4A23F01F03C2F888308A4BD3F8FD
:108DA0008C30894A23F01F03C2F88C30864BD3F8ED
:108DB0009430854A23F01F03C2F89430824BD3F8D5
:108DC0009830814A23F01F03C2F898307E4BD3F8C5
:108DD0009C307D4A23F01F03C2F89C307A4BD3F8B5
:108DE000AC30794A23F01F03C2F8AC30764BD3F88D
:108DF000B030754A03F01F03C2F8B030734B1B68E4
:108E0000724A43F4C75343F00C0313606F4B4FF4A3
:108E10008052DA616D4B4FF40062DA616B4B802255
:108E2000DA616A4B4022DA61684B20229A61674B13
:108E30000822DA61654B0422DA610023FB6002E05C
:108E4000FB680133FB60FB68B3F5801FF8D3604B10
:108E5000D3F8C4305E4A43F08053C2F8C4305D4B4F
:108E60005B6803F48073002B0ED05A4B5B68594A41
:108E700023F4807353600023FB6002E0FB6801333E
:108E8000FB60FB680F2BF9D9524B1B6803F0020300
:108E9000002B0BD04F4B00221A600023FB6002E036
:108EA000FB680133FB60FB680F2BF9D9494B0022AB
:108EB000DA6302220221012001F0BEF9022203211D
:108EC000012001F0B9F902220521012001F0B4F9D5
:108ED00002220621012001F0AFF902220721012020
:108EE00001F0AAF902220B21012001F0A5F90222CA
:108EF0000C21012001F0A0F9FB79002B08D1344BA3
:108F0000D3F8A031324A23F00803C2F8A03107E0B9
:108F10002F4BD3F8A0312E4A43F00803C2F8A031FA
:108F20002C4B6FF060425A622A4B0022DA60002319
:108F3000FB6002E0FB680133FB60FB680F2BF9D993
:108F4000244B0022DA620023FB6002E0FB6801335D
:108F5000FB60FB680F2BF9D91E4B40F2FF729A633E
:108F60001C4B02221A600023FB6002E0FB68013305
:108F7000FB60FB680F2BF9D90023FB6002E0FB6864
:108F80000133FB60FB68B3F5002FF8D31248FFF7FD
:108F900079FE104B1B680F4A43F001031360002356
:108FA000FB6002E0FB680133FB60FB680F2BF9D923
:108FB0001D20FFF74DFC00F0F3FA00231846103790
:108FC000BD4680BD6C99001000C002402080092081
:108FD00000C00F4000000C40801A060080B485B02D
:108FE00000AF78600023FB607B68012B06D10D4B3E
:108FF0001B680C4A43F04003136005E0094B1B68F3
:10900000084A03F0830313600023FB6002E0FB685F
:109010000133FB60FB680F2BF9D900BF1437BD4645
:1090200080BC704700000C4080B48BB000AF78600B
:1090300000237B627B681B683B627B685B68FB612B
:109040007B689B68BB617B68DB687B6110E0354BAC
:109050000022DA600023FB6002E0FB680133FB6062
:10906000FB680F2BF9D92F4A3B6943F400639363E4
:109070002C4B5B6B3B613B6903F40063002BE6D137
:109080003B6A03F03F037A6A13437B62BB69002BA0
:1090900004D17B6A23F0C0037B620EE0BB69012B25
:1090A00004D17B6A43F040037B6206E0BB69022B7C
:1090B00003D17B6A43F0C0037B627B69012B04D13F
:1090C0007B6A23F480737B6203E07B6A43F48073E2
:1090D0007B627B6A43F480637B62124B40F2FF72D7
:1090E0009A63104AFB6993600E4A7B6AD36000233F
:1090F000FB6002E0FB680133FB60FB680F2BF9D9D2
:1091000000BF084B5B6B002BFBD000BF054B5B6BBC
:1091100003F40063002BF9D100BF2C37BD4680BC9F
:10912000704700BF00000C4080B489B000AFF86009
:10913000B9607A600023BB610023FB61BB68002B30
:1091400001D100238EE04A4B5B6BBB61BB6903F02E
:109150000403002B16D0464ABB6943F00403936313
:10916000434B0022DA60424B4FF0FF329A600023FB
:10917000FB6102E0FB690133FB61FB690F2BF9D94D
:10918000BB696FE0BB6903F00103002B25D0384AAF
:10919000BB6943F001039363354BDB6803F03F0386
:1091A0007B617B69012B05D07B69292B02D07B6910
:1091B0000C2B10D12E4B0022DA602D4B4FF0FF32DA
:1091C0009A600023FB6102E0FB690133FB61FB69EC
:1091D0000F2BF9D90BE0BB6944E0BB6903F04003F6
:1091E000002BB0D0224ABB6943F040039363204B6D
:1091F0001B6903F03F03FA689A4211D0FB68012B08
:109200000ED0FB68292B0BD0FB68022B08D0FB6823
:10921000092B05D04FF0FF33BB614FF0FF3321E046
:109220007B68002B1DD0BB68012B04D1104B5A6901
:109230007B681A6015E0BB68022B12D10C4B5A698F
:109240007B681A600A4A7B68043392691A60084A8C
:109250007B680833D2691A60054A7B680C33126A4E
:109260001A60002318462437BD4680BC704700BFF3
:1092700000000C4080B586B000AF78607B681B684A
:109280003B617B689B68FB607B681B69BB6078689F
:10929000FFF7CAFEBB68002B02D1FB68002B06D08B
:1092A000BA68F9683869FFF73FFF786102E06FF04C
:1092B00001037B617B6918461837BD4680BD80B5C8
:1092C00086B000AF00237B600023BB600023FB60FF
:1092D00000233B6100237B613B1D1846FFF7A4FE82
:1092E000002318461837BD4680BDFFFF80B58EB0FD
:1092F00000AF4FF0FF333B634FF400737B630123F8
:109300007B601B4BBB600123FB6001233B6107F1CA
:1093100018037B6124E03B1D1846FFF7ABFF0346B3
:10932000FB62FB6A03F00403002B03D06FF002031F
:109330003B6309E0BB69002B03DB6FF002033B6377
:1093400002E000233B630EE00023BB6202E0BB6A45
:109350000133BB62BB6A1F2BF9D97B6B013B7B637B
:109360007B6B002BD7D13B6B18463837BD4680BD91
:109370000080FF0080B590B000AF4FF0FF33BB63BB
:10938000012387F83730AA2387F8363097F837302B
:109390001A0297F8363013433B631423FB63082308
:1093A0007B603B6BBB600123FB6001233B6107F1EA
:1093B00018037B612FE03B1D1846FFF75BFF034658
:1093C000FB62FB6A03F00403002B05D06FF002037D
:1093D000BB630023BB6218E0BB69DAB297F8363092
:1093E0009A4202D06FF0010319E0BB691B0A03F037
:1093F0000F0297F837309A4202D06FF001030EE067
:1094000000230CE0BB6A0133BB62BB6A1F2BF9D996
:10941000FB6B013BFB63FB6B002BCCD1BB6B18469A
:109420004037BD4680BDFFFF80B58EB000AF4FF026
:10943000FF33FB62274B1B785BB2002B09D0254B17
:109440001B785BB2022B04D0224B1B785BB2032B40
:1094500003D1214B1B683B6301E000233B631423D2
:109460007B6337233B603B6B7B600123BB60012345
:10947000FB6007F114033B6123E03B461846FFF70E
:10948000F9FE0346BB62BB6A002B03D04FF0FF33EB
:10949000FB620AE07B6903F02003002B02D000236B
:1094A000FB6211E06FF00403FB6200237B6202E0C9
:1094B0007B6A01337B627B6A1F2BF9D97B6B013B93
:1094C0007B637B6B002BD8D1FB6A18463837BD46CF
:1094D00080BD00BF6C9900105C99001080B590B001
:1094E00000AF0346FB714FF0FF33BB63FB799B0773
:1094F00043F47F0343F400437B634FF40053FB6367
:109500002923BB607B6BFB6001233B6101237B61F3
:1095100007F11C03BB610020FFF760FD35E0FFF79A
:1095200083FFB863BB6B002B21D107F108031846FA
:10953000FFF7A0FE03463B633B6B03F00403002BE5
:1095400003D06FF00203BB6313E0FB69002B03DB66
:109550006FF00203BB630CE0FB699B0FDBB203F00F
:109560000103DAB20D4B1A700023BB6310E0BB6B32
:109570000FE00023FB6202E0FB6A0133FB62FB6A3F
:109580001F2BF9D9FB6B013BFB63FB6B002BC6D197
:10959000BB6B18464037BD4680BD00BF58990010D0
:1095A00080B582B000AF4FF0FF337B60324BFF22BB
:1095B0001A70FFF784FE0346002B02D04FF0FF33F2
:1095C00056E00020FFF70AFD00233B6002E03B6805
:1095D00001333B603B68B3F5405FF8D3FFF7CAFE49
:1095E00078607B6813F1020F01D17B6840E07B68F3
:1095F000002B13D10120FFF771FF78607B68002BEF
:109600000CD11D4B02221A701C4B1B78DBB2002BB5
:1096100002D0194B03221A70002329E07B68002B2B
:109620000BD00020FFF75AFF78607B68002B04D135
:10963000114B00221A7000231AE07B68002B16D011
:109640000120FFF7CBFC00233B6002E03B680133C5
:109650003B603B68B3F5405FF8D3FFF747FE034636
:10966000002B04D1044B01221A70002300E00023D8
:1096700018460837BD4680BD6C99001058990010F7
:1096800080B400AF034B1B785BB21846BD4680BC6C
:10969000704700BF6C99001080B58EB000AF786045
:1096A0004FF400737B630223BB600023FB60022343
:1096B0003B6101237B6107F11C03BB6158E007F1AB
:1096C00008031846FFF7D6FD03463B633B6B03F0E8
:1096D0000403002B40D17B68002B3BD0FB691B0EA1
:1096E000DAB27B681A70FB691B0A9AB27B685A80EF
:1096F000FB69DAB27B681A713A6A7B689A607B6AA6
:109700001B0EDAB27B681A737B6A1A02BB6A1B0EE5
:109710001A437B681A61BB6A1B0DDBB203F01F039F
:10972000DAB27B681A75BB6A1B0A9BB2C3F30B03E0
:109730009AB27B68DA82BB6A5B08DBB203F07F0314
:10974000DAB27B681A76BB6ADBB203F00103DAB2E5
:109750007B685A76002310E00023FB6202E0FB6A7C
:109760000133FB62FB6A1F2BF9D97B6B013B7B63E7
:109770007B6B002BA3D16FF0020318463837BD4630
:1097800080BDFFFF80B58CB000AF4FF0FF337B6230
:10979000334B1B785BB2002B09D0314B1B785BB28B
:1097A000022B04D02E4B1B785BB2032B02D100237B
:1097B000BB6202E04FF48033BB622023FB620323D1
:1097C0007B60BB6ABB600123FB6001233B6107F147
:1097D00018037B613BE03B1D1846FFF74BFD03463A
:1097E0003B623B6A03F00403002B03D06FF00203DB
:1097F0007B6220E0BB6903F48073002B03D16FF020
:1098000004037B6217E0BB695B0A03F00F03022BC2
:1098100003D06FF003037B620DE0BB691B0C114AA0
:109820001360104B1B681B040E4A13600020FFF7E7
:10983000D5FB00230FE00023FB6102E0FB6901334D
:10984000FB61FB691F2BF9D9FB6A013BFB62FB6AD9
:10985000002BC0D17B6A18463037BD4680BD00BFA3
:109860006C9900105C99001080B400AF024B1B682B
:109870001846BD4680BC70475C99001080B590B01A
:1098800000AF78602F4B1B785BB2002B09D02D4BBB
:109890001B785BB2022B04D02A4B1B785BB2032BE4
:1098A00003D1294B1B68BB6302E04FF48033BB63D9
:1098B0002023FB630923FB60BB6B3B6102237B61BD
:1098C0000123BB6107F12003FB6132E00320FFF7B6
:1098D000B7F80346002B02D06FF003032EE007F128
:1098E0000C031846FFF7C6FC03467B637B6B002B1B
:1098F00013D17B68002B0ED03A6A7B681A607B68B4
:1099000004337A6A1A607B680833BA6A1A607B6823
:109910000C33FA6A1A60002310E000233B6302E074
:109920003B6B01333B633B6B1F2BF9D9FB6B013B5B
:10993000FB63FB6B002BC9D14FF0FF331846403758
:10994000BD4680BD6C9900105C99001080B58EB04A
:1099500000AF4FF0FF33FB62444B1B785BB2002B30
:1099600009D0424B1B785BB2022B04D03F4B1B78D3
:109970005BB2032B03D13E4B1B683B6302E04FF409
:1099800080333B6320237B6307233B603B6B7B601F
:109990000123BB600123FB6007F114033B615DE021
:1099A0000320FFF74DF80346002B1AD00420FFF7E1
:1099B00047F80346002B14D00520FFF741F8034673
:1099C000002B0ED00720FFF73BF80346002B08D0F2
:1099D0000820FFF735F80346002B02D06FF0030391
:1099E00040E03B461846FFF745FC0346BB62BB6AB6
:1099F000002B05D04FF0FF33FB6200237B6227E092
:109A00007A691C4B1340002B02D06FF0010329E050
:109A10000320FFF715F80346002B14D00420FFF7AE
:109A20000FF80346002B0ED00720FFF709F8034676
:109A3000002B08D00820FFF703F80346002B02D0C4
:109A40006FF003030EE000230CE07B6A01337B62BE
:109A50007B6A1F2BF9D97B6B013B7B637B6B002BF4
:109A60009ED1FB6A18463837BD4680BD6C99001000
:109A70005C9900100880F8FD80B590B000AF786068
:109A80004FF0FF337B637B68002B01D1002346E05E
:109A9000254B1B785BB2002B09D0234B1B785BB2A4
:109AA000022B04D0204B1B785BB2032B03D11F4B3E
:109AB0001B68BB6302E04FF48033BB632023FB636E
:109AC0000D23BB60BB6BFB6001233B6101237B610A
:109AD00007F11C03BB611EE007F108031846FFF7FE
:109AE000C9FB03463B633B6B002B08D04FF0FF33B1
:109AF0007B63FB6B013BFB630023FB6208E0FB69BC
:109B00001A467B681A60002309E0FB6A0133FB6296
:109B1000FB6A0F2BF9D9FB6B002BDDD17B6B184651
:109B20004037BD4680BD00BF6C9900105C990010A5
:109B300080B590B000AF78604FF0FF33BB63202357
:109B4000FB631023FB607B683B6101237B61012386
:109B5000BB6107F12003FB612EE00420FEF770FFDC
:109B60000346002B02D06FF0030329E007F10C033A
:109B70001846FFF77FFB03467B637B6B002B05D00A
:109B80004FF0FF33BB6300233B630FE03A6A0E4B99
:109B90001340002B02D06FF0010311E00420FEF708
:109BA0004FFF03460CE03B6B01333B633B6B1F2BCA
:109BB000F9D9FB6B013BFB63FB6B002BCDD1BB6B7E
:109BC00018464037BD4680BD0880F8FD80B590B08E
:109BD00000AF78604FF0FF33BB632023FB630623A5
:109BE000FB607B683B6101237B610123BB6107F163
:109BF0002003FB6134E00420FEF722FFB863BB6B57
:109C0000002B01D0BB6B2FE0FFF70EFC0346002BAF
:109C10001AD107F10C031846FFF72CFB03467B63B0
:109C20007B6B002B03D04FF0FF33BB630CE03A6A31
:109C30000F4B1340002B02D06FF0010314E00420FF
:109C4000FEF7FEFE03460FE000233B6302E03B6BA2
:109C500001333B633B6B1F2BF9D9FB6B013BFB6370
:109C6000FB6B002BC7D1BB6B18464037BD4680BD90
:109C70000880F8FD80B400AF024B1B681846BD4653
:109C800080BC70470029001080B58EB000AF4FF047
:109C9000FF333B630420FEF7D3FE0346002B01D1C4
:109CA000002351E020237B630C237B600023BB60F7
:109CB0000123FB6001233B6107F118037B613FE057
:109CC0000520FEF7BDFE0346002B08D00620FEF758
:109CD000B7FE0346002B02D06FF0030334E03B1DB8
:109CE0001846FFF7C7FA0346FB62FB6A002B05D054
:109CF0004FF0FF333B630023BB621BE0BA69144B98
:109D00001340002B02D06FF001031DE00720FEF787
:109D100097FE0346002B08D00420FEF791FE034671
:109D2000002B02D06FF003030EE000230CE0BB6AAF
:109D30000133BB62BB6A1F2BF9D97B6B013B7B6391
:109D40007B6B002BBCD13B6B18463837BD4680BDC2
:109D50000880F8FD80B590B000AF786039604FF0B2
:109D6000FF337B633B68012B02D91923BB6301E0FE
:109D70001823BB632023FB63BB6BBB602A4B1B78A0
:109D80005BB2032B02D17B68FB6002E07B685B0265
:109D9000FB6001233B6101237B6107F11C03BB6175
:109DA0003AE00420FEF74CFE0346002B02D06FF091
:109DB000030335E007F108031846FFF75BFA034693
:109DC0003B633B6B002B05D04FF0FF337B630023DD
:109DD000FB621BE0FA69154B1340002B02D06FF0B9
:109DE00001031DE00620FEF72BFE0346002B08D0E2
:109DF0000420FEF725FE0346002B02D06FF003037C
:109E00000EE000230CE0FB6A0133FB62FB6A1F2BB0
:109E1000F9D9FB6B013BFB63FB6B002BC1D17B6B67
:109E200018464037BD4680BD6C9900100880F8FD8B
:109E300080B590B000AF786039604FF0FF337B633E
:109E40003B68012B02D91223BB6301E01123BB63E2
:109E50002023FB63BB6BBB602A4B1B785BB2032BDD
:109E600002D17B68FB6002E07B685B02FB60012340
:109E70003B6101237B6107F11C03BB613AE00420D5
:109E8000FEF7DEFD0346002B02D06FF0030335E042
:109E900007F108031846FFF7EDF903463B633B6BF8
:109EA000002B05D04FF0FF337B630023FB621BE0E8
:109EB000FA69154B1340002B02D06FF001031DE02F
:109EC0000520FEF7BDFD0346002B08D00420FEF759
:109ED000B7FD0346002B02D06FF003030EE0002312
:109EE0000CE0FB6A0133FB62FB6A1F2BF9D9FB6BA9
:109EF000013BFB63FB6B002BC1D17B6B18464037EA
:109F0000BD4680BD6C9900100880F8FD80B586B014
:109F100000AFF860B9607A6000237B617B685B0208
:109F2000B3F5803F02D36FF0010352E02B4AFB6888
:109F300013602B4B40F2FF729A63294B0022DA62C6
:109F400000233B6102E03B6901333B613B690F2B1E
:109F5000F9D90420FEF774FD0346002B02D06FF000
:109F6000030336E01E4B1F4A5A621D4A7B685B02A0
:109F700093621D4B01221A601C4B00221A601C4B7D
:109F800000221A701B4B00221A60FEF719FD796837
:109F9000B868FFF7DFFE0346002B02D04FF0FF3317
:109FA00017E00E4B1B68052200211846FEF768FCDF
:109FB0007B6943F099037B61094A7B69D362002383
:109FC0003B6102E03B6901333B613B690F2BF9D9EF
:109FD000002318461837BD4680BD00BFA8000010FA
:109FE00000000C40002D3101002900100429001050
:109FF000082900100C29001080B586B000AFF86069
:10A00000B9607A6000237B617B685B02B3F5803FB7
:10A0100002D36FF0010352E02B4AFB6813602B4B15
:10A0200040F2FF729A63294B0022DA6200233B61FF
:10A0300002E03B6901333B613B690F2BF9D90420F6
:10A04000FEF7FEFC0346002B02D06FF0030336E060
:10A05000FEF7D6FC1D4B1E4A5A621C4A7B685B0207
:10A0600093621C4B01221A601B4B00221A601B4B8F
:10A0700000221A601A4B00221A70134B1B6806222A
:10A0800001211846FEF7FCFB7B6943F09B037B61D3
:10A090000E4A7B69D36200233B6102E03B690133D6
:10A0A0003B613B690F2BF9D97968B868FFF7C0FEAF
:10A0B0000346002B02D04FF0FF3300E00023184688
:10A0C0001837BD4680BD00BFAC00001000000C403A
:10A0D000404B4C00002900100429001010290010EA
:10A0E0000829001080B485B000AF03460A46FB7112
:10A0F0001346BB710023FB60FB795A01BB79134403
:10A1000003F1805303F530439B00FB60FB68184666
:10A110001437BD4680BC704780B485B000AF03469D
:10A120000A46FB711346BB710523FB73FB79052BB4
:10A1300075D801A252F823F051A10000D7A1000068
:10A14000F5A10000F5A10000F5A10000FBA10000B1
:10A15000BB79062B0BD9BB79092B02D9BB790B2B09
:10A1600005D9BB790D2B05D9BB79162B02D8002355
:10A17000FB732FE0BB790C2B08D0BB790D2B05D0DE
:10A18000BB79162B05D9BB791A2B02D80123FB7397
:10A1900020E0BB791D2B05D0BB791E2B02D0BB79EB
:10A1A0001F2B02D10223FB7314E0BB791B2B02D0BF
:10A1B000BB791C2B02D10323FB730BE0BB79072B6C
:10A1C00005D0BB79082B02D0BB79092B29D10423F8
:10A1D000FB7326E025E0BB791D2B02D80023FB731F
:10A1E00021E0BB791E2B02D0BB791F2B1BD1012391
:10A1F000FB7318E00023FB7318E0BB79012B02D935
:10A20000BB79042B02D10023FB730EE0BB79022B38
:10A2100002D0BB79032B08D10323FB7305E000BFF9
:10A2200004E000BF02E000BF00E000BFFB7B184677
:10A230001437BD4680BC704780B584B000AF03467C
:10A24000FB710B46BB7113467B710023FB60BA792F
:10A25000FB7911461846FFF75FFF0346FB72FB7A56
:10A26000052B01D10D4B15E0BA79FB791146184643
:10A27000FFF738FFF860FB681B6823F00702FB68F4
:10A280001A60FB681A687B7903F007031A43FB68BE
:10A290001A60002318461037BD4680BD010000102B
:10A2A00080B582B000AF786001214FF40070FDF7F7
:10A2B00057FC7B6800221A707B6800221A727B6848
:10A2C00000221A737B68FF221A747B6800221A64CA
:10A2D00000BF0837BD4680BD80B483B000AF786052
:10A2E0000B46FB70FB78012B08D17B681B7ADBB235
:10A2F00043F00103DAB27B681A7207E07B681B7ACD
:10A30000DBB203F01203DAB27B681A7200BF0C37BB
:10A31000BD4680BC7047FFFF80B485B000AFF860D9
:10A32000B9601346FB71FB79012B60D1BB68072B29
:10A3300000F2BC8001A252F823F000BF5DA3000030
:10A340006FA3000081A3000093A30000A5A3000059
:10A35000B7A30000C9A30000DBA30000FB681B7BC0
:10A36000DBB243F00103DAB2FB681A739EE0FB68CC
:10A370001B7BDBB243F00203DAB2FB681A7395E091
:10A38000FB681B7BDBB243F00403DAB2FB681A7391
:10A390008CE0FB681B7BDBB243F01003DAB2FB6896
:10A3A0001A7383E0FB681B7BDBB243F00803DAB26D
:10A3B000FB681A737AE0FB681B7BDBB243F0200377
:10A3C000DAB2FB681A7371E0FB681B7BDBB243F007
:10A3D0004003DAB2FB681A7368E0FB681B7BDBB2F0
:10A3E00063F07F03DAB2FB681A7300BF5EE0BB68FC
:10A3F000072B5BD801A252F823F000BF1DA4000078
:10A400002FA4000041A4000053A4000065A4000094
:10A4100077A4000089A400009BA40000FB681B7BBC
:10A42000DBB223F00103DAB2FB681A733EE0FB688B
:10A430001B7BDBB223F00203DAB2FB681A7335E050
:10A44000FB681B7BDBB223F00403DAB2FB681A73F0
:10A450002CE0FB681B7BDBB223F01003DAB2FB6855
:10A460001A7323E0FB681B7BDBB223F00803DAB22C
:10A47000FB681A731AE0FB681B7BDBB223F0200336
:10A48000DAB2FB681A7311E0FB681B7BDBB223F0C6
:10A490004003DAB2FB681A7308E0FB681B7BDBB28F
:10A4A00003F07F03DAB2FB681A7300BF00BF1437F2
:10A4B000BD4680BC704700BF80B483B000AF7860F9
:10A4C00039603B68072B49D801A252F823F000BF3E
:10A4D000F1A40000FFA400000DA500001BA50000D2
:10A4E00029A5000037A5000043A5000051A50000E4
:10A4F0007B6893F82030DBB203F03F032FE07B68EA
:10A5000093F82430DBB203F03F0328E07B6893F834
:10A510002830DBB203F01F0321E07B6893F8303072
:10A52000DBB203F007031AE07B6893F82C30DBB250
:10A5300003F01F0313E07B689B8E9BB2C3F30803F9
:10A540000DE07B6893F83830DBB203F00F0306E0D0
:10A550007B689B8F9BB2C3F30B0300E0002318467C
:10A560000C37BD4680BC704780B483B000AF7860C4
:10A5700039607B6893F82C30DBB203F01F023B6834
:10A58000DA607B6893F83030DBB203F007023B6897
:10A590001A617B689B8E9BB2C3F308023B685A61C9
:10A5A0007B6893F82830DBB203F01F023B689A60A7
:10A5B0007B6893F82430DBB203F03F023B685A60BB
:10A5C0007B6893F82030DBB203F03F023B681A60EF
:10A5D0007B6893F83830DBB203F00F023B689A6176
:10A5E0007B689B8F9BB2C3F30B023B68DA6100BFB1
:10A5F0000C37BD4680BC704780B483B000AF786034
:10A6000039607B681B78DBB21A463B681340002B2D
:10A6100014BF01230023DBB218460C37BD4680BCB3
:10A62000704780B483B000AF786039607B681B7876
:10A63000DAB23B68DBB21343DAB27B681A7000BF50
:10A640000C37BD4680BC7047F0B593B000AF0346F1
:10A650003960FB71002387F847300120FDF752FA7B
:10A66000F8614FF0FF333B620023BB6300237B6341
:10A670004FF000024FF00003C7E90A230123FB63F8
:10A6800065E000233B6456E0FB691A464FF0000387
:10A6900015091407FB6B1A464FF0000302FB05F087
:10A6A00004FB03F14618A4FB020173181946FA6B68
:10A6B0003B6C13443A6802FB03F31A464FF0000365
:10A6C00045F040F902460B46C7E904233B697B622B
:10A6D000D7E904014FF000024FF000030A00002305
:10A6E00013463B637B6AB3F1004F05D97B6A5B423B
:10A6F0007B623B6B01333B633B6B002B17D03B6BA7
:10A70000B3F5803F13D87A6A3B6A9A4210D27B6ACB
:10A710003B623B6B1A464FF00003C7E90A233B6CD0
:10A72000BB63FB6B7B633B6A002B09D000E000BF7F
:10A730003B6C01333B643A6CFB6B9A42A4D300E060
:10A7400000BF3B6A002B06D0FB6B0133FB63FB6B46
:10A750000F2B96D900E000BFD7E90A34234301D17B
:10A760000023CBE0FB691B097A6B02FB03F318465D
:10A770004FF000017A6BBB6B13444FF00004BA6AD0
:10A7800004FB02F5FA6A03FB02F22A44BD6AA5FB48
:10A790000334224414461A46234645F0D3F80346B0
:10A7A0000C46FB603A68FB689A4204D93A68FB6839
:10A7B000D31A3B6203E0FA683B68D31A3B623B6AF8
:10A7C000642202FB03F23B68B2FBF3F33B623B6A99
:10A7D000022B00F29180FB79012B2BD1494B1B7B83
:10A7E000DBB2484A63F07F03DBB21373D7E90A1286
:10A7F0004FF000034FF000040B0A43EA0263140A0F
:10A80000404ADBB213713F4B97F828201A703D4B3A
:10A810001B7BDBB23B4A03F07F03DBB213737B6B22
:10A820001B01DAB2BB6B03F00F031343354ADBB2F3
:10A8300093625EE0FB79042B27D1334BDB68324A0D
:10A8400043F08003D360D7E90A124FF000034FF0C2
:10A8500000040B0A43EA0263140A2B4ADBB253607A
:10A86000BB6A294ADBB21360274BDB68264A03F038
:10A870007F03D3607B6B1B01DAB2BB6B03F00F036A
:10A880001343214ADBB2936233E0FB79184600F0B0
:10A890003DF8B860BB681B7BDBB263F07F03DAB2C4
:10A8A000BB681A73D7E90A124FF000034FF0000497
:10A8B0000B0A43EA0263140ADAB2BB681A7197F80A
:10A8C0002820BB681A70BB681B7BDBB203F07F03D8
:10A8D000DAB2BB681A737B6BDBB21B01DAB2BB6BFB
:10A8E000DBB203F00F03DBB21343DAB2BB6883F8C9
:10A8F0002820012387F8473097F8473018464C370F
:10A90000BD46F0BD0000014000400A4080B485B063
:10A9100000AF0346FB710023FB60FB79022B07D0DD
:10A92000032B08D0002B00D008E0074BFB6005E0AC
:10A93000064BFB6002E0064BFB6000BFFB6818465D
:10A940001437BD4680BC704700C0004000800940FD
:10A9500000C0094080B586B000AF03463960FB7186
:10A96000FB79042B00F2EA8001A252F823F000BF29
:10A9700085A9000039AA000085A9000085A900006A
:10A98000C7AA0000FB791846FFF7C0FF3861FB79C2
:10A99000002B04D101210820FDF7E2F810E0FB793B
:10A9A000022B05D101214FF08070FDF7D9F807E0A7
:10A9B000FB79032B04D101214FF00070FDF7D0F893
:10A9C0003B6907221A723B6900221A7203E03B6955
:10A9D0001B78DBB27B613B691B7DDBB203F00103BB
:10A9E000002BF4D13B69802283F8302000BF3B6903
:10A9F0001B7DDBB203F02003002BF8D03B69002263
:10AA000083F830203B6900225A603B6900221A73A8
:10AA10003B6900221A623B69002283F84C203B69A3
:10AA2000002283F854203B69002283F850203B69C0
:10AA30001B7DDBB27B6181E001211020FDF790F8E6
:10AA4000854B07221A72844B00221A7203E0824B54
:10AA50001B78DBB27B61804B1B7DDBB203F0010313
:10AA6000002BF4D17C4B802283F8302000BF7A4B3E
:10AA70001B7DDBB203F02003002BF8D0764B0022C5
:10AA800083F83020744B00225A60734B00221A73F3
:10AA9000714B00221A62704B002283F84C206E4BDF
:10AAA000002283F854206C4B002283F850206A4B1C
:10AAB0001B7DDBB27B61684B00221A74664B1B7EE8
:10AAC000DBB27B613AE001214FF48070FDF748F87A
:10AAD000624B07229A60614B00229A6002E05F4B52
:10AAE0001B687B615D4B5B6903F00103002BF6D1B2
:10AAF0005A4B0122DA6500BF584B5B6903F0200313
:10AB0000002BF9D0554B0022DA65544B00225A60D5
:10AB1000524B0022DA60514B00221A624F4B002246
:10AB2000DA644E4B00225A654C4B00221A654B4B9F
:10AB30005B697B61494B00225A6200BF3B681A681F
:10AB4000FB7911461846FFF77FFDFB79012B06D1F3
:10AB5000414B1B7BDBB203F0C0037B6113E0FB794D
:10AB6000042B05D13D4BDB6803F0C0037B610AE099
:10AB7000FB791846FFF7CAFEF860FB681B7BDBB267
:10AB800003F0C0037B613B685B79012B04D0022B8F
:10AB900007D0002B0FD009E07B6943F001037B61F4
:10ABA0000AE07B6943F002037B6105E07B6943F0C7
:10ABB00003037B6100E000BF3B681B79002B23D0BF
:10ABC0007B6943F008037B613B681B79013B032BE6
:10ABD00019D801A252F823F007AC0000E9AB00003D
:10ABE000F3AB0000FDAB00007B6943F010037B6119
:10ABF0000AE07B6943F020037B6105E07B6943F059
:10AC000030037B6100E000BF3B689B79012B00D0E3
:10AC100004E07B6943F004037B6100BFFB79012BF7
:10AC200004D10D4B7A69D2B21A7310E0FB79042B70
:10AC300004D17B69DAB2094BDA6008E0FB79184687
:10AC4000FFF764FEB8607B69DAB2BB681A7300BFB5
:10AC50001837BD4680BD00BF0000014000400A40DB
:10AC600080B483B000AF78607B684FF4E1321A6043
:10AC70007B6803225A717B6800221A717B6800226C
:10AC80009A7100BF0C37BD4680BC704780B483B05A
:10AC900000AF03460A46FB711346BB71FB79042BD8
:10ACA00020D801A252F823F0BDAC0000C5AC0000D2
:10ACB000CDAC0000D5AC0000DDAC00000C4ABB7987
:10ACC00013700FE00B4ABB7913700BE00A4ABB7993
:10ACD000137007E0094ABB79137003E0084ABB7997
:10ACE000136000BF00BF0C37BD4680BC704700BF7B
:10ACF00000C00040000001400080094000C0094041
:10AD000000400A4080B483B000AF0346FB71FB797A
:10AD1000042B21D801A252F823F000BF31AD00006E
:10AD200039AD000041AD000049AD000051AD00005B
:10AD30000C4B1B78DBB210E00B4B1B78DBB20CE04A
:10AD40000A4B1B78DBB208E0094B1B78DBB204E04E
:10AD5000084B1B68DBB200E0002318460C37BD46E9
:10AD600080BC704700C000400000014000800940E6
:10AD700000C0094000400A4080B58AB000AFB96009
:10AD80007A601A460346FB731346BB73BB687B614C
:10AD900000233B61FB7B042B1BD801A252F823F05C
:10ADA000B5AD0000BBAD0000C1AD0000C7AD0000F7
:10ADB000CDAD00003F4B3B610BE03F4B3B6108E0FA
:10ADC0003E4B3B6105E03E4B3B6102E03D4B3B614E
:10ADD00000BF7B687B62BB7B012B36D100233B62CB
:10ADE0002FE04FF0FF33FB6105E0FB69002B09D03A
:10ADF000FB69013BFB613B691B6803F02003002BEF
:10AE0000F3D000E000BFFB69002B49D01023BB61E9
:10AE100011E07B695A1C7A611A78FB7B114618464F
:10AE2000FFF734FFBB69013BBB617B6A013B7B627F
:10AE30003B6A01333B62BB69002B02D07B6A002B6B
:10AE4000E7D17B6A002BCCD12FE000233B6223E0CB
:10AE50007B6A002B26D03B691B6803F02003002B84
:10AE600022D01023BB6111E07B695A1C7A611A78E9
:10AE7000FB7B11461846FFF709FF7B6A013B7B62AB
:10AE8000BB69013BBB613B6A01333B62BB69002B81
:10AE900002D07B6A002BE7D17B6A002BD8D104E07B
:10AEA00000BF02E000BF00E000BF3B6A1846283741
:10AEB000BD4680BD14C0004014000140148009400C
:10AEC00014C0094014400A4090B58BB000AFB9607F
:10AED0007A601A460346FB731346BB73BB68BB61BB
:10AEE00000237B61FB7B042B1BD801A252F823F0CB
:10AEF00005AF00000BAF000011AF000017AF00005E
:10AF00001DAF0000314B7B610BE0314B7B6108E0F2
:10AF1000304B7B6105E0304B7B6102E02F4B7B6166
:10AF200000BF7B687B62BB7B012B2AD100233B6285
:10AF300023E04FF0FF33FB6105E0FB69002B09D0F4
:10AF4000FB69013BFB617B691B6803F00103002B7C
:10AF5000F3D000E000BFFB69002B2ED0BC69631C5E
:10AF6000BB61FB7B1846FFF7CDFE034623707B6A6F
:10AF7000013B7B623B6A01333B627B6A002BD8D189
:10AF80001EE000233B6214E07B691B6803F00103B1
:10AF9000002B14D0BC69631CBB61FB7B1846FFF718
:10AFA000B1FE034623703B6A01333B627B6A013B7F
:10AFB0007B627B6A002BE7D102E000BF00E000BFAC
:10AFC0003B6A18462C37BD4690BD00BF14C00040F8
:10AFD000140001401480094014C0094014400A4084
:10AFE00080B584B000AF03460A46FB711346BB71BF
:10AFF000BB79012B27D1FB79012B0AD1244B93F884
:10B000003030DBB2224A63F07F03DBB282F83030AB
:10B0100039E0FB79042B06D11E4BDB6D1D4A43F052
:10B020000103D3652FE0FB791846FFF76FFCB8608A
:10B03000BB6893F83030DBB263F07F03DAB2BB68F1
:10B0400083F830201FE0FB79012B07D1104B93F8D8
:10B0500030300F4B002283F8302014E0FB79042BB2
:10B0600005D10C4BDB6D0B4B0022DA650BE0FB7955
:10B070001846FFF74BFCF860FB6893F83030FB682C
:10B08000002283F8302000BF1037BD4680BD00BFCE
:10B090000000014000400A4080B483B000AF034686
:10B0A000FB71FB7903F01F03012202FA03F1054A49
:10B0B00097F907305B0942F8231000BF0C37BD46F3
:10B0C00080BC704700E100E080B483B000AF03466D
:10B0D0003960FB7197F90730002B0BDA3B68DAB265
:10B0E0000C49FB7903F00F03043BD200D2B20B44AE
:10B0F0001A7609E03B68DAB2074997F90730D200BF
:10B10000D2B20B4483F8002300BF0C37BD4680BC8D
:10B11000704700BF00ED00E000E100E080B584B0C2
:10B1200000AF78600023FB6006E04FF47A7000F017
:10B130000BF8FB680133FB60FB687A689A42F4D82D
:10B1400000BF1037BD4680BD80B485B000AF7860C9
:10B150000023FB6002E0FB680133FB607B689A0020
:10B16000FB689A42F7D800BF1437BD4680BC7047D1
:10B1700080B582B000AF4FF000537B607B68454ADA
:10B1800013607B6803F580731A46434B1A607B6833
:10B1900003F588731A46414B1A607B6803F5907378
:10B1A0001A463F4B1A607B6803F598731A463D4B6D
:10B1B0001A607B6803F5A0731A463B4B1A607B68E4
:10B1C00003F5A8731A46394B1A607B6803F5E873D8
:10B1D0001A46374B1A607B6803F580531A46354B85
:10B1E0001A60344B1B681233334A1360324B1B68AE
:10B1F0000933324A13602A4B1B68184600F07DFC65
:10B20000284B1B68184600F078FC274B1B68184633
:10B2100000F073FC204B1B68184600F059FC1F4BD4
:10B220001B68184600F054FC1A4B1B68184600F0C7
:10B2300079FC3220FFF772FF214B00225A60204B2D
:10B2400000221A621E4B00229A621D4B01229A6054
:10B250001B4B1C4A5A631A4B5B6823F0C003184A05
:10B2600043F080035360164B4FF480321A65094B4C
:10B270001A68134B9A61124BDA68114BDB6810495C
:10B280001343CB600E4B104A1A6100BF0837BD460E
:10B2900080BD00BF7C9900109C990010809900101F
:10B2A0009899001094990010849900108C990010BE
:10B2B00078990010749900109099001088990010E6
:10B2C00000C00820DF2E78275200008080B500AF34
:10B2D0001D4BD3F8C4301C4A43F00043C2F8C430BD
:10B2E0001A4B1922C3F8F42F00BF184BD3F8F83FBC
:10B2F00003F01903192BF8D1144B0122C3F81021C4
:10B3000001221F210020FEF797FF03220E210020BB
:10B31000FEF792FF01220D210020FEF78DFF012292
:10B320000C210020FEF788FF01221F210120FEF7DB
:10B3300083FFFFF71DFF1820FFF7AEFE0021182046
:10B34000FFF7C2FE00BF80BD00C00F4000C0082054
:10B3500080B483B000AF5D4BDB687B605B4B1B69E7
:10B360003B607A683B681340002B00F0AA807A6843
:10B370003B6813407B607B6803F04003002B7FD069
:10B38000524B5B6D03F48033002B2FD04F4B1B6D62
:10B3900003F40043002B06D04D4B1B6843F0010320
:10B3A0004B4A13601EE0494B5B6D03F00103002B19
:10B3B0000FD0484B00221A70474B00221A60444BB2
:10B3C0001B6843F00103424A1360444B01221A6098
:10B3D00008E03F4B1B6823F001033D4A13603F4BDD
:10B3E00000221A60394B4FF480325A65374B9B6DFF
:10B3F00003F48033002B2FD0344B1B6D03F4004338
:10B40000002B06D0324B1B6843F00203304A136016
:10B410001EE02E4B9B6D03F00103002B0FD02D4B34
:10B4200000221A702C4B00221A60294B1B6843F033
:10B430000203274A1360294B01221A6008E0244BBB
:10B440001B6823F00203224A1360244B00221A6077
:10B450001E4B4FF480329A651C4B5B6D03F48013D6
:10B46000002B03D0194B4FF480125A65174B9B6D7C
:10B4700003F48013002B03D0144B4FF480129A6511
:10B480007B6803F00203002B0CD0134B01221A60DF
:10B49000134B1B681B681B0FDBB203F00F03DAB200
:10B4A0000C4B1A707B6803F01003002B04D00D4B7B
:10B4B0001B6801330B4A1360044A7B68D36000BFEA
:10B4C00000E000BF0C37BD4680BC704700C00820BC
:10B4D00018290010202900101C2900101429001020
:10B4E0009C9900102429001080B584B002AF00BFE1
:10B4F000594B1B68002BFBD06420FFF70FFE574B06
:10B500001B6803F00103002B0DD0554B10225A6528
:10B5100000BF534B5B6D03F01003002BF9D1504B70
:10B520004FF480125A654D4B1B6803F00203002B49
:10B530000DD04B4B10229A6500BF494B9B6D03F019
:10B540001003002BF9D1464B4FF480129A65C820A6
:10B55000FFF7E4FD434B1B684FF490121A60424B17
:10B560001B6801931223009300234FF4807206217D
:10B57000802000F0DBF978607B68002B01D07B68CD
:10B5800065E0394B1B6807331B78DBB21A04354B77
:10B590001B681A60002301930023009300230122FB
:10B5A0000521002000F008FA78607B68002B01D0AC
:10B5B0007B684CE00220FFF7B1FD2A4B1B681A683C
:10B5C000284B1B6842F001021A60284B1B6801934C
:10B5D0000923009300234FF400720621802000F01D
:10B5E000A5F978607B68002B01D07B682FE01F4BAA
:10B5F0001B680233184600F0DFFA03461A461B4B5D
:10B600001B680193009200234FF4007206218020F2
:10B6100000F08CF978607B68002B01D07B6816E025
:10B6200000F026F878607B68002B01D07B680EE084
:10B63000002301930023009300230122092100200D
:10B6400000F0BAF978606420FFF768FD7B6818465F
:10B650000837BD4680BD00BF14290010182900100E
:10B6600000C008209899001074990010909900105B
:10B6700090B583B000AF5A4B1B687B600023FB7012
:10B680007B6801331B78DBB2022B02D06FF00A0318
:10B69000A1E07B681B78DBB21A467B6813447B60B1
:10B6A00084E07B6801331B78DBB2042B02D0052BCE
:10B6B0001FD073E07B6805331B78DBB2082B75D194
:10B6C0007B6806331B78DBB2062B6FD17B680733B0
:10B6D0001B78DBB2502B69D10123FB70414B002258
:10B6E0001A707B681B78DBB21A467B6813447B6058
:10B6F0005CE07B6803331B78DBB203F00303022BAF
:10B7000044D17B6802331B78DBB25BB2002B1EDABC
:10B710007B6802331B78DBB2DB0103F43E5343F456
:10B72000805444F001047B680433184600F044FA66
:10B7300003461B0444EA03022B4B1B681A607B6818
:10B740001B78DBB21A467B6813447B602EE07B6873
:10B7500002331B78DBB2DB0103F45E5343F4006475
:10B7600044F001047B680433184600F025FA0346D0
:10B770001B0444EA03021D4B1B681A607B681B789C
:10B78000DBB21A467B6813447B600FE07B681B7852
:10B79000DBB21A467B6813447B6007E07B681B784A
:10B7A000DBB21A467B6813447B6000BF0C4B1C68FD
:10B7B0000B4B1B680233184600F0FEF90346234486
:10B7C0007A689A427FF46DAFFB78002B01D000239A
:10B7D00001E06FF00B0318460C37BD4690BD00BF6B
:10B7E00090990010B00000109499001084990010F6
:10B7F00080B400AF034B1B78DBB21846BD4680BC5B
:10B80000704700BFB000001080B586B000AFF86090
:10B81000B9607A603B60404B1B68FA689A420AD173
:10B82000BB68002B03D14FF000737B6105E04FF044
:10B8300040737B6101E000237B61BA687B6913433D
:10B84000364A126843F0704343F480231360344B4C
:10B850001B6800221A60314B1B687A685A60304BB3
:10B860001B6800225A602E4B1A682C4B1B689A608A
:10B870002B4B1B6800229A603B68013B7A681A4494
:10B88000264B1B68DA60264B1B680022DA60FB68D7
:10B890009B6803F00203214A12681A43FB689A600E
:10B8A0001F4B1B681A46FB685A60FB680022DA606F
:10B8B000194B1B68FA689A420FD11A4AFB68136247
:10B8C000184B9B68174A43F002039360154B5B6863
:10B8D000144A43F0100353600EE0124AFB6893626F
:10B8E000104B9B680F4A43F0040393600D4B5B6859
:10B8F0000C4A43F02003536000F034F90A4B1B78E4
:10B90000DBB2002B01D1002301E04FF0FF331846DA
:10B910001837BD4680BD00BF989900109C99001053
:10B920008099001000C008202029001090B587B031
:10B9300002AF0446084611461A462346FB710346E9
:10B94000BB710B46BB8013467B807C88BA88B97973
:10B95000F8793B8C0093234600F074F8144B186878
:10B96000144B1A6808230021FFF74EFFF860FB68AC
:10B97000002B17D13B8C002B08D00D4B18683B8C4B
:10B980007A6A4FF48011FFF73FFFF860FB68002BE5
:10B9900008D1074B1868002300224FF40021FFF75D
:10B9A00033FFF860FB6818461437BD4690BD00BFF2
:10B9B000989900108C99001090B587B002AF04469A
:10B9C000084611461A462346FB710346BB710B46D7
:10B9D000BB8013467B807C88BA88B979F8793B8C28
:10B9E0000093234600F02EF8144B1868144B1A6885
:10B9F00008230021FFF708FFF860FB68002B17D130
:10BA00003B8C002B08D00D4B18683B8C7A6A4FF4A6
:10BA10000021FFF7F9FEF860FB68002B08D1074B07
:10BA20001868002300224FF48011FFF7EDFEF86044
:10BA3000FB6818461437BD4690BD00BF98990010AA
:10BA40008C99001090B585B000AF044608461146A9
:10BA50001A462346FB710346BB710B46BB80134657
:10BA60007B800023FB6008E0184B1A68FB681344D6
:10BA700000221A70FB680133FB603B8CFA689A4223
:10BA8000F2DB124B1B68FA791A70104B1B680133FA
:10BA9000BA791A700D4B1B680233BA8811461846E2
:10BAA00000F0A1F8094B1B6804337A881146184648
:10BAB00000F099F8054B1B6806333A8C114618467E
:10BAC00000F091F800BF1437BD4690BD8C9900106E
:10BAD00080B483B000AF78607B6800221A607B6816
:10BAE00000225A607B6800229A607B680022DA603C
:10BAF00000BF0C37BD4680BC704780B483B000AF38
:10BB000078607B6800221A607B6800225A607B683C
:10BB100000229A607B680022DA6000BF0C37BD46C5
:10BB200080BC704780B485B000AF78600023FB60B4
:10BB30000FE07B68FA68002143F822107B6800223E
:10BB4000A3F880207B680022C3F88420FB680133BF
:10BB5000FB60FB681F2BECD900BF1437BD4680BCCF
:10BB60007047FFFF80B400AF00BF054B1B68002B80
:10BB7000FBD0034B00221A6000BFBD4680BC70475B
:10BB80001C29001080B483B000AF786039603B4658
:10BB90001A787B681A707B6801337A781A707B6830
:10BBA0000233BA781A707B680333FA781A7000BFD0
:10BBB0000C37BD4680BC704780B485B000AF78605C
:10BBC00007F10E037A681278D2B21A7007F10E03E9
:10BBD00001337A685278D2B21A70FB89184614374A
:10BBE000BD4680BC704780B483B000AF78600B4620
:10BBF0007B80BB1C1A787B681A707B680133FA78EB
:10BC00001A7000BF0C37BD4680BC704780B485B049
:10BC100000AF786007F10C037A68D278D2B21A705C
:10BC200007F10C0301337A689278D2B21A7007F1E7
:10BC30000C0302337A685278D2B21A7007F10C03FF
:10BC400003337A681278D2B21A70FB681846143738
:10BC5000BD4680BC704780B483B000AF7860396067
:10BC6000FA787B681A707B680133BA781A707B683F
:10BC700002337A781A703A467B68033312781A7066
:10BC800000BF0C37BD4680BC704780B483B000AFA6
:10BC900078600B467B80FA787B681A70BA1C7B68E8
:10BCA000013312781A7000BF0C37BD4680BC704754
:10BCB00080B400AF034B1B685BB21846BD4680BC26
:10BCC000704700BF1429001080B483B000AF7860C3
:10BCD0004FF080427B68536000BF0C37BD4680BC8C
:10BCE000704780B483B000AF03460A46FB71134629
:10BCF000BB71FB79002B18D1BB79012B0AD14FF016
:10BD000080431B78DBB24FF0804243F01003DBB27C
:10BD1000137025E04FF080431B78DBB24FF0804278
:10BD200023F01003DBB213701AE0FB79012B17D15B
:10BD3000BB79012B0AD14FF080431B78DBB24FF067
:10BD4000804243F00203DBB2137009E04FF08043FE
:10BD50001B78DBB24FF0804223F00203DBB213709A
:10BD600000BF0C37BD4680BC704780B483B000AFC5
:10BD70000346FB71FB79012B0AD14FF080431B78FE
:10BD8000DBB24FF0804243F00103DBB2137009E0F5
:10BD90004FF080431B78DBB24FF0804223F0010369
:10BDA000DBB2137000BF0C37BD4680BC704780B457
:10BDB00083B000AF0346FB71FB79002B07D14FF036
:10BDC00080431B78DBB203F00803DBB20BE0FB79A6
:10BDD000012B07D14FF080431B78DBB203F0040343
:10BDE000DBB200E0002318460C37BD4680BC70472C
:10BDF00080B400AF4FF080431B78DBB24FF080423D
:10BE000023F00403DBB2137000BFBD4680BC704753
:10BE100080B400AF4FF08043AA221A724FF08043E3
:10BE200055221A7200BFBD4680BC704780B485B0F1
:10BE300000AF78600C237B817A897B6802FB03F377
:10BE4000FB6002E0FB68013BFB60FB68002BF9D163
:10BE500000BF1437BD4680BC7047FFFF80B500AF00
:10BE60000B4B0022DA660A4B00221A67094B1B684B
:10BE7000084A23F000631360064B1B68054A23F051
:10BE8000805313603220FFF7D1FF00BF80BD00BF99
:10BE900000C002400080092080B500AF0F4B1B6836
:10BEA0000E4A43F0006313600C4BDB690B4A43F00E
:10BEB0000063D3613220FFF7B9FF084B1B68074AC4
:10BEC00043F080531360054BDB69044A43F0805311
:10BED000D3613220FFF7AAFF00BF80BD0080092098
:10BEE00080B500AF094B1B68084A23F0006313605C
:10BEF000064B1B68054A23F0805313603220FFF77E
:10BF000095FFFFF7C9FF00BF80BD00BF008009207B
:10BF100080B500AF204B1B681F4A43F000631360DD
:10BF20001D4BDB691C4A43F00063D3613220FFF7ED
:10BF30007DFF194B1B68184A23F080531360322091
:10BF4000FFF774FF07E0154B1B68013B134A1360B2
:10BF50000120FFF76BFF104B5B6903F08053002B50
:10BF6000F1D00D4B1B680C4A23F0006313603220A4
:10BF7000FFF75CFF07E0094B1B68013B074A1360B2
:10BF80000120FFF753FF044B5B6903F08053002B44
:10BF9000F1D000BF80BD00BF00800920B4000010B8
:10BFA00080B584B000AF0346FB710023FB73002310
:10BFB000BB7380237B730023FB7348E0FA797B7BA0
:10BFC0001340DBB2002B06D0454B1B68444A23F0DC
:10BFD000006313600BE0424B1B68414A43F000636F
:10BFE00013603F4BDB693E4A43F00063D3617B7BC8
:10BFF0005B087B733220FFF719FF394B1B68384A07
:10C0000023F08053136007E0364B1B68013B354A31
:10C0100013600120FFF70AFF314B5B6903F0805387
:10C02000002BF1D03220FFF701FF2D4B1B682C4A6B
:10C0300043F0805313602A4BDB69294A43F0805355
:10C04000D3613220FFF7F2FEFB7B0133FB73FB7BF6
:10C05000072BB3D9224B1B68214A23F000631360DE
:10C060001F4B1B681E4A23F08053136007E01D4BD3
:10C070001B68013B1B4A13600120FFF7D7FE184BDA
:10C080005B6903F08053002BF1D00023BB73144B8A
:10C090005B6903F00063002B01D10123BB733220E5
:10C0A000FFF7C4FE0E4B1B680D4A43F0805313602C
:10C0B0000B4BDB690A4A43F08053D361084B1B6882
:10C0C000074A43F000631360054BDB69044A43F001
:10C0D0000063D361BB7B18461037BD4680BD00BFEF
:10C0E00000800920B400001080B584B000AF034682
:10C0F000FB710023FB730023BB733C4B1B683B4A63
:10C1000023F0006313603220FFF790FE0023BB731F
:10C1100027E0FB7B5B00FB733220FFF787FE334B8E
:10C120001B68324A23F0805313603220FFF77EFEF3
:10C130002E4B5B6903F00063002B03D0FB7B43F0C5
:10C140000103FB73294B1B68284A43F0805313609B
:10C15000264BDB69254A43F08053D361BB7B013317
:10C16000BB73BB7B072BD4D93220FFF75FFEFB7973
:10C17000012B0CD11D4B1B681C4A43F0006313605C
:10C180001A4BDB69194A43F00063D36105E0174B92
:10C190001B68164A23F000631360144B1B68134A94
:10C1A00023F0805313603220FFF740FE0F4B1B68D3
:10C1B0000E4A43F0805313600C4BDB690B4A43F08B
:10C1C0008053D361094B1B68084A43F00063136036
:10C1D000064BDB69054A43F00063D3613220FFF769
:10C1E00025FEFB7B18461037BD4680BD0080092028
:10C1F00080B485B000AFF860B9607A60FB68043B3A
:10C20000FB60FB684FF080721A60FB68043BFB60C8
:10C21000BA68FB681A60FB68043BFB60FB6800229D
:10C220001A60FB68143BFB607A68FB681A60FB6865
:10C23000203BFB60FB6818461437BD4680BC704746
:10C24000064B19680868B0E8F00F80F309884FF0D2
:10C25000000080F311884EF00D0E70473C8D0010E9
:10C2600000BF00BF03480068006880F3088800DF53
:10C2700000BF000008ED00E080B500AF0A4B1B686E
:10C28000094A43F478031360074B1B68064A43F0DE
:10C290007843136000F07AF8044B00221A60FFF72D
:10C2A000E1FF0023184680BD20ED00E0B80000103B
:10C2B00080B400AF034B4FF080521A6000BFBD4600
:10C2C00080BC704704ED00E080B400AF4FF0280060
:10C2D00080F31188044B1B680133034A136000BFCD
:10C2E000BD4680BC704700BFB800001080B400AFEE
:10C2F000084B1B68013B074A1360064B1B68002B69
:10C3000003D14FF0000080F3118800BFBD4680BC10
:10C31000704700BFB8000010EFF309800C4B1A689B
:10C3200020E9F00F10602DE908404FF0280080F35D
:10C33000118800F0E5FB4FF0000080F31188BDE8A4
:10C34000084019680868B0E8F00F80F30988704762
:10C350003C8D001000BF00BF80B582B000AF0A4B1B
:10C360004FF080521A6000237B604FF0280080F36A
:10C37000118800F055FB4FF0000080F3118800BFDA
:10C380000837BD4680BD00BF04ED00E080B400AFBB
:10C39000044B054A1A60054B07221A6000BFBD46D0
:10C3A00080BC704714E000E0BFD4010010E000E062
:10C3B00080B58AB000AF78600023FB6100F0A2FA7C
:10C3C000474B1B68002B18D1464B474A1A60454B18
:10C3D00000225A60454B4FF4C8425A60434B00223A
:10C3E0001A60414B7B617B694FF4C8425A607B699C
:10C3F0003E4A1A603A4B01221A607B68002B0ED02D
:10C4000010231A467B6813447B607B6803F00703A4
:10C41000002B04D07B6823F0070308337B607B6824
:10C42000002B56D07B68B3F5C84F52D22D4B3B62E0
:10C430002C4B1B687B6204E07B6A3B627B6A1B6857
:10C440007B627B6A5B687A689A4203D97B6A1B6865
:10C45000002BF1D17B6A254A93423AD03B6A1B6894
:10C4600010221344FB617B6A1A683B6A1A607B6A7C
:10C470005A687B68D31A10225200934222D97A6AF2
:10C480007B6813443B617B6A5A687B68D21A3B69BC
:10C490005A607B6A7A685A603B695B68FB60114B43
:10C4A000BB6102E0BB691B68BB61BB691B685B6861
:10C4B000FA689A42F6D8BB691A683B691A60BB6988
:10C4C0003A691A600A4B1A687B6A5B68D31A084A91
:10C4D000136000F025FAFB6918462837BD4680BD79
:10C4E000388D0010288D001028290010308D001084
:10C4F000BC00001080B586B000AF78607B683B61FF
:10C500007B68002B27D010235B423A6913443B61C0
:10C510003B69FB6000F0F6F9FB685B68BB60104BA1
:10C520007B6102E07B691B687B617B691B685B68E0
:10C53000BA689A42F6D87B691A68FB681A607B6908
:10C54000FA681A60FB685A68064B1B681344054A70
:10C55000136000F0E5F900BF1837BD4680BD00BF8D
:10C56000288D0010BC00001080B483B000AF78604C
:10C570007B6803F108027B685A607B684FF0FF32EA
:10C580009A607B6803F108027B68DA607B6803F1DC
:10C5900008027B681A617B6800221A6000BF0C37B2
:10C5A000BD4680BC704780B483B000AF78607B68C4
:10C5B00000221A6100BF0C37BD4680BC704780B4B2
:10C5C00085B000AF786039607B685B68FB60FB68B2
:10C5D0005A683B685A607B685A683B689A60FB6897
:10C5E0005B683A689A60FB683A685A607B683A68A8
:10C5F0005A603B687A681A617B681B685A1C7B68C2
:10C600001A6000BF1437BD4680BC704780B485B047
:10C6100000AF786039603B681B68BB60BB68B3F1F2
:10C62000FF3F03D17B681B69FB600CE07B6808332C
:10C63000FB6002E0FB685B68FB60FB685B681B6893
:10C64000BA689A42F6D2FB685A683B685A603B68FF
:10C650005B683A689A603B68FA689A60FB683A6877
:10C660005A603B687A681A617B681B685A1C7B6851
:10C670001A6000BF1437BD4680BC704780B485B0D7
:10C6800000AF78607B685B687A6892689A607B68C4
:10C690009B687A6852685A607B681B69FB60FB681C
:10C6A0005B687A689A4203D17B689A68FB685A6033
:10C6B0007B6800221A61FB681B685A1EFB681A60BF
:10C6C00000BF1437BD4680BC7047FFFF80B58AB0FD
:10C6D00002AFF860B9603B601346FB80FB88396BA2
:10C6E000184600F015FBB861BB69002B70D0BB6920
:10C6F0001A6BFB8803F18043013B9B0013447B6171
:10C700007B6923F007037B61FB8800937B6BBA6A2C
:10C71000B968B86900F043FA3A68F9687869FFF7D0
:10C7200067FD0246BB691A60FB6A002B02D0FB6AF8
:10C73000BA691A60FFF7C8FD314B1B680133304AF4
:10C740001360304B1B68002B09D12E4ABB69136064
:10C750002B4B1B68012B0FD100F058FA0CE02A4B31
:10C760001B68002B08D1274B1B68DB6ABA6A9A4208
:10C7700002D3244ABB691360BB69DA6A234B1B6886
:10C780009A4203D9BB69DB6A204A1360204B1B68BD
:10C7900001331F4A1360BB69DA6A1E4B1B689A4259
:10C7A00003D9BB69DB6A1B4A1360BB69DA6A1346AB
:10C7B0009B0013449B00184A1A44BB690433194672
:10C7C0001046FFF7FCFE0123FB61FFF78FFD02E03F
:10C7D0004FF0FF33FB61FB69012B0BD10A4B1B6848
:10C7E000002B07D0074B1B68DB6ABA6A9A4201D953
:10C7F000FFF75EFDFB6918462037BD4680BD00BFD0
:10C80000DC8E00103C8D0010EC8E0010E48E0010C9
:10C81000008F0010E88E0010408D001080B584B0AD
:10C8200000AF78600023FB607B68002B2BD000F00A
:10C8300069F8194B1B687A681344BB60174B1B6877
:10C8400004331846FFF71AFF144B1B68BA685A6086
:10C85000114B1B68BA689A4209D2114B1A680F4BE8
:10C860001B68043319461046FFF7D0FE08E00D4B55
:10C870001A680A4B1B68043319461046FFF7C6FEB8
:10C8800000F04EF8F860FB68002B01D1FFF710FDB7
:10C8900000BF1037BD4680BDE08E00103C8D0010FB
:10C8A000988E0010948E001080B586B004AF0023DF
:10C8B000039300230293002301930023009300239A
:10C8C00064220C490C48FFF701FF78607B68012B5C
:10C8D0000BD14FF0280080F31188084B01221A6019
:10C8E000074B00221A60FFF7C7FC00BF0837BD46A0
:10C8F00080BD00BF5C05050091CB0000EC8E0010F0
:10C90000E08E001080B400AF044B1B680133034A73
:10C91000136000BFBD4680BC704700BFF08E0010A2
:10C9200090B583B000AF00237B60FFF7CDFC344BA4
:10C930001B68013B324A1360314B1B68002B57D1F7
:10C94000304B1B68002B53D000233B6024E004F1E4
:10C9500018031846FFF792FE231D1846FFF78EFEB8
:10C96000E26A294B1B689A4202D9E36A264A13609D
:10C97000E26A13469B0013449B00244A1344221D81
:10C9800011461846FFF71BFEE26A214B1B68DB6A63
:10C990009A4201D301233B601E4B1B68002B03D03E
:10C9A0001C4BDB68DB6800E000231C46002CCED16A
:10C9B000194B1B68002B0DD006E000F031F8164B28
:10C9C0001B68013B144A1360134B1B68002BF4D106
:10C9D00001233B603B68012B03D0104B1B68012BEC
:10C9E00006D101237B600D4B00221A60FFF760FC2B
:10C9F000FFF77CFC7B6818460C37BD4690BD00BF36
:10CA0000F08E0010DC8E0010E88E0010408D0010BB
:10CA10003C8D00109C8E0010F48E0010F88E0010DB
:10CA200090B583B000AF2E4B1B68002B4CD12D4B23
:10CA30001B6801332B4A13602A4B1B68002B34D12F
:10CA4000294B1B687B60294B1B68274A1360274AC8
:10CA50007B681360264B1B680133254A136024E072
:10CA60006268204B1B689A4234D8231D1846FFF792
:10CA700005FEA36A002B04D004F118031846FFF743
:10CA8000FDFDE26A1B4B1B689A4202D9E36A194A10
:10CA90001360E26A13469B0013449B00164A13443A
:10CAA000221D11461846FFF78AFD0F4B1B681B68B5
:10CAB000002B04D00C4B1B68DB68DB6800E0002314
:10CAC0001C46002CCCD106E00C4B1B6801330B4AF2
:10CAD000136000E000BF00BF0C37BD4690BD00BF33
:10CAE000F08E0010E08E0010948E0010988E0010D2
:10CAF000FC8E0010E88E0010408D0010F48E0010A7
:10CB000080B483B000AF1D4B1B68002B08D01C4BBA
:10CB100001221A602DE01B4B1B68013B194A136070
:10CB2000184B1A68184913469B0013449B000B448A
:10CB30001B68002BEFD0134B1A6813469B0013445D
:10CB40009B00114A13447B607B685B685A687B6872
:10CB50005A607B685A687B6808339A4204D17B68C4
:10CB60005B685A687B685A607B685B68DB68074A69
:10CB700013600C37BD4680BC704700BFF08E0010BC
:10CB8000F88E0010E88E0010408D00103C8D0010D3
:10CB900080B582B000AF786000F078F8FCE780B52F
:10CBA00084B000AFF860B9607A603B60FB683433F2
:10CBB0000C22B968184642F0AEFBFB68002283F8ED
:10CBC0003F207B680E2B01D90E237B60FB687A68BF
:10CBD000DA62FB687A681A64FB6804331846FFF768
:10CBE000E2FCFB6818331846FFF7DDFCFB68FA68C7
:10CBF0001A617B68C3F10F02FB689A61FB68FA68EF
:10CC00005A6200BF1037BD4680BDFFFF80B582B0BD
:10CC100000AF00237B600CE07A6813469B0013444E
:10CC20009B00124A13441846FFF79EFC7B680133B1
:10CC30007B607B680E2BEFD90D48FFF795FC0D4804
:10CC4000FFF792FC0C48FFF78FFC0C48FFF78CFCB9
:10CC50000B48FFF789FC0B4B054A1A600A4B054A43
:10CC60001A6000BF0837BD4680BD00BF408D001070
:10CC70006C8E0010808E00109C8E0010B08E001004
:10CC8000C88E0010948E0010988E001080B582B06F
:10CC900000AF1B4B1B68002B2ED0FFF733FE194B48
:10CCA0001B68002B0CBF01230023DBB27B60FFF766
:10CCB00037FE7B68002B1FD1FFF706FB114B1B686B
:10CCC000002B03D0104B5B68DB6800E000233B6067
:10CCD0003B6804331846FFF7D1FC0C4B1B68013B43
:10CCE0000A4A1360064B1B68013B054A1360FFF7B5
:10CCF000FDFA386800F03DF800BF0837BD4680BD3A
:10CD0000C48E0010B08E0010B88E0010DC8E0010A3
:10CD100080B584B000AF03463960FB804420FFF744
:10CD200047FBF860FB68002B1ED03B68002B06D148
:10CD3000FB889B001846FFF73BFB034600E03B687F
:10CD4000FA681363FB681B6B002B05D1F868FFF7CB
:10CD5000D1FB0023FB6007E0FB68186BFB889B009E
:10CD60001A46A52140F08FFDFB6818461037BD46D6
:10CD700080BD80B582B000AF78607B681B6B1846C1
:10CD8000FFF7B8FB7868FFF7B5FB00BF0837BD4673
:10CD900080BDFFFF80B485B000AF03463960FB80E3
:10CDA000FB887F2B02D8FB88FB8125E03B68002BAA
:10CDB0000BD0FB88FF2B05D8FB88803B114A32F84B
:10CDC000133000E00023FB8116E00023FB8109E023
:10CDD000FB890C4A32F81330FA889A4206D0FB8954
:10CDE0000133FB81FB897F2BF2D900E000BFFB8977
:10CDF00080339BB2DBB2FB81FB8918461437BD46FA
:10CE000080BC70476405050080B487B000AF03465E
:10CE1000FB80FB88B3F5805F01D23D4B00E03D4BCA
:10CE20007B617B699A1C7A611B887B827B8A002BE1
:10CE300068D0FA887B8A9A4264D37B699A1C7A61AB
:10CE40001B883B823B8A1B0AFB813B8ADBB23B820D
:10CE5000FA88798A3B8A0B449A4249DAFB89082B83
:10CE60004FD801A252F823F08DCE00009FCE0000D3
:10CE7000B5CE0000BDCE0000C5CE0000CDCE000076
:10CE8000D5CE0000DDCE0000E5CE0000FA887B8A1A
:10CE9000D31A5B007A6913441B88FB8027E0FA8869
:10CEA0007B8AD31A9BB203F001039BB2FA88D31A90
:10CEB000FB801CE0FB88103BFB8018E0FB88203BDC
:10CEC000FB8014E0FB88303BFB8010E0FB881A3BC2
:10CED000FB800CE0FB880833FB8008E0FB88503BBC
:10CEE000FB8004E0FB88A3F5E353FB8000BF08E070
:10CEF000FB89002B95D13B8A5B007A6913447B61E7
:10CF00008FE700BFFB8818461C37BD4680BC7047C2
:10CF1000640605005808050080B500AFFBF7F4FC77
:10CF200000BF80BD80B48BB000AFF860B9607A609C
:10CF3000BB68DB08BB61BB68DAB2BB69DBB2DB0094
:10CF4000DBB2D31AFB75FB7DC3F108031A467B687D
:10CF500093420DD2FA68BB6913441B781A46FB7DD5
:10CF60001A4101217B6801FA03F3013B134055E0AC
:10CF700000233B62FA68BB6913441B781A46FB7DA9
:10CF80001A41FB7DC3F10803012101FA03F3013BC0
:10CF900013403B62FB7DC3F1080387F8273097F805
:10CFA00027307A68D31A7B600123FB6119E0BA69E4
:10CFB000FB691344FA6813441B781A4697F8273024
:10CFC00002FA03F31A463B6A13433B627B68083B51
:10CFD0007B6097F82730083387F82730FB690133E7
:10CFE000FB617B68082BE2D87B68002B15D0BA69FF
:10CFF000FB691344FA6813441B78194601227B68C5
:10D0000002FA03F3013B01EA030297F8273002FA20
:10D0100003F31A463B6A13433B623B6A18462C37BC
:10D02000BD4680BC704780B485B000AF7860396081
:10D030000023FB601AE07A68FB6813441B78FB72DC
:10D040003A68FB68D31A013B7A681A447968FB682E
:10D050000B4412781A703A68FB68D31A013B7A685D
:10D060001344FA7A1A70FB680133FB603B685B0873
:10D07000FA689A42DFD300BF1437BD4680BC7047C0
:10D0800080B582B000AF0346FB71FB79002B02D064
:10D09000012B29D04CE0294B01221A70FBF73EF9F5
:10D0A0000020FBF76BFE0346002B03D0234B1B78BD
:10D0B000DBB23EE000F04CF80346012B08D11F4BD9
:10D0C0001B78DBB223F00103DAB21C4B1A7007E0C5
:10D0D0001A4B1B78DBB243F00203DAB2174B1A701B
:10D0E000164B1B78DBB224E0154B1B7803F00103D1
:10D0F000002B1AD0FEF7EAF8FEF7F6F90346002BEC
:10D1000013D1FEF775FB0346002B0ED10D4A0E49D5
:10D110000E48F9F799F80346002B06D1084B1B7807
:10D1200023F00103DAB2064B1A70054B1B7800E0BE
:10D13000012318460837BD4680BD00BFC10000105E
:10D14000C0000010E8990010309A00102C9A0010CE
:10D1500080B584B000AF0023FB73FCF791FA03465F
:10D160001A46874B1A75864B93F91430B3F1FF3F7B
:10D1700000F0F3808348FCF78FFA0346002B40F061
:10D18000EE80FCF7FFFA0346002B40F0EA80FCF744
:10D190006BFB02467A4BDA607B48FCF76FFB034679
:10D1A000002B40F0E08004217748FFF73CFF04218A
:10D1B0007648FFF738FF04217548FFF734FF042154
:10D1C0007448FFF730FF10216F48FFF72CFF6C4BBE
:10D1D0004FF400721A606A4B93F843309B09FB735B
:10D1E000FB7B012B0BD1162230216748FFF79AFEFB
:10D1F000B860BB6801339B02614A53601CE00C229B
:10D200003E216148FFF78EFEB86003222F215E4861
:10D21000FFF788FE7860042250215B48FFF782FE0A
:10D220003860BB685A1C7B6802339A403B6802FA3C
:10D2300003F35B0A524A5360514B93F91430032BAA
:10D240004ED801A252F823F095D2000059D2000026
:10D250008DD200008DD2000005222A214A48FFF716
:10D2600061FE03460133464A936004221621464874
:10D27000FFF758FE0246424B9B689340404A93603A
:10D280003F4B9B685B0A3E4A93602AE03C4B01227D
:10D290009A6026E001222E213B48FFF743FE034619
:10D2A000002B03D0364B01229A601AE00722272177
:10D2B0003548FFF737FE03460133314A93600422B5
:10D2C00016213148FFF72EFE02462D4B9B689340F6
:10D2D0002B4A93602A4B9B685B0A294A936000E0C3
:10D2E00000BFFCF733FB0346002B3ED12A48FBF777
:10D2F000C9FC234B93F91430002B09D0204B93F930
:10D300001430022B04D01E4B93F91430032B06D19A
:10D310000120FBF7EDFC0346002B06D02AE000209D
:10D32000FBF7E6FC0346002B21D1154B93F9143093
:10D33000012B09D0124B93F91430002B04D0104B61
:10D3400093F91430022B06D14FF40070FCF7F0FB78
:10D350000346002B0DD101230DE000BF0AE000BF02
:10D3600008E000BF06E000BF04E000BF02E000BF2D
:10D3700000E000BF002318461037BD4680BD00BF47
:10D38000A4990010BC990010D8990010DC990010E5
:10D39000E0990010E4990010002D310180B582B0B1
:10D3A00000AF0E4B32221A800DE03B1D1846FCF7F1
:10D3B00063FB0346002B06D17B6803F48073002BCC
:10D3C00001D0012305E0054B1B889BB2002BECD15B
:10D3D000002318460837BD4680BD00BF048F0010EB
:10D3E00080B588B000AF03463A60FB710B46BB7155
:10D3F0003B68BB61FB79002B03D0012B00F0AB80B5
:10D40000D7E06E4B1B78DBB203F00103002B01D099
:10D410000323CFE00123FB77BB790E2B00F293802F
:10D4200001A252F823F000BF65D4000075D40000BB
:10D4300083D4000093D4000047D5000047D50000F6
:10D4400047D5000047D5000047D5000047D500006C
:10D45000A1D40000B3D40000DDD4000047D5000003
:10D4600009D50000FFF79AFF0346012B6ED1002378
:10D47000FB776BE0524B5A683B681A600023FB77DE
:10D4800067E04F4B1B689AB23B681A800023FB771A
:10D490005FE04B4B9A683B681A600023FB7758E0CB
:10D4A000474B93F91430DAB2BB691A700023FB774B
:10D4B0004FE00023BB770BE0BA7FBB7FB9690B4419
:10D4C0003F490A4492F834201A70BB7F0133BB777E
:10D4D000BB7F0F2BF0D90023FB773AE0394B3B6140
:10D4E0000023BB770AE0BB7F3A691A44BB7FB96966
:10D4F0000B4412781A70BB7F0133BB77BB7F1B2BA9
:10D50000F1D90023FB7724E007F10C031846FCF760
:10D51000B3FA0346002B1BD107F10C037B610023F8
:10D52000BB770AE0BB7F7A691A44BB7FB9690B44B9
:10D5300012781A70BB7F0133BB77BB7F012BF1D907
:10D540000023FB7704E00423FB7702E000BF00E048
:10D5500000BFFB7F2EE01C4B1B7803F00103002B68
:10D5600001D0032326E00023FB77BB79032B1AD8D5
:10D5700001A252F823F000BFADD5000095D5000000
:10D5800089D500009FD50000104B1B689AB23B68FC
:10D590001A800CE00E4B1A683B681A6007E03B6883
:10D5A00001221A6003E00423FB7700E000BFFB7F49
:10D5B00000E0042318462037BD4680BDC10000109E
:10D5C000A4990010BC990010C00000102C9A001003
:10D5D000309A001080B586B000AFB9607A603B60C9
:10D5E0000346FB730023FB823B68002B01D104231D
:10D5F0005CE0FB7B002B02D0012B25D055E02D4BAE
:10D600001B78DBB203F00103002B01D003234DE0B4
:10D610003A687968B868FCF7EFFC0346002B11D133
:10D6200000BFFCF727FB0346002BFAD13B68012B18
:10D6300006D9FCF729FB0346002B01D0012335E076
:10D64000002333E0012331E01B4B1B7803F001037F
:10D65000002B01D0032329E03B6899B2174B1B68CC
:10D660001A467868F8F78EFF0346002B15D1002381
:10D67000FB820CE0114B1A68FB8A1A44FB8AB968DA
:10D680000B441278D2B21A70FB8A0133FB82FB8AF8
:10D69000B3F5007FEED3002308E0074B01221A7098
:10D6A0000120FFF7EDFC012300E0042318461837A2
:10D6B000BD4680BDC1000010C00000107899001068
:10D6C00080B483B000AF0346FB71FB79002B02D01E
:10D6D000012B04D006E0064B1B78DBB203E0054BC0
:10D6E0001B7800E0012318460C37BD4680BC70470C
:10D6F000C1000010C000001080B586B000AFB96056
:10D700007A603B600346FB730023FB823B68002B7F
:10D7100001D104235BE0FB7B002B02D0012B25D041
:10D7200054E02D4B1B78DBB203F00103002B01D03A
:10D7300003234CE03A687968B868FCF7E7FB0346D6
:10D74000002B11D100BFFCF795FA0346002BFAD14C
:10D750003B68012B06D9FCF797FA0346002B01D052
:10D76000012334E0002332E0012330E01B4B1B781F
:10D7700003F00103002B01D0032328E00023FB82E8
:10D780000BE0FB8ABA681A44154B1968FB8A0B44F4
:10D7900012781A70FB8A0133FB82FB8AB3F5007F93
:10D7A000EFD33B6899B20E4B1B681A467868F8F7BE
:10D7B00051FF0346002B01D1002308E0074B012253
:10D7C0001A700120FFF75CFC012300E004231846D7
:10D7D0001837BD4680BD00BFC1000010C00000105A
:10D7E0007899001080B485B000AF78607B68013311
:10D7F0001B78FB81FB891B021AB27B681B781BB26A
:10D8000013431BB2FB81FB8918461437BD4680BC0D
:10D81000704780B485B000AF78607B6803331B78B5
:10D82000FB60FB681B027A68023212781343FB60CC
:10D83000FB681B027A68013212781343FB60FB68B5
:10D840001B027A6812781343FB60FB681846143792
:10D85000BD4680BC704780B483B000AF78600B4693
:10D860007B807B685A1C7A607A88D2B21A707B8877
:10D870001B0A7B807B685A1C7A607A88D2B21A7045
:10D8800000BF0C37BD4680BC704780B483B000AF8A
:10D89000786039607B685A1C7A603A68D2B21A7034
:10D8A0003B681B0A3B607B685A1C7A603A68D2B2BC
:10D8B0001A703B681B0A3B607B685A1C7A603A68A6
:10D8C000D2B21A703B681B0A3B607B685A1C7A60B4
:10D8D0003A68D2B21A7000BF0C37BD4680BC7047A0
:10D8E00080B487B000AFF860B9607A60FB687B6194
:10D8F000BB683B617B68002B0DD03A69531C3B61D0
:10D900007B69591C796112781A707B68013B7B60D6
:10D910007B68002BF1D100BF1C37BD4680BC70472F
:10D9200080B487B000AFF860B9607A60FB687B6153
:10D930007B695A1C7A61BA68D2B21A707B68013B63
:10D940007B607B68002BF3D100BF1C37BD4680BCD9
:10D95000704780B489B000AFF860B9607A60FB6846
:10D96000FB61BB68BB6100237B61FB695A1CFA61E8
:10D970001B781946BB695A1CBA611B78CB1A7B61AC
:10D980007B68013B7B607B68002B02D07B69002BAE
:10D99000EBD07B6918462437BD4680BC704780B405
:10D9A00083B000AF7860396002E07B6801337B6050
:10D9B0007B681B78002B05D07B681B781A463B6878
:10D9C0009342F2D17B681B7818460C37BD4680BC69
:10D9D0007047FFFF80B485B000AF786039600023E6
:10D9E000BB60BB68FB6029E0264AFB681B0113444F
:10D9F0001B68002B1DD0234AFB681B0113441A68C7
:10DA00007B681B689A4216D11E4AFB681B011344AF
:10DA100004331A687B689B689A420CD1194AFB68E8
:10DA20001B01134408331A687B685B699A4202D170
:10DA300007E00123BB60FB680133FB60FB68032B3D
:10DA4000D2D9FB68042B09D1BB68002B02D13B68FB
:10DA5000022B01D1002310E012230EE03B68002BC3
:10DA600008D1084AFB681B0113440C331B88B3F52B
:10DA7000807F01D1102300E0002318461437BD46F3
:10DA800080BC7047148F001080B483B000AF0023B7
:10DA90007B6002E07B6801337B607B68032B06D8E8
:10DAA000084A7B681B0113441B68002BF2D17B687A
:10DAB000042B14BF01230023DBB218460C37BD46EC
:10DAC00080BC7047148F001080B485B000AF7860C0
:10DAD00039600023FB601FE0414AFB681B011344CF
:10DAE0001A687B681B689A4213D13D4AFB681B0188
:10DAF000134404331A687B689B689A4209D1384AF8
:10DB0000FB681B01134408331A687B685B699A42FF
:10DB100006D0FB680133FB60FB68032BDCD900E017
:10DB200000BFFB68042B32D10023FB6002E0FB68DE
:10DB30000133FB60FB68032B06D8294AFB681B01F5
:10DB400013441B68002BF2D1FB68042B01D1002386
:10DB500040E07B681A682249FB681B010B441A608D
:10DB60007B689A681E49FB681B010B4404331A60EA
:10DB70007B685A691A49FB681B010B4408331A6019
:10DB8000174AFB681B0113440C3300221A803B68C0
:10DB9000002B09D0124AFB681B0113440C331B886D
:10DBA000002B01D0002315E03B68002B08D10C4A64
:10DBB000FB681B0113440C331B8801339AB201E04C
:10DBC0004FF480720649FB681B010B440C331A802A
:10DBD000FB68013318461437BD4680BC704700BF50
:10DBE000148F001080B485B000AF78607B68013B73
:10DBF0007B607B68032B25D8164A7B681B01134486
:10DC00000C331B88FB81FB89B3F5807F01D1002396
:10DC1000FB81FB89002B02D0FB89013BFB810D4A74
:10DC20007B681B0113440C33FA891A80FB89002B93
:10DC300005D1084A7B681B01134400221A600023A7
:10DC40007B7301E002237B737B7B18461437BD4650
:10DC500080BC7047148F001080B485B000AF78602E
:10DC60000023FB6010E00C4AFB681B0113441B6897
:10DC70007A689A4205D1084AFB681B0113440022C6
:10DC80001A60FB680133FB60FB68032BEBD900BF14
:10DC90001437BD4680BC7047148F001080B586B025
:10DCA00000AF78600023FB737B68DB78002B34D0F7
:10DCB0007B685B6B7B617B6858787B6803F138011C
:10DCC00001237A69FFF718FD0346002B02D00123D8
:10DCD000FB7322E07B680022DA707B689B6A7A69BA
:10DCE000D21A7B681B6A9A4217D27B689B783B6189
:10DCF00010E07B681B6A7A6913447B617B68587803
:10DD00007B6803F1380101237A69FFF7F5FC3B6971
:10DD1000013B3B613B69012BEBD8FB7B1846183775
:10DD2000BD4680BD80B584B000AF78603960002307
:10DD3000FB737B685B6B3A689A421BD07868FFF78D
:10DD4000ADFF0346FB73FB7B002B13D17B68587838
:10DD50007B6803F1380101233A68FFF73BFC034677
:10DD6000002B04D04FF0FF333B600123FB737B6833
:10DD70003A685A63FB7B18461037BD4680BDFFFFEB
:10DD800080B584B000AF78607868FFF787FF0346FE
:10DD9000FB73FB7B002B58D17B681B78032B48D18E
:10DDA0007B681B79012B44D17B6838334FF40072B8
:10DDB00000211846FFF7B4FD7B68383303F5FF7385
:10DDC0004AF655211846FFF746FD7B68383321494E
:10DDD0001846FFF75AFD7B68383303F5F2731E4986
:10DDE0001846FFF752FD7B68383303F5F4727B6801
:10DDF0005B6919461046FFF748FD7B68383303F529
:10DE0000F6727B681B6919461046FFF73EFD7B687A
:10DE10005B6A5A1C7B685A637B6858787B6803F19D
:10DE200038017B685A6B0123FFF766FC7B68002290
:10DE30001A717B685B78002200211846FFF7D0FA40
:10DE40000346002B01D00123FB73FB7B18461037E0
:10DE5000BD4680BD525261417272416180B483B04F
:10DE600000AF786039603B68023B3B607B68DB69F0
:10DE7000023B3A689A4201D3002308E07B685B8941
:10DE80001A463B6803FB02F27B681B6B134418467F
:10DE90000C37BD4680BC704780B586B000AF786057
:10DEA00039607B681B683B613B68012B04D93B6987
:10DEB000DB693A689A4202D301237B618CE04FF020
:10DEC000FF337B613B691B78022B45D0032B5DD070
:10DED000012B77D13B68FB60FB685B08FA68134451
:10DEE000FB603B699A6AFB685B0A13441946386910
:10DEF000FFF718FF0346002B67D1FB685A1CFA6036
:10DF0000C3F308033A69134493F83830BB603B69A4
:10DF10009A6AFB685B0A134419463869FFF702FFE7
:10DF20000346002B53D1FB68C3F308033A6913443B
:10DF300093F838301B021A46BB681343BB603B683A
:10DF400003F00103002B02D0BB681B0902E0BB6891
:10DF5000C3F30B037B613FE03B699A6A3B681B0A92
:10DF6000134419463869FFF7DDFE0346002B30D114
:10DF70003B6903F138023B685B0003F4FF73134411
:10DF80001846FFF72FFC03467B6125E03B699A6A40
:10DF90003B68DB09134419463869FFF7C3FE0346A3
:10DFA000002B18D13B6903F138023B689B0003F456
:10DFB000FE7313441846FFF72CFC034623F070430E
:10DFC0007B6109E001237B6106E000BF04E000BF44
:10DFD00002E000BF00E000BF7B6918461837BD466D
:10DFE00080BD90B589B000AFF860B9607A60022357
:10DFF000FB77BB68012B40F2D680FB68DB69BA680F
:10E000009A4280F0D080FB681B78022B73D0032BE0
:10E0100000F09180012B40F0C680BB68BB61BB69FA
:10E020005B08BA691344BB61FB689A6ABB695B0A07
:10E0300013441946F868FFF775FE0346FB77FB7F2C
:10E04000002B40F0A980FB6803F13802BB69591C22
:10E05000B961C3F3080313447B61BB6803F0010398
:10E06000002B0DD07B691B785BB203F00F035AB213
:10E070007B68DBB21B015BB213435BB2DBB201E036
:10E080007B68DBB27A691370FB680122DA70FB6887
:10E090009A6ABB695B0A13441946F868FFF742FEA7
:10E0A0000346FB77FB7F002B78D1FB6803F1380236
:10E0B000BB69C3F3080313447B61BB6803F001032E
:10E0C000002B03D07B681B09DBB20EE07B691B7859
:10E0D0005BB223F00F035AB27B681B0A5BB203F0FA
:10E0E0000F035BB213435BB2DBB27A691370FB6858
:10E0F0000122DA7057E0FB689A6ABB681B0A134476
:10E100001946F868FFF70EFE0346FB77FB7F002BEE
:10E1100046D1FB6803F13802BB685B0003F4FF7370
:10E1200013447A6892B211461846FFF794FBFB68D5
:10E130000122DA7037E0FB689A6ABB68DB09134496
:10E140001946F868FFF7EEFD0346FB77FB7F002BCF
:10E1500028D17B6823F07044FB6803F13802BB6868
:10E160009B0003F4FE7313441846FFF752FB03466B
:10E1700003F0704323437B60FB6803F13802BB6804
:10E180009B0003F4FE73134479681846FFF77DFB88
:10E19000FB680122DA7006E000BF04E000BF02E085
:10E1A00000BF00E000BFFB7F18462437BD4690BD8E
:10E1B00080B588B000AFF860B9607A600023FB7763
:10E1C000FB681B68BB61BB68012B04D9BB69DB69B9
:10E1D000BA689A4201D302234BE07B68002B0CD033
:10E1E0004FF0FF327968B869FFF7FBFE0346FB7713
:10E1F000FB7F002B01D0FB7F3BE0B968F868FFF79D
:10E200004BFE78617B69002B31D07B69012B01D1FA
:10E2100002232EE07B69B3F1FF3F01D1012328E007
:10E220000022B968B869FFF7DCFE0346FB77FB7F85
:10E23000002B01D0FB7F1CE0BB695A69BB69DB691D
:10E24000023B9A420BD2BB695B695A1CBB695A619B
:10E25000BB691B7943F00103DAB2BB691A717B69B0
:10E26000BB60BB69DB69BA689A42C6D300E000BFF5
:10E27000002318462037BD4680BD80B588B000AF6A
:10E28000786039607B681B683B613B68002B0DD16F
:10E290003B691B69BB61BB69002B04D03B69DB692F
:10E2A000BA699A421BD30123BB6118E039687868C8
:10E2B000FFF7F2FDF860FB68012B01D8012370E045
:10E2C000FB68B3F1FF3F01D1FB686AE03B69DB69A2
:10E2D000FA689A4201D2FB6863E03B68BB61BB69A4
:10E2E000FB61FB690133FB613B69DB69FA699A42B7
:10E2F00007D30223FB61FA69BB699A4201D9002363
:10E300004FE0F9697868FFF7C7FDF860FB68002BFC
:10E310000ED0FB68012B03D0FB68B3F1FF3F01D1A6
:10E32000FB683EE0FA69BB699A42DAD1002338E023
:10E3300000BF4FF0FF32F9693869FFF752FE03461C
:10E34000FB75FB7D002B09D13B68002B06D0FA69D9
:10E3500039683869FFF745FE0346FB75FB7D002BE6
:10E3600016D13B69FA691A613B695A693B69DB69F5
:10E37000023B9A4204D23B695B695A1E3B695A616F
:10E380003B691B7943F00103DAB23B691A7107E07C
:10E39000FB7D012B02D14FF0FF3300E00123FB6135
:10E3A000FB6918462037BD4680BD80B586B000AFFA
:10E3B000786039607B681B683B613B68B3F5001F80
:10E3C00004D23B6803F01F03002B01D0022363E05B
:10E3D0007B683A685A617B689B687B617B69002B2C
:10E3E00006D13B691B78022B02D93B69DB6A7B6152
:10E3F0007B69002B0CD13B685B093A691289934217
:10E4000001D3022348E03B69DA6A7B68DA6129E0DC
:10E410003B695B895B02FB6019E07B6879691846A0
:10E42000FFF73AFD78617B69B3F1FF3F01D101232A
:10E4300032E07B69012B04D93B69DB697A699A4236
:10E4400001D3022328E03A68FB68D31A3B603A689C
:10E45000FB689A42E1D279693869FFF7FFFC02460E
:10E460007B68DA617B687A699A617B68DB69002B7B
:10E4700001D1022310E07B68DA693B685B0A1A4429
:10E480007B68DA613B6903F138023B68C3F3080338
:10E490001A447B681A62002318461837BD4680BDAF
:10E4A00080B586B000AF786039607B681B68FB6020
:10E4B0007B685B692033BB607B68DB69002B03D022
:10E4C000BB68B3F5001F01D30423AAE0BB68C3F304
:10E4D0000803002B40F098807B68DB695A1C7B683E
:10E4E000DA617B689B69002B0BD1BB685B09FA681A
:10E4F00012899342C0F088807B680022DA6104238D
:10E500008FE0BB685B0AFA685289013A1340002B1E
:10E510007AD17A687B689B6919461046FFF7BCFC84
:10E5200078617B69012B01D802237AE07B69B3F122
:10E53000FF3F01D1012374E0FB68DB697A699A42ED
:10E5400058D33B68002B04D17B680022DA61042396
:10E5500067E07A687B689B6919461046FFF78DFE75
:10E5600078617B69002B01D107235AE07B69012B7D
:10E5700001D1022355E07B69B3F1FF3F01D10123B3
:10E580004FE0F868FFF78AFB0346002B01D0012318
:10E5900047E0FB6838334FF4007200211846FFF75C
:10E5A000BFF900233B617969F868FFF757FC024621
:10E5B000FB685A6312E0FB680122DA70F868FFF723
:10E5C0006DFB0346002B01D001232AE03B69013398
:10E5D0003B61FB685B6B5A1CFB685A63FB685B8999
:10E5E0001A463B699342E6D3FB685A6B3B69D21AE1
:10E5F000FB685A637B687A699A617969F868FFF702
:10E600002DFC02467B68DA617B68BA685A61FB6858
:10E6100003F13802BB68C3F308031A447B681A622B
:10E62000002318461837BD4680BD80B586B000AFC0
:10E63000786039607B681B68FB6000217868FFF7B1
:10E64000B4FE0346FB75FB7D002B2BD100233B6101
:10E650007B68DB691946F868FFF764FB0346FB75C6
:10E66000FB7D002B1DD17B681B6A1B78E52B04D03A
:10E670007B681B6A1B78002B07D13B6901333B6128
:10E680003A693B689A4202D10CE000233B610121C8
:10E690007868FFF705FF0346FB75FB7D002BD7D09D
:10E6A00000E000BFFB7D042B01D10723FB75FB7D40
:10E6B00018461837BD4680BD80B584B000AF78607D
:10E6C00039603B681A331846FFF78CF80346FB6045
:10E6D0007B681B78032B09D13B6814331846FFF77E
:10E6E00081F803461B04FA681343FB60FB68184675
:10E6F0001037BD4680BD80B584B000AFF860B9600A
:10E700007A60BB681A337A6892B211461846FFF7EE
:10E71000A2F8FB681B78032B09D1BB6803F1140234
:10E720007B681B0C9BB219461046FFF794F800BF9C
:10E730001037BD4680BDFFFF90B587B000AF786051
:10E7400039603B681A331846FFF74CF80346002B34
:10E7500001D0002359E03B681B7803F03F035A1EA9
:10E7600013465B0013449B0013447B610123FB8130
:10E7700000233B6133E0274A3B6913441B781A4668
:10E780003B6813441846FFF72DF80346BB81FB890D
:10E79000002B1AD07B69FE2B12D8BB891846FEF7D6
:10E7A00033FB03461C467B695A1C7A615B007A681E
:10E7B00013441B881846FEF727FB03469C4201D0F2
:10E7C000002322E0BB89FB8106E0BB894FF6FF7284
:10E7D000934201D0002318E03B6901333B613B6960
:10E7E0000C2BC8D93B681B7803F04003002B0BD0DF
:10E7F000FB89002B08D07B695B007A6813441B8877
:10E80000002B01D0002300E0012318461C37BD4631
:10E8100090BD00BF9409050080B586B000AF786058
:10E8200039603B681A331846FEF7DCFF0346002BBD
:10E8300001D000234DE03B681B7803F03F035A1ED4
:10E8400013465B0013449B0013447B610123FB814F
:10E8500000233B6128E0214A3B6913441B781A4698
:10E860003B6813441846FEF7BDFF0346BB81FB8996
:10E87000002B0FD07B69FE2B01D9002329E0BB8937
:10E88000FB817B695A1C7A615B007A681344FA89C0
:10E890001A8006E0BB894FF6FF72934201D0002335
:10E8A00017E03B6901333B613B690C2BD3D93B68D3
:10E8B0001B7803F04003002B0AD07B69FE2B01D9A3
:10E8C000002306E07B695B007A68134400221A800B
:10E8D000012318461837BD4680BD00BF94090500C6
:10E8E00080B588B000AFF860B96011461A460B4693
:10E8F000FB711346BB71BB680D33BA791A70BB68E4
:10E900000B330F221A70BB680C3300221A70BB68DD
:10E910001A3300211846FEF79EFFFB795A1E134654
:10E920005B0013449B001344FB610023FB82002324
:10E93000BB61FB8A4FF6FF72934207D0FB695A1CFA
:10E94000FA615B00FA6813441B88FB82174ABB69B3
:10E9500013441B781A46BB681344FA8A11461846BA
:10E96000FEF779FFFB8A002B02D14FF6FF73FB8283
:10E97000BB690133BB61BB690C2BDAD9FB8A4FF64B
:10E98000FF72934206D0FB695B00FA6813441B8850
:10E99000002B03D1FB7943F04003FB71BB68FA798C
:10E9A0001A7000BF2037BD4680BD00BF9409050026
:10E9B00080B58CB000AFF860B9607A603B600B2224
:10E9C000B968F868FEF78CFF3B68052B2BD93B68CC
:10E9D000FB6122E07B689A1C7A601B887B840023A1
:10E9E000BB6217E0FB695A007B8C03F00103134400
:10E9F000FB617B8C5B087B84FB6903F48033002B19
:10EA000005D0FB6983F4883383F02103FB61BB6A83
:10EA10000133BB62BB6A0F2BE4D97B681B88002BD8
:10EA2000D8D1FB693B600723BB623B68DBB203F0D4
:10EA30000F03DBB2303387F82F3097F82F30392BA4
:10EA400004D997F82F30073387F82F30BB6A5A1E46
:10EA5000BA6207F13002134497F82F2003F81C2CF8
:10EA60003B681B093B603B68002BDED107F11402B9
:10EA7000BB6A13447E221A7000237B6202E07B6A29
:10EA800001337B627A6ABB6A9A4205D2FA687B6A72
:10EA900013441B78202BF2D1BB6A072B08D8BB6A22
:10EAA0005A1CBA6207F13002134413F81C1C00E030
:10EAB00020217B6A5A1C7A62FA6813440A461A704B
:10EAC0007B6A072BE8D900BF3037BD4680BD80B4D4
:10EAD00085B000AF78600023FB730B23BB60FB7B2A
:10EAE000DAB25208DB011343DAB27B68591C796051
:10EAF0001B781344FB73BB68013BBB60BB68002BF6
:10EB0000EDD1FB7B18461437BD4680BC704780B5FD
:10EB100086B000AF786039600423FB757B681B68A2
:10EB20003B61FF237B75FF233B7581E07B68DB69DD
:10EB300019463869FFF7F6F80346FB75FB7D002B95
:10EB40007CD17B681B6A1B78BB75BB7D002B02D117
:10EB50000423FB7577E07B681B6A0B331B7803F09B
:10EB60003F03FB737B68FA7B9A71BB7DE52B0ED06C
:10EB7000BB7D2E2B0BD0FB7B23F02003082B0CBF7F
:10EB800001230023DBB21A463B68934202D0FF23E5
:10EB90007B7544E0FB7B0F2B2FD1BB7D03F0400343
:10EBA000002B0DD07B681B6A5B7B3B75BB7D23F024
:10EBB0004003BB75BB7D7B757B685A697B681A63B4
:10EBC000BA7D7B7D9A4215D17B681B6A0D331B7819
:10EBD0003A7D9A420ED13B69DA687B681B6A194616
:10EBE0001046FFF719FE0346002B03D07B7D013B47
:10EBF000DBB200E0FF237B7511E07B7D002B09D1A8
:10EC00007B681B6A1846FFF762FF03461A463B7D86
:10EC1000934215D07B684FF0FF321A6310E0002159
:10EC20007868FFF73DFC0346FB75FB7D002B09D19F
:10EC30007B68DB69002B7FF479AF04E000BF02E062
:10EC400000BF00E000BFFB7D002B02D07B680022EC
:10EC5000DA61FB7D18461837BD4680BD80B586B0A9
:10EC600000AF78607B681B683B6100217868FFF724
:10EC70009CFB0346FB75FB7D002B01D0FB7DA9E0CF
:10EC8000FF233B753B7D7B757B684FF0FF321A633A
:10EC90007B68DB6919463869FFF744F80346FB7562
:10ECA000FB7D002B40F090807B681B6A1B78BB7556
:10ECB000BB7D002B02D10423FB758AE07B681B6AB5
:10ECC0000B331B7803F03F03FB737B68FA7B9A716D
:10ECD000BB7DE52B07D0FB7B03F00803002B09D09D
:10ECE000FB7B0F2B06D0FF237B757B684FF0FF3239
:10ECF0001A635EE0FB7B0F2B36D17B6893F82F30D5
:10ED000003F04003002B54D1BB7D03F04003002BE4
:10ED10000DD07B681B6A5B7B3B75BB7D23F040039A
:10ED2000BB75BB7D7B757B685A697B681A63BA7D4E
:10ED30007B7D9A4215D17B681B6A0D331B783A7D27
:10ED40009A420ED13B69DA687B681B6A1946104605
:10ED5000FFF7F2FC0346002B03D07B7D013BDBB2C7
:10ED600000E0FF237B7524E07B7D002B09D17B68CD
:10ED70001B6A1846FFF7ABFE03461A463B7D9342DB
:10ED800024D07B6893F82F3003F00103002B0AD1C5
:10ED90007B68186A7B6824330B221946FEF7D9FD7D
:10EDA0000346002B14D0FF237B757B684FF0FF32A6
:10EDB0001A6300217868FFF773FB0346FB75FB7D40
:10EDC000002B3FF465AF04E000BF02E000BF00E0AD
:10EDD00000BFFB7D18461837BD4680BD80B58CB09E
:10EDE00000AF78607B681B68FB617B6893F82F300D
:10EDF00003F0A003002B01D00623E0E000237B6298
:10EE000002E07B6A01337B62FB69DA687B6A5B0044
:10EE100013441B88002BF4D17B6803F1240107F114
:10EE20000C030C221846FEF75BFDFB7D03F001038B
:10EE3000002B32D07B68402283F82F200123BB6255
:10EE400016E07B6803F12400FB69DA6807F10C0126
:10EE5000BB6AFFF7ADFD7868FFF700FF034687F850
:10EE60002F3097F82F30002B06D1BB6A0133BB62DD
:10EE7000BB6A632BE5D900E000BFBB6A642B01D1FC
:10EE800007239CE097F82F30042B02D097F82F30FF
:10EE900095E0FA7D7B6883F82F20FB7D03F0020369
:10EEA000002B07D07B6A0C33474AA2FB03239B0845
:10EEB000013300E001233B62396A7868FFF7B5FB54
:10EEC000034687F82F3097F82F30002B48D13B6A44
:10EED000013B3B623B6A002B42D07B685A693B6A2C
:10EEE0005B01D31A19467868FFF75FFA034687F883
:10EEF0002F3097F82F30002B32D17B6824331846FF
:10EF0000FFF7E5FD0346FB767B68DB691946F86988
:10EF1000FEF708FF034687F82F3097F82F30002BB5
:10EF20001DD1FB69D8687B68196A3B6ADAB2FB7E3F
:10EF3000FFF7D6FCFB690122DA7000217868FFF741
:10EF4000AFFA034687F82F3097F82F30002B07D100
:10EF50003B6A013B3B623B6A002BD5D100E000BF1E
:10EF600097F82F30002B28D17B68DB691946F869A8
:10EF7000FEF7D8FE034687F82F3097F82F30002B86
:10EF80001BD17B681B6A202200211846FEF7C8FCB3
:10EF90007B68186A7B6824330B221946FEF7A0FCB5
:10EFA0007B6893F82F207B681B6A0C3302F01802F1
:10EFB000D2B21A70FB690122DA7097F82F30184626
:10EFC0003037BD4680BD00BF4FECC44E80B586B023
:10EFD00000AF78607B681B683B617B685B69FB60A6
:10EFE0007B681B6BB3F1FF3F07D07B681B6B194637
:10EFF0007868FFF7DAF9034600E00023FB75FB7D34
:10F00000002B28D17B68DB6919463869FEF78AFE38
:10F010000346FB75FB7D002B15D17B681B6AE5223F
:10F020001A703B690122DA707B685B69FA689A4260
:10F030000BD900217868FFF733FA0346FB75FB7D97
:10F04000002BDFD002E000BF00E000BFFB7D042BFF
:10F0500001D10223FB75FB7D18461837BD4680BDE4
:10F0600080B588B000AF786039607B681B683B6111
:10F070003B6800229A757B68DB69002B00F0C98031
:10F080007B681B6BB3F1FF3F32D00023BB61BB69D0
:10F09000FB611BE0FB8900211846FDF77BFE034660
:10F0A000FB81FB89002B02D10023FB611AE0FB6985
:10F0B000FE2B02D90023FB6114E0FB695A1CFA61A4
:10F0C000FA89D1B23A6813440A469A753B69DA68FC
:10F0D000BB69591CB9615B0013441B88FB81FB8928
:10F0E000002BD7D13A68FB691344163300221A70FB
:10F0F0000023BB61BB69FB613A68FB6913441633AB
:10F100001B78BB814CE07B681A6AFB69591CF9616A
:10F1100013441B78FB75FB7D202B00D140E0FB7D69
:10F12000052B01D1E523FB75FB69092B0FD1BB89A9
:10F13000002B05D13A68BB69134416332E221A708E
:10F14000BB695A1CBA613A6813442E225A723A6853
:10F15000BB6913440933FA7D1A70BB89002B1CD19B
:10F16000FB7D402B13D9FB7D5A2B10D87B681B6A83
:10F170000C331B781A46FB69082B01D9102300E0D9
:10F1800008231340002B02D0FB7D2033FB753A6827
:10F19000BB6913441633FA7D1A70BB690133BB6136
:10F1A000FB690A2BAFD9BB89002B0DD13A68BB692B
:10F1B0001344163300221A707B681B6A0C331B78C9
:10F1C000002B01D10023BB613A68BB6913440933AA
:10F1D00000221A707B681B6ADA7A3B681A727B68B5
:10F1E0001B6A1C331846FEF714FB02463B681A6084
:10F1F0007B681B6A16331846FEF70BFBB860BB68CA
:10F200009AB23B68DA80BB681B0C9AB23B689A8062
:10F2100000E000BF2037BD4680BDFFFF80B58AB04B
:10F2200000AF786039603B681B683B617B681B6896
:10F23000DB68FB6000237B617B69BB61BB695A1C97
:10F24000BA613A6913441B78BB84BB8C1F2B40D92D
:10F25000BB8C2F2B06D0BB8C5C2B10D102E0BB6982
:10F260000133BB613A69BB6913441B782F2BF6D07D
:10F270003A69BB6913441B785C2BF0D02AE07B69A8
:10F28000FE2B01D90623C9E1BB8CDBB2BB84BB8C4E
:10F2900001211846FDF77EFD0346BB84BB8C002B85
:10F2A00001D10623BAE1BB8C7F2B09D8BB8C194650
:10F2B000A548FEF774FB0346002B01D00623ADE101
:10F2C0007B695A1C7A615B00FA681344BA8C1A8015
:10F2D000B4E700BF3A69BB691A443B681A60BB8C4B
:10F2E0001F2B01D8042300E0002387F827307B6917
:10F2F000012B09D17B6903F10043013B5B00FA68F4
:10F3000013441B882E2B16D07B69022B4ED17B69B0
:10F3100003F10043013B5B00FA6813441B882E2B6A
:10F3200044D17B6903F10043023B5B00FA6813445C
:10F330001B882E2B3AD17B695B00FA6813440022AC
:10F340001A8000233B620FE03A6A7B699A4201D23D
:10F350002E2100E020217A683B6A134424330A46B8
:10F360001A703B6A01333B623B6A0A2BECD997F86F
:10F37000273043F02003D9B27A683B6A1344243320
:10F380000A461A70002349E17B6903F10043013BFF
:10F390005B00FA6813441B88BB84BB8C202B02D013
:10F3A000BB8C2E2B06D17B69013B7B617B69002BDB
:10F3B000EAD100E000BF7B695B00FA6813440022D9
:10F3C0001A807B69002B01D1062327E17B68243357
:10F3D0000B2220211846FEF7A3FA0023BB6102E0AE
:10F3E000BB690133BB61BB695B00FA6813441B88CE
:10F3F000202BF5D0BB695B00FA6813441B882E2BC9
:10F40000EED0BB69002B09D097F8273043F00303F7
:10F4100087F8273002E07B69013B7B617B69002B29
:10F4200009D07B6903F10043013B5B00FA68134498
:10F430001B882E2BEFD1002387F8263000233B6258
:10F440000823FB61BB695A1CBA615B00FA6813446C
:10F450001B88BB84BB8C002B00F09680BB8C202BC0
:10F4600006D0BB8C2E2B0AD1BA697B699A4206D092
:10F4700097F8273043F0030387F8273083E03A6A90
:10F48000FB699A4203D2BA697B699A4223D1FB692C
:10F490000B2B06D197F8273043F0030387F827306A
:10F4A00075E0BA697B699A4205D097F8273043F036
:10F4B000030387F82730BA697B699A4266D87B696B
:10F4C000BB6108233B620B23FB6197F826309B004E
:10F4D00087F8263057E0BB8C7F2B14D9BB8C0021DA
:10F4E0001846FDF757FC0346BB84BB8C002B04D0A9
:10F4F000BB8C803B154AD35CBB8497F8273043F024
:10F50000020387F82730BB8C002B07D0BB8C194631
:10F510000F48FEF744FA0346002B08D05F23BB8454
:10F5200097F8273043F0030387F8273021E0BB8C9E
:10F53000402B0FD9BB8C5A2B0CD897F8263043F0B0
:10F54000020387F8263014E0A40905001409050019
:10F55000B0090500BB8C602B0BD9BB8C7A2B08D86B
:10F5600097F8263043F0010387F82630BB8C203B08
:10F57000BB843B6A5A1C3A62BA8CD1B27A68134493
:10F580000A4683F824205DE700BF00E000BF7B68E7
:10F5900093F82430E52B03D17B68052283F82420DF
:10F5A000FB69082B04D197F826309B0087F826309A
:10F5B00097F8263003F00C030C2B05D097F8263073
:10F5C00003F00303032B05D197F8273043F0020320
:10F5D00087F8273097F8273003F00203002B17D164
:10F5E00097F8263003F00303012B05D197F8273055
:10F5F00043F0100387F8273097F8263003F00C0308
:10F60000042B05D197F8273043F0080387F82730FB
:10F610007B6897F8272083F82F2000231846283787
:10F62000BD4680BD80B586B000AF786039607B682C
:10F630003B613B691B68FB603B681B782F2B0BD041
:10F640003B681B785C2B07D0FB689A693B699A6022
:10F650000DE03B6801333B603B681B782F2BF8D0F3
:10F660003B681B785C2BF4D03B6900229A603B68B6
:10F670001B781F2B0AD87B68802283F82F2000215B
:10F680007868FEF792FE0346FB7556E03B46194646
:10F690007868FFF7C3FD0346FB75FB7D002B47D160
:10F6A0007868FFF7DBFA0346FB757B6893F82F3029
:10F6B000FB72FB7D002B1BD0FB7D042B3AD1FB7A28
:10F6C00003F02003002B0BD0FB7A03F00403002B84
:10F6D0002CD07B68802283F82F200023FB7529E043
:10F6E000FB7A03F00403002B24D10523FB7521E0F2
:10F6F000FB7A03F00403002B1ED13B699B7903F0D6
:10F700001003002B02D10523FB7516E0FB6803F103
:10F7100038027B685B69C3F3080313441946F86831
:10F72000FEF7CAFF02463B699A60AFE700BFADE74C
:10F7300000BF02E000BF00E000BFFB7D18461837A5
:10F74000BD4680BD80B487B000AF78604FF0FF3316
:10F750003B617B681B68002B32D07B681B687B6138
:10F7600002E07B6901337B617B691B781F2B03D926
:10F770007B691B783A2BF4D17B691B783A2B1CD11F
:10F780007B681B68FB60FB685A1CFA601B78303B87
:10F79000BB60BB68092B0ED8FA687B699A420AD114
:10F7A000BB68012B07D8BB683B617B6901337B6178
:10F7B0007B687A691A603B6903E0044B1B783B6104
:10F7C0003B6918461C37BD4680BC7047128F00103D
:10F7D00080B582B000AF786039607B680022DA7053
:10F7E0007B684FF0FF325A6339687868FEF79AFAFF
:10F7F0000346002B01D0042338E07B68383303F53F
:10F80000FF731846FDF7EEFF03461A464AF65523E6
:10F810009A4201D0032329E07B6893F83830E92B22
:10F8200009D07B6893F83830EB2B1ED17B6893F8B6
:10F830003A30902B19D17B68383336331846FDF7B0
:10F84000E8FF034623F07F430A4A934201D1002395
:10F850000CE07B68383352331846FDF7DAFF024676
:10F86000054B9A4201D1002300E0022318460837D5
:10F87000BD4680BD464154004641543380B596B0E4
:10F8800000AFF860B9601346FB71BB6800221A60D4
:10F89000F868FFF757FFF863FB6B002B01DA0B23C7
:10F8A00034E2A84AFB6B52F82330BB63BB6B002BDE
:10F8B00001D10C232AE2BB68BA6B1A60FB7923F0F2
:10F8C0000103FB71BB6B1B78002B1AD0BB6B5B7801
:10F8D0001846FDF7F5FE034687F8373097F83730BE
:10F8E00003F00103002B0CD1FB79002B07D097F814
:10F8F000373003F00403002B01D00A2306E2002373
:10F9000004E2BB6B00221A70FB6BDAB2BB6B5A705D
:10F91000BB6B5B781846FDF7B3FB034687F83730BF
:10F9200097F8373003F00103002B01D00323EDE1FA
:10F93000FB79002B07D097F8373003F00403002B36
:10F9400001D00A23E2E100233B65396DB86BFFF774
:10F950003FFF034687F8573097F85730022B4BD1BB
:10F9600000233B641FE0BB6B03F138023B6C1B01BF
:10F9700003F5DF7313443B633B6B04331B78002BAD
:10F9800006D03B6B08331846FDF743FF024600E004
:10F9900000223B6C9B0007F158010B4443F8442CB8
:10F9A0003B6C01333B643B6C032BDCD900233B6491
:10F9B0003B6C002B02D03B6C013B3B643B6C9B00DF
:10F9C00007F15802134453F8443C3B653B6D002B50
:10F9D00005D0396DB86BFFF7FBFE034600E003234B
:10F9E00087F8573097F85730012B05D93B6C013316
:10F9F0003B643B6C032BE1D997F85730042B01D1C2
:10FA0000012383E197F85730012B01D90D237DE1C4
:10FA1000BB6B38330B331846FDF7E4FE0346B3F5F2
:10FA2000007F01D00D2371E1BB6B383316331846CC
:10FA3000FDF7D8FE0346FB64FB6C002B06D1BB6BC5
:10FA4000383324331846FDF7E4FEF864BB6BFA6CD8
:10FA50001A62BB6B93F84820BB6B9A70BB6B9B78A8
:10FA6000012B05D0BB6B9B78022B01D00D234DE100
:10FA7000BB6B9B781A46FB6C02FB03F3FB64BB6B0E
:10FA800093F845309AB2BB6B5A81BB6B5B89002BF4
:10FA900008D0BB6B5B891A46BB6B5B89013B13408B
:10FAA000002B01D00D2331E1BB6B383311331846E5
:10FAB000FDF798FE03461A46BB6B1A81BB6B1B8988
:10FAC00003F00F039BB2002B01D00D231EE1BB6B93
:10FAD000383313331846FDF785FE0346BB64BB6C11
:10FAE000002B06D1BB6B383320331846FDF791FE4F
:10FAF000B864BB6B38330E331846FDF773FE03460C
:10FB0000FB85FB8D002B01D10D23FFE0FA8DFB6CF3
:10FB10001344BA6B1289120992B21344BB62BA6CD5
:10FB2000BB6A9A4201D20D23F0E0BA6CBB6AD31AC9
:10FB3000BA6B5289B3FBF2F37B627B6A002B03D171
:10FB40000D23E3E0088F0010032387F857307B6A0A
:10FB50004FF6F572934202D8022387F857307B6A3A
:10FB600040F6F572934202D8012387F857307B6A3A
:10FB70009A1CBB6BDA61BB6B3A6D5A62FA8D3B6DB6
:10FB80001A44BB6B9A623A6DBB6A1A44BB6B1A6328
:10FB900097F85730032B1ED1BB6B38332A331846E6
:10FBA000FDF720FE0346002B01D00D23AEE0BB6B1A
:10FBB0001B89002B01D00D23A8E0BB6B38332C33FD
:10FBC0001846FDF726FE0246BB6BDA62BB6BDB69AB
:10FBD0009B007B641FE0BB6B1B89002B01D10D23B5
:10FBE00094E0BB6B9A6AFB6C1A44BB6BDA6297F8C1
:10FBF0005730022B03D1BB6BDB695B000AE0BB6BA8
:10FC0000DA6913465B0013445A08BB6BDB6903F0E7
:10FC1000010313447B64BB6B1A6A7B6C03F2FF1312
:10FC20005B0A9A4201D20D2370E0BB6B4FF0FF32AA
:10FC30005A61BB6B5A69BB6B1A61BB6B80221A712C
:10FC400097F85730032B49D1BB6B38333033184604
:10FC5000FDF7C8FD0346012B40D13B6D013319462A
:10FC6000B86BFEF75FF80346002B37D1BB6B002261
:10FC70001A71BB6B383303F5FF731846FDF7B2FDFD
:10FC800003461A464AF655239A4227D1BB6B3833AE
:10FC90001846FDF7BEFD02461E4B9A421ED1BB6BB5
:10FCA000383303F5F2731846FDF7B3FD02461A4BDD
:10FCB0009A4213D1BB6B383303F5F4731846FDF742
:10FCC000A8FD0246BB6B5A61BB6B383303F5F67374
:10FCD0001846FDF79EFD0246BB6B1A61BB6B97F899
:10FCE00057201A700D4B1B8801339AB20B4B1A80A8
:10FCF0000A4B1A88BB6BDA80BB6B094ADA60BB6BB4
:10FD000000229A61B86BFDF7A7FF00231846583709
:10FD1000BD4680BD5252614172724161108F001028
:10FD2000548F001080B584B000AF786039607B6874
:10FD3000002B1AD07B681B68002B16D07B681B68D1
:10FD40001B78002B11D07B681B68DA887B689B8846
:10FD50009A420AD17B681B685B781846FDF7B0FCB5
:10FD6000034603F00103002B05D03B6800221A6014
:10FD70000923FB7305E07B681A683B681A6000235F
:10FD8000FB73FB7B18461037BD4680BD80B588B03D
:10FD900000AFF860B9601346FB71BB683B6107F1C7
:10FDA00010031846FFF7CEFCF861FB69002B01DA5F
:10FDB0000B232BE0174AFB6952F82330BB61BB6968
:10FDC000002B05D0B869FDF747FFBB6900221A7008
:10FDD000FB68002B02D0FB6800221A70FA680D49FC
:10FDE000FB6941F82320FB68002B02D0FB79012B33
:10FDF00001D000230AE007F10C0107F108030022FB
:10FE00001846FFF73BFD0346FB75FB7D1846203780
:10FE1000BD4680BD088F001080B59AB000AFF86075
:10FE2000B9601346FB71FB68002B01D10923AAE1DD
:10FE3000FB7903F03F03FB71FA7907F1140107F135
:10FE400008031846FFF71AFD034687F8673097F84E
:10FE50006730002B40F08E817B69BB61BA6807F187
:10FE6000180311461846FFF7DDFB034687F8673095
:10FE700097F86730002B1AD197F847305BB2002B08
:10FE800003DA062387F8673011E0FB7923F00103DA
:10FE9000002B14BF01230023DBB21A4607F118031D
:10FEA00011461846FDF796FD034687F86730FB7943
:10FEB00003F01C03002B7FD097F86730002B17D07E
:10FEC00097F86730042B0ED1FDF7DEFD0346002BBB
:10FED00006D007F118031846FEF780FF034600E03E
:10FEE000122387F86730FB7943F00803FB7110E0B9
:10FEF000BB7F03F01103002B03D0072387F8673083
:10FF000007E0FB7903F00403002B02D0082387F8F5
:10FF1000673097F86730002B68D1FB7903F008034E
:10FF2000002B63D005F09EFEB865BB6B0E33B96D38
:10FF30001846FDF7AAFCBB6B1633B96D1846FDF7E2
:10FF4000A4FCBB6B0B3320221A707B69BA6B114681
:10FF50001846FEF7B1FB78657B69B96B002218463D
:10FF6000FEF7C9FBBB6B1C3300211846FDF78DFC67
:10FF70007B690122DA707B6D002B37D07B695B6B6C
:10FF8000BB6507F118030022796D1846FEF710F9DA
:10FF9000034687F8673097F86730002B26D17B69D6
:10FFA000B96D1846FDF7BEFE034687F867307B69DA
:10FFB0007A6D013A1A6119E097F86730002B15D174
:10FFC000BB7F03F01003002B03D0042387F86730B6
:10FFD0000CE0FB7903F00203002B07D0BB7F03F09A
:10FFE0000103002B02D0072387F8673097F86730AA
:10FFF000002B28D1FB7903F00803002B03D0FB79F9
:020000021000EC
:1000000043F04003FB717B695A6BFB685A62BA6B21
:10001000FB689A62FB7923F00103002B14BF0123D4
:100020000023DBB21A4607F1180311461846FDF704
:100030004BFD0246FB681A61FB681B69002B02D16D
:10004000022387F8673097F86730002B40F09280E2
:100050007B69BA6B11461846FEF72EFB0246FB6819
:100060009A60BB6B1C331846FDF7D3FB0246FB6856
:10007000DA607A69FB681A607B69DA88FB689A80C3
:10008000FB68FA791A75FB6800225A75FB68002232
:100090001A62FB6800229A61FB682C334FF40072ED
:1000A00000211846FDF73CFCFB7903F02003002BF0
:1000B00060D0FB68DB68002B5CD0FB68DA68FB680B
:1000C0009A617B695B895B023B65FB689B683B6669
:1000D000FB68DB68FB6516E0FB68396E1846FDF7C8
:1000E000DBFE38663B6E012B02D8022387F86730AF
:1000F0003B6EB3F1FF3F02D1012387F86730FA6D01
:100100003B6DD31AFB6597F86730002B03D1FA6D6E
:100110003B6D9A42E0D8FB683A6EDA6197F8673037
:10012000002B27D1FB6DC3F30803002B22D07B6982
:10013000396E1846FDF792FEF864FB6C002B03D174
:10014000022387F8673015E0FB6D5A0AFB6C1A44EE
:10015000FB681A627B695878FB6803F12C01FB6825
:100160001A6A0123FDF736FA0346002B02D0012359
:1001700087F8673097F86730002B02D0FB680022C1
:100180001A6097F8673018466837BD4680BD80B55D
:100190008EB000AFF860B9607A603B60BB687B628C
:1001A0003B6800221A60FB6807F1140211461846EA
:1001B000FFF7B8FD034687F8373097F83730002B44
:1001C00007D1FB685B7D87F8373097F83730002B15
:1001D00002D097F8373009E1FB681B7D03F001037B
:1001E000002B01D1072301E1FB68DA68FB689B69FA
:1001F000D31A3B627A683B6A9A4240F2F2803B6AC9
:100200007B60EEE0FB689B69C3F30803002B40F0C2
:10021000BA80FB689B695B0A7A695289013A13408C
:10022000FB61FB69002B23D1FB689B69002B03D189
:10023000FB689B683B6307E0FA68FB68DB6919466B
:100240001046FDF729FE38633B6B012B04D8FB6891
:1002500002225A750223C9E03B6BB3F1FF3F04D180
:10026000FB6801225A750123C0E0FB683A6BDA6132
:100270007A69FB68DB6919461046FDF7EFFDB86146
:10028000BB69002B04D1FB6802225A750223ADE042
:10029000BA69FB691344BB617B685B0ABB62BB6ADA
:1002A000002B39D0FA69BB6A13447A6952899342A8
:1002B00005D97B695B891A46FB69D31ABB627B69E6
:1002C0005878BB6ABA69796AFDF784F90346002B4E
:1002D00004D0FB6801225A75012387E0FB681B7D6F
:1002E0005BB2002B14DAFB681A6ABB69D31ABA6ACC
:1002F0009A420DD9FB681A6ABB69D31A5B027A6A03
:10030000D018FB682C334FF400721946FDF7E8FA59
:10031000BB6A5B02FB6250E0FB681B6ABA699A42E7
:100320002ED0FB681B7D5BB2002B18DA7B695878F6
:10033000FB6803F12C01FB681A6A0123FDF7DCF965
:100340000346002B04D0FB6801225A7501234DE0BF
:10035000FB681B7D03F07F03DAB2FB681A757B69CB
:100360005878FB6803F12C010123BA69FDF732F9D3
:100370000346002B04D0FB6801225A75012335E0A7
:10038000FB68BA691A62FB689B69C3F30803C3F58B
:100390000073FB62FA6A7B689A4201D97B68FB6250
:1003A000FB6803F12C02FB689B69C3F30803134449
:1003B000FA6A1946786AFDF793FA7A6AFB6A134477
:1003C0007B62FB689A69FB6A1A44FB689A613B6826
:1003D0001A68FB6A1A443B681A607A68FB6AD31A87
:1003E0007B607B68002B7FF40DAF00231846383705
:1003F000BD4680BD80B58CB000AFF860B9607A6052
:100400003B60BB68FB613B6800221A60FB6807F138
:10041000100211461846FFF785FC034687F82F3077
:1004200097F82F30002B07D1FB685B7D87F82F30C2
:1004300097F82F30002B02D097F82F303FE1FB6860
:100440001B7D03F00203002B01D1072337E1FB687A
:100450009A697B681A44FB689B699A4280F0218103
:10046000FB689B69DB437B601BE1FB689B69C3F313
:100470000803002B40F0D780FB689B695B0A3A6950
:100480005289013A1340BB61BB69002B37D1FB682D
:100490009B69002B0CD1FB689B68BB62BB6A002B7D
:1004A0000ED1FB6800211846FDF7E7FEB86207E0B1
:1004B000FA68FB68DB6919461046FDF7DEFEB86294
:1004C000BB6A002B00F0F280BB6A012B04D1FB68F1
:1004D00002225A750223F2E0BB6AB3F1FF3F04D156
:1004E000FB6801225A750123E9E0FB68BA6ADA6108
:1004F000FB689B68002B02D1FB68BA6A9A60FB68B4
:100500001B7D5BB2002B18DA3B695878FB6803F15E
:100510002C01FB681A6A0123FDF7EEF80346002B55
:1005200004D0FB6801225A750123C8E0FB681B7DDB
:1005300003F07F03DAB2FB681A753A69FB68DB697E
:1005400019461046FDF78AFC78617B69002B04D1BF
:10055000FB6802225A750223B1E07A69BB69134431
:100560007B617B685B0A3B623B6A002B3CD0BA69CB
:100570003B6A13443A695289934205D93B695B89C6
:100580001A46BB69D31A3B623B6958783B6A7A6961
:10059000F969FDF7B1F80346002B04D0FB6801228E
:1005A0005A7501238BE0FB681A6A7B69D31A3A6A91
:1005B0009A4215D9FB6803F12C00FB681A6A7B6923
:1005C000D31A5B02FA6913444FF400721946FDF71F
:1005D00087F9FB681B7D03F07F03DAB2FB681A75AD
:1005E0003B6A5B027B623FE0FB681B6A7A699A4266
:1005F00016D0FB689A69FB68DB689A4210D23B69A7
:100600005878FB6803F12C0101237A69FCF7E2FFBB
:100610000346002B04D0FB6801225A7501234EE0EB
:10062000FB687A691A62FB689B69C3F30803C3F528
:1006300000737B627A6A7B689A4201D97B687B622D
:10064000FB6803F12C02FB689B69C3F308031344A6
:100650007A6AF9691846FDF743F9FB681B7D63F078
:100660007F03DAB2FB681A75FA697B6A1344FB618F
:10067000FB689A697B6A1A44FB689A61FB68DA68CE
:10068000FB689B699A4238BF1A46FB68DA603B6890
:100690001A687B6A1A443B681A607A687B6AD31AC4
:1006A0007B607B68002B7FF4E0AE00E000BFFB685E
:1006B0001B7D43F04003DAB2FB681A75002318462D
:1006C0003037BD4680BD80B586B000AF78607B68AE
:1006D00007F1080211461846FFF724FB0346FB7595
:1006E000FB7D002B68D17B681B7D03F04003002B52
:1006F00062D07B681B7D5BB2002B15DABB68587833
:100700007B6803F12C017B681A6A0123FCF7F4FF74
:100710000346002B01D001234FE07B681B7D03F0D3
:100720007F03DAB27B681A7505F09CFA3861BA6803
:100730007B685B6A19461046FDF7F4FA0346FB75C1
:10074000FB7D002B38D17B689B6AFB60FB680B3319
:100750001A78FB680B3342F02002D2B21A707B6821
:1007600018687B689B681A46F968FDF7C4FFFB6848
:1007700003F11C027B68DB6819461046FDF785F81B
:10078000FB68163339691846FDF77FF8FB681233AA
:1007900000211846FDF75FF8BB680122DA70BB68DC
:1007A0001846FDF7EDFA0346FB757B681B7D23F0C9
:1007B0004003DAB27B681A75FB7D18461837BD46D0
:1007C00080BD80B584B000AF78607868FFF77BFFAC
:1007D0000346FB73FB7B002B18D17B6807F10802F3
:1007E00011461846FFF79EFA0346FB73FB7B002B6E
:1007F0000CD17B681B691846FDF7F4F90346FB73BF
:10080000FB7B002B02D17B6800221A60FB7B184621
:100810001037BD4680BD90B593B000AF786007F14A
:100820000C013B1D00221846FFF728F8034687F805
:10083000473097F84730002B31D1FB683B617A682D
:1008400007F1100311461846FEF7ECFE034687F841
:10085000473097F84730002B1AD197F83F305BB2FA
:10086000002B03DAFB68BA699A6111E0BB7D03F0E3
:100870001003002B09D0FB683A6BFC681146184640
:10088000FDF71AFF0346A36102E0052387F847300E
:1008900097F84730042B02D1052387F8473097F8A3
:1008A000473018464C37BD4690BDFFFF80B5DCB0E1
:1008B00000AF3B1D18603B4619603B1D1B680022C2
:1008C0001A7007F592713B1D00221846FEF7D6FFFD
:1008D000034687F86F3197F86F31002B40F018818D
:1008E000D7F82431C7F828313B461B68C7F8683170
:1008F000D7F824319B69C7F83031B8E007F5947315
:1009000020211846FDF751FD034687F86F3197F80F
:100910006F31002B40F0B580D7F82431D7F844214F
:1009200011461846FDF7FEF9034687F86F3197F830
:100930006F31002B40F0A780D7F82431D7F8482139
:1009400011461846FDF7B8FE0346C7F8303107F5E3
:10095000947300211846FDF728FD034687F86F3190
:1009600097F86F31002B40F0908007F594730021C9
:100970001846FEF7CCF8034687F86F3197F86F31C9
:10098000002B1AD1D7F82431D7F848211146184640
:10099000FDF792FE0246D7F85C3193420FD007F57F
:1009A000947300211846FDF77BFD034687F86F31ED
:1009B00097F86F31002BD8D002E000BF00E000BFF5
:1009C00097F86F31042B02D1022387F86F3197F823
:1009D0006F31002B5BD107F10C0207F594731146C0
:1009E0001846FEF73DFB0023C7F8643104E0D7F852
:1009F00064310133C7F8643107F10C02D7F8643170
:100A0000134416331B78002BF1D1D7F8643103332C
:100A1000D7F868219A421AD2112387F86F3137E04C
:100A2000D7F86431013BC7F864313B1D1A68D7F829
:100A30006831013BC7F86831D7F86831134407F1D2
:100A40000C01D7F864210A44163212781A70D7F8CC
:100A50006431002BE4D13B1D1A68D7F86831013BA3
:100A6000C7F86831D7F8683113442F221A70D7F8C5
:100A70003031C7F85C31D7F85C31002B7FF43EAFE2
:100A800006E000BF04E000BF02E000BF00E000BFDE
:100A90003B1D1B68C7F8603197F86F31002B33D1CD
:100AA0001F4B1A78D7F86031591CC7F860113032E3
:100AB000D2B21A70D7F860315A1CC7F860213A22B6
:100AC0001A703B46D7F868211B689A4207D1D7F8BD
:100AD00060315A1CC7F860212F221A7014E03B1DA8
:100AE0001A68D7F86831591CC7F868111A44D7F842
:100AF0006031591CC7F8601112781A703B46D7F85C
:100B000068211B689A42EAD3D7F8603100221A7034
:100B100097F86F31184607F5B877BD4680BD00BF1E
:100B2000128F001080B588B000AF786039607B68A4
:100B300007F1080211461846FFF7F4F80346FB7761
:100B4000FB7F002B05D17B685B7DFB77FB7F002B58
:100B500001D0FB7F0FE17B68DB683A689A4208D9D5
:100B60007B681B7D03F00203002B02D17B68DB68EE
:100B70003B607B689B693B6100237B617B687A6992
:100B80009A613B68002B00F0A780BB685B895B0221
:100B9000FB603B69002B1BD03B685A1EFB68B2FB15
:100BA000F3F23B69591EFB68B1FBF3F39A420FD392
:100BB0003B695A1EFB685B421A407B689A617B68FE
:100BC0009B693A68D31A3B607B68DB69BB6122E0B2
:100BD0007B689B68BB61BB69002B19D17B680021D6
:100BE0001846FDF74AFBB861BB69012B04D17B684D
:100BF00002225A750223BEE0BB69B3F1FF3F04D164
:100C00007B6801225A750123B5E07B68BA699A6056
:100C10007B68BA69DA61BB69002B5DD03AE03A685B
:100C2000FB68D31A3B607B689A69FB681A447B684F
:100C30009A617B681B7D03F00203002B0BD07B685D
:100C4000B9691846FDF719FBB861BB69002B08D1DB
:100C500000233B6022E07B68B9691846FDF71CF968
:100C6000B861BB69B3F1FF3F04D17B6801225A75BB
:100C7000012380E0BB69012B04D9BB68DB69BA6939
:100C80009A4204D37B6802225A75022373E07B6880
:100C9000BA69DA613A68FB689A42C0D87B689A6997
:100CA0003B681A447B689A613B68C3F30803002BD6
:100CB00012D0BB68B9691846FDF7D0F878617B6936
:100CC000002B04D17B6802225A75022353E03B6853
:100CD0005B0A7A6913447B617B689A697B68DB688D
:100CE0009A420AD97B689A697B68DA607B681B7DC7
:100CF00043F04003DAB27B681A757B689B69C3F3E3
:100D00000803002B36D07B681B6A7A699A4231D07F
:100D10007B681B7D5BB2002B18DABB6858787B6858
:100D200003F12C017B681A6A0123FCF7E5FC0346FA
:100D3000002B04D07B6801225A7501231BE07B68DD
:100D40001B7D03F07F03DAB27B681A75BB685878A5
:100D50007B6803F12C0101237A69FCF73BFC034615
:100D6000002B04D07B6801225A75012303E07B68C5
:100D70007A691A62FB7F18462037BD4680BD80B570
:100D800092B000AFF860B9607A6007F1280107F10E
:100D90000C0300221846FEF771FD034687F8473022
:100DA00097F84730002B40F09980BA6A7B681A6048
:100DB000BB6A5A69BB6ADB69023B9A4204D8BB6AC8
:100DC0005A69BB681A6089E000233B64BB6A1B78E0
:100DD000012B28D10223FB63BB6A7B6107F114035B
:100DE000F96B1846FDF758F8F862FB6AB3F1FF3F5C
:100DF00003D1012387F8473063E0FB6A012B03D15D
:100E0000022387F847305CE0FB6A002B02D13B6C81
:100E100001333B64FB6B0133FB63BB6ADB69FA6B39
:100E20009A42DBD34DE0BB6ADB69FB63BB6A9B6A1A
:100E3000BB6300237B6300233B637B6B002B13D1DD
:100E4000B86ABB6B5A1CBA631946FCF76BFF0346C2
:100E500087F8473097F84730002B31D1BB6A3833D9
:100E60003B634FF400737B63BB6A1B78022B0FD18B
:100E7000386BFCF7B7FC0346002B02D13B6C013307
:100E80003B643B6B02333B637B6B023B7B6310E059
:100E9000386BFCF7BEFC034623F07043002B02D1F5
:100EA0003B6C01333B643B6B04333B637B6B043B28
:100EB0007B63FB6B013BFB63FB6B002BBDD100E055
:100EC00000BFBB683A6C1A60BB6A3A6C5A61BB6A75
:100ED0001A79BB6A42F00102D2B21A7197F8473010
:100EE00018464837BD4680BD80B5A0B000AF7860D9
:100EF0000023BB6707F10C013B1D02221846FEF7D9
:100F0000BDFC034687F87F30FB687B6497F87F3031
:100F1000002B40F0A4807A6807F14403114618467C
:100F2000FEF780FB034687F87F3097F87F30002B71
:100F300008D197F8733003F02003002B02D006236A
:100F400087F87F3097F87F30002B08D107F14403F2
:100F500002211846FCF73EFD034687F87F3097F8DC
:100F60007F30002B7BD197F873305BB2002B03DA14
:100F7000062387F87F3008E097F84A3003F0010332
:100F8000002B02D0072387F87F3097F87F30002BA3
:100F90003DD1FB687A6E11461846FDF78DFBB867A8
:100FA00097F84A3003F01003002B30D0FB689B69A0
:100FB000BA6F9A4203D1072387F87F3027E0FB6896
:100FC0003B61BB6FBB6107F1100300211846FDF7C1
:100FD000ECF9034687F87F3097F87F30002B16D165
:100FE00007F1100300211846FDF791FD034687F82D
:100FF0007F3097F87F30002B02D1072387F87F30AE
:1010000097F87F30042B02D1002387F87F3097F8C0
:101010007F30002B23D107F144031846FDF7D6FF9C
:10102000034687F87F3097F87F30002B0CD1BB6FD9
:10103000002B09D007F144030022B96F1846FDF7D1
:10104000B7F8034687F87F3097F87F30002B06D13A
:10105000FB681846FCF794FE034687F87F3097F844
:101060007F3018468037BD4680BD80B598B000AF50
:10107000786007F10C013B1D02221846FEF7FEFBCB
:10108000034687F85F30FB683B6197F85F30002BC1
:1010900040F0F9807A6807F1100311461846FEF710
:1010A000C1FA034687F85F3097F85F30002B02D112
:1010B000082387F85F3097F85F30042B08D197F842
:1010C0003F3003F02003002B02D0062387F85F3067
:1010D00097F85F30042B40F0D68007F11003002111
:1010E0001846FDF7CAF8F864FB685B895B02FB6190
:1010F000002387F85F30FB6C002B02D1072387F8B1
:101100005F30FB6C012B02D1022387F85F30FB6C50
:10111000B3F1FF3F02D1012387F85F3097F85F30CA
:10112000002B06D1FB681846FCF7B8FD034687F88C
:101130005F3004F097FDB86497F85F30002B6AD1F8
:10114000FB68F96C1846FCF789FE7865FB68383354
:101150007B644FF400720021786CFCF7E1FB0B22FA
:101160002021786CFCF7DCFB7B6C2E221A707B6CE8
:101170000B3310221A707B6C1633B96C1846FCF7CF
:1011800084FBFB68FA6C796C1846FDF7B4FA7B6C4B
:1011900020332022796C1846FCF7A2FB7B6C2133AC
:1011A0002E221A70BB693B65FB681B78032B06D1A6
:1011B000FB68DB6A3A6D9A4201D100233B65F8680F
:1011C0007B6C20333A6D1946FDF795FAFB685B8915
:1011D000BB651BE07B6D5A1C7A65FA685363FB683C
:1011E0000122DA70FB681846FCF758FD034687F8C1
:1011F0005F3097F85F30002B0CD14FF40072002164
:10120000786CFCF78DFBBB6D013BBB65BB6D002BA8
:10121000E0D100E000BF97F85F30002B07D107F165
:1012200010031846FDF7DAFD034687F85F3097F89C
:101230005F30002B20D13B6B7B647B6C1633B96C29
:101240001846FCF722FBFB68FA6C796C1846FDF730
:1012500052FA7B6C0B3310221A70FB680122DA7091
:1012600097F85F30002B0ED1FB681846FCF788FD1D
:10127000034687F85F3006E007F110030022F96C9F
:101280001846FCF795FF97F85F3018466037BD4663
:1012900080BD90B5A7B000AF786039603B46184676
:1012A000FEF750FA07F120013B1D02221846FEF717
:1012B000E5FA034687F8973097F89730002B40F00F
:1012C000DB803B6ABB657A6807F158031146184614
:1012D000FEF7A8F9034687F8973097F89730002B68
:1012E00008D197F8873003F0A003002B02D0062323
:1012F00087F8973097F89730002B08D107F15803FB
:1013000002211846FCF766FB034687F8973097F8EA
:101310009730002B40F0B080BB6F03F10B0107F159
:10132000080315221846FCF7DBFA07F1580107F10C
:10133000240334221846FCF7D3FA3A6807F1240351
:1013400011461846FEF76EF9034687F8973097F86E
:101350009730002B0CD1FA6A3B6E9A4205D1BA6BDA
:10136000FB6E9A4201D1042300E0082387F89730EE
:1013700097F89730042B68D107F124031846FDF73E
:101380002DFD034687F8973097F89730002B5CD1F6
:101390007B6CC7F89030D7F8903003F10D0007F15F
:1013A0000803023313221946FCF79AFA3A7AD7F85F
:1013B00090300B3342F02002D2B21A703B6A012205
:1013C000DA70D7F890300B331B7803F01003002B42
:1013D0003BD03A6EFB6A9A4237D03C6A3B6AD7F8F8
:1013E00090101846FDF768F9034619462046FCF7A9
:1013F00035FDC7F88C00D7F88C30002B03D10223C1
:1014000087F8973021E03B6AD7F88C101846FCF734
:1014100089FC034687F897303B6A38332033C7F896
:10142000903097F89730002B0FD1D7F890300133D8
:101430001B782E2B09D13B6AFA6AD7F89010184610
:10144000FDF759F93B6A0122DA7097F89730002BC3
:1014500012D107F158031846FDF7B8FD034687F887
:10146000973097F89730002B06D13B6A1846FCF767
:1014700087FC034687F8973097F8973018469C37D3
:10148000BD4690BD80B500AF01F024FE00BF80BD19
:1014900080B483B000AF78604FF0402302225A60DE
:1014A0004FF040230022DA60164B1A68164BD3F82F
:1014B000A83103F01F03B2FBF3F3144AA2FB03238A
:1014C0009B09013B4FF040217A6802FB03F38B61DB
:1014D0004FF04023FF221A604FF0402304225A614C
:1014E0004FF0402301225A6000BF4FF040235B6859
:1014F00003F00103002BF8D100BF0C37BD4680BCC0
:10150000704700BFF400001000C00F40D34D6210C0
:1015100080B487B000AF4FF020437B614FF0204391
:101520003B610023FB6021E00023BB6018E0FB6807
:1015300099B2BB689AB23B69981C38610A4492B26E
:101540001A80FB689AB2BB689BB213449AB23B699B
:10155000991C3961013292B21A80BB680133BB60B9
:10156000BB68FF2BE3D9FB680133FB60FB687F2B73
:10157000DAD94FF020437B610023FB601FE000239A
:10158000BB6016E07B691A1D7A611B687B60FA6894
:10159000BB68134401331A04F968BB680B449BB25F
:1015A00013437A689A4201D001230CE0BB680133EF
:1015B000BB60BB68FF2BE5D9FB680133FB60FB68B0
:1015C0007F2BDCD9002318461C37BD4680BC7047F2
:1015D00080B586B000AF786000237B61FF233B615C
:1015E000FF23FB602FE07B68002B0CD1314BD3F83D
:1015F000DC3123F01F03BB602E49BA687B691343BB
:10160000C1F8DC310CE02B4BD3F8DC3123F4F85378
:10161000BB607B691A022749BB681343C1F8DC3100
:10162000FFF776FF0346002B05D13B69FF2B07D15F
:101630007B693B6104E03B69FF2B01D07B69FB6068
:101640007B6901337B617B691F2BCCD9FB68FF2B46
:1016500005D03A69FB6813445B087B6108E03B698D
:10166000FF2B04D03B691F335B087B6100E0FEE782
:101670007B68002B0CD10F4BD3F8DC3123F01F0318
:10168000BB600C49BA687B691343C1F8DC310CE0DC
:10169000084BD3F8DC3123F4F853BB607B691A02A2
:1016A0000449BB681343C1F8DC3100BF1837BD469D
:1016B00080BD00BF00C00F4080B485B000AF0023E4
:1016C000FB6000237B601AE0134B4FF48042C3F8A9
:1016D000E021114BD3F8E031BB6003E00E4BD3F8AF
:1016E000E031BB60BB6803F40043002BF6D0BB685D
:1016F000DBB2FA681344FB607B6801337B607B6874
:10170000092BE1D9FB68054AA2FB0323DB08184635
:101710001437BD4680BC704700C00F40CDCCCCCC48
:1017200080B586B000AF7860FFF7C6FF7861164BD2
:10173000D3F8DC313B613B6903F01F037A6802FB9D
:1017400003F27B69B2FBF3F303F01F03FB603B6919
:1017500003F4F8537A6802FB03F27B69B2FBF3F3FC
:1017600003F4F853BB603B6923F4F85323F01F03E1
:10177000BA681A430449FB681343C1F8DC3100BF5F
:101780001837BD4680BD00BF00C00F4080B584B093
:1017900000AFC54BD3F8C430C34A43F40063C2F86A
:1017A000C430C14B41F21002C3F8DC21BF4B01220F
:1017B0001A60BE4B00229A60BD4B0122C3F8802103
:1017C000BB4B0122C3F88421B94B0122C3F8882105
:1017D000B74B0122C3F88C21B54B0122C3F89021ED
:1017E000B34B0122C3F89421B14B0122C3F89821D5
:1017F000AF4B0122C3F89C21AD4B0122C3F8A021BD
:10180000AB4B0122C3F8A421A94B0122C3F8A821A4
:10181000A74B0122C3F8AC21A54B0122C3F8B0218C
:10182000A34B0122C3F8B421A14B0122C3F8B82174
:101830009F4B0122C3F8BC219D4B0122C3F8C0215C
:101840009B4B0122C3F8C421994B0122C3F8C82144
:10185000974B0122C3F8CC21954B0122C3F8D0212C
:10186000934B0122C3F8D421914B0122C3F8D82114
:101870008F4B0122C3F8DC218D4B0122C3F8E021FC
:101880008B4B0122C3F8E421894B0122C3F8E821E4
:10189000874B0122C3F8EC21854B0122C3F8F021CC
:1018A000834B0122C3F8F421814B0122C3F8F821B4
:1018B0007F4B0122C3F8FC217D4B0122C3F800229B
:1018C0007B4B0122C3F80422794B0122C3F8082282
:1018D000774B0122C3F80C22754B0122C3F810226A
:1018E000734B0122C3F81422714B0122C3F8182252
:1018F0006F4B0122C3F81C226D4B0122C3F820223A
:101900006B4B0122C3F82422694B0122C3F8282221
:10191000674B0122C3F82C22654B0122C3F8302209
:10192000634B0122C3F83422614B0122C3F83822F1
:101930005F4B0122C3F83C225D4B0122C3F84022D9
:101940005B4B0122C3F84422594B0122C3F84822C1
:10195000574B0122C3F84C22554B0122C3F85022A9
:10196000534B0122C3F85422514B0122C3F8582291
:101970004F4B0122C3F85C224D4B0122C3F8602279
:101980004B4B0122C3F86422494B0122C3F8682261
:10199000474B0122C3F86C22454B0122C3F8702249
:1019A000434B0122C3F87422414B0122C3F8782231
:1019B0003F4B0122C3F87C223D4B0122C3F8382162
:1019C0003B4B0122C3F83C21394B0122C3F8402193
:1019D000374B0122C3F84421354B0122C3F848217B
:1019E000334B0122C3F84C21314B0122C3F8502163
:1019F0002F4B0122C3F854212D4B0122C3F858214B
:101A00002B4B0122C3F85C21294B0122C3F8602132
:101A1000274B0122C3F86421254B0122C3F868211A
:101A2000234B0122C3F86C21214B0122C3F8702102
:101A30001F4B0122C3F874211D4B0122C3F87821EA
:101A40001B4B0122C3F87C21184B4FF48942C3F889
:101A50000021164B40F20222C3F80421134B01224D
:101A60009A62124B01221A63104B03225A630F4BE6
:101A700005229A630D4B0222DA630C4B03221A648F
:101A80000A4B01225A64094B04229A64074B042230
:101A9000DA64064B05221A65044B01225A65034B92
:101AA00001229A6506E000BF00C00F4000C0092077
:101AB00000C002406420FFF7EBFC1C4B40F2831295
:101AC0001A62C820FFF7E4FC184B40F203121A62B6
:101AD000164B02225A6200237B6002E07B680133CE
:101AE0007B607B687F2BF9D9104B3A225A620F4BEF
:101AF00083221A620E4B1B68BB600C4B00221A62D9
:101B00000A4B0C4AC3F80021FFF7D6FD0346FB60E1
:101B10000020FFF75DFD0120FFF75AFDFB68184626
:101B2000FFF7FEFD00BF1037BD4680BD00C0092095
:101B3000004004A08044080080B500AF01F0CAFA5C
:101B4000FFF724FE0123184680BD80B500AFFFF7E4
:101B500099FC2DF04FFF0023184680BD80B500AFE3
:101B60004FF44001034837F07FFF802037F084FFB7
:101B700000BF80BD00B80BA080B400AF034B0022B3
:101B80001A6000BFBD4680BC704700BF349A001089
:101B900080B400AF00BFBD4680BC704780B400AFCA
:101BA00000BFBD4680BC704780B400AF00BFBD46DB
:101BB00080BC704780B400AF00231846BD4680BC8F
:101BC0007047FFFF80B483B000AF78604FF04023D0
:101BD00002225A604FF040230022DA60164B1A6846
:101BE000164BD3F8A83103F01F03B2FBF3F3144AEA
:101BF000A2FB03239B09013B4FF040217A6802FBC3
:101C000003F38B614FF04023FF221A604FF0402313
:101C100004225A614FF0402301225A6000BF4FF066
:101C200040235B6803F00103002BF8D100BF0C37A1
:101C3000BD4680BC704700BFF400001000C00F40DC
:101C4000D34D621080B483B000AF786039603A68D9
:101C500013461B019B1A9B011946044B044A0B4473
:101C6000136100BF0C37BD4680BC7047000000A068
:101C70000080082080B485B000AF78600123FB604D
:101C800002E0FB680133FB60114B1A68FB68B2FB92
:101C9000F3F37A689A4202D2FB683F2BF1D9FB68D2
:101CA000012B03D84FF08063BB600AE0FB68023B66
:101CB000FB60FB6803F01F02FB685B09DB06134354
:101CC000BB60BB6818461437BD4680BC704700BF78
:101CD000F400001080B487B000AFF860B9607A609B
:101CE0000123FB8202237B75164B1B683B6118E0C6
:101CF000144B1B68FA8A0132797D01FB02F2B3FBB7
:101D0000F2F33B613A69FB689A420AD9FB8A0133D4
:101D1000FB82FB8AFF2B04D90023FB827B7D0233ED
:101D20007B753A69FB689A42E2D8FB8ADAB2BB68F3
:101D30001A707B687A7D1A7000BF1C37BD4680BC64
:101D4000704700BFF800001080B584B000AF0346B4
:101D5000FB711F4B0222DA631D4B02221A641C4BDB
:101D600002225A641A4B02229A6407F10E0207F10A
:101D70000D0319461748FFF7ADFF7B7B1B0243F0AD
:101D80000703BB60FB79002B02D1BB68BB6006E098
:101D9000FB79012B03D1BB6843F0C003BB600E4A43
:101DA000BB681360BA7B0C4B1A610023FB7305E020
:101DB000094B9B68BB60FB7B0133FB73FB7B072BF1
:101DC000F6D9054B02225A6000BF1037BD4680BDD0
:101DD00000C00240C0C62D000080084080B485B01D
:101DE00000AF7860396000BF114BDB6803F012036D
:101DF000022BF9D17B681A780D4B9A607B6801330E
:101E00007B6000BF0A4BDB6803F01403042BF9D19D
:101E1000074B9B68DBB2FB733B68013B3B603B6855
:101E2000002BE0D100BF1437BD4680BC704700BF17
:101E30000080084080B400AF374B0522C3F8302142
:101E4000354B0722C3F81821334B0722C3F81C2156
:101E5000314B0722C3F820212F4B0722C3F824213E
:101E60002D4B0722C3F8D0202B4B0722C3F8D420D8
:101E7000294B0722C3F8D820274B0722C3F8DC20C0
:101E8000254B0722C3F8E020234B0722C3F8E420A8
:101E9000214B0722C3F834211F4B0722C3F8E82047
:101EA0001D4B0722C3F8EC201B4B0722C3F8F02080
:101EB000194B0722C3F8F420174B0722C3F800215F
:101EC000154B0722C3F80821134B0722C3F8102132
:101ED000114B0022C3F86C21104B1B680F4A43F0D2
:101EE000006313600D4B9B690C4A43F000639361E0
:101EF000094B0022C3F8C820094B1B68084A43F469
:101F000080231360064B9B69054A43F48023936149
:101F100000BFBD4680BC704700C002404080092021
:101F20002080092080B582B000AF684B2E221A7045
:101F3000664BD2225A70654B654A5A61634B012247
:101F40001A74624B06225A74604B00225A765F4B19
:101F50002A229A705D4B00229A735C4B00221A73FE
:101F60005A4B00225A73594B0122DA73574B012204
:101F70001A76564B4FF4F0725A81544B4FF4487214
:101F80009A80524B17229A71504B1622DA714F4B9E
:101F90000A221A724F4BD3F8C4304E4A43F0010361
:101FA000C2F8C4304C4B9B694B4A23F00103936148
:101FB000464B9B881B099BB2013B9A00434B9B7885
:101FC000013B1B021A43414B5B78013B1B041A4344
:101FD0003E4B1B78013B1B063F4913430B603B4BB9
:101FE0005B895A1E394B1B7A013B9B021A43374BC4
:101FF000DB791B041A43354B9B791B063649134387
:102000004B60324B5B691846FFF734FE02462F4B9C
:102010001B7C013B9B011A432C4BDB7BDB021A43ED
:102020002A4B9B7B1B031A43284B5B7B5B031A43A6
:10203000264B9B88013B1B04274913438B60234B92
:102040005B7C5A00214B1B7E5B011343224A43F405
:102050008073936100237B6008E01F4A7B688033B4
:10206000002142F823107B6801337B607B687F2B63
:10207000F3D9184B0022C3F8B821174B174A1A613D
:10208000154B9B69144A43F001039361124B9B6902
:10209000114A43F400639361114B9B69104A43F06A
:1020A000006393610F4B0022C3F800210C4B1B68A7
:1020B0000B4A43F001031360094BDB69084A43F004
:1020C0000103D36100BF0837BD4680BD54910010A5
:1020D000408AF70100C00F4000800820000000A0E7
:1020E0004080092000C0024080B584B000AF0346A4
:1020F0000A46FB801346BB80194B4FF40022DA617D
:1021000000233B73FB88DBB27B7307F10C030221D6
:102110001846FFF763FE124B4FF400229A61BB880A
:102120001B0A9BB2DBB23B73BB88DBB27B7307F14C
:102130000C0302211846FFF751FE094B4FF4002211
:10214000DA6100233B7322237B7307F10C03022126
:102150001846FFF743FE00BF1037BD4680BD00BFE5
:102160000080092080B500AF774B1B68764A43F0AA
:1021700001031360744B01229A61744B1B68734A0C
:1021800043F40023136001210020FFF7ADFF1E2060
:10219000FFF718FD46F63E610320FFF7A5FF072174
:1021A0000C20FFF7A1FF0E210D20FFF79DFF4FF43C
:1021B00030510E20FFF798FFAE211E20FFF794FF4D
:1021C0001E20FFF7FFFC21210720FFF78DFF642071
:1021D000FFF7F8FC23210720FFF786FF6420FFF7B5
:1021E000F1FC33210720FFF77FFF6420FFF7EAFCB3
:1021F00042F63F310120FFF777FF4FF4C061022024
:10220000FFF772FF00211020FFF76EFF1E20FFF77F
:10221000D9FC4CF2B0511120FFF766FF2820FFF7E0
:10222000D1FCD0211520FFF75FFF00210520FFF72B
:102230005BFF00210620FFF757FF4EF61C711620AA
:10224000FFF752FF03211720FFF74EFF40F2332123
:102250000720FFF749FF45F210310B20FFF744FF3D
:1022600000210F20FFF740FF4FF460412520FFF7CA
:102270003BFF2820FFF7A6FC00214120FFF734FF99
:1022800000214220FFF730FF00214820FFF72CFFFC
:1022900040F23F114920FFF727FF4FF46F414420E0
:1022A000FFF722FF00214520FFF71EFF40F23F11FC
:1022B0004620FFF719FF00214A20FFF715FF0021F4
:1022C0004B20FFF711FF2820FFF77CFC40F207713D
:1022D0003020FFF709FF4FF4C0613120FFF704FF02
:1022E00005213220FFF700FF40F202413320FFF7C3
:1022F000FBFE40F203213420FFF7F6FE4FF401719C
:102300003520FFF7F1FE4FF401713620FFF7ECFEA8
:1023100040F201413720FFF7E7FE40F202313A2058
:10232000FFF7E2FE4FF4A0613B20FFF7DDFE28201F
:10233000FFF748FC00212220FFF7D6FE2820FFF7F8
:1023400041FC00BF80BD00BF408009200080092003
:1023500090B58BB002AF5E4B1B685D4A43F48013AF
:1023600013600120FFF7F0FCD3233B71E7237B715F
:102370009023BB71564B4FF48012DA613B1D032151
:102380001846FFF72BFD524B4FF480129A61514BC8
:102390001B78002B4BD1002034F00BF90346002BA7
:1023A00002D00023FB7701E00123FB77002034F00B
:1023B000FDF80446002034F0F6F803465B0044EADA
:1023C0000302FB7F9B001343BB60B86835F046F8FF
:1023D000FB7F002B15D0CD23009340F666634FF4AE
:1023E000F0720021002035F03FF840F20B1300930B
:1023F00040F602734FF448720021012035F034F8A2
:102400005EE0CD23009340F666634FF448720021EE
:10241000012035F029F840F20B13009340F60273C7
:102420004FF4F0720021002035F01EF848E0294BEF
:102430001B78012B0CD14FF4FA73BB6140F6426359
:102440007B6140F6E4433B6140F26223FB6011E0B4
:10245000204B1B78022B0CD140F6AC53BB614FF4E0
:10246000F5737B6140F226233B6140F65843FB60E5
:1024700000E0FEE7002034F096F80446002034F037
:1024800095F803465B001C43002034F092F80346A5
:102490009B002343BB60B86834F0E0FF7B69009386
:1024A000BB694FF448720021002034F0DDFFFB6867
:1024B00000933B694FF4F0720021012034F0D4FF07
:1024C000054B01221A7000BF2437BD4690BD00BFE6
:1024D00000800920709100107191001080B500AF4C
:1024E000FFF7A8FC084B40F609421A60074B1B781F
:1024F000002B06D10020FFF727FCFFF733FEFFF784
:1025000011FD00BF80BD00BF88C10F407091001059
:1025100080B582B000AF7860FFF7E0FF7B681A46B5
:102520004FF4F0714FF4487033F0C4FF7B681A46E3
:102530004FF4F0714FF4487033F0A4FF7B68054905
:10254000184633F089FFFFF703FF00BF0837BD4689
:1025500080BD00BF000000A080B582B000AF1F4B5F
:102560001B78002B02D11E4B7B6001E01C4B7B6073
:10257000002300221B49786835F076FE00220021F6
:10258000002033F0AFFF002034F013F80346002B97
:102590000ED04FF448724FF4F071002033F08AFFF0
:1025A0004FF448724FF4F071002033F06BFF0DE0F0
:1025B0004FF4F0724FF44871002033F07BFF4FF47A
:1025C000F0724FF44871002033F05CFF00210020CE
:1025D00033F042FF00BF0837BD4680BD7091001048
:1025E00084D50500E4D6050080B586B000AFF8605C
:1025F000B9607A60BB68012B02D0032B05D010E0D4
:102600000020FFF785FF00230FE07B687B617B697B
:102610001A687B695B6819461046FFF713FB0023B5
:1026200003E04FF0FF333B613B6918461837BD4666
:1026300080BDFFFF80B500AF00F0D2FF3E4B1B68AE
:102640000121184601F0D6F83C4B1B6801211846C1
:1026500001F0D0F83A4B1A683A4B1B681A433A4BD0
:102660001B6813430121184601F0C4F8374B1A6860
:10267000344B1B681A43344B1B6813430121184623
:1026800001F0B8F8324B1A682E4B1B681A432E4BD8
:102690001B6813430121184601F0ACF82D4B1A6852
:1026A000284B1B681A43284B1B681343012118460B
:1026B00001F0A0F8284B1A68224B1B681A43224BE2
:1026C0001B6813430121184601F094F8234B1A6844
:1026D0001C4B1B681A431C4B1B68134301211846F3
:1026E00001F088F81E4B1A68164B1B681A43164BEC
:1026F0001B6813430121184601F07CF8194B1A6836
:10270000104B1B681A43104B1B68134301211846DA
:1027100001F070F800F0A8FF00F0BEFF124B1B782C
:10272000002B01D100F06CF8104B01221A70104BF5
:1027300001221A7000BF80BDE4000010E800001004
:10274000C40000107891001074910010C8000010AF
:10275000D0000010D8000010D4000010CC000010F1
:10276000DC000010E000001084910010EC0000106C
:102770008591001090B482B000AF0446084611461F
:102780001A462346FB710346BB710B467B71134609
:102790007B80FB79154A1360BB791B029BB2144AFC
:1027A00013607B79002B02D1124B00221A707B79C7
:1027B000012B02D10F4B01221A707B79022B02D11F
:1027C0000C4B02221A700C4A7B8813800A4A7B88C1
:1027D00013803B8A1B041A46BB8A1343074A1360C3
:1027E00000BF0837BD4690BC704700BF7491001011
:1027F00078910010849100107C910010809100105D
:1028000080B500AF1F4B1B681F4A13601E4B082288
:102810001A731D4B01225A731B4B00229A731B4BD8
:102820001B68DAB2184B1A71194B1B681B0ADAB213
:10283000154B5A71174B1B88DAB2134BDA71154BD3
:102840001B881B0A9BB2DAB20F4B9A71124B1B68A2
:10285000DAB20D4B1A72104B1B681B0ADAB20A4B24
:10286000DA720D4B1B681B0CDAB2074B9A720A4BDB
:102870001B681B0EDAB2044B5A72034800F02EFF9D
:1028800000BF80BDE8000010389A0010749100105D
:10289000789100107C9100108091001080B582B07A
:1028A00000AF3B600346FB710B46BB711346BB8018
:1028B000FA79204B1B681343BA79120213431E4A5C
:1028C00013601D4B08221A731B4B01225A731A4BBB
:1028D00000229A73194B1B68DAB2174B1A71184B06
:1028E0001B681B0ADAB2144B5A71BB88DAB2124B5E
:1028F000DA71BB881B0A9BB2DAB20F4B9A713B6844
:10290000DAB20D4BDA723B681B0ADAB20A4B9A72E2
:102910003B681B0CDAB2084B5A723B681B0EDAB2EA
:10292000054B1A72044800F0D9FE00BF0837BD46B7
:1029300080BD00BFC4000010389A001074910010D0
:102940007891001080B582B000AF3B600346FB7108
:102950000B46BB711346BB80FA79204B1B681343AF
:10296000BA79120213431E4A13601D4B08221A73D0
:102970001B4B01225A731A4B00229A73194B1B6886
:10298000DAB2174B1A71184B1B681B0ADAB2144BD8
:102990005A71BB88DAB2124BDA71BB881B0A9BB240
:1029A000DAB20F4B9A713B68DAB20D4BDA723B68C0
:1029B0001B0ADAB20A4B9A723B681B0CDAB2084B5C
:1029C0005A723B681B0EDAB2054B1A72044800F0CB
:1029D00085FE00BF0837BD4680BD00BFC80000109F
:1029E000389A0010749100107891001080B582B070
:1029F00000AF3B600346FB710B46BB711346BB80C7
:102A0000FA79204B1B681343BA79120213431E4A0A
:102A100013601D4B08221A731B4B01225A731A4B69
:102A200000229A73194B1B68DAB2174B1A71184BB4
:102A30001B681B0ADAB2144B5A71BB88DAB2124B0C
:102A4000DA71BB881B0A9BB2DAB20F4B9A713B68F2
:102A5000DAB20D4BDA723B681B0ADAB20A4B9A7291
:102A60003B681B0CDAB2084B5A723B681B0EDAB299
:102A7000054B1A72044800F031FE00BF0837BD460E
:102A800080BD00BFCC000010389A00107491001077
:102A90007891001080B582B000AF0346FB710B4601
:102AA000BB711346BB80FA791C4B1B681343BA7980
:102AB000120213431A4A1360194B08221A73184B57
:102AC00001225A73164B00229A73164B1B68DAB216
:102AD000134B1A71144B1B681B0ADAB2104B5A7154
:102AE000BB88DAB20E4BDA71BB881B0A9BB2DAB232
:102AF0000B4B9A710A4B0022DA72094B00229A7230
:102B0000074B00225A72064B00221A72044800F04A
:102B1000E5FD00BF0837BD4680BD00BFD8000010EE
:102B2000389A0010749100107891001080B582B02E
:102B300000AF3B600346FB710B46BB711346BB8085
:102B4000FA79204B1B681343BA79120213431E4AC9
:102B500013601D4B08221A731B4B01225A731A4B28
:102B600000229A73194B1B68DAB2174B1A71184B73
:102B70001B681B0ADAB2144B5A71BB88DAB2124BCB
:102B8000DA71BB881B0A9BB2DAB20F4B9A713B68B1
:102B9000DAB20D4BDA723B681B0ADAB20A4B9A7250
:102BA0003B681B0CDAB2084B5A723B681B0EDAB258
:102BB000054B1A72044800F091FD00BF0837BD466E
:102BC00080BD00BFD4000010389A0010749100102E
:102BD0007891001080B400AF00BFBD4680BC704744
:102BE00080B400AF00BFBD4680BC704780B582B0E6
:102BF00000AF3B600346FB710B46BB711346BB80C5
:102C0000BA88B979F8793B6803F06CFD00BF0837E2
:102C1000BD4680BD90B587B002AF3B600346FB71F7
:102C20000B46BB711346BB800023FB600023FB7285
:102C3000BB88B3F5907F20D0B3F5907F06DCB3F569
:102C4000807F0BD0B3F5827F0FD031E040F22112AC
:102C500093421DD0B3F5A87F22D029E0BA88B97974
:102C6000F879244BFFF7C2FE40E0234B1B88BA885B
:102C7000B979F879FFF7BAFE38E0204B1A68204B93
:102C80001B681343BA88B979F879FFF7AFFE2DE0D6
:102C90001C4B1B68BA88B979F879FFF7A7FE25E0C5
:102CA000194B1B88BA88B979F879FFF79FFE1DE0A8
:102CB00007F10C04BA88B979F87907F10B0301938D
:102CC0003B680093234603F057FFFB7A002B06D1A5
:102CD000BA88B979FB791846FFF7DCFE06E0FB6895
:102CE000BA88B979F879FFF781FEFFE700BF14379A
:102CF000BD4690BD01070001EE0000107491001068
:102D000078910010809100107C91001080B582B005
:102D100000AF3B600346FB710B46BB711346BB80A3
:102D2000BB88B3F5827F2CD0B3F5827F0ADCB3F584
:102D3000817F1CD0B3F5817F1FDC40F201129342EA
:102D40000CD067E0B3F5806F57D045F2190293427B
:102D50005AD040F20512934218D05BE03B4B002260
:102D60001A703B4B01221A80FFF734FF69E0374BA2
:102D700001221A70FFF734FF63E0354B01221A80FD
:102D80005FE03B689AB2334B1A805AE03B681B0DF8
:102D900003F00F03002B53D13B681B0C03F00F0310
:102DA000002B4DD13B681B0B03F00F03002B47D1C9
:102DB0003B681B0A03F00F03052B41D13B681B093D
:102DC00003F00F03092B3BD13B6803F00F03072BE4
:102DD00036D13B681B0E9BB21A46920013445B002F
:102DE0009AB21D4B1A801C4B1B88B3F5167F27D354
:102DF000194B4FF416721A8022E0BA88B979FB7920
:102E00001846FFF747FE1CE0BA88B979FB791846E7
:102E1000FFF740FEBB88B3F5837F0AD3BB88B3F5C9
:102E20007A7F06D8BA88B979FB791846FFF732FE5F
:102E300007E0BA88B979FB791846FFF72BFE00E066
:102E400000BF00BF0837BD4680BD00BFEC000010CA
:102E500086910010EE0000108891001080B582B0BD
:102E600000AF3B600346FB710B46BB711346BB8052
:102E7000BA88B979F8793B6803F00AFE00BF0837D1
:102E8000BD4680BD80B582B000AF3B600346FB719C
:102E90000B46BB711346BB80BA88B979F8793B6899
:102EA00003F0E0FC00BF0837BD4680BD90B583B09D
:102EB00000AF0446084611461A462346FB710346F6
:102EC000BB710B467B7113463B713B8BB3F5907F17
:102ED00004D040F2211293421AD03AE02A4B1B68E8
:102EE000FA699A420DD1FB79284A1360BB791B021B
:102EF0009BB2274A1360FFF79DFB264B00221A70F6
:102F00003DE03A8B39797B791846FFF7C3FD36E00F
:102F1000FA791E4B1B689A422ED1BB791B021A46C6
:102F20001B4B1B689A4227D11B4B1B88002B09D0D7
:102F30003A8B39797879FB6903F048FC154B00220C
:102F40001A7019E03A8B39797B791846FFF7A2FDA0
:102F500012E0FA790D4B1B689A420FD1BB791B0224
:102F60001A460B4B1B689A4208D13A8B397978790B
:102F7000FB6903F02BFC01E000BF00E000BF00BFD5
:102F80000C37BD4690BD00BF8091001074910010B9
:102F900078910010EC0000108891001080B483B08C
:102FA00000AF0346FB710B46BB711346BB8000BFED
:102FB0000C37BD4680BC704780B582B000AF034679
:102FC000FB710B46BB711346BB80BB8840F20142CC
:102FD000934208D100F0CEFF0346BA88B979F87958
:102FE000FFF7A4FD06E0BA88B979FB791846FFF728
:102FF00051FD00BF00BF0837BD4680BD80B483B01F
:1030000000AF3B600346FB710B46BB711346BB80B0
:1030100000BF0C37BD4680BC7047FFFF80B500AFD6
:103020001F4B1B78002B03D01D4B1B78022B2BD181
:103030001C4B1B78002B27D01B4B1B780133DAB2BB
:10304000194B1A70184B1B780A2B08D1164B01220A
:103050001A70164B1B78002B01D0FFF7D1FB134BD6
:103060001B78002B05D1124B1B8801339AB2104BF1
:103070001A800F4B1A880F4B1B889A4204D30B4BB4
:1030800001221A70FFF7ACFD0B4B1B88002B05D0FB
:10309000094B1B88013B9AB2074B1A8000BF80BDC9
:1030A0008491001085910010F0000010EC000010D9
:1030B00086910010EE0000108891001090B484B04A
:1030C00000AF3C4684E80F0000BF1037BD4690BCFF
:1030D0007047FFFF80B400AFB34BD3F8043103F463
:1030E0008073002B7BD1B04BD3F80C3103F001037C
:1030F000002B31D1AC4BD3F8043103F01F03002B6C
:1031000008D0A94BD3F8043103F01F03A74AB2FB40
:10311000F3F300E00023A64A1360A34BD3F8A831D1
:1031200003F01F03002B08D09F4BD3F8A83103F006
:103130001F039E4AB2FBF3F300E000239D4A136095
:10314000994BD3F8003103F001030133974AB2FBE6
:10315000F3F3994A1360F7E0934BD3F8A03103F0EF
:103160004003002B09D1924B00221A60914B0022A0
:103170001A60914B00221A60E6E08B4BD3F80431C1
:1031800003F01F03002B08D0874BD3F8043103F062
:103190001F03864AB2FBF3F300E00023844A136066
:1031A000814BD3F8A83103F01F03002B08D07E4BCE
:1031B000D3F8A83103F01F037C4AB2FBF3F300E01D
:1031C00000237C4A1360784BD3F8003103F00103ED
:1031D0000133764AB2FBF3F3774A1360B4E0724BE3
:1031E000D3F8883003F48073002B09D1704B002290
:1031F0001A60704B00221A606F4B00221A60A3E025
:10320000694BD3F80C3103F00103002B49D1664B15
:10321000D3F8043103F01F03002B10D0624BD3F816
:10322000883003F01F030133604A02FB03F25E4B58
:10323000D3F8043103F01F03B2FBF3F300E00023E3
:103240005B4A1360584BD3F8A83103F01F03002BDF
:1032500010D0554BD3F8883003F01F030133534A85
:1032600002FB03F2504BD3F8A83103F01F03B2FB6B
:10327000F3F300E000234F4A13604B4BD3F8883040
:1032800003F01F030133494A02FB03F2464BD3F814
:10329000003103F001030133B2FBF3F3464A13603C
:1032A00052E0414BD3F8A03103F04003002B09D189
:1032B0003F4B00221A603F4B00221A603E4B002217
:1032C0001A6041E0384BD3F8043103F01F03002BA0
:1032D00010D0354BD3F8883003F01F030133334A45
:1032E00002FB03F2304BD3F8043103F01F03B2FBAF
:1032F000F3F300E000232E4A13602B4BD3F8A831E0
:1033000003F01F03002B10D0274BD3F8883003F0B5
:103310001F030133254A02FB03F2234BD3F8A831E4
:1033200003F01F03B2FBF3F300E00023214A136014
:103330001F4B1A681C4BD3F8003103F00103013313
:10334000B2FBF3F31C4A1360174BD3F8083103F4B4
:103350008073002B4BD0144BD3F8083103F01F03BC
:10336000042B07D0062B05D0002B3CD1134B002299
:103370001A6066E00C4BD3F80C3103F00103002B0C
:103380001ED0094BD3F8883003F01F030133074ADE
:1033900002FB03F2044BD3F8083103F01F03B2FB26
:1033A000F3F3064A13604CE000C00F40001BB70067
:1033B000F4000010F8000010FC00001000010010E4
:1033C000224BD3F8883003F01F030133204A02FB5D
:1033D00003F21E4BD3F8083103F01F03B2FBF3F3E3
:1033E0001C4A13602DE01B4B00221A6029E0174B8A
:1033F000D3F8083103F40073002B1ED0134BD3F81D
:103400000C3103F00103002B0BD0104BD3F8A83084
:1034100003F01F0301330E4A02FB03F30D4A13604E
:103420000FE00A4BD3F8883003F01F030133084A3A
:1034300002FB03F3074A136003E0064B00221A6005
:10344000FFE700BFBD4680BC704700BF00C00F4013
:10345000001BB7000001001080B400AF374B46F2EC
:103460003A021A60354B2122C3F8A02100BF334B2A
:10347000D3F8A03103F04003002BF8D02F4B0122EA
:10348000C3F80C212D4B0922C3F884202B4B0122B9
:10349000C3F88020294BAA22C3F88C20274B552241
:1034A000C3F88C2000BF254BD3F8883003F4806329
:1034B000002BF8D0214B2322C3F8A4201F4B01225C
:1034C000C3F8A0201D4BAA22C3F8AC201B4B5522E9
:1034D000C3F8AC2000BF194BD3F8A83003F48063C5
:1034E000002BF8D0154B40F20112C3F80421134B06
:1034F00040F20122C3F80821104B0122C3F8002139
:103500000E4B0222C3F8A8210C4B0D4AC3F8C4206D
:103510000A4B4FF48072C3F8C821084BD3F8B0317E
:10352000064A43F00303C2F8B031064B4FF4C042E1
:103530009A6000BFBD4680BC704700BF00C00F400E
:10354000DE87280400ED00E080B483B000AF0346BE
:10355000FB71FB7903F01F03012202FA03F1054A14
:1035600097F907305B0942F8231000BF0C37BD46BE
:1035700080BC704700E100E080B487B000AF7860A5
:1035800039607B68012B01D1114B00E0114B7B614D
:1035900000233B610C23FB600F4AFB68B2FBF3F294
:1035A0003B68B2FBF3F3013B3B613B69C3F30903A7
:1035B0003B610A4AFB6852F823303A6913433B6186
:1035C0007B693A695A6100BF1C37BD4680BC7047B1
:1035D000004004400080044000879303EC0905008C
:1035E00080B582B000AF01237B607B68012B01D1E5
:1035F000174B00E0174B3B607B68012B10D1164B3B
:10360000D3F8C430144A43F40053C2F8C430134B07
:1036100001221A60114B01225A601920FFF794FF12
:103620000F4B02221A603B6801221A603B6800229D
:103630001A613B6800229A600A497868FFF79CFF8C
:103640003B6803221A6100BF0837BD4680BD00BF3A
:10365000004004400080044000C00F4000C0024011
:1036600000C0034020A1070080B483B000AF012355
:103670007B607B68012B01D1054B00E0054B3B6073
:103680003B6800221A6000BF0C37BD4680BC704703
:10369000004004400080044080B483B000AF0123A8
:1036A0007B607B68012B01D1094B00E0094B3B603B
:1036B00000BF3B68DB6903F00403002BF9D0064B25
:1036C00001221A6000BF0C37BD4680BC704700BFA6
:1036D00000400440008004408C91001080B487B00A
:1036E00000AF786001237B617B69012B01D11D4B09
:1036F00000E01D4B3B617B681B7B1B0403F47023C4
:103700007A68527B012A02D14FF0004200E0002289
:1037100013437A68927B012A02D14FF0804200E085
:1037200000221343FB603B69DB6903F00403002BB9
:1037300013D03B69FA681A637B681A683B695A635D
:103740007B6804331A683B699A637B6808331A689C
:103750003B69DA633B6921225A6000BF1C37BD46D2
:1037600080BC7047004004400080044080B487B0B3
:1037700000AF786001237B617B69012B01D11B4B7A
:1037800000E01B4B3B613B691B6AFB60FB68DB0F86
:10379000DBB21A467B685A73FB6803F08043002B48
:1037A00014BF01230023DBB21A467B689A73FB68BF
:1037B0001B0CDBB203F00F03DAB27B681A733B69B0
:1037C0005A6A7B681A607B689B7B002B09D17B68F7
:1037D00004333A69926A1A607B6808333A69D26A9C
:1037E0001A6000BF1C37BD4680BC704700400440D3
:1037F0000080044080B489B000AF78600B46FB7055
:103800000123BB60974B1B6801335A10964B1B6812
:103810001344B3F5007F80F27881944B01221A6043
:10382000FB78002B40F0FC80BB68013B5B037A68AF
:1038300013437B607A684FF2FF7313407B60894BC0
:103840001B6803F00103002B24D1874B1B68002B5E
:1038500020D0844B1B685B107B61834B1B68FB6033
:10386000834A7B6952F82330FB610EE07B690133A8
:103870007B617F4A7B6952F82330BB617C497B695D
:10388000FA6941F82320BB69FB61FB685A1EFA60A4
:10389000002BEBD1734B1B68002B08D17B681B04FA
:1038A000734A6FEA13436FEA03431360B2E06D4B50
:1038B0001B68012B17D16E4B1B681B0C7A689A4250
:1038C00008D26B4B1B681A0C7B681B0468491343B6
:1038D0000B609FE0664B1B681B0C1B0464497A68F5
:1038E00013430B6096E000237B615E4B1B683B61DA
:1038F0005C4B1B68013B5B10FB601BE05C4A7B6917
:1039000052F823301B0C7A689A4203D27B695B0021
:103910003B6113E0564A7B6952F823309BB27A68C8
:103920009A4204D27B695B0001333B6106E07B690C
:1039300001337B617A69FB689A42DFDD7A69FB6853
:103940009A421DDD474B1B6803F00103002B0AD18F
:103950007B681B0446496FEA13436FEA03437A69A5
:1039600041F8223056E0424A7B6952F823301B0C62
:103970001B043F497A681A437B6941F8232049E0D8
:103980003B4A7B6952F82330FB613B6903F001033A
:10399000002B06D17B681A04FB691B0C1343BB6127
:1039A00005E0FB691B0C1B047A681343BB613049BB
:1039B0007B69BA6941F823202A4B1B685B10FB60C6
:1039C00012E07B6901337B61294A7B6952F823301D
:1039D000BB61BB691A0CFB691B0425491A437B694F
:1039E00041F82320BB69FB617A69FB689A42E8DBF6
:1039F0001C4B1B6803F00103002B0BD11C4A7B6995
:103A000052F823301A496FEA13436FEA03437A6985
:103A100041F82230134B1B680133124A136054E003
:103A2000BB68013B5B077A6813437B600D4B1B68E7
:103A300001335B107B6100233B610CE00C4A7B6926
:103A400052F823307A689A4214D37B6901337B6140
:103A50003B6901333B61044B1B683A699A42EDDBD9
:103A600009E000BF949100109891001000C003403D
:103A70000080034000BF274A7B6952F82330FB6176
:103A800024497B697A6841F82320234B1B68013362
:103A9000214A1360204B1B68013BFB6011E07B69EE
:103AA00001337B613B6901333B611A4A7B6952F800
:103AB0002330BB6117497B69FA6941F82320BB6950
:103AC000FB613A69FB689A42E9DB144B1B680133DE
:103AD0005B109B00FB61104B1B689B001A46FB6947
:103AE0001344BB610E4B00225A600D4AFB69936080
:103AF0000B4AFB69D3600A4ABB691361084ABB6978
:103B00005361074B00221A6000E000BF2437BD4616
:103B100080BC704700800340989100109491001081
:103B200000C00340B0B586B002AF824BDB68BB601B
:103B3000BB6803F00103002B08D07F48FFF716FE97
:103B40007C4B04225A607D4B01221A607B4B1B6820
:103B5000002B00F0F081784B0FCBFFF7AFFA764BDC
:103B60001A68774B1B689A4201D1FEF749FE724BE7
:103B70001A68744B1B689A422ED16F4B9B799BB28B
:103B8000FB80FB889BB21B029BB2FB806A4BDB79FC
:103B90009AB2FB889BB213439BB2FB80664BDB7AE5
:103BA000FB60654B9B7A1B02FA681343FB60624B18
:103BB0005B7A1B04FA681343FB605F4B1B7A1B069E
:103BC000FA681343FB605C4B18795B4B5979FB88AF
:103BD0009AB2FB68FFF70AF8574B1B6803F4702290
:103BE000594B1B689A4239D1534B9B799BB2FB804E
:103BF000FB889BB21B029BB2FB804F4BDB799AB2D6
:103C0000FB889BB213439BB2FB804B4BDB7AFB6080
:103C1000494B9B7A1B02FA681343FB60464B5B7A65
:103C20001B04FA681343FB60434B1B7A1B06FA68BC
:103C30001343FB60404B1B68D8B23F4B1B681B0A09
:103C4000D9B23D4B1C793C4B5D79FB889BB2FA683D
:103C5000019200932B462246FFF728F9364B1B684A
:103C6000DAB23A4B1B689A4240F06581324B1B68CE
:103C700003F47F42364B1B689A4240F05C812E4B26
:103C80001B6803F47022334B1B689A422FD12A4BD6
:103C90009B799BB2FB80FB889BB21B029BB2FB8093
:103CA000254BDB799AB2FB889BB213439BB2FB8016
:103CB000214BDB7AFB60204B9B7A1B02FA68134393
:103CC000FB601D4B5B7A1B04FA681343FB601A4BC5
:103CD0001B7A1B06FA681343FB60174B1879164BC7
:103CE0005979FB889AB2FB68FFF710F823E1124B71
:103CF0001B6803F47022184B1B689A422ED10E4B9E
:103D00009B799BB2FB80FB889BB21B029BB2FB8022
:103D1000094BDB799AB2FB889BB213439BB2FB80C1
:103D2000054B1879044B5979FB889AB2FB68FEF76A
:103D300071FF00E100400440489A0010909100108B
:103D4000E4000010E8000010E00000107491001082
:103D500078910010C4000010C80000107D4B1B6853
:103D600003F470227C4B1B689A422FD1794B9B79CC
:103D70009BB2FB80FB889BB21B029BB2FB80754B06
:103D8000DB799AB2FB889BB213439BB2FB80714BE9
:103D9000DB7AFB606F4B9B7A1B02FA681343FB6074
:103DA0006C4B5B7A1B04FA681343FB60694B1B7A0C
:103DB0001B06FA681343FB60664B1879654B59790B
:103DC000FB889AB2FB68FFF75DF8B4E0614B1B68B3
:103DD00003F47022614B1B689A422FD15D4B9B7993
:103DE0009BB2FB80FB889BB21B029BB2FB80594BB2
:103DF000DB799AB2FB889BB213439BB2FB80554B95
:103E0000DB7AFB60534B9B7A1B02FA681343FB601F
:103E1000504B5B7A1B04FA681343FB604D4B1B7AD3
:103E20001B06FA681343FB604A4B1879494B5979D2
:103E3000FB889AB2FB68FFF711F87CE0454B1B68E2
:103E400003F47022464B1B689A421AD1414B9B796E
:103E50009BB2FB80FB889BB21B029BB2FB803D4B5D
:103E6000DB799AB2FB889BB213439BB2FB80394B40
:103E70001879384B5B79FA8892B21946FFF78EF8B9
:103E800059E0344B1B6803F47022364B1B689A428E
:103E90001AD1304B9B799BB2FB80FB889BB21B02F3
:103EA0009BB2FB802B4BDB799AB2FB889BB213430E
:103EB0009BB2FB80274B1879264B5B79FA8892B22C
:103EC0001946FFF779F836E0224B1B6803F470229D
:103ED000254B1B689A422ED11E4B9B799BB2FB80CF
:103EE000FB889BB21B029BB2FB801A4BDB799AB218
:103EF000FB889BB213439BB2FB80164BDB7AFB60C3
:103F0000144B9B7A1B02FA681343FB60114B5B7ADC
:103F10001B04FA681343FB600E4B1B7A1B06FA68FE
:103F20001343FB600B4B18790A4B5979FB889AB203
:103F3000FB68FFF763F80D4B00221A60BB6803F0C3
:103F40000203002B02D00A4B01221A6000BF103777
:103F5000BD46B0BD489A0010CC000010DC00001037
:103F6000D8000010D0000010D40000109091001074
:103F70008C91001080B485B000AF0123FB60FB681A
:103F8000012B01D10A4B00E00A4BBB60BB689B6868
:103F90000023FB71BB689B680023BB71FB791A028D
:103FA000BB79134318461437BD4680BC704700BF29
:103FB000004004400080044080B582B000AF7860CB
:103FC00078683BF083F90246012379680020F6F710
:103FD000D3FE034618460837BD4680BD80B400AF07
:103FE000064B00225A66064B1B68054A43F00073D5
:103FF000136000BFBD4680BC704700BF00C00240D8
:104000000080092080B483B000AF0346FB71FB79C8
:10401000002B06D0084BDB69074A43F00073D361DD
:1040200005E0054B9B69044A43F00073936100BFB0
:104030000C37BD4680BC70470080092080B584B035
:1040400000AF03460A46FB711346BB71F7F724FF26
:10405000FB791846F7F7A4FFBB791846F7F7A0FFDE
:10406000F7F73EFFFB790133DBB21846F7F798FF0D
:104070000346012B00D0F3E700BF0120F8F734F826
:104080000346FB730120F8F72FF80346BB73F7F7DD
:104090003FFFFB7B1A02BB7B1343DB119BB218462D
:1040A0001037BD4680BD80B582B000AF0346FB71BE
:1040B0000B46BB7113467B71F7F7EEFEFB79184692
:1040C000F7F76EFFBB791846F7F76AFF7B7918465A
:1040D000F7F766FFF7F71CFF00BF0837BD4680BD46
:1040E00080B483B000AF0346FB71FB7903F01F037C
:1040F000012202FA03F1054A97F907305B0942F8F9
:10410000231000BF0C37BD4680BC704700E100E0C3
:1041100080B400AFBFF34F8F054BDB6803F4E06260
:104120000349044B1343CB60BFF34F8FFEE700BF3F
:1041300000ED00E00400FA0580B400AF00BFBD460A
:1041400080BC704780B58AB002AFF860B9607A6011
:104150003B600023FB7797F84430002B03D1F86ACB
:1041600033F013FC02E0386B33F00FFCFA687B6825
:10417000D118BA683B681A4497F848300093134640
:104180000A46B968F86833F01DFD786B33F0FDFB23
:10419000FA687B68D118BA683B681A4497F84830C7
:1041A000009313460A46B968F86833F0C3FDFB680C
:1041B0001BB2BB82FB689AB27B689BB213449BB272
:1041C0001BB23B83BB681BB2FB82BB689AB23B68E5
:1041D0009BB213449BB21BB27B83B86B33F08EFB54
:1041E00097F84430002B03D1386B33F0CEFB02E05C
:1041F000F86A33F0CAFB022033F070FB97F83C30CA
:10420000022B04D1FB7F43F00203FB7728E097F8F1
:104210003C30002B0ED1B7F914309BB205339BB262
:104220001BB2BB82B7F918309BB20A3B9BB21BB2E0
:104230003B8315E097F83C30012B11D1FB7F43F015
:104240000103FB77B7F914309BB20A339BB21BB260
:10425000BB82B7F918309BB2053B9BB21BB23B83C4
:1042600097F84030022B04D1FB7F43F00C03FB771F
:1042700028E097F84030032B0ED1B7F916309BB2E7
:1042800002339BB21BB2FB82B7F91A309BB2043BDC
:104290009BB21BB27B8315E097F84030042B11D101
:1042A000FB7F43F00403FB77B7F916309BB204336E
:1042B0009BB21BB2FB82B7F91A309BB2023B9BB296
:1042C0001BB27B83FA7F07F114010123B86A33F034
:1042D00001FE00BF2037BD4680BDFFFF80B586B020
:1042E00000AFF860B9607A603B603B687A68B96893
:1042F000F86831F025F97861786931F029F9002002
:1043000033F043FB3B687A68B968F86833F0C2FC65
:104310006FF07F4033F039FB022033F0DFFA0B48B7
:1043200033F0ECFAFB680A33BA681946386A33F09E
:1043300075FE002031F00CF9786931F08DF978695B
:1043400031F094F800BF1837BD4680BD88CE050017
:1043500080B588B000AFF860B9607A603B60002338
:10436000FB77FB681BB2BB82FB689AB27B689BB28F
:1043700013449BB21BB23B83BB681BB2FB82BB687E
:104380009AB23B689BB213449BB21BB27B83386BDF
:1043900033F0B4FAF86A33F0F8FA022033F09EFAF8
:1043A00097F83430022B04D1FB7F43F00203FB77F4
:1043B0000BE097F83430002B07D097F83430012BFE
:1043C00003D1FB7F43F00103FB7797F83830022BD2
:1043D00004D1FB7F43F00C03FB770BE097F83830F8
:1043E000032B07D097F83830042B03D1FB7F43F021
:1043F0000403FB77FA7F07F114010123B86A33F055
:1044000069FD00BF2037BD4680BD80B584B000AFD8
:10441000F860B9607A603B60B86933F06FFA386869
:1044200033F0B3FA022033F059FABA68F9687868C1
:1044300033F0F4FD00BF1037BD4680BD80B586B0B7
:1044400002AFF860B9607A603B60386A33F09DFA79
:10445000FB69DBB2184633F01DFB7A68FB68D118A4
:104460003A68BB681A44BB69009313460A46B968A8
:10447000F86835F081FE00BF1037BD4680BDFFFFF4
:1044800080B5ADF5107D00AF3B1D18603B4619604F
:104490000023C7F83C323B4607F11000012219689F
:1044A000FBF7BAFC0346002B1AD107F11003DB68B7
:1044B000C7F83C32D7F83C2207F10C03391D07F14D
:1044C00010000968FBF763FE07F110031846FCF7BC
:1044D000FAF807F110031846FCF773F9002307E018
:1044E000064B1B889BB201339AB2044B1A800123FE
:1044F000184607F51077BD4680BD00BF9C9100109F
:1045000080B5A0B00AAFF860B9607A60002387F880
:104510005730FB68143318463AF0A8FE3865FB683C
:10452000283318463AF0A2FEF864AD4B1B78DBB294
:1045300007F11400FA68192139F05CFF07F1140340
:1045400007F13000A74A192139F054FFA44B1B781A
:10455000DBB2012B02D0032387F85730A24B1B7824
:10456000DBB2092B00F24D8201A252F823F000BF0A
:10457000994501000546010071460100DD46010034
:1045800049470100B547010053480100BF480100F9
:104590002B490100974901004FF47A3200219348DA
:1045A00039F071F907F1300319469048FFF768FFB9
:1045B0000346002B05D17A68B9688C4835F000F9BC
:1045C0001FE297F8572013469B0013449B001A469E
:1045D000FB681344002208920022079202220692EE
:1045E00002220592824A0492824A0392824A0292ED
:1045F000804A019200933B6DFA6C7968B868FFF7C6
:10460000A1FDFEE14FF47A3200217C4839F03BF9FC
:1046100007F1300319467948FFF732FF0346002BB4
:1046200005D17A68B968754835F0CAF8E9E197F8B4
:10463000572013469B0013449B001A46FB68134403
:10464000002208920022079202220692022205927C
:10465000674A0492674A0392674A0292654A019246
:1046600000933B6DFA6C7968B868FFF76BFDC8E1A1
:104670004FF47A320021624839F005F907F130032E
:1046800019465F48FFF7FCFE0346002B05D17A6808
:10469000B9685B4835F094F8B3E197F857201346B2
:1046A0009B0013449B001A46FB68134400220892A7
:1046B0000022079202220692022205924C4A04929C
:1046C0004C4A03924C4A02924A4A019200933B6D33
:1046D000FA6C7968B868FFF735FD92E14FF47A32E9
:1046E0000021484839F0CFF807F130031946454812
:1046F000FFF7C6FE0346002B05D17A68B96841482A
:1047000035F05EF87DE197F8572013469B0013447F
:104710009B001A46FB68134400220892002207926D
:104720000222069202220592314A0492314A0392F1
:10473000314A02922F4A019200933B6DFA6C7968DC
:10474000B868FFF7FFFC5CE14FF47A3200212E4895
:1047500039F099F807F1300319462B48FFF790FE1E
:104760000346002B05D17A68B968274835F028F848
:1047700047E197F8572013469B0013449B001A46C5
:10478000FB6813440022089200220792022206923C
:1047900002220592164A0492164A0392164A02927F
:1047A000144A019200933B6DFA6C7968B868FFF780
:1047B000C9FC26E14FF47A320021144839F063F83D
:1047C00007F1300319461148FFF75AFE0346002B44
:1047D0001ED17A68B9680D4834F0F2FF11E100BFCC
:1047E000A8910010480A0500AA91001000B8CBA0BB
:1047F00020C30500CCCCCC004D4D4D000088D3A08B
:104800000070D7A00058DBA00040DFA00028E3A084
:1048100097F8572013469B0013449B001A46FB68E9
:1048200013440022089200220792022206920222DA
:104830000592824A0492824A0392824A0292804AF4
:10484000019200933B6DFA6C7968B868FFF77AFCC7
:10485000D7E04FF47A3200217B4839F014F807F1A1
:10486000300319467848FFF70BFE0346002B05D1AD
:104870007A68B968744834F0A3FFC2E097F857200B
:1048800013469B0013449B001A46FB681344002206
:104890000892002207920222069202220592674A9B
:1048A0000492674A0392674A0292654A0192009312
:1048B0003B6DFA6C7968B868FFF744FCA1E04FF4EF
:1048C0007A320021614838F0DEFF07F130031946E3
:1048D0005E48FFF7D5FD0346002B05D17A68B9681D
:1048E0005A4834F06DFF8CE097F8572013469B0030
:1048F00013449B001A46FB681344002208920022CE
:10490000079202220692022205924C4A04924C4AD5
:1049100003924C4A02924A4A019200933B6DFA6C10
:104920007968B868FFF70EFC6BE04FF47A3200212B
:10493000474838F0A8FF07F1300319464448FFF70D
:104940009FFD0346002B05D17A68B968404834F0D2
:1049500037FF56E097F8572013469B0013449B00FF
:104960001A46FB6813440022089200220792022292
:10497000069202220592314A0492314A0392314A48
:1049800002922F4A019200933B6DFA6C7968B868E5
:10499000FFF7D8FB35E04FF47A3200212D4838F08C
:1049A00072FF07F1300319462A48FFF769FD0346F5
:1049B000002B05D17A68B968264834F001FF1FE062
:1049C00097F8572013469B0013449B001A46FB6838
:1049D0001344002208920022079202220692022229
:1049E0000592164A0492164A0392164A0292144AF3
:1049F000019200933B6DFA6C7968B868FFF7A2FBEF
:104A000000BF154B1B78DBB20133DAB2124B1A70C0
:104A1000114B1B78DBB2092B02D90F4B00221A7005
:104A20000E4832F0B2FF6FF07F4032F0AEFF0C481C
:104A300032F0ABFF00BF5837BD4680BD20C3050034
:104A4000CCCCCC004D4D4D000010E7A000F8EAA002
:104A500000E0EEA000C8F2A0AA910010AF6E7200B4
:104A60007E162D0098B500AF00240FE022464FF4CB
:104A7000E47303FB02F3624A13444FF4E47200212F
:104A8000184638F000FF23460133DCB2272CEDD95D
:104A90000024ACE021465A4A4FF4E47303FB01F3CF
:104AA000134403F5C07301221A702146544A4FF48F
:104AB000E47303FB01F3134403F5B87302221A7085
:104AC00021464F4A4FF4E47303FB01F3134403F50B
:104AD000BC734C4A1A602146494A4FF4E47303FB05
:104AE00001F3134403F2711302221A702146444A5F
:104AF0004FF4E47303FB01F3134403F5B97302228B
:104B00001A7021463E4A4FF4E47303FB01F3134449
:104B100003F5DA736FF07F421A602146384A4FF48A
:104B2000E47303FB01F3134403F5D4736FF07F4286
:104B30001A602146324A4FF4E47303FB01F3134435
:104B400003F2731300221A7021462D4A4FF4E473C6
:104B500003FB01F3134403F5AA73FF221A702146E5
:104B6000274A4FF4E47303FB01F3134403F5AE73D8
:104B7000FF221A702146224A4FF4E47303FB01F32B
:104B8000134403F5B2734FF6FF721A8021461C4A94
:104B90004FF4E47303FB01F3134403F5B6734FF0D2
:104BA000FF321A602146164A4FF4E47303FB01F307
:104BB000134403F5DE73144A1A602146104A4FF479
:104BC000E47303FB01F3134403F5D1734FF6FF7253
:104BD0001A8021460A4A4FF4E47303FB01F313449D
:104BE00003F5E273094A1A6023460133DCB2272C2D
:104BF0007FF650AF064B1E221A7000BF98BD00BF53
:104C000074A90010A591001094A00500394101007D
:104C10000401001098B500AF00240024F5E07F4B9C
:104C20001A687F494FF4E47303FB04F30B4403F564
:104C3000C6731B689A4240F38980784B1A6878499A
:104C40004FF4E47303FB04F30B4403F5C6731968D4
:104C500073484FF4E47303FB04F3034403F5CE738A
:104C60001B680B449A4271DA6C4B5A686C494FF4DA
:104C7000E47303FB04F30B4403F5CA731B689A4205
:104C800064DD664B5A6866494FF4E47303FB04F332
:104C90000B4403F5CA73196861484FF4E47303FBCE
:104CA00004F3034403F5CC731B680B449A424DDABA
:104CB0005B4A4FF4E47303FB04F3134403F28913D8
:104CC0001B78DBB2002B41D1564B01221A70544A9B
:104CD0004FF4E47303FB04F3134403F5C4731B782C
:104CE000DBB2032B02D0504B01221A704C4A4FF416
:104CF000E47303FB04F3134403F27D131B78DBB26C
:104D00000033012B48D8464A4FF4E47303FB04F305
:104D1000134403F27D1301221A70414A4FF4E473E5
:104D200003FB04F3134403F27F131B78DBB2002B65
:104D30000AD14FF4E47303FB04F3394A13443B4AAA
:104D40001E213B4839F056FB00BF25E0344A4FF4A2
:104D5000E47303FB04F3134403F27D131B78DBB20B
:104D6000012B03D0022B0CD0002B16E02C4A4FF461
:104D7000E47303FB04F3134403F27D1302221A705D
:104D80000BE0274A4FF4E47303FB04F3134403F2EC
:104D90007D1300221A7000E000BF214A4FF4E47333
:104DA00003FB04F3134403F5BF731B78DAB21C4909
:104DB0004FF4E47303FB04F30B4403F27D131B78FD
:104DC000DBB29A4220D0164A4FF4E47303FB04F39B
:104DD000134403F27D131B78D9B2114A4FF4E473E4
:104DE00003FB04F3134403F5BF730A461A70114B17
:104DF00001221A700A4A4FF4E47303FB04F31344CC
:104E000003F27F1300221A7001340B4B1B78DBB2C4
:104E10009C427FF704AF00BF98BD00BFD8A0001030
:104E200074A90010A7910010A6910010540A050063
:104E300020A500109F910010A9910010F0B593B02B
:104E40000AAF002400F09BBEB54A4FF4E47303FBA5
:104E500004F3134403F27F131B78DBB2002B40F002
:104E60008D86AF4A4FF4E47303FB04F3134403F25B
:104E70007D131B78DBB2002B06D0002BC0F2B2856D
:104E8000022B00F3AF85D5E2A54A4FF4E47303FB90
:104E900004F3134403F5B8731B78DBB2042B00F260
:104EA000318201A252F823F0BD4E0100F94E0100FB
:104EB000F54F010025510100315401004FF4E47316
:104EC00003FB04F33833964A1344181D944A4FF4F5
:104ED000E47303FB04F3134403F5C6731968904AA3
:104EE0004FF4E47303FB04F3134403F5CA731B6824
:104EF0001A46FFF705FB9CE24FF4E47303FB04F34F
:104F00003833874A1344181D854A4FF4E47303FB72
:104F100004F3134403F5C6731A6881494FF4E4732C
:104F200003FB04F30B4403F5C8731B68D1187C4AD8
:104F30004FF4E47303FB04F3134403F5CA731B68D3
:104F40001A46FFF7DDFA764A4FF4E47303FB04F3E5
:104F5000134403F5C6731E68714A4FF4E47303FBF0
:104F600004F3134403F5CA731B68FB616C4A4FF4E6
:104F7000E47303FB04F3134403F5CE731A68BA61B8
:104F8000674A4FF4E47303FB04F3134403F5CC7353
:104F90001B68A3F1020C4FF4E47303FB04F3604AB3
:104FA00013445F494FF4E47202FB04F20A4402F531
:104FB000D47212685A484FF4E47101FB04F10144C1
:104FC00001F5DE710968564D4FF4E47000FB04F002
:104FD000284400F271100078C0B2042504950390B3
:104FE0000291019200936346BA69F9693046FFF76E
:104FF000AFF91EE24A4A4FF4E47303FB04F313448F
:1050000003F5C6731B68FB61454A4FF4E47303FB69
:1050100004F3134403F5CA731A68BA61404A4FF4A3
:10502000E47303FB04F3134403F5CE731D687D6141
:105030003B4A4FF4E47303FB04F3134403F5CC73CE
:105040001E683E614FF4E47303FB04F3344A98187E
:10505000334A4FF4E47303FB04F3134403F5D273B0
:105060001D682F4A4FF4E47303FB04F3134403F564
:10507000D4731E682A4A4FF4E47303FB04F3134409
:1050800003F5D6731968F960254A4FF4E47303FBFE
:1050900004F3134403F5DE731B68BB60204A4FF42E
:1050A000E47303FB04F3134403F271131B785FFAF8
:1050B00083FC62467A601A4A4FF4E47303FB04F3FC
:1050C000134403F5B9731B785FFA83FC61463960BA
:1050D000134A4FF4E47303FB04F3134403F2731312
:1050E0001B78D9B20E4A4FF4E47303FB04F3134464
:1050F00003F5BA731B78DBB2089307913968069100
:105100007A680592BB680493F96803910296019549
:1051100000903B697A69B969F869FFF713F888E18B
:1051200074A90010764A4FF4E47303FB04F31344AC
:1051300003F5C6731B68FB61714A4FF4E47303FB0C
:1051400004F3134403F5CA731A68BA616C4A4FF446
:10515000E47303FB04F3134403F5CE731D687D6110
:10516000674A4FF4E47303FB04F3134403F5CC7371
:105170001E683E614FF4E47303FB04F3604A981821
:105180005F4A4FF4E47303FB04F3134403F5D27353
:105190001D685B4A4FF4E47303FB04F3134403F507
:1051A000D4731E68564A4FF4E47303FB04F31344AC
:1051B00003F5D6731968F960514A4FF4E47303FBA1
:1051C00004F3134403F5DE731B68BB604C4A4FF4D1
:1051D000E47303FB04F3134403F271131B785FFAC7
:1051E00083FC62467A60464A4FF4E47303FB04F39F
:1051F000134403F5B9731B785FFA83FC6146396089
:105200003F4A4FF4E47303FB04F3134403F27313B4
:105210001B78D9B23A4A4FF4E47303FB04F3134406
:1052200003F5BA731B78DBB20893079139680691CE
:105230007A680592BB680493F96803910296019518
:1052400000903B697A69B969F869FEF77BFF2C4ADF
:105250004FF4E47303FB04F3134403F5C6731E68B1
:10526000274A4FF4E47303FB04F3134403F5CA73B2
:105270001B68FB61224A4FF4E47303FB04F31344FD
:1052800003F5CE731A68BA611D4A4FF4E47303FB49
:1052900004F3134403F5CC731B68A3F1020C4FF421
:1052A000E47303FB04F31833154A1344063314491B
:1052B0004FF4E47202FB04F20A4402F5D47212685D
:1052C0000F484FF4E47101FB04F1014401F5E07172
:1052D00009680B4D4FF4E47000FB04F0284400F221
:1052E00071100078C0B204250495039002910192D8
:1052F00000936346BA69F9693046FFF729F898E0E8
:1053000074A90010A64A4FF4E47303FB04F313449A
:1053100003F5C6731B68FB61A14A4FF4E47303FBFA
:1053200004F3134403F5CA731A68BA619C4A4FF434
:10533000E47303FB04F3134403F5CE731D687D612E
:10534000974A4FF4E47303FB04F3134403F5CC735F
:105350001E683E614FF4E47303FB04F3904A98180F
:105360008F4A4FF4E47303FB04F3134403F5D27341
:105370001D688B4A4FF4E47303FB04F3134403F5F5
:10538000D4731E68864A4FF4E47303FB04F313449A
:1053900003F5D6731968F960814A4FF4E47303FB8F
:1053A00004F3134403F5DE731B68BB607C4A4FF4BF
:1053B000E47303FB04F3134403F271131B785FFAE5
:1053C00083FC62467A60764A4FF4E47303FB04F38D
:1053D000134403F5B9731B785FFA83FC61463960A7
:1053E0006F4A4FF4E47303FB04F3134403F27313A3
:1053F0001B78D9B26A4A4FF4E47303FB04F31344F5
:1054000003F5BA731B78DBB20893079139680691EC
:105410007A680592BB680493F96803910296019536
:1054200000903B697A69B969F869FEF78BFE00E084
:1054300000BFD7E25A4A4FF4E47303FB04F313446A
:1054400003F5B8731B78DBB2042B00F2338201A2A0
:1054500052F823F069540100A5540100A55501003C
:10546000D5560100E15901004FF4E47303FB04F346
:10547000C0334B4A1344981D494A4FF4E47303FB6D
:1054800004F3134403F5C6731968454A4FF4E473F3
:1054900003FB04F3134403F5CA731B681A46FFF7B2
:1054A0002FF89EE24FF4E47303FB04F3C0333C4A4D
:1054B0001344981D3A4A4FF4E47303FB04F3134476
:1054C00003F5C6731A6836494FF4E47303FB04F31B
:1054D0000B4403F5C8731B68D118314A4FF4E473C9
:1054E00003FB04F3134403F5CA731B681A46FFF762
:1054F00007F82B4A4FF4E47303FB04F3134403F55A
:10550000C6731E68264A4FF4E47303FB04F3134486
:1055100003F5CA731B68FB61214A4FF4E47303FB74
:1055200004F3134403F5CE731A68BA611C4A4FF4AE
:10553000E47303FB04F3134403F5CC731B68A3F17A
:10554000020C4FF4E47303FB04F3154A13441449AB
:105550004FF4E47202FB04F20A4402F5DA721268B4
:105560000F484FF4E47101FB04F1014401F5DE71D1
:1055700009680B4D4FF4E47000FB04F0284400F27E
:1055800071100078C0B20425049503900291019235
:1055900000936346BA69F9693046FEF7D9FE20E206
:1055A00074A900104A4A4FF4E47303FB04F3134454
:1055B00003F5C6731B68FB61454A4FF4E47303FBB4
:1055C00004F3134403F5CA731A68BA61404A4FF4EE
:1055D000E47303FB04F3134403F5CE731D687D618C
:1055E0003B4A4FF4E47303FB04F3134403F5CC7319
:1055F0001E683E614FF4E47303FB04F3344A9818C9
:10560000334A4FF4E47303FB04F3134403F5D873F4
:105610001D682F4A4FF4E47303FB04F3134403F5AE
:10562000DA731E682A4A4FF4E47303FB04F313444D
:1056300003F5DC731968F960254A4FF4E47303FB42
:1056400004F3134403F5DE731B68BB60204A4FF478
:10565000E47303FB04F3134403F271131B785FFA42
:1056600083FC62467A601A4A4FF4E47303FB04F346
:10567000134403F5B9731B785FFA83FC6146396004
:10568000134A4FF4E47303FB04F3134403F273135C
:105690001B78D9B20E4A4FF4E47303FB04F31344AE
:1056A00003F5BA731B78DBB208930791396806914A
:1056B0007A680592BB680493F96803910296019594
:1056C00000903B697A69B969F869FEF73BFD88E1AA
:1056D00074A90010764A4FF4E47303FB04F31344F7
:1056E00003F5C6731B68FB61714A4FF4E47303FB57
:1056F00004F3134403F5CA731A68BA616C4A4FF491
:10570000E47303FB04F3134403F5CE731D687D615A
:10571000674A4FF4E47303FB04F3134403F5CC73BB
:105720001E683E614FF4E47303FB04F3604A98186B
:105730005F4A4FF4E47303FB04F3134403F5D87397
:105740001D685B4A4FF4E47303FB04F3134403F551
:10575000DA731E68564A4FF4E47303FB04F31344F0
:1057600003F5DC731968F960514A4FF4E47303FBE5
:1057700004F3134403F5DE731B68BB604C4A4FF41B
:10578000E47303FB04F3134403F271131B785FFA11
:1057900083FC62467A60464A4FF4E47303FB04F3E9
:1057A000134403F5B9731B785FFA83FC61463960D3
:1057B0003F4A4FF4E47303FB04F3134403F27313FF
:1057C0001B78D9B23A4A4FF4E47303FB04F3134451
:1057D00003F5BA731B78DBB2089307913968069119
:1057E0007A680592BB680493F96803910296019563
:1057F00000903B697A69B969F869FEF7A3FC2C4A05
:105800004FF4E47303FB04F3134403F5C6731E68FB
:10581000274A4FF4E47303FB04F3134403F5CA73FC
:105820001B68FB61224A4FF4E47303FB04F3134447
:1058300003F5CE731A68BA611D4A4FF4E47303FB93
:1058400004F3134403F5CC731B68A3F1020C4FF46B
:10585000E47303FB04F31833154A13440633144965
:105860004FF4E47202FB04F20A4402F5DA721268A1
:105870000F484FF4E47101FB04F1014401F5E071BC
:1058800009680B4D4FF4E47000FB04F0284400F26B
:1058900071100078C0B20425049503900291019222
:1058A00000936346BA69F9693046FEF751FD98E006
:1058B00074A90010B74A4FF4E47303FB04F31344D4
:1058C00003F5C6731B68FB61B24A4FF4E47303FB34
:1058D00004F3134403F5CA731A68BA61AD4A4FF46E
:1058E000E47303FB04F3134403F5CE731D687D6179
:1058F000A84A4FF4E47303FB04F3134403F5CC7399
:105900001E683E614FF4E47303FB04F3A14A981848
:10591000A04A4FF4E47303FB04F3134403F5D87374
:105920001D689C4A4FF4E47303FB04F3134403F52E
:10593000DA731E68974A4FF4E47303FB04F31344CD
:1059400003F5DC731968F960924A4FF4E47303FBC2
:1059500004F3134403F5DE731B68BB608D4A4FF4F8
:10596000E47303FB04F3134403F271131B785FFA2F
:1059700083FC62467A60874A4FF4E47303FB04F3C6
:10598000134403F5B9731B785FFA83FC61463960F1
:10599000804A4FF4E47303FB04F3134403F27313DC
:1059A0001B78D9B27B4A4FF4E47303FB04F313442E
:1059B00003F5BA731B78DBB2089307913968069137
:1059C0007A680592BB680493F96803910296019581
:1059D00000903B697A69B969F869FEF7B3FB00E0AA
:1059E00000BF00BF6B4A4FF4E47303FB04F313449E
:1059F00003F27D131B78DBB2012B04D0022B00F0E5
:105A0000B280002BB0E0634A4FF4E47303FB04F36D
:105A1000134403F5C4731B78DBB2002B02D0032BB5
:105A200011D014E05B4A4FF4E47303FB04F3134416
:105A300003F5D0731B889BB2DAB2574B1A70574BE1
:105A400001221A7003E0564B01221A7000BF514A1E
:105A50004FF4E47303FB04F3134403F5AA731B78B8
:105A6000DBB2FF2B13D04B4A4FF4E47303FB04F378
:105A7000134403F5A8731B6846494FF4E47202FB14
:105A800004F20A4402F5AA721278D2B21A70414A9C
:105A90004FF4E47303FB04F3134403F5AE731B7874
:105AA000DBB2FF2B13D03B4A4FF4E47303FB04F348
:105AB000134403F5AC731B6836494FF4E47202FBE0
:105AC00004F20A4402F5AE721278D2B21A70314A68
:105AD0004FF4E47303FB04F3134403F5B2731B8820
:105AE0009BB24FF6FF72934213D02A4A4FF4E473ED
:105AF00003FB04F3134403F5B0731B6825494FF40B
:105B0000E47202FB04F20A4402F5B272128892B205
:105B10001A80204A4FF4E47303FB04F3134403F5A3
:105B2000B6731B68B3F1FF3F12D01A4A4FF4E47307
:105B300003FB04F3134403F5B4731B6815494FF4D6
:105B4000E47202FB04F20A4402F5B67212681A60AB
:105B5000104A4FF4E47303FB04F3134403F5E273B8
:105B60001B68984700E000BF0A4A4FF4E47303FB48
:105B700004F3134403F27F1301221A700134094B1A
:105B80001B78DBB29C427FF75FA900BF2437BD467C
:105B9000F0BD00BF74A90010A4910010A8A60010C9
:105BA0009E910010A991001080B483B000AF03460D
:105BB0000A46FB711346BB71BB79002B0AD10D4B12
:105BC000DB69FA79012101FA02F21146094A0B4315
:105BD000D36109E0074B9B69FA79012101FA02F2CE
:105BE0001146044A0B43936100BF0C37BD4680BC8D
:105BF000704700BF4080092090B583B000AF0023FC
:105C0000FB713B460E4A19460E48FBF7B8F80346AF
:105C1000FB71FB79002B04D04FF000034FF0000420
:105C200009E0074B1B685B69054A1268528902FB51
:105C300003F34FF00004184621460C37BD4690BDD3
:105C400070A400106C5B050080B582B000AF786076
:105C500079680348F4F788FC00BF0837BD4680BD6B
:105C60000040024080B588B000AF3B461846FFF7C1
:105C7000EBFFFB69A3F2BC735A06BB695B051A43D1
:105C8000FB681B041A43BB68DB021A437B685B0199
:105C90001A433B685B08134318462037BD4680BD56
:105CA00080B400AF174B002283F82020164B9B785E
:105CB000144A03F03F03DBB282F82430124BDB7846
:105CC000104A03F01F03DBB282F828300E4B1B7919
:105CD0000C4A03F01F03DBB282F82C300A4B5B79CD
:105CE000084A03F00F03DBB282F83830064BDB883A
:105CF000044AC3F30B039BB2938700BFBD4680BC2D
:105D0000704700BF0040024064A4001080B500AF9F
:105D100000211F48F4F7D0FB0346DAB21D4B5A703E
:105D200001211B48F4F7C8FB0346DAB2194B9A70FD
:105D300002211748F4F7C0FB0346DAB2154BDA70BC
:105D400004211348F4F7B8FB0346DAB2114B1A7179
:105D500006210F48F4F7B0FB0346DAB20D4B5A7137
:105D600007210B48F4F7A8FB03469AB2094BDA80E7
:105D7000084B1879074B5979064BDB881A4600F017
:105D800073F803461A46034B1A7000BF80BD00BF6C
:105D90000040024064A4001080B483B000AF03460A
:105DA000FB710B46BB711346BB80FB79002B55D0B2
:105DB000FB791F2B52D8BB79002B4FD0BB790C2B12
:105DC0004CD8BB8840F26B72934247D9BB8840F6EF
:105DD0003402934242D8FB791D2B0AD1BB79022BA6
:105DE00007D1BB8803F003039BB2002B01D1002332
:105DF00035E0FB791C2B04D8BB79022B01D10023A1
:105E00002DE0FB791E2B0DD8BB79042B08D0BB7974
:105E1000062B05D0BB79092B02D0BB790B2B01D106
:105E200000231CE0FB791F2B16D8BB79012B11D066
:105E3000BB79032B0ED0BB79052B0BD0BB79072B7D
:105E400008D0BB79082B05D0BB790A2B02D0BB79CF
:105E50000C2B01D1002302E0012300E001231846AE
:105E60000C37BD4680BC704780B487B000AF034696
:105E7000FB710B46BB711346BB80BB79C3F10E03AC
:105E8000254A82FB03125210DB17D31A7B61B979C2
:105E90007A6913465B0013449B000B44023B3B6151
:105EA000BA887B69D31AFB60F9793A6913465B00BB
:105EB00013449B001344013B184A82FB0302521017
:105EC000DB17D31ACA18FB681A44FB68002B00DAE8
:105ED00003339B101A44FB68114981FB03014911EC
:105EE000DB175B1A1A44FB680D4981FB0301C911DA
:105EF000DB17CB1A1A440B4B83FB02131344991084
:105F0000D317C91A0B46DB005B1AD11ACBB218465D
:105F10001C37BD4680BC7047ABAAAA2A6766666676
:105F20001F85EB519324499280B582B000AF0346A0
:105F3000FB71FB79062B6CD801A252F823F000BF4D
:105F40005D5F0100775F0100915F0100AB5F0100C1
:105F5000C55F0100DF5F0100F95F01002F4B1B7877
:105F6000DBB21A462E4B53F822301A460F212D4829
:105F700038F040FA4DE0294B1B78DBB21A462A4B29
:105F800053F822301A460F21264838F033FA40E001
:105F9000224B1B78DBB21A46244B53F822301A46A8
:105FA0000F21204838F026FA33E01C4B1B78DBB277
:105FB0001A461F4B53F822301A460F21194838F061
:105FC00019FA26E0154B1B78DBB21A46194B53F829
:105FD00022301A460F21134838F00CFA19E00F4B03
:105FE0001B78DBB21A46144B53F822301A460F21A5
:105FF0000C4838F0FFF90CE0084B1B78DBB21A466E
:106000000E4B53F822301A460F21064838F0F2F9A9
:1060100000BF012318460837BD4680BDA891001077
:10602000B80C0010C8A00010C80C0010D80C00104C
:10603000E80C0010F80C0010080D0010180D0010EE
:1060400080B483B000AF0346FB710B46BB711346AF
:106050007B71FB79172B01D901230AE0BB793B2B1C
:1060600001D9012305E07B793B2B01D9012300E015
:10607000002318460C37BD4680BC704780B500AF82
:1060800001215348F4F7B8FA0346002B00F0FA82D6
:10609000504B1B889AB2504B1A80504B1B889AB2B7
:1060A0004F4B1A804F4B1B889AB24F4B1A804F4B65
:1060B0001B889AB24E4B1A804C4B00221A80494BD7
:1060C00000221A80434B00221A80444B00221A807F
:1060D000484B1B78DBB203F00103002B20D0464B6A
:1060E0001B78DBB2002B06D0434B1B78DBB2013BA5
:1060F000DAB2414B1A70414B1B78DBB25B00DAB26B
:106100003E4B1A703D4B1B78DBB2402B02D93B4B08
:1061100001221A70394B1B78DBB29AB2384B1A80C5
:10612000384B1B78DBB2002B0BD0374B1B78DBB224
:10613000002B06D0334B1B78DBB2013BDAB2314B7C
:106140001A70314B1B78DBB2002B17D02D4B1B780C
:10615000DBB2002B12D1274B1B78DBB223F00103FB
:10616000DAB2244B1A70294B1B78DBB243F01003D0
:10617000DAB2264B1A70264B00221A70234B1B787A
:10618000DBB2002B0AD0234BDB78DBB2012B05D02E
:10619000214B1B78DBB26D2B40F084801F4B1B78AA
:1061A000DBB2002B06D01E4B1B78DBB20133DAB218
:1061B0001B4B1A701B4B1B78DBB2022B34D8194BCC
:1061C0001B78DBB20133DAB2164B1A705DE000BF08
:1061D0000040024010940010089400101494001025
:1061E0000A940010129400100C94001016940010E1
:1061F0000E940010B3910010B2910010F0F9F8A0C5
:10620000C09A0010CC0F0010CD0F0010E4910010C8
:10621000E5910010B8F00010EC930010E69100102A
:10622000E7910010C79100107F4B9A687F4B1B6865
:106230009A422AD97E4B1B78DBB2002B09D17D4BC9
:106240001B78DBB2002B04D1774B5B889BB2002B11
:106250000AD1754B5B889BB2002B05D0764B93F827
:106260005131DBB2002B10D1704B1B6801336F4AE8
:106270001360724B1B68002B04D0704B1B68013BF2
:106280006E4A13606E4B01221A706E4B1B78DBB2A4
:10629000002B07D16C4B1B78DBB26D2B02D1634B0B
:1062A00000221A60694B1B78DBB2002B0ED0674BC3
:1062B0001B78DBB2013BDAB2644B1A70634B1B787C
:1062C000DBB2002B02D1624B00221A70614B1B78AB
:1062D000DBB203F00103002B27D15F4B1B889BB27D
:1062E00001339AB25C4B1A805B4B1B889BB23C2BF0
:1062F0001BD9594B00221A804F4BD3F8EC30013395
:106300004D4AC2F8EC30554B1B889BB201339AB210
:10631000524B1A80514B1B889BB20A2B05D9504B0C
:1063200003221A704D4B00221A804E4B1B78DBB2B1
:10633000002B08D04C4B1B68002B04D04A4B1B6829
:10634000013B494A1360494B1B78DBB2072B13D042
:10635000464B1B78DBB2022B0ED0444B1B78DBB2D2
:106360000A2B09D0414B1B78DBB26D2B04D03F4B7D
:106370001B78DBB2082B02D1314B01221A70324B51
:106380001B78DBB20C2B09D02F4B1B78DBB26B2BAD
:1063900004D02D4B1B78DBB2132B0ED1344B1B7862
:1063A000DBB2002B09D0324B1B78DBB2013BDAB2F7
:1063B0002F4B1A70224B01221A70234B1B78DBB231
:1063C000162B02D11E4B01221A701F4B1B78DBB219
:1063D000142B17D1274B1B78DBB2002B06D0254B93
:1063E0001B78DBB2013BDAB2224B1A70224B1B78CE
:1063F000DBB2182B06D8204B1B78DBB20133DAB2A4
:106400001D4B1A701D4B1B78DBB2002B38D10E4B85
:106410001B78DBB20E2B47D1184B0A221A700B4B9C
:106420001E221A7040E000BF7CA60010DC91001014
:10643000E8910010E9910010B8F00010D891001018
:106440009E9100101A940010EC930010F593001028
:10645000EF930010E49100101292001014920010BB
:1064600005940010C8910010CC910010A491001068
:10647000BC910010C2910010C0910010F99300105F
:10648000814B1B78DBB2013BDAB27F4B1A707E4B3B
:106490001B78DBB2002B07D17C4B1B78DBB20E2BB9
:1064A00002D17B4B04221A707A4B1B889BB2002BC3
:1064B00006D0784B1B889BB2013B9AB2754B1A8071
:1064C000754B1B889BB2002B06D0734B1B889BB26D
:1064D000013B9AB2704B1A80704B1B889BB2002B09
:1064E00006D06E4B1B889BB2013B9AB26B4B1A8055
:1064F0006B4B1B78DBB2002B06D0694B1B78DBB2F1
:10650000013BDAB2664B1A70664B1B78DBB2002B8C
:106510000CD1654B1B78DBB2002B0AD0624B1B7889
:10652000DBB2013BDAB2604B1A7002E05E4B05222F
:106530001A705E4B1B78DBB2002B06D05B4B1B78CE
:10654000DBB2013BDAB2594B1A70594B1B78DBB204
:10655000002B13D0564B1B78DBB2013BDAB2544B05
:106560001A70534B1B78DBB2002B07D1474B1B78BB
:10657000DBB2092B02D1464B07221A70434B1B7822
:10658000DBB2092B05D04A4B00221A70494B01227D
:106590001A70F5F78DFB0346002B02D1464B002203
:1065A0001A70464BDB78DBB2012B1CD1444B5A6886
:1065B000444B5B689A4216DD424B5B681233414A9A
:1065C0005360404B9B6812333E4A93603D4B5B687F
:1065D000B3F5067F07DD3B4B4FF406725A60394B2B
:1065E0004FF406729A60FFF791FB374B1B78DBB2D2
:1065F0000133DAB2344B1A70334B1B78DBB23B2BCE
:1066000009D9314B00221A70304B1B78DBB20133B1
:10661000DAB22E4B1A702D4B1B78DBB23B2B09D90B
:106620002A4B00221A702A4B1B78DBB20133DAB2F4
:10663000274B1A70274B1B78DBB2012B06D9254B51
:106640001B78DBB2013BDAB2224B1A70224B1B786B
:10665000DBB2002B06D0204B1B78DBB2013BDAB259
:106660001D4B1A701D4B1B78DBB2002B06D01B4B49
:106670001B78DBB2013BDAB2184B1A7001211848C3
:10668000F3F7CFFF00BF80BDF9930010EC9300102B
:10669000A4910010CE0F0010D00F0010D20F0010E8
:1066A000D40F0010E8910010E9910010FD91001046
:1066B000E70F0010FC930010FD930010B8F00010DD
:1066C0007CA60010E8A50010BD910010BE9100103E
:1066D000BF91001005940010ED910010FE91001084
:1066E0000040024080B582B000AF3B600346FB71C2
:1066F0000B46BB711346BB802A4B1B78DBB2FA7981
:106700009A424BD1284B1B78DBB2BA799A4245D1D9
:10671000264B1B78DBB203F00103002B3ED1BB8874
:10672000102B05D0BB88122B02D0BB88112B35D182
:106730001F4B1B78DBB2002B30D11A4B1B78D8B221
:10674000194B1B78D9B2002340F20112FCF7A6F8CE
:10675000184B05221A70154B1B78DBB243F001036E
:10676000DAB2124B1A70144B1B78DBB243F0010300
:10677000DAB2114B1A70114ABB881380104B4FF0DC
:10678000FF321A600F4B4FF0FF321A600E4B1B782E
:10679000DBB223F01003DAB20B4B1A7000BF0837DC
:1067A000BD4680BDCB0F0010C90F0010B391001083
:1067B000B5910010B2910010B4910010B09100108A
:1067C000D4910010D0910010E491001090B585B0E4
:1067D00002AF3B600346FB710B46BB711346BB80A7
:1067E000BB8840F22112934227D1194B00225A60F4
:1067F000174B00229A603B681B0C154A53603B689C
:106800009BB2134A9360134B1B78D8B2124B1B7880
:10681000D9B2124B1B78DCB20D4B5B689BB20C4AB1
:10682000926892B2019200934FF480532246FBF794
:10683000A1FF0B4B01221A7006E0BA88B979FB79E7
:106840001846FCF727F900BF00BF0C37BD4690BDC6
:10685000144A46A1CA0F0010C90F0010C80F00103B
:106860000694001080B483B000AF3B600346FB7118
:106870000B46BB711346BB80774B1B78DBB203F032
:106880000103002B00F0E280744B1B78DBB2BA7975
:106890009A4240F0DB80724B1B78DBB2FA799A4265
:1068A00040F0D480BB8845F2050293427FD045F288
:1068B000050293421ADC45F20202934234D045F2BB
:1068C0000202934209DCB3F5A87F00F0B98045F2DB
:1068D0000102934200F08F80B8E045F20302934238
:1068E00043D045F20402934250D0AFE045F2080293
:1068F000934277D045F20802934208DC45F2060243
:1069000093425DD045F20702934262D09EE045F289
:10691000160293427CD045F2170293421CD045F2F6
:106920000F02934278D091E04E4B00221A704E4BEA
:1069300000221A704D4A3B6813604C4B1B684C4A4E
:1069400013604B4B1B68C3F3C003DBB2002B7CD03E
:10695000484B00221A7078E03A681346DB00134473
:106960005B001A46444B1A6070E03A681346DB003D
:1069700013445B001A46404B5A60404B1B78DBB215
:1069800043F00103DAB23D4B1A705FE03A681346F8
:10699000DB0013445B001A46374B9A60374B1B7879
:1069A000DBB243F00203DAB2344B1A704EE03A68BD
:1069B0001346DB0013445B001A462F4BDA6045E0B8
:1069C0003A681346DB0013445B001A462A4B1A61EF
:1069D0003CE03A681346DB0013445B001A46264B42
:1069E0005A6133E03A681346DB0013445B001A46F1
:1069F000214B9A612AE03B689AB2214B1A801F4BC7
:106A00001B78DBB243F00403DAB21C4B1A701DE0B2
:106A10001C4A3B68136019E03B68DAB21A4B1A70E3
:106A20003B681B0ADAB2184B5A703B681B0CDAB28F
:106A3000154B9A703B681B0EDAB2134BDA7005E007
:106A40003B689AB2114B1A8000E000BF00BF0C37C0
:106A5000BD4680BC704700BFB3910010C90F001045
:106A6000CB0F0010CD0F0010CC0F0010B89100100C
:106A700068A90010E8910010E8A50010E591001049
:106A8000F4F9F8A004FAF8A0AC910010B09100104D
:106A900080B483B000AF3B600346FB710B46BB7113
:106AA0001346BB80284B1B78DBB203F00103002B9D
:106AB00045D0264B1B78DBB2BA799A423FD1244BA2
:106AC0001B78DBB2FA799A4239D1BB8845F20202CF
:106AD000934219D045F21602934211D045F20102B9
:106AE000934200D02BE03B689AB21A4B1A801A4BA3
:106AF0001B78DBB2162B1FD1184B01221A701BE03A
:106B0000174A3B6813601AE0164B00221A70164BA6
:106B100000221A70154A3B681360144B1B68144A14
:106B20001360134B1B68C3F3C003DBB2002B05D00B
:106B3000104B00221A7001E000BF00E000BF00BF50
:106B40000C37BD4680BC7047B3910010C90F0010D0
:106B5000CB0F0010F4F9F8A0A49100109E91001042
:106B600004FAF8A0CD0F0010CC0F0010B89100105F
:106B700068A90010E891001080B485B000AF3B60B8
:106B80000346FB710B46BB711346BB800023FB60C1
:106B9000FB6901221A70BB8845F20F0293420FD0A5
:106BA00045F21702934228D1184B1B889BB2184A12
:106BB000A2FB03239B089BB21A463B681A6020E0A5
:106BC0000023FB6001231A46FB681343FB6000238C
:106BD0001B021A46FB681343FB6004231B041A467E
:106BE000FB681343FB6062231B061A46FB681343D2
:106BF000FB603B68FA681A6003E0FB6900221A70C8
:106C000000BF00BF1437BD4680BC70470092001023
:106C1000398EE33880B500AFAD4B1B78DBB203F0A3
:106C20000103002B00F03982AA4B1B78DBB2002B4A
:106C300040F03382A84B1B78DBB203F00103002B3A
:106C400000F0C780A54B1B78D8B2A54B1B78D9B2F2
:106C50003C234FF48272FBF721FE0120F5F7DEFDA5
:106C6000A04A1368042161F3020313609D4A13686C
:106C70006FF3C60313609B4A136845F2010161F389
:106C80001F431360954B1B78D8B2954B1B78D9B234
:106C9000944B1B6841F20D02FBF700FE0120F5F753
:106CA000BDFD904A1368042161F3020313608D4A0D
:106CB0001368012161F3C60313608A4A136845F221
:106CC000160161F31F431360844B1B78D8B2844BC9
:106CD0001B78D9B2834B1B6841F20D02FBF7DEFD36
:106CE0000120F5F79BFD7F4A1368042161F302033D
:106CF00013607C4A1368022161F3C6031360794A6A
:106D0000136845F2020161F31F431360734B1B7854
:106D1000D8B2734B1B78D9B2724B1B6841F20D028B
:106D2000FBF7BCFD0120F5F779FD6F4B1B78DBB25B
:106D3000142B2AD06D4A1368062161F302031360F5
:106D40006A4A13686FF3C6031360684A13686FF3E7
:106D5000CF131360654A13680F2161F31743136063
:106D6000624A1368152161F31F6313605B4B1B7844
:106D7000D8B25B4B1B78D9B25C4B1B6841F20C025A
:106D8000FBF78CFD0120F5F749FD544B1B78D8B279
:106D9000534B1B78D9B2002345F20F02FBF7D2FD0B
:106DA0000120F5F73BFD4D4B1B78D8B24C4B1B78BF
:106DB000D9B200234FF4A872FBF7C4FD0120F5F708
:106DC0002DFD454B1B78DBB223F00103DAB2424BB9
:106DD0001A70474B1B78DBB2002B06D0454B1B8843
:106DE000C3F34013DBB2002B15D03C4B1B78D8B259
:106DF0003B4B1B78D9B2002340F20312FBF74EFD48
:106E00003B4B04221A703B4A13886FF345131380DF
:106E10000120F5F703FD384B1A68384B1B689A427E
:106E20002DD0354A138843F001031380324A13886A
:106E300043F002031380304A138843F004031380A5
:106E40002F4B93F85231DBB203F00103D9B22A4A37
:106E5000138861F304131380204B1B78D8B2204BA6
:106E60001B78D9B2244B1B6841F20A02FBF716FDCE
:106E7000214B1B68214A13600120F5F7CFFC214B01
:106E80001A68214B1B689A4212D0144B1B78D8B257
:106E9000134B1B78D9B21B4B1B6841F20702FBF75F
:106EA000FDFC184B1B68184A13600120F5F7B6FC6F
:106EB000164B1B889AB2164B1B889BB29A422AD15A
:106EC0000C4B1B88C3F3C003DBB2002B22E000BFD6
:106ED000B3910010B5910010B4910010CB0F0010C9
:106EE000C90F001008FAF8A0A491001070A90010B2
:106EF000B2910010C09A001000FAF8A0D4910010CE
:106F0000B8F00010FCF9F8A0D0910010F8F9F8A042
:106F1000FAF9F8A019D0624B1B78D8B2614B1B78F4
:106F2000D9B2614B1B889BB241F20202FBF7B6FC5F
:106F30005D4B1B889AB25D4B1A805D4A13886FF3D4
:106F4000C30313800120F5F769FC594B1B88C3F379
:106F50000003DBB2002B18D0514B1B78D8B2514B39
:106F60001B78D9B2002345F20202FBF7EBFC514B30
:106F700002221A70504B01221A704D4A13886FF387
:106F8000000313800120F5F749FC494B1B88C3F32C
:106F90004003DBB2002B66D0414B1B78D8B2414B8B
:106FA0001B78D9B2002345F21702FBF7CBFC012076
:106FB000F5F734FC3A4B1B78D8B23A4B1B78D9B270
:106FC000002345F20302FBF7BDFC0120F5F726FC88
:106FD000334B1B78D8B2334B1B78D9B2002345F220
:106FE0000402FBF7AFFC0120F5F718FC2C4B1B78D3
:106FF000D8B22C4B1B78D9B2002345F20502FBF71F
:10700000A1FC0120F5F70AFC254B1B78D8B2254BD3
:107010001B78D9B2002345F20602FBF793FC01204E
:10702000F5F7FCFB1E4B1B78D8B21E4B1B78D9B270
:10703000002345F20702FBF785FC0120F5F7EEFB84
:10704000174B1B78D8B2174B1B78D9B2002345F2E7
:107050000802FBF777FC0120F5F7E0FB144A1388E0
:107060006FF341031380124B1B88C3F38003DBB221
:10707000002B12D00A4B1B78D8B20A4B1B78D9B21E
:10708000002345F20102FBF75DFC0120F5F7C6FB8A
:10709000074A13886FF38203138000BF80BD00BFCF
:1070A000CB0F0010C90F0010F8F9F8A0FAF9F8A0FA
:1070B000C09A0010CC0F0010CD0F001080B500AFAB
:1070C0001C22FF21644836F0DEFB0C2200216348BD
:1070D00036F0D9FB624B01221A80624B00221A6003
:1070E000614B00221A60614B00221A80604B002223
:1070F0001A60604B4FF6FF721A805F4B00221A70C5
:107100005E4B4FF0FF321A605D4B4FF0FF321A605A
:107110005C4B01221A704FF4803200215A4836F03D
:10712000B2FB4FF400320021584836F0ACFB4FF46C
:1071300000320021564836F0A6FB4FF40032002101
:10714000544836F0A0FB4FF480220021524836F01C
:107150009AFB4FF480220021504836F094FB4FF404
:10716000802200214E4836F08EFB4FF40022002191
:107170004C4836F088FB4FF4003200214A4836F084
:1071800082FB4FF400220021484836F07CFB4FF48C
:1071900000220021464836F076FB4FF400420021E1
:1071A000444836F070FB4FF480220021424836F00C
:1071B0006AFB4FF480220021404836F064FB404BCC
:1071C00000221A703F4B00221A703F4B4FF6FF729D
:1071D0001A80224B41F2B0325A60204B05229A604D
:1071E0001E4B00221A701D4B00225A801B4B00229E
:1071F0005A70364B41F2B0325A621B4A138843F43C
:1072000080631380184A1388012161F3CC23138013
:10721000154A138843F0080313802C4B93F8383039
:10722000DAB22B4B1A70294B0022DA70294B1B78EB
:10723000DBB2002B04D0254BDB6D0133234AD36531
:1072400006222549254836F01AFB062224492548FE
:1072500036F015FB00BF80BDE8A500107CA600102D
:10726000C09A0010FCF9F8A000FAF8A0F8F9F8A00C
:1072700004FAF8A0F4F9F8A06CA40010D49100105E
:10728000D0910010F0F9F8A014FAF8A014FAF9A0BF
:1072900014FAFBA014FAFDA014FAFFA014FA03A13B
:1072A00014FA07A114FA0BA114FA13A114FA15A1E8
:1072B00014FA1DA114FA25A1147A26A1147A2AA180
:1072C000E4910010EF930010FAF9F8A0B8F0001064
:1072D000A8910010FB910010E0F00010F40F0010D6
:1072E000E6F00010EC0F001080B584B000AF7860BD
:1072F00039600023BB607B68002B02DB3B68002BFE
:1073000009DA0123BB60786837F0DCFF7860386801
:1073100037F0D8FF38603B68002B0FD00123FB60AB
:1073200005E0FA6813469B0013445B00FB603A6873
:10733000FB6892FBF3F3002BF3D101E00A23FB601F
:10734000BB68002B07D07B68FA6802FB03F23B683E
:1073500013445B4205E07B68FA6802FB03F23B687A
:10736000134418461037BD4680BDFFFF80B582B07C
:1073700000AF78607B6842F22832934203DC7B687E
:10738000274A93420CDA274B1B78DBB21A46264B6E
:1073900053F82230254A0A21254837F02BF83AE0E5
:1073A000244B93F82030DBB2012B13D0022B21D0D9
:1073B000002B00D02FE07B681F4A82FB0312921043
:1073C000DB17D31A7B607B681C4A0A21184837F008
:1073D00011F820E07B681A4A82FB03129210DB1737
:1073E000D31A20337B607B68164A0A21104837F095
:1073F00001F810E07B68104A82FB03129210DB1741
:10740000D31A03F211137B607B680F4A0A210848E4
:1074100036F0F0FF00BF7B6818460837BD4680BDD8
:10742000D8DCFFFFA891001078010010540A050075
:1074300090A60010B8F00010398EE338705B05009C
:1074400067666666785B0500805B050080B5ADF514
:10745000127D00AF07F10C03186007F108031960F3
:107460003B1D1A600023C7F8443207F114030022C1
:107470001A6007F10C0307F1180001221968F8F7E8
:10748000CBFC0346002B2ED107F11803DB68C7F8AD
:10749000443207F11403391D07F11800D7F84422CC
:1074A0000968F8F774FE07F118031846F9F70BF9A5
:1074B00007F118031846F9F784F907F114031B685C
:1074C000D7F844229A4204D00B4B01221A700123B0
:1074D0000DE007F108013B1D084A0968186830F003
:1074E000C3F9002303E0044B01221A70022318465B
:1074F00007F51277BD4680BD1F94001014D7050014
:1075000080B582B000AF0023FB712C4B00221A80A3
:1075100000F014FB2A4BFF221A602A4B00221A604B
:10752000294B00229A600023FB711CE0FA7927495D
:107530001346DB009B1A1B010B4478331B78DBB22C
:10754000012B0DD1FA7921491346DB009B1A1B014F
:107550000B44E4331A681C4B9B6813441A4A93602B
:10756000FB790133FB71FB79072BDFD9134B002229
:107570001A80124B1B889BB21946144A0B46DB003B
:107580005B1A1B011344E4331B68114A13600B4B55
:107590001B889BB219460D4A0B46DB005B1A1B0188
:1075A000134479331B78DBB2002B02D0094B012244
:1075B0001A7000BF0837BD4680BD00BF089200109A
:1075C000E0910010DC9100107CA60010D09C00100F
:1075D000D8910010F291001080B483B000AF002366
:1075E000FB710023FB7149E0FA7928491346DB005F
:1075F0009B1A1B010B4478331B78DBB2012B3AD169
:10760000FA7922491346DB009B1A1B010B44DE3337
:107610001B78DBB29AB21E4B5A80FA791B4913468B
:10762000DB009B1A1B010B44E0331B68184A5360B4
:10763000FA7916491346DB009B1A1B010B44E4330D
:107640001B68134A9360FA7910491346DB009B1AB2
:107650001B010B44DD331B78DAB20D4B1A70FA793B
:107660000A491346DB009B1A1B010B44DF331B78CE
:10767000DAB2074B5A70FB790133FB71FB79072BA8
:10768000B2D900BF0C37BD4680BC7047D09C0010FB
:107690007CA6001080B400AF4E4B1B78DBB20C2BE5
:1076A00005D04C4B1B78DBB2132B40F08E804A4B3D
:1076B0001B78DBB2002B00F08880484B1B68002B46
:1076C00040F08380464B1B78DBB203F00403002BB1
:1076D0007BD1444B1B889BB2062B76D8414B1B8831
:1076E0009BB21946404A0B46DB005B1A1B01134450
:1076F00079331B78DBB2002B02D03C4B01221A708D
:107700003A4B1B78DBB2002B5FD1364B1B889BB208
:1077100001339AB2334B1A80324B1B889BB2194605
:10772000314A0B46DB005B1A1B01134478331B788C
:10773000DBB2012B49D12B4B1B889BB219462A4A3D
:107740000B46DB005B1A1B011344E4331B68234A1E
:107750001360244B1B889BB21946234A0B46DB005F
:107760005B1A1B011344DE331B78DBB29AB2204B49
:107770005A801C4B1B889BB219461B4A0B46DB00E8
:107780005B1A1B011344E0331B68194A5360154B05
:107790001B889BB21946144A0B46DB005B1A1B017F
:1077A0001344DD331B78DAB2114B1A700D4B1B8872
:1077B0009BB219460C4A0B46DB005B1A1B011344B3
:1077C000DF331B78DAB20A4B5A7000BFBD4680BC6B
:1077D000704700BFEC930010F4910010D891001096
:1077E000E491001008920010D09C0010F29100105B
:1077F0007CA6001080B400AF1E4B1B78DBB2002BC0
:107800002FD11D4B5B889BB2002B05D11B4A1388DF
:107810006FF30003138029E0194B1B78DBB2194684
:10782000154B5B889BB2174AA2FB0323DB089BB274
:107830001A46154B9B5CDBB21A466FF0090303FB3B
:1078400002F303F59673994205DC0C4A138843F062
:10785000010313800AE0094A13886FF300031380C1
:1078600004E0064A13886FF30003138000BFBD468F
:1078700080BC7047D80F00107CA60010F8F9F8A063
:10788000EE910010CDCCCCCCDC0F001080B483B0D6
:1078900000AF00237B600023FB700023BB70504BC4
:1078A0001B78DBB2002B0AD14E4B5B687B604D4BE3
:1078B0005B78FB704B4B5B889BB2BB7006E04A4B1E
:1078C0001B687B606423FB700023BB70474B1B78F5
:1078D000DBB21946FB78C3F16403642202FB03F3B5
:1078E000434A82FB03025211DB17D31A013B994230
:1078F00019DA404A13886FF3C3031380BB78002B57
:1079000054D03D4B5A687B68013B9A4205DA394AAC
:10791000138843F00403138048E0364A13886FF35A
:107920008203138042E0314B1B78DBB21946FB78AF
:10793000C3F16403642202FB03F32D4A82FB0302BA
:107940005211DB17D31A99420ADA2A4A13886FF3C5
:1079500082031380274A13886FF3C303138025E043
:10796000224B1B78DBB2622B16D8224A13886FF3A6
:1079700082031380204B9A687B68013B9A4205DAA8
:107980001C4A138843F0080313800FE0194A138838
:107990006FF3C303138009E0164A13886FF3820361
:1079A0001380144A13886FF3C3031380BB78002B32
:1079B00010D1114B5A687B68013B9A4205DA0D4A97
:1079C000138843F00403138004E00A4A13886FF31A
:1079D0008203138000BF0C37BD4680BC704700BFD8
:1079E000D80F00107CA600109CA60010EF9100108C
:1079F0001F85EB51F8F9F8A0E8A5001080B400AF9E
:107A0000194B9A68194B1B689A4229D8184B1B7856
:107A1000DBB203F00403002B22D1164B1B78DBB240
:107A2000002B1DD0124B1B78DBB243F00403DAB2FB
:107A30000F4B1A70104B01221A700D4B1B78DBB2E2
:107A400003F00403002B0BD00C4B1B78DBB2132B81
:107A500003D10B4B61221A7002E0094B0E221A70FF
:107A600000BFBD4680BC70477CA60010DC910010B2
:107A7000E4910010F49100109E910010EC9300101E
:107A8000A491001080B58AB00AAF184B1B78DBB206
:107A9000002B0ED000220021154831F091FE154830
:107AA0002FF073FF14482FF070FF14482FF06DFF74
:107AB00019E000230893002307930223069302236F
:107AC00005930F4B04930F4B03930E4B02930D4BF7
:107AD00001930D4B00934FF4F0734FF44872002163
:107AE0000020FCF72FFB00BFBD4680BD00940010B6
:107AF000147A2AA1AF6E7200FEFEFE007E162D00E3
:107B00003C6905001F634100845B050080B500AF40
:107B1000074B1B78DBB29BB21A46064906482AF08F
:107B2000B2FE00F00BF800F019FE00BF80BD00BFF0
:107B3000F091001040A50010885B050080B582B070
:107B400000AF0023FB710023BB719E4B9E4A4FF494
:107B500000719E4836F04EFC9D4B1B889BB21A4626
:107B60009C499A482AF08FFE9B4B1B78DBB2052B71
:107B700004D0994B1B78DBB2062B11D1954BDB6FF0
:107B8000002B02D0012B05D00AE0944B9B68944A4D
:107B9000136005E0914BD3F84C31914A136000BF5C
:107BA000904B1B78DBB2002B40F0FC80894BDB6FE5
:107BB000DAB28D4B1A704FF47E7200218B4835F08B
:107BC00062FE0C2200218A4835F05DFE8749894813
:107BD0002AF0D1FA0346BB71BB79002B40F0B88084
:107BE0000023FB715DE0FA7980491346DB009B1AA4
:107BF0001B010B4478331B78DBB2012B4ED0FA7992
:107C00001346DB009B1A1B017833784A1344702219
