:020000040000FA
:100000005828001099010000A1010000A301000080
:10001000A5010000A7010000A901000000000000E8
:10002000000000000000000000000000AB01000024
:10003000AD01000000000000AF010000B1010000B0
:10004000B3010000B3010000B3010000B3010000E0
:10005000B3010000B3010000B3010000B3010000D0
:10006000B3010000B3010000B3010000B3010000C0
:10007000B3010000B3010000B3010000B3010000B0
:10008000B3010000B3010000B3010000B3010000A0
:10009000B3010000B3010000B3010000B301000090
:1000A000B3010000B3010000B3010000B301000080
:1000B000B3010000B3010000B3010000B301000070
:1000C000B3010000B3010000B3010000B301000060
:1000D000B3010000B3010000B3010000B301000050
:1000E000B301000000F002F800F042F80AA090E826
:1000F000000C82448344AAF10107DA4501D100F0E3
:1001000037F8AFF2090EBAE80F0013F0010F18BF6D
:10011000FB1A43F001031847EC5200000C53000097
:10012000103A24BF78C878C1FAD8520724BF30C823
:1001300030C144BF04680C607047000000230024F5
:1001400000250026103A28BF78C1FBD8520728BFE7
:1001500030C148BF0B6070471FB59DE8030001F038
:100160008FFB01F0F7FC1FBD10B501F05CFD10BD69
:1001700001F090FD1146FFF7EFFF00F076F901F076
:1001800095FE03B4FFF7F0FF03BC00F0F4FC0000A1
:10019000D0F800D0D0F804F009488047094800475B
:1001A000FEE7FEE7FEE7FEE7FEE7FEE7FEE7FEE727
:1001B000FEE7FEE704480549054A064B7047000084
:1001C0003D070000E5000000581C001058280010F2
:1001D00058240010582400102E4903F063BE2D4906
:1001E00004F014B82B4B03F0CDBF2A4B04F01BB81E
:1001F000284903F089BF274A03F041BE2648082159
:10020000244AC160A0F5A05181602449416024497D
:10021000D1600021416101827047002070470020B9
:100220007047002070470020704700207047002072
:100230007047002070470020704700207047002062
:1002400070470020704770470020704700207047BB
:100250000020704700207047012070470120704740
:100260000020704700207047002070470120704731
:10027000FF20704701207047002070470020704722
:100280000020704700207047012070470020704711
:1002900001207047CC1A001048190010DC4E0000F5
:1002A000FC4E0000704700000FB41CB50C0007AAFC
:1002B000009001D02044401E074B7B4469460190CA
:1002C000069801F006FA002C03D06946002000F0E1
:1002D00010F81CBC5DF814FB3B14000002F0FF0397
:1002E00043EA032242EA024201F010B97047704724
:1002F00070470A6802F8010B0A607047FFFFFFFFB2
:1003000042F6E061484300E0401E0028FCD17047FF
:100310002DE9F041054601B901214FF000764FF477
:10032000FA70771001FB00F4002D1CD00122314639
:10033000002000F047FD01223946002000F042FD78
:100340002046FFF7DDFF00223146104600F03AFD5F
:1003500000223946104600F035FD2046FFF7D0FF59
:100360006D1EEDB2E0E7BDE8F08110B500221BE0A4
:10037000835C9C0702D523F0020301E043F00203F3
:100380008354DBB25C0702D523F0040301E043F0A1
:1003900004038354DBB29C0602D523F0200301E062
:1003A00043F020038354521C8A42E1DB10BD2DE947
:1003B000FC414FF4F025284600F0B0FE04464FF40F
:1003C000C046304600F0AAFE214600F007FE10B1FC
:1003D0000120BDE8FC81284600F0A0FE0546344619
:1003E000304600F09BFE294600F020FE08B10220B6
:1003F000EFE7664E00221146306800F0D7FE204637
:1004000000F08CFE4FF48065014600F0E7FD08B176
:100410000320DEE701220021306800F0C7FEFF2242
:1004200029465B48FFF75AFF2A460121584833689E
:1004300001F092FC07462A465549204600F0E1FDAE
:1004400008B10420C5E76B462A465149204600F012
:1004500041FE08B10520BCE704F58064204600F0A9
:100460005DFEAF42D0D20020B3E7F0B5002299B0D4
:100470000A241921104600F08BFB012251060020AE
:1004800000F082FC00221821104600F081FB0122BE
:100490001106002000F078FC3C4E012070603DA069
:1004A00003F02EF870B10A20FFF72AFF641E002C1B
:1004B000F5D105210220FFF72BFF00F024FE19B033
:1004C0000020F0BD34A223210AA8FFF7EDFE38A1D9
:1004D0000AA800F036FF050011D003460A220121C8
:1004E00014A801F039FC284600F052FF092114A895
:1004F000FFF73BFF2FA114A801F050F8706030A265
:1005000023216846FFF7D0FE29A1684600F019FFB5
:10051000306008B17068B8B14FF4C047384600F099
:10052000FDFD0546384600F0F9FD17AA294600F002
:1005300094FD082805D005215FF00300FFF7E8FED1
:100540000CE001210846F9E7FFF731FF48B105212A
:100550000420FFF7DDFE306800F01AFF00F0D3FD45
:10056000A5E701210220FFF7D3FE306800F010FF5D
:100570000AA802F02DFF684602F02AFF17A002F039
:1005800027FF19A002F024FFE8E700000000001098
:10059000280000104D303A005550444154455C420B
:1005A000494E5C434845434B2E44415400000000F3
:1005B00072000000434845434B2E44415400000064
:1005C0005550444154455C42494E5C434C49454E6C
:1005D00054434F44452E42494E000000555044417B
:1005E00054455C42494E5C005550444154455C00C2
:1005F000784810B5D0F804114FF00002CB057649C9
:100600001FD4D0F80C31DC07744B03D0D0F8A041D4
:10061000640622D5D0F80441E40605D0D0F80441A0
:1006200004F01F04B3FBF4F40C60D0F8A841E40616
:1006300005D0D0F8A84104F01F04B3FBF4F44C60DB
:100640002BE0D0F88830DB0507D5D0F80C31DB077C
:100650003BD0D0F8A0315B0637D40A604A608A608C
:1006600024E00B60D0F8A831DB060CD0D0F888303D
:100670005A4C03F01F035B1C6343D0F8A84104F0FD
:100680001F04B3FBF4F34B60D0F88830534C03F0F5
:100690001F0303F1010303FB04F3D0F8004104F04E
:1006A000010404F10104B3FBF4F38B60D0F80831CA
:1006B000DB05D0F808312ED513F01F0303D0042B2F
:1006C00015D0062B13D0CA6010BDD0F80431DB065C
:1006D000C7D0D0F88830414C03F01F035B1C634344
:1006E000D0F8044104F01F04B3FBF4F3B9E7D0F8E9
:1006F0000C214FEAC272D0F88820384B02F01F025A
:1007000002F10102D0F8080102FB03F200F01F0021
:10071000B2FBF0F008E09B05D5D5D0F80C21D2074C
:1007200004D0D0F8A80003E0C86010BDD0F888005D
:100730002A4A00F01F00401C5043F5E7254810B539
:100740002121C0F8A01100BFD0F8A0114906FBD5A7
:1007500000F180000121C0F88C104FF009024260C6
:1007600001604FF0AA02C2604FF05503C360A0F1D0
:10077000800000BFD0F888406405FBD500F1A000E0
:10078000232444600160C260C360A0F1A00000BFE8
:10079000D0F8A8205205FBD58C3040F201128267B8
:1007A00040F20122C26741670221C0F81C110C49C6
:1007B00081635110C0F83C11D0F8241141F00301BD
:1007C000C0F8241145F23A0140F88C1C054900207C
:1007D000086010BD00C00F4008000010001BB700EB
:1007E000DE87280408ED00E000EB4000C00000E0D8
:1007F000401E0028FCD17047994A10B5106840F09F
:1008000040501060974840F2022101604160C16091
:100810000161416141628162902140F86C1C924803
:10082000016821F080010160904C0020E060E062EE
:1008300040F2FF70A063D2F8DC0020F00800C2F89C
:10084000DC000220206042F21070FFF7CDFF20682C
:1008500040F001002060012010BD844800210160AB
:10086000C160C16240F2FF7181637E483021016046
:100870004160C1600161416141628162A02140F833
:100880006C1C7748016821F080510160012070479D
:10089000764918B1012805D000207047086840F05B
:1008A000400002E0086820F0400008600120704726
:1008B0006E49012803D0042805D0002070474868FD
:1008C00020F4006002E0486840F4006048600120C5
:1008D000704747F22F510144B1FBF0F018B1401EB0
:1008E000FF2800D9FF2061494A6822F0FF02024335
:1008F00042F4807048600120704730B500F03F043A
:1009000044F48065012A02D0022A05D102E045F0B4
:10091000400501E045F0C00554488160C56032B92A
:10092000416B0905FCD440F2FF7181632EE0416BFD
:100930004D0703D5C1F30A0181631BE0CD070BD03E
:10094000C1F30A018163012C03D0292C01D00C2CA6
:1009500010D10021C16004E04D06E8D5C1F30A01C1
:100960008163016901F03F01A14205D00169C943DA
:10097000890601D0002030BD41691960022A05D1E5
:1009800081695960C1699960006AD860012030BDF1
:10099000364B374A803378B1C2F80011C2F80431BF
:1009A0003448C2F80C0142F6410000BFC2F8100101
:1009B0000120906010637047C2F80031C2F8041142
:1009C0002D48C2F80C0143F20300EFE710B5274CA5
:1009D0002A4860625002A0620020FFF7D9FF9B20E6
:1009E000E062274822494A69D20701D0012010BDA0
:1009F000401EF8D110BD2DE9F04116460F460025E6
:100A00001A4C27E01F4860624FF40070A06239461C
:100A10000120FFF7BDFF9920E062194814494A6997
:100A2000D2070ED050B1012E16D04FF4A061606BEA
:100A3000884209D0606B10F00A0FF8D00020BDE8A2
:100A4000F081401EEBD1F9E70120401EFDD107F5F2
:100A500000776D1CB542D5D30120F0E70120704727
:100A6000C4C00F4088C002400080092000000C4034
:100A7000000008208020498480204988A025260085
:100A80008096980020BCBE007047002800DA002045
:100A90007047704770B50C46054637A100F07EFDE3
:100AA00078B137A1284600F079FD68B136A1284613
:100AB00000F074FD58B121462846BDE8704001F0B1
:100AC0000BBB48F2010070BD48F2020070BD48F255
:100AD000030070BDB0F5004F01DD0020704701F04C
:100AE0008DBAA0F50043023B04D10AB1521EFCE7C7
:100AF00000207047B0F5004F02DD4FF0FF30704727
:100B000001F022BC10B548F20103984208D12AB185
:100B1000FFF7BBFF01F8010B521EF8E7002010BDE4
:100B2000B0F5004F02DD4FF0FF3010BDBDE81040C2
:100B300001F0B6BBB0F5004F01DD01207047002089
:100B40007047B0F5004F02DD4FF0FF30704701F005
:100B5000D7BBB0F5004F02DD4FF0FF30704701F01A
:100B600077BAB0F5004F01DD0020704701F094BA6C
:100B7000012070477047FEE7535444494E0000007F
:100B80005354444F555400005354444552520000AE
:100B900010B5144600F0A8F8017801F007012143D0
:100BA000016010BD10B5144600F09EF8016821F0F8
:100BB00018012143016010BD10B5144600F094F8EF
:100BC00001681CB141F02001016010BD21F020013D
:100BD000FAE710B5144600F087F801681CB141F03F
:100BE0004001016010BD21F04001FAE710B5144644
:100BF00000F07AF801681CB141F08001016010BD7D
:100C000021F08001FAE710B5144600F06DF8016894
:100C100021F4407141EA0421016010BD10B5144671
:100C200000F062F801681CB141F48061016010BD00
:100C300021F48061FAE710B51446002210B10128B2
:100C400010D011E00C2919D00D2906D000221A2944
:100C50000AD8172903D3012302E00122F7E7002372
:100C60001A4301E01E2903D000231A4306D101E0F4
:100C70000123FAE701280CD11F290AD100F034F82A
:100C80000168002C21F08001016002D141F0800157
:100C9000016010BD10B5144600280CD11A290AD1E4
:100CA00000F022F80168002C21F48031016002D0AC
:100CB00041F48031016010BD10B51446002812D1F6
:100CC000072903D0082901D009290CD100F00CF81C
:100CD0000168002C21F4807141F08001016002D193
:100CE00041F48071016010BD01EB4010014901EB3E
:100CF0008000704700C0024001460020052905D24F
:100D0000DFE801F00305080B0E00B2487047B14858
:100D100020307047AF4840307047AE486030704771
:100D2000AC488030704701460020062905D2DFE834
:100D300001F00305080B0E11A6487047A5482030A6
:100D40007047A44840307047A24860307047A148BF
:100D5000803070479F48A030704701460020052929
:100D600005D2DFE801F00305080B0E009948704733
:100D70009848203070479748403070479548603019
:100D8000704794488030704770B515460C46FFF7A1
:100D9000B3FF002805D001680DB1214300E0A14355
:100DA000016070BD10B50C46FFF7A6FF002800D00B
:100DB000846110BD10B50C46FFF79EFF002800D0DF
:100DC000C46110BD02B1EDE7F4E710B5FFF794FF81
:100DD000002800D0406910BD10B57F4B50EA0204D6
:100DE00003D0022804D050B10BE0C3F8901010BD1E
:100DF00012B1012A09D004E0C3F8B01010BD012AD5
:100E000000D0FEE7C3F8941010BDC3F8B41010BDB5
:100E100010B5714B50EA020403D0022804D050B13F
:100E20000BE0D3F884000EE012B1012A09D004E0EF
:100E3000D3F8A40007E0012A00D0FEE7D3F8880029
:100E400001E0D3F8A800C84000F0010010BD624ADC
:100E500010B1022803D0FEE7C2F88C107047C2F828
:100E6000AC10704790E79DE7A4E7AEE7B4E7CFE7A3
:100E7000EDE770B515460C46FFF73EFF002805D09C
:100E800001690DB1214300E0A143016170BD70B55E
:100E90001E4614460D46FFF746FF00280BD036B11C
:100EA00015B14188214305E00188214306E01DB1C9
:100EB0004188A143418070BD0188A143018070BD7C
:100EC00070B51E4614460D46FFF72DFF00280BD0C7
:100ED00036B115B1418A214305E0018A214306E07C
:100EE0001DB1418AA143418270BD018AA1430182A3
:100EF00070BD70B514460D46FFF715FF002801D0F0
:100F00000DB1448370BD048370BD70B514460D46A9
:100F1000FFF709FF002801D00DB1C48370BD8483A1
:100F200070BD10B50C46FFF7FEFE002801D00CB1D5
:100F3000C08A10BD808A10BD70B51E4615460C468D
:100F4000FFF70BFF00280AD026B1032C07D8015D5C
:100F5000294303E0032C02D8015DA943015570BD6C
:100F600070B51E4615460C46FFF7F7FE00280CD05C
:100F70002EB1032C09D82044017C294304E0032C22
:100F800003D82044017CA943017470BD70B5154697
:100F90000C46FFF7E2FE002803D0032C01D82044C2
:100FA000057670BD70B515460C46FFF7D6FE0028D5
:100FB00003D0032C01D82044057770BD10B50C4632
:100FC000FFF7CBFE20B1032C02D82044007D10BDDA
:100FD000002010BD008009200080024010B5814231
:100FE00001D20C2010BD4A4A32231360C2E901012C
:100FF00002F114011046474A9047454814300068F2
:1010000010BD10B572B63324414B03F1040C1C60C3
:10101000ACE80700404818613E4A03F11401184645
:10102000904762B63A481430006810BD10B581424E
:1010300001D20C2010BD72B63423354A1360C2E9C8
:1010400001013548D06002F114011046314A904741
:1010500062B62F481430006810BD10B514468142A6
:1010600001D20C2010BD2A4A35231360C2E90101C8
:1010700002F114011046274A9047254814300168B0
:10108000082902D1216041686160006810BD10B577
:101090001F490446362008601E4A14311C489047F8
:1010A0001B48143041682160006810BD70B50C46C3
:1010B0001749054637200860164A143114489047EE
:1010C000134A14329088C0F30720286010792060FA
:1010D000106870BD70B50E4C1D46382308C407C497
:1010E0000C4A211D0A489047201D01680A2901D198
:1010F00041682960006870BD05493920054A0860CB
:101100001431034810474FF4C040FFF741B80000C6
:10111000DC1A0010F11FFF1FC0D40100F0B500223F
:101120002149850A13460EE04E78AC1A06FB00F7FB
:10113000A74204D9F0B2B4FBF0F01844F0BD06FBAE
:1011400000220344C91C08780028EDD1401EF0BDE0
:10115000154905E0824201D948787047801AC91CB8
:101160000A78002AF6D1501E704770B505004FF07E
:10117000FF360ED00B46002407E01846FFF7E8FFC5
:10118000411C06D004EB80245B1CAC42F5D3581EF6
:1011900070BD304670BD04490020097800E0084465
:1011A0000029FCD1401E70473C4F00002DE9F04162
:1011B000044616460D464769007B80072ED0384608
:1011C000FFF7B8FC50BB3EB3012E02D0022E25D152
:1011D00004E0204600F098FA05441DE03846FFF789
:1011E000C0FCE168002841F01001E16005DA20460A
:1011F00000F0AEFA0120BDE8F081C9030BD56268AA
:10120000E16A914200D81146A26911442269891A03
:10121000814200DD08460544002D01DA0220EAE79C
:10122000E16A6068E268814206D29103E06203D518
:1012300022F4003141F01002A6690027AE4213DC0F
:10124000E16A814201D90B4600E0034603EB060C3C
:101250002369ACEB030CAC4506DD814201D98C4619
:1012600000E084469C4505D1A760276042F020003D
:10127000A5620DE0AD1BE669AE1B8142A66000D9F8
:101280000846C01A281A20605819606022F0200011
:1012900003490840E060002084F84870ABE7000094
:1012A000BFCFD7FF2DE9F0410C4607461646104642
:1012B00000F06EF82078611C61280AD0722802D0F4
:1012C00077283CD102E00125002405E00225042412
:1012D00002E0082448F2020511F8010B2B2806D081
:1012E000622809D011F8010C74280AD00BE045F0EF
:1012F000030544F00204EFE745F0040544F001045F
:10130000EAE744F0100438462146FFF7C3FB411CCE
:1013100015D00021316171604FF40071F560F16109
:101320007061200704D5304602220021FFF73EFFFE
:10133000306D40F0010030653046BDE8F08100209E
:10134000FBE72DE9F0410D460646104C206DC10724
:1013500004D0410804D020F00104F7E722460EE053
:10136000542000F05BF907000ED0206D47F001011A
:10137000084354212065384600F0E8F83A462946EB
:101380003046BDE8F0418DE70020D6E7FC1A00109A
:101390002DE9F04704464FF000094FF0FF37C568CC
:1013A000D4E90486A80707D0204600F005FA3046A5
:1013B000FFF790FB002802DA3846BDE8F0872805E1
:1013C00002D5404600F059F94C21204600F0BEF805
:1013D000206D20F0010020654846EEE710B5431C63
:1013E00002E010F8011B71B18107FAD14FF0013210
:1013F00002C88C1A8C4314EAC211F9D0C01A0A062A
:1014000003D0C01E10BDC01A10BD0A0401D0801E3A
:1014100010BD0902FCD0401E10BD032A40F23080EE
:1014200010F0030C00F0158011F8013BBCF1020F25
:10143000624498BF11F801CB00F8013B38BF11F8A6
:10144000013BA2F1040298BF00F801CB38BF00F8BD
:10145000013B11F0030300F02580083AC0F008803A
:1014600051F8043B083A51F804CBA0E80810F5E71E
:10147000121D5CBF51F8043B40F8043BAFF3008001
:10148000D20724BF11F8013B11F801CB48BF11F876
:10149000012B24BF00F8013B00F801CB48BF00F846
:1014A000012B704710B5203AC0F00B80B1E81850FE
:1014B000203AA0E81850B1E81850A0E81850BFF43E
:1014C000F5AF5FEA027C24BFB1E81850A0E81850DD
:1014D00044BF18C918C0BDE810405FEA827C24BF31
:1014E00051F8043B40F8043B08BF7047D20728BFBF
:1014F00031F8023B48BF11F8012B28BF20F8023B0E
:1015000048BF00F8012B70474FF000020429C0F0DB
:10151000128010F0030C00F01B80CCF1040CBCF125
:10152000020F18BF00F8012BA8BF20F8022BA1EB77
:101530000C0100F00DB85FEAC17C24BF00F8012B5C
:1015400000F8012B48BF00F8012B70474FF0000254
:1015500000B5134694469646203922BFA0E80C50A9
:10156000A0E80C50B1F12001BFF4F7AF090728BF84
:10157000A0E80C5048BF0CC05DF804EB890028BF00
:1015800040F8042B08BF704748BF20F8022B11F029
:10159000804F18BF00F8012B704700004FF0013C4E
:1015A00050F8042B51F8043B9A4221D1A2EB0C03D2
:1015B000934313EACC1317D150F8042B51F8043B92
:1015C0009A4215D1A2EB0C03934313EACC130BD12F
:1015D00050F8042B51F8043B9A4209D1A2EB0C03BA
:1015E000934313EACC13DBD04FF00000704700BFE9
:1015F000D01A01BAB1FA81F101F0180122FA01F012
:10160000CB40C1F12001DBB2C0B2C01A2CFA01F309
:10161000D11A914311EAC311E6D1704770B506465D
:1016200000F00EF9056806F10B0020F00704B44243
:101630009CBF002070BD2B466A68BAB11068A042FA
:1016400010D304F1080188423CBF5068586007D3AA
:101650005168101941601168091B016058601460DD
:10166000101D70BD13465268002AE7D12146284656
:1016700000F0F2F80028DED170BD70B50446051FF9
:1016800000F0DEF80068002C14BF446870BD002C28
:1016900018BFAC423CBF20466468F8D301680A1802
:1016A000AA4218BF456003D12A680546114401606B
:1016B00028684119A1421CBF6C6070BD61686960F7
:1016C00021680844286070BD01694A1C02610878DD
:1016D000704700B58FB0CDE9013100210591054972
:1016E0007944CDE903101146684600F0FFF80FB0C9
:1016F00000BD0000E5FFFFFFD1E900239A4202D2BE
:10170000531C0B601070704710B50146C2689007FB
:1017100003D0900607D5886A0BE000F095F8012108
:101720000160881E10BD8B69486818440B69A0EBE6
:10173000030091F8483023B191F84910A0EB010063
:1017400010BD1103FCD50028FADD401E10BD0000BD
:10175000C16821F4001141F08001C1600021816065
:10176000016070472DE9F047814614460E464FF060
:10177000FF383248D5685769054209D03846A16913
:10178000FFF7DFF9002811DB2C48C0430540E56076
:101790002B46324649463846FFF7A3F9A16920F0A7
:1017A0000042B21A11440028A16103D02046FFF77D
:1017B000CFFF4046BDE8F08770B504460569C06AB2
:1017C0006168884200D80846E16821F42011E16090
:1017D000C90312D5A84208D02246411B2846FFF76C
:1017E000C1FF10B14FF0FF3070BD0020E562C4E9C9
:1017F0000150E06820F48030E060002070BD10B53A
:101800000446C06820F02000E060A16AA069884218
:101810000DD02046FFF7D0FFE06820F4405040F0A4
:101820001000E060A06AA0612069E062606044F29C
:101830004001E0688843E06010BD00001000020035
:1018400000487047001C001000487047F81B00104B
:10185000704770477047704738B504460A46002005
:101860006946AFF30080002808BF38BD02460099E2
:10187000204600F034FA012038BD012000F023BBDF
:10188000F8B5AFF30080054600200C46102000BFDD
:101890000646A819A0420DD9324669460020AFF38A
:1018A0000080070008BF00F00EFB0098A04218BFA0
:1018B0000546C419FFF7C4FF05600746F01D20F078
:1018C00007004619284600F00AF8B44208BFF8BDE0
:1018D000A21B31463868BDE8F84000F000BA00218C
:1018E0000160C0E901107047102070472DE9F041F8
:1018F00006460024D6E90170F568804602E04146BC
:10190000B847641C3046A8470028F8D12046BDE8F7
:10191000F08170B50D4601461446D36850692A46D9
:10192000FFF7F0F8002807DA411C07D0E16820F043
:10193000004041F48041E160281A70BD2046FFF765
:1019400007FF4FF0FF3070BDC1680022026021F434
:10195000805141F0400111F4C06FC16001D082603C
:10196000704702694168891AC269891A81607047A3
:101970002DE9F0470446C06840F48000E0600103B0
:1019800013D520F40020E060810607D4E26A616884
:101990008A4200D80A46A2EB0101216040F40010FF
:1019A000E06094F82500BDE8F08720F40010E060C6
:1019B000800602D52046FFF722FFE06842F281014F
:1019C0004FF0FF390140012903D02046FFF7C0FE48
:1019D000B8E02168002600290ADAC94340F48050A3
:1019E0002160C4E902606068411C61600078DAE748
:1019F00044F2400108420ED020F4A04040F04000E4
:101A00002660E06021696068A0EB0100E169A0EB5D
:101A10000100A06096E0216991B9C00310D4E0698B
:101A2000FFF7FCFD2061B0B1E06840F4006010F405
:101A3000407FE06002D140F48070E0602069606027
:101A4000E068D4F814A0C1061AD5C0030ED520460C
:101A5000FFF7B2FE14E004F1240020610120E061F0
:101A6000E06820F4407040F48060E6E72169606837
:101A7000401AA16901445046FFF763F80028A4DB2F
:101A8000E068C0032AD56168E06A884200D8084649
:101A90002169451AE069471B1BD02046D4F81880FD
:101AA000FFF78AFE08EB05015046C4F81880FFF7DF
:101AB00048F8002889DBE06840F40030E06000026C
:101AC00002D5A0692844A061E1692069C91B4518B5
:101AD0000DE02046FFF770FEE769F5E725696168CC
:101AE000D4E90607491BE56208446560A061E06827
:101AF00020F0100010F4C06FE06002D0204600F02B
:101B0000B9F9E06840F48050C4E90260000205D5EC
:101B10002069E06260606FF0010044E722463946C8
:101B20002846FFF7F6FE411C0CD02918E16258B197
:101B3000401E2060681C6060E06840F40030E06097
:101B4000287830E748462EE765602046FFF7FCFE20
:101B5000F8E7000010B542485421FFF7F7FC414870
:101B60005421FFF7F3FC40485421FFF7EFFC3F49B5
:101B70003B483C4A3F4B08603D490A603A4919607E
:101B8000531C0365481C1065012008653B48344A16
:101B900039A17844FFF786FB20B9384878440A38E1
:101BA00000F08AF937482F4A35A17844FFF77AFBCD
:101BB00020B9344878440A3800F07EF932482A4A7D
:101BC0002FA17844FFF76EFB20B92F4878440A38DC
:101BD00000F072F940232248DC000021224600F088
:101BE00098F820B125487844543800F065F91D482C
:101BF00022464023002100F08CF820B1214878448F
:101C0000543800F059F9184822461023002100F0FA
:101C100080F8002806D01C487844BDE810405638AB
:101C200000F04AB910BD104870B5006D20F00104F5
:101C30000B48FFF7ADFB0B48FFF7AAFB0A48FFF77D
:101C4000A7FB09E0206D20F001052046FFF7A0FB6F
:101C50002046FFF712FD2C46002CF3D170BD00008A
:101C6000FC1A0010501B0010A41B00101C000010D8
:101C700020000010240000107200000092330000C9
:101C800077000000803300006F3300000048704789
:101C9000F81B00107546FFF7F9FFAE4605006946D0
:101CA000534620F00700854618B020B5FEF782FAAB
:101CB000BDE820404FF000064FF000074FF000084D
:101CC0004FF0000B21F00701AC46ACE8C009ACE8CE
:101CD000C009ACE8C009ACE8C0098D4670470346AE
:101CE00040688C46002818BF88423CBF03464068C5
:101CF000F8D318681844884207D00CF1030020F08C
:101D00000700001D411A521A0146081D0A60FFF71C
:101D1000B4BC70B5C468A50713D0650211D4B2F580
:101D2000807F09D0B2F5007F06D0B2F5806F08D170
:101D3000012300F1240106E05D1E6FF07F46B542ED
:101D400001D3012070BD0161C361416024F4706161
:101D50001143C160002070BD2DE9FF5F1C468B461A
:101D60000646080068D000250299284627680BFB24
:101D700001F965E0002F65DCE069484541DABAF118
:101D8000000F3ED0207B800601D5A06A04E0A16947
:101D9000606808442169401A2246A9EB0501804683
:101DA0003046FFF7B6FD002814DD4FF000078044F1
:101DB000A8F101010644A161226916F8011C05443D
:101DC0001170216901F10101E1626160E16841F492
:101DD0000031E160411C03D010B1207B400644D5A6
:101DE0002046FFF7B1FDC4F8188020696060E0620A
:101DF000E068276020F40030E060E0694042A060C5
:101E000018E0484503DAE06840F40000E06020464E
:101E1000FFF7AEFDE16821F40001E160411C08D04C
:101E2000811C0CD02768002809DB6D1C06F8010B0B
:101E30001BE02760B5FBFBF004B0BDE8F09F01207C
:101E4000824612E0A9EB0500B846B84200DA8046A7
:101E5000304642466168FFF7E0FA6168A7EB080781
:101E6000464401EB0800454460604D4582DB276035
:101E70000298E1E770B5054640F202260A4C0FE0F1
:101E800094F85000C00708D0AC4206D0E06836EAAB
:101E9000000002D1204600F01DF8206D20F0010462
:101EA000002CEDD170BD0000FC1A00100446AFF309
:101EB00000802046FEF765F910B500F043F8BDE854
:101EC000104000F039B810B500F056F8BDE81040E9
:101ED00000F032B870B50446C068810713D08006A0
:101EE00001D5A56A04E0A169606808442169451A22
:101EF0002046FFF761FC0022064629462046FFF7F0
:101F000055F9304670BD002070BD70B510B1BDE808
:101F10007040DFE70025074C6E1E07E02046FFF704
:101F2000D9FF00B13546206D20F00104002CF5D119
:101F3000284670BDFC1A0010002801D0FEF71BBE19
:101F40007047000010B5014602A000F03DF80120E6
:101F500010BD000053494752545245443A2052653F
:101F60006469726563743A2063616E2774206F70D0
:101F7000656E3A200000000010B5012805D0002150
:101F800003A000F021F8012010BD09A1F8E700002E
:101F900053494752544D454D3A204F7574206F6652
:101FA0002068656170206D656D6F727900000000BA
:101FB0003A2048656170206D656D6F727920636F9E
:101FC000727275707465640070B505460C460A201F
:101FD00000E06D1CFEF75DFD35B128780028F8D1D2
:101FE00002E0641CFEF755FD14B120780028F8D1FA
:101FF000BDE870400A20FEF74CBD000070B50446F5
:102000001148AFF30080114904EBC40001EB8004D8
:10201000002520886E1E8107002906D00ADA800676
:10202000204604D501F0D6F804E0344604E0FEF77B
:1020300000F930B1258000240348AFF3008020462A
:1020400070BD2580F1E700000000000028040010AA
:1020500010B504460E48AFF300800E4904EBC400EF
:1020600001EB80004FF0FF3401888A07002A0AD074
:1020700003DB41F01001018005E0890602D4FEF780
:10208000DEF800B100240248AFF30080204610BD06
:10209000000000002804001010B504460C48AFF3FF
:1020A00000800C4904EBC40001EB80042088810708
:1020B00003D0800603D5A46805E0002403E0204691
:1020C000FEF7C1F864680248AFF30080204610BDF7
:1020D00000000000280400102DE9F84306460F46D2
:1020E0006C48AFF30080684601F01EFB04004FF01F
:1020F000FF3525D00146304601F064FB814620695A
:1021000000287ED017F00C0004D004280AD008283C
:1021100077D103E0208840F0010006E0208840F0FD
:1021200004002080208840F00200208017F0060F75
:102130004FF0000605D0484601F0CDFA08B12680E0
:102140005FE02078DFF85081800658D52146484668
:1021500000F069FF0028F2D02146484600F034FE26
:10216000012810D02078C007E9D1207810F0060FA0
:1021700005D02146484600F09FFD0028DFD0B80773
:1021800051D520882BE00021444842461EE00388B8
:102190005FEA837C18D0D0F810C0D4F81080C44512
:1021A00012D1A04210D0B0F816C0B4F81680C445C1
:1021B0000AD1D0F820C0D4F82080C44504D19B07B0
:1021C000BDD423789B07BAD4491C24301388994284
:1021D000DDDB208810F0050F05D0B90723D540F0CE
:1021E0000B0020801FE0800702D5207DC007A6D10C
:1021F0002146484600F090FD0028A0D0B5E7B8077A
:1022000001D52C4610E021464846FEF71DF801286E
:1022100010D02078C00792D1A68221464846FDF70B
:10222000FEFF00288BD0009C1A48AFF300802046A8
:10223000BDE8F88300211948424615E003889F074E
:1022400010D00769D4F810C067450BD1A04209D05F
:10225000878AB4F814C0674504D19B07B0D42378AB
:102260009B07ADD4491C243013889942E6DB2088B3
:10227000410703D52046FDF7E6FFD4E7C00702D0AB
:10228000E0692062CFE72046FDF7CBFF0028B4D0FD
:10229000C2E7000000000000D64E00002804001035
:1022A0002DE9F041074615460E461348AFF300806E
:1022B00045F00044CEB1114907EBC70001EB8000A7
:1022C00001888A0711D001F00F02022A06D0890680
:1022D0002A46314605D500F0D0FE04E04FF0FF3429
:1022E00003E0FDF7A8FF00B12C1A0348AFF300800C
:1022F0002046BDE8F0810000000000002804001026
:1023000070B504460D460E48AFF300800D4904EB4E
:10231000C40001EB80004FF0FF3401888A070AD027
:102320008906294602D500F002FF01E0FDF789FF8A
:10233000012800D100240248AFF30080204670BD80
:1023400000000000280400102DE9F0410746164661
:102350000D461148AFF300804FF0FF34B5B10F497F
:1023600007EBC70001EB800001888A070ED001F05F
:102370000F02012A0AD089063246294602D500F00A
:1023800095FF01E0FDF759FF00B100240248AFF3CB
:1023900000802046BDE8F081000000002804001005
:1023A000FEB50C460546012700F0D5F8012808D1F6
:1023B0002846FFF713F80C300D21B0FBF1F0401C5C
:1023C000C7B22069816E0020FDF75AFF0546E0691B
:1023D00000900020064601902946684601F0CEF89C
:1023E00018B10026022821D024E002A968462269FB
:1023F00001F008F988BB0298007828B1FF2803D0C3
:10240000E52801D000261FE036B921690198A1F81E
:102410007C00216900988867761CF6B2BE4213D111
:102420000198E082009820620120FEBDA86A009019
:10243000E88D01902069816E0420FDF721FF0500E1
:1024400001D0012D00D1002500216846226901F04C
:10245000AEF80028C0D0012801D00020FEBD012226
:102460006946206900F009F80028F7D00099206932
:1024700000F0EEF80028AFD1FEBD2DE9F041164680
:102480000C4607460D6801F0BDFA002818D0384602
:1024900001F0D4F902463846216802F037FC0028E2
:1024A0000ED036B129463846226802F02FFC0028AB
:1024B00006D00021384600F005F8002800D00120A1
:1024C000BDE8F08170B50446806C0D46A8423ED050
:1024D00094F85010012928D166697EB121788906C7
:1024E0000CD5617F022906D0002201463046E36CFC
:1024F000FDF7B8FE14E0218C4218F6E76268E16C43
:10250000D36801229847002820D0607F022809D193
:102510006268218CA06CD3680844E16C0122984762
:10252000002813D0002084F8500085B194F85100A1
:10253000218C6268484328449368E16C01229847E3
:10254000012806D04FF0FF30A064002070BD0120AC
:1025500070BDA564FBE72DE9F04100270446B846AD
:102560003D463E4626E002F0B3FA022827D0207806
:10257000202824D02E2814D0A0F16101192902D9D5
:102580002031192907D8B8F1000F03D088EA0001DB
:10259000890614D480464FB13046761C02280ED8E6
:1025A00006E067B9641C0026012703E0082D06D267
:1025B0006D1C641C20780028D5D10C2D02D301207D
:1025C000BDE8F0810020FBE7012302F005B8000020
:1025D0003EB50446002021690A7F032A00D1086C19
:1025E000E16981421FD00020CDE90110694601A8B0
:1025F000226901F007F8B0B9009A10782E2803D0AC
:1026000098B1E52808D00EE009A11046FEF7C6FFF4
:102610000BA10098FEF7C2FF002101A8226900F07B
:10262000C6FF0028E2D000203EBD01203EBD0000D4
:102630002E2020202020202020202010000000001C
:102640002E2E2020202020202020201000000000FE
:1026500070B5054600F01AF806464FF40071E86DB3
:10266000FEF752FF002406E03119284602F06AFA0C
:1026700000280AD0641CA87FA042F5D80021284673
:1026800002F060FA002800D0012070BD838E8269BC
:102690001A44037F41B1032B01D0C38E1A44807FBB
:1026A000891E01FB00207047032BF8D010467047AD
:1026B0002DE9F0410446007F0025012806D00228BC
:1026C00038D0032857D00020BDE8F08102262CE046
:1026D0003146204601F07CF9804601462046FFF74E
:1026E000F1FE002867D006EB4600C0F34800B0F5C5
:1026F000FF7F04D8E16C084401F011FB0CE0E06CB2
:1027000008F1010190F8FF712046FFF7DBFE88B366
:10271000E06C007847EA0020F10701D0000901E0F1
:10272000C0F30B0000B96D1C761C206B801CB042FE
:10273000CED840E00221204601F04AF90746014682
:102740002046FFF7BFFEA8B102260FE016F0FF0FEC
:1027500005D17F1C39462046FFF7B4FE50B1E06C2E
:10276000F1B230F8110000B96D1C761C206B801C92
:10277000B042EBD81FE00221204601F029F90746BC
:1027800001462046FFF79EFEA8B102260FE0700624
:1027900005D17F1C39462046FFF794FE58B1E06C06
:1027A00006F07F0150F8210000B96D1C761C206BEB
:1027B000801CB042EBD8284686E700002DE9F047A0
:1027C0008CB0994690460C4682460025FFF7C3FE22
:1027D000002866D00127384E29E02069816E00204C
:1027E000FDF74EFD43466A46214606A800F073FEFB
:1027F00028B94246214606A8FFF7E6FE28B1B742AF
:1028000015D900200CB0BDE8F087012502A906A863
:1028100000F098F90028F5D002A801F021FB02464B
:102820002146504600F04AF80028EBD007E03A462F
:102830007F1C06A9504601F093F90128CDD04B46E4
:102840004246214602A800F0BFF80028DAD02069ED
:10285000806EFDF711FD009010B325B1504601F0D8
:1028600035FE009988610098C16902A802F06BF8F2
:1028700001460098C1612169896F41622169B1F8FF
:102880007C108185216A8162E18AC185E1690162EA
:1028900021698A6E0021FDF7F7FCB8F1000F05D021
:1028A00008E002A9504600F04DF9BDE7022100986A
:1028B000FDF7E8FC0120A5E73E420F002DE9FE4FA1
:1028C00092460E4683460027FEF788FD044630698F
:1028D000816F0091B0F87C00019001216846326957
:1028E00000F065FE002865D1364D814602A9684694
:1028F000326900F087FE00285CD104F10C000D2144
:10290000B0FBF1F00299C0B208700FB1002200E0F4
:1029100040221043087081F80DA0A1F81A900F22F0
:10292000CA7200F01F00401E00EB800202EBC000E4
:102930000BEB00030127002081F80C9011F101023C
:1029400013F800C0BCF1000F0AD015F8008001F8A0
:1029500008C015F80080401C0D2808F80290EFD33D
:10296000002309E015F800C001F80C3015F800C08C
:102970000CF80230FF23401C0D28F3D30C2C01D996
:102980000D3C00E0002400993069FFF77FFE0199BB
:10299000C943090708D10199012200EB11113069DF
:1029A00002F081FA002806D000216846326900F062
:1029B000FEFD10B10020BDE8FE8F002C96D1012055
:1029C000F9E70000F44F00002DE9F84F1E460D46D0
:1029D0008046012A54D00020D5F820A08346EF8AF3
:1029E00051462869FFF752FE00EB17118946286906
:1029F00001F0C8FD00287DD0286907F00F01C06DE7
:102A000000EB41145FF0000018F800102154401C46
:102A10000B28F9D34FF000088EB3F07AE07284F8F7
:102A20000C8084F80D80F089E081308A208200F0EB
:102A30006FFF014604F1120001F079FFB08AA08215
:102A4000F08AE082308B2083708B6083F069E061D4
:102A5000F0696860F069C5E9020806F11A0001F042
:102A60005EF9044606F1140001F059F904EB004048
:102A7000E86149460122286902F015FA5AE001E0AE
:102A80000120A9E784F80C8084F80D8001F030F96A
:102A9000014604F10E0001F04AFF00F039FF014643
:102AA00004F1100001F043FF208A6082E189E18295
:102AB0002083C4F81C80C5F80C80C5F80480C5F8D4
:102AC0000880BBF1000F1FD01020E072CDF800A0ED
:102AD0002969096C514500D900910022694628698D
:102AE000FFF7CBFC00282BD00098E861010C04F123
:102AF000140000E024E001F01AFF009881B204F114
:102B00001A0001F014FF07E02020E072A4F81480FE
:102B1000A4F81A80C5F81C8049460122286902F0F1
:102B2000C2F900280CD0BBF1000F05D0286900992C
:102B3000FFF78EFD002803D0C5F820A0EF8201200A
:102B4000BDE8F88F2DE9F04100270D4604463846D0
:102B500020212954401C0B28FBD300212954207824
:102B60006178A2782E2806D111B12E2902D002E078
:102B7000287031E0AAB10026207868B32E2813D03F
:102B800020280AD001F0D4FFA0F16101A85519292D
:102B900002D820F02000A855761C641C082EEBD328
:102BA00004E02870687017E00127641C082620786C
:102BB00090B12E2813D020280BD057B101F0B8FFC8
:102BC000A0F16101A855192902D820F02000A855CC
:102BD000761C641C0B2EEAD30120BDE8F08101278E
:102BE000F7E73EB504460069816E0520FDF748FB16
:102BF00078B18169491C03D0416A0091818D02E05E
:102C0000816A0091C18D01912169896EFDF73EFBBA
:102C100005E02069816F0091B0F87C0001900025EB
:102C200002A96846226900F0EDFC20BB0298E5216C
:102C30000170C07A00F03F010F2904D0C0F3C10039
:102C4000012800D001250198C043000700D065B1DC
:102C500000992069FFF71AFD0199012200EB11117B
:102C6000206902F020F9002806D000216846226978
:102C700000F09DFC08B100203EBD002DD0D0012009
:102C80003EBD000070B50C460546FEF7A7FB09499E
:102C90000CE02A5CA2F16103192B01D822F020027A
:102CA00082EA146251F8222082EA0424401EF0D203
:102CB000204670BD0450000070B505460C460869FA
:102CC000142100F0F1FC002825D028785C2800D1E0
:102CD0006D1C287800281ED0206901F021FEE061DB
:102CE000204601F095F801222146284600F0A8F878
:102CF000002810D0206921467E30FFF751FB0028C4
:102D000009D0206900237E301A462146FFF756FD80
:102D1000002800D0012070BD38B505460C46086972
:102D2000142100F0C1FC00284DD028785C2800D187
:102D30006D1C2878002846D0206901F0F1FDE06183
:102D4000204601F065F800222146284600F078F878
:102D5000002838D0206990F87E1029B30021009116
:102D60007E3001236A46214600F0B5FB20B12146A2
:102D7000009800F0FAFD07E0206900227E3021462D
:102D800000F0BAFB00281ED02046FFF72AFF0028DB
:102D900019D0E169206901F0FFFD002813D02069F6
:102DA000017F032904D00DE02046FFF711FCE9E77D
:102DB00002F020F8002806D00021206901F0C2FEB0
:102DC000002800D0012038BD38B505460C460869FA
:102DD000042100F069FC002828D028785C2800D164
:102DE0006D1C2878002821D0206901F099FDE06150
:102DF000204601F00DF800222146284600F020F878
:102E0000002813D0206910F17E010AD07E30012302
:102E10006A46214600F05FFB48B12146009800F069
:102E2000A4FD00206075E069A061012038BD206923
:102E300000227E30214600F05FFB0028F1D138BD32
:102E40002DE9FC4117460C460646002538E0DDB961
:102E5000206901237E306A46214600F03CFB48B1E0
:102E60002146009800F081FD207DC00621D400207D
:102E7000BDE8FC81206901227E30214600F03CFB48
:102E8000B8B9002FF3D00125206921467E30FFF725
:102E900087FA0028ECD0206900237E3001222146E9
:102EA000FFF78CFC0028E3D0204601F0A3FE0028A9
:102EB000DED0019806442069816E0020FDF7DEF91E
:102EC000216901AA7E31304600F039FD0128BED0CB
:102ED0000120CDE72DE9F0474FF0FF3600F148041F
:102EE00086648068606000252572657200F5007157
:102EF00000F58060E660C4E9051025776577483CF9
:102F0000204600F0FBFBFDF7B5F90227302104F164
:102F100018002767FEF71AFB0021204601F032FB5C
:102F200018B3E06D00F5FF7000F0F9FEA0F52A413E
:102F300055391AD1E06D0178E92914D0EB2902D175
:102F4000817890290FD000F5E37000F0EDFEA061CC
:102F50004FF00109204600F083FC48B1E18DB1F546
:102F6000007F46D106E0A561F2E70220BDE8F087C8
:102F70000320FBE7A27F102A0FD008DC012A0CD027
:102F8000022A0AD0042A08D0082A32D105E0202AD1
:102F900003D0402A01D0802A2BD1B4F822C0BCF142
:102FA000000F26D0657F012D01D0022D21D1238C69
:102FB000606A83421DD8B4F82C8005FB03C306EB7E
:102FC000481606F5007696FBF1F15D18401BA062ED
:102FD000B0FBF2F02063A386E1865102A163C1F346
:102FE0004F11A18740F6F571884204D284F81C90F5
:102FF00015E00420BAE74FF6F571884201D2277731
:103000000DE003202077204600F06AFD38B9204605
:10301000FFF74EFBE066204601F0ECFE08B1002011
:10302000A4E70520A2E72DE9F843060023D0307875
:1030300008B30869002500F17E0870196A46414608
:1030400000F07DFC0746002406E018F8040001F0BB
:103050003FFD00280DD0641C0098401E8442F4D32C
:103060000098002F0544E8D140F20110854202D8B3
:103070000120BDE8F8830020FBE72DE9F047044676
:10308000007817468946C00613D40421206900F051
:103090000BFB50B1E068A168C2198A4201D90F1A2E
:1030A00007D0C0F3080600253AE0208840F0100061
:1030B00020800020BDE8F087A1692069FFF7E6FACB
:1030C000627D81182069837F9A1A01F003FA002833
:1030D000F0D0A7EB050808EB0600B0F5007F01D99A
:1030E000C6F5007820694246C06D811909EB0500DC
:1030F000FEF793F906EB0800C605F60D0FD1607DCB
:10310000401CC1B261752069827F914207D10021C4
:10311000617504F1180101F0B9FB0028CAD04544DB
:10312000BD42C9D3E0682844E0602846C2E72DE9E3
:10313000F041044600780D46C00602D50020BDE8E7
:10314000F0810421206900F0AFFA20B1E168A942C2
:1031500006D10120F3E7208840F010002080EDE741
:10316000A068A84200D2054620696A0AA942837F66
:10317000B2FBF3F603FB162262750FD2806BA769D0
:10318000B1FBF0F200FB1212691A5318834216D3F6
:10319000821A891AB1FBF0F6761C04E0806BE769AD
:1031A000B5FBF0F6A76156B104F118084146A769CE
:1031B000206901F06BFB0028C1D0761EF6D1A16911
:1031C000206900F031FE18B12069807F6075A76129
:1031D000E560BEE710B50446007888B0C00602D5A9
:1031E000002008B010BD1421206900F05DFAE0B3A2
:1031F000D4E9010181423DD9491E2046FFF797FFDE
:103200000028EED0206900F019FB0246A169206970
:1032100001F07CFD0028E4D06946204601F097F9D2
:103220000028DED0E069010C05A801F080FBA08B2E
:1032300081B20DF11A0001F07AFB07A8A16801F034
:103240007AFB00F055FD01460DF1160001F06FFB11
:1032500000F05EFB014606A801F069FBBDF818000E
:10326000ADF812006946204600E008E001F0F6FDE6
:103270000028B6D02069017F032905D008E0208806
:1032800040F010002080ABE701F0B4FD0028A8D08A
:103290000021206901F056FC0028A2D000212069FD
:1032A000FFF710F900289CD001209AE72DE9F74F8D
:1032B0000446007882B01746C00603D5002005B04A
:1032C000BDE8F08F1421206900F0EEF960B121888B
:1032D0004FF4007909EA811B04F11800E1694FF00D
:1032E000000A009029B116E0208840F010002080EC
:1032F000E4E784F815A02069009900F083FB00281A
:10330000DDD0A069E0612069816E0520FCF7B8FF7F
:1033100008B1E1690162A0890025C0F308064CE00C
:103320002069627D817F8A4218D1E1684A19A168CB
:103330008A4203D2009901F0A9FA0BE0D4F8188070
:10334000009900F05FFB0028B9D04146A2692069CE
:1033500001F0DCFC0028B2D084F815A0A169206936
:10336000FFF794F9617DA7EB05080844019008EB8D
:103370000600484501D9C6F500780EB9D84505D2F2
:103380002069019901F0FEF8002898D00398424680
:1033900041192069C06D3044FEF73FF8206901995A
:1033A00001F0D0FB00288AD006EB0800C605F60D18
:1033B00002D1607D401C60754544BD42B0D3E068D9
:1033C0002844E060A168884200D9A060012076E727
:1033D00070B505461D48AFF30080002000F0A4F949
:1033E00004002BD00146284600F0ECF90546206980
:1033F00020B32078800612D5284600F06CF948B931
:1034000021462846FFF7E0FCC0B1204600F0B0F9A5
:10341000012813D021462846FFF77EFC0CE0214608
:103420002846FCF711FF48B1204600F0A1F9012819
:1034300004D02046FCF7F5FE012805D001240348FE
:10344000AFF30080204670BD0024F8E700000000C4
:1034500000230B604B608B60CB6001281FD0521C97
:1034600012F8010C8871108840BA888090788873AF
:10347000D0784873107908735079C872907988723F
:10348000D079C8719068D37A00BA20F0FF00184351
:103490000860908940BAC0F30B000881704710782B
:1034A000887190788880D078C87310798873507943
:1034B000487390790873D079C872107A8872507AFC
:1034C000C871D2F80A00537B00BA20F0FF001843FD
:1034D0000860907BE1E738B514460D4600F0F6FF32
:1034E00029698A6E6946FCF7D3FE08B1002038BD11
:1034F00000982060012038BD002301F06DB8000065
:10350000F0B5044689B01A48AFF3008000F094F893
:10351000BCB10020ADF8000004906946204600F0E0
:1035200051F9049808B3BDF8000000F02001049898
:1035300000F005FC04460E48AFF3008009B02046B9
:10354000F0BD00240B4D26460B4F0AE0E87900F051
:103550000401286800F0F3FBA04200DD0446761C5D
:10356000083538888642F1DBE5E70324E3E700000D
:1035700000000000F44E0000D84E0000A9B18A6996
:10358000521C026808D04B6A9A420ED14068898D5D
:1035900088420AD1022070478B6A9A4205D140685E
:1035A000C98D884201D1012070470020704738B58D
:1035B0001546044611B96068401C6060287F0328E6
:1035C0001AD02068C0B96068B0F5007F10D017E04D
:1035D000081A6060206800906946284601F056F994
:1035E00030B12846009900F01FFC18B1012038BD09
:1035F000022038BD00982060A88F61688142E7D220
:10360000002038BD70B50E460446016815461046C8
:10361000FFF73CF8616800EB1111284600F0B2FF9B
:1036200040B12179E86D01F00F0100EB41103060ED
:10363000002070BD012070BD70B5164C20780028A8
:1036400026D1FCF7DBFDFCF711FE002212481146E3
:103650004025124B0BE0C67976070668316004D42A
:103660000679522E01D106683560521C08301E883A
:10367000B242F0D300200A4A0A4B04E000EBC00536
:10368000401C22F825101D88A842F7D30120207085
:1036900070BD000018000010F44E0000D84E00006D
:1036A00028040010D64E000010B50446006881437F
:1036B00001D0002010BD000706D4606800214269D7
:1036C00008469047C00701D0012010BD206820F0B7
:1036D00006002060EDE760B1017851B1012100E002
:1036E000491C425C002AFBD1084410F8010C5C28FC
:1036F00001D00020704701207047000010B502463D
:1037000007480021074B06E00468944201D1001DE0
:1037100010BD491C08301C88A142F5D3002010BD03
:10372000F44E0000D84E000070B5064600240A4D45
:103730000A4804E02978890706D02435641C0188EA
:103740008C42F7DB002070BD24212846FDF7FEFEE9
:1037500006B13460284670BD28040010D64E000023
:10376000004870470101DB074FF44020704700001C
:1037700030B500221149124B1AE00C78A40715D07D
:10378000814213D00C690569AC420FD10478A406BC
:1037900009D5CC8AC58AAC4208D10C6A056AAC420C
:1037A00004D1012030BD8C8A858AF8E7521C24316F
:1037B0001C88A242E1DB002030BD0000280400107C
:1037C000D64E0000F0B51B4A1B4CE8B10378DBB1C4
:1037D00023F0200643783A2B03D085783A2D03D086
:1037E00012E03023801C01E073B1C01C002507E00B
:1037F0001779B74202D157799F420AD06D1C08321F
:103800002788BD42F4DBF0BD00230EE0D579ED073B
:1038100009D013680B61D2795207F4D50A8842F0B7
:1038200020020A80F0BD5B1C08322588AB42EDDB2C
:10383000F0BD0000F44E0000D84E0000007F0128CB
:1038400005D0022806D0032807D00020704740F694
:10385000FF7070474FF6FF7070476FF07040704711
:1038600010B50446816900F08DFE002809D0E06D96
:1038700000F5FF7000F053FAA0F52A41553901D048
:10388000002010BDE06D417BA1770B3000F047FABE
:10389000E085E06D0E3000F042FA6084E06D017C5E
:1038A0006177113000F03BFAA085E06D133000F035
:1038B00036FA6062E06D163000F031FA2084616AF9
:1038C000E9B9B8B9E06D283000F029FAE087E06D79
:1038D0002C3000F029FA2064E06D303000F01FFA3F
:1038E000A4F84400E06D323000F019FAA4F8460064
:1038F000606A20B9E06D203000F016FA6062208C1A
:1039000020B9E06D243000F00FFA2084012010BDB2
:1039100010B5FFF725FF10F01F0100D10121C0F302
:1039200003220C2A00D802B9012241EA42114422A2
:1039300002EB104000F07F0041EA402010BD70B55E
:1039400000231C461E46C55C5C2D04D045B10D55B8
:10395000641C5B1CF7E75B1C0E550120136070BDF7
:103960005B1C0E550020136070BD3EB50C46050073
:1039700009D0A86A0190E88D0290694601A82269E1
:10398000FFF740FE08B100203EBD2169686A8867E4
:103990002169A88DA1F87C00A86A2062E88DE082E8
:1039A00000981A3000F0BBF905460098143000F07A
:1039B000B6F905EB0040E0610098C17A21751C3032
:1039C00000F0B2F96060A0600020E06001203EBD20
:1039D000027F012A04D0022A06D0032A0AD105E078
:1039E00001EB4101890A02E0090A00E0C909028CE1
:1039F0008A4201D8002070478269408C10440844F4
:103A0000704700002DE9F0410E460546046F5CE06A
:103A100021462846FFF7DCFF804601462846FEF790
:103A200051FD002838D0287F012804D0022823D057
:103A3000032830D127E004EB4400C0F34800B0F580
:103A4000FF7F04D8E96C084400F069F90DE0E86CE8
:103A500008F1010190F8FF712846FEF733FD0028B8
:103A60001AD0E86C007847EA0020E10701D000098D
:103A70000FE0C0F30B000CE0E96C200601EBD05026
:103A800000F04DF905E0E96C600601EBD05000F064
:103A90004BF918B118E00020BDE8F0810E48002174
:103AA00002880E4809E003889F0604D59B0702D5CB
:103AB0008769A74208D02430491C9142F3D334606F
:103AC000641C01202C67E7E7641C286B801CA04263
:103AD0009ED82C67DFE70000D64E000028040010B7
:103AE00010B504468069B4F844100144204600F043
:103AF00049FD002829D0E06D00F5FE7000F014F9B2
:103B00001449884220D1E06D00F00EF91249884234
:103B10001AD1E06D00F5F27000F006F90F49884205
:103B200012D1E06D00F5F47000F0FEF8216B8142D7
:103B30000AD3E066E06D00F5F67000F0F5F80228B3
:103B400002D3216B814201D2002010BD20670120E9
:103B500010BD0000000055AA5252614172724161CD
:103B60002DE9F84F8346604815460E464FF0000A8F
:103B70004FF6FF78824201DD062713E042F20F7014
:103B8000854201DD05270DE0B5F57A7F01DB0427CD
:103B900008E0632D01DD032704E0092D01DD022784
:103BA00000E00127002003E02E2900D18046401CC0
:103BB0001BF800100029F7D105B94F1E4FF000097E
:103BC000C7F107004C46009018E000BF1BF809A0A1
:103BD000BAF1200F10D0BAF12E0F0DD0BAF1000FAC
:103BE00011D0AAF16100192801D82AF0200A504604
:103BF00000F09EFF3055641C09F10109C14502D255
:103C00000098A042E2D8EDB37E203055641C072F07
:103C100046D2DFE807F04542352A1E12040032483A
:103C20003249401C95FBF0F0414305EB4115092852
:103C300000D9092030303055641C42F2107095FBD9
:103C4000F0F06FF41C7141433030305505EB011535
:103C5000641C4FF47A7095FBF0F06FF07C014143E7
:103C60003030305505EBC105641C642095FBF0F045
:103C70006FF0180141433030305505EB8105641C6D
:103C80000A2000E00CE095FBF0F04142303001EBFF
:103C90008101305505EB4105641C30353555641CF8
:103CA000BAF1000F1AD0A8F57F40FF3816D02E20A9
:103CB0003055641C08F10105EF1C0DE01BF80500F0
:103CC00060B1A0F16101192901D820F0200000F0B5
:103CD0002FFF3055641C6D1CBD42EFD300203055C2
:103CE0000120BDE8F88F00009F860100CBF3FFFFA5
:103CF00010B5FFF739FDC0F344011D2900D900219B
:103D0000C0F305223B2A00D90022C0F3044041EA57
:103D10004211172800D9172041EAC02010BD417870
:103D2000007840EA01207047C1788278090641EAAC
:103D300002414278007841EA02210843704710B5F9
:103D400004460020B9B3616819B12178C90702D0CF
:103D50000BE0032010BD20606068016800208847E8
:103D600050B3206840F001012160206820F01E015E
:103D7000216060680021426908469047010603D52A
:103D8000206840F0180106E0C1073AD0800703D44C
:103D9000206840F0100121606068016801208847B8
:103DA00050B1206840F0020120462160FFF792F8F0
:103DB00018B1022010BD0AE023E0206840F00401A1
:103DC00020462160FCF748FA00BB0420F2E720847B
:103DD000616869B12178C9070AD12060D4E901205E
:103DE000E1691268904760B1206840F001002060EE
:103DF000206840F004012160606820B1806810B143
:103E000004E00120D6E741F0100020600020D1E757
:103E100010B504460069FFF771FCFCF729FA216927
:103E20008866012010BD0000007F012804D0022810
:103E300005D003280FD107E040F6F87001E04FF6F7
:103E4000F870814205D206E021F0704003498842B3
:103E500001D301207047002070470000F8FFFF0FDA
:103E6000024600200146C30700D0802303EB500028
:103E7000535C491C1844C0B20B29F4D3704728B1D5
:103E8000022809D0032809D000207047D068806A32
:103E900000B100478020704790687047104600F0DE
:103EA00009BA00002DE9F0438BB00C4610B101288F
:103EB0007ED10AE0E06800688047002879D0E06899
:103EC000816841F28830884719E1E06841694FF420
:103ED000C8708847E06881680A208847E068002346
:103EE0001A46856919461846A84700202070A08008
:103EF000E068C16801208847E06881680A20884737
:103F0000E06801224FF4D575866903AB2946082085
:103F1000B04720B10398A84201D103202070794F07
:103F200000254FF416784FF4FA764FF00109204639
:103F300000F078FA01281DD12078032812D0002043
:103F400047EA8071E068012203ABD0F818C029204D
:103F5000E04778B1039800280CDA2078032803D0D2
:103F6000022005E00120EBE70398400030D5042053
:103F700020702DE0E0688168304688476D1C45451B
:103F8000D5D3207820BBE068C16800208847E0686E
:103F900081680A2088470025E068012203ABD0F839
:103FA00018C039461046E04740B10398002801E0A8
:103FB000A1E084E002DA84F8009009E0E06881681A
:103FC000304688476D1CC82DE6D32078002876D06F
:103FD0000025E068022207AB866900211046B04741
:103FE00088B120780999022804D30A9A090241EA83
:103FF000126103E00A9A090441EA12410026A16015
:10400000012804D005E06D1C322DE2D373E04FF49B
:1040100080360025E068012207AB8769314603201E
:10402000B84720B10798C0F30320052803D06D1CC2
:10403000322DEFD35FE00798010CA1802078012892
:1040400007D1E068C16801208847E06881680A20DC
:1040500088476946204600F06DF900284CD0E16899
:10406000BDF8080049698847E06881680A208847E8
:10407000204600F0B9F900283ED0207802281FD34E
:10408000E068016904208847D0B1E06881680A20AF
:1040900088470025204600F0C5F960B1E06801229C
:1040A0000A21866907AB0620B04720B10798C0F304
:1040B000032009280CD06D1C322DEBD31BE01BE034
:1040C000E068016901208847E06881680A20884724
:1040D00000254FF40077E068012207AB8669394676
:1040E0001020B04720B10798C0F30320092806D05C
:1040F0006D1C322DEFD300200BB0BDE8F083012002
:10410000FAE700000080FF0070B50D4688B0044655
:104110006946284600F0CEF8002829D00098A8600B
:10412000284600F0A9F9E86800231A46866919466E
:104130000720B04704A9284600F0FCF8002817D053
:10414000284600F051F9002812D0BDF81420A280B2
:10415000BDF81600E08004984FF4007120608A4298
:104160000ED0B2F5806F05D0B2F5006F04D00020FC
:1041700008B070BD400000E080002060A180E180B8
:104180000120F5E72DE9F84F814616468A461C4680
:10419000184600F071F9002827D0E068436A2BB177
:1041A000324651460020984700281ED04D464FF019
:1041B0001108012E01D94FF012082078042801D2ED
:1041C0004FEA49250027E0686B460122D0F818C065
:1041D00029464046E04720B10098C0F30320092853
:1041E00005D07F1C322FEED30020BDE8F88FE068A9
:1041F00032465146C369484698470028F5D0012EFB
:1042000002D9204600F023F90120EEE740B1012851
:104210004FF0000003D1087088808860012070474B
:10422000C868406800472DE9F84F814616468A461F
:104230001C46184600F020F9002827D0E068436AA1
:104240002BB1324651460120984700281ED04D46DA
:104250004FF01808012E01D94FF0190820780428D2
:1042600001D24FEA49250027E0686B460122D0F8C9
:1042700018C029464046E04720B10098C0F303200B
:10428000092805D07F1C322FEED30020BDE8F88F1F
:10429000E06832465146036A4846984730B1012EDD
:1042A00002D9204600F0D3F80120EFE7204600F0C5
:1042B000CEF8EAE7F0B589B00D0004461CD000F056
:1042C000DBF8002819D0E06800231A4686691946F1
:1042D0000720B047002810D020784FF48031022802
:1042E00001D3A0880104E068022204AB86690A2099
:1042F000B047012803D019E0002009B0F0BD00212B
:104300000A466F460DF1100C20205CF82260083838
:1043100026FA00F37B5401F10101F8D1521C042A62
:10432000F2D320783A462946FFF792F8204600F06B
:104330005BF8E2E77FB50C0037D002784FF48031AC
:10434000022A01D381880904C06802226B4685696C
:104350000920A847002829D00198224AC0F3034128
:10436000012000FA01F1A1800399C1F38351884033
:10437000E080009800F00701C0F3C300491C105C06
:10438000208100204FF6FF7206E02389401C03EBDA
:10439000830302EA430323818842F6D30098800F07
:1043A00006D0012811D0022802D0002004B070BD30
:1043B00001980299800040EA9170C0F30B00C1F3AC
:1043C000C231401C891C884008E001980299000411
:1043D00040EA11400004800900F58060206001205F
:1043E000E4E70000454F0000F8B5054600784FF4BB
:1043F0008036022801D3A88806040024E868012238
:104400006B46876931460720B84720B10098C0F352
:104410000320072804D0641CC82CEFD30020F8BD6B
:104420000120F8BD38B502780021022A01D3818825
:104430000904C06801226B4684693720A04720B177
:104440000098800601D5012038BD002038BDF8B5A0
:1044500005460024E8680122002186696B460C208D
:10446000B04720B10098C00501D50120F8BD641CFB
:10447000142CEFD30020F8BDF8B5044600254FF406
:10448000803620783146022801D3A0880104E068F4
:1044900001226B4687690D20B84710B10098C1050D
:1044A00000D40020C0F3032009280DD0E068816803
:1044B000322088476D1C42F210708542E1D32046BD
:1044C000FFF7C5FF0020F8BD0120F8BD4FF0FF3118
:1044D000FEF7D8BB70B50446C06816460D4610B14D
:1044E00094F8641029B129462046BDE8704000F0D8
:1044F00049B894F8652082B1A16DA9420DD80A444B
:10450000AA420AD9206E691A00EB41214FF40072C9
:10451000E06DFCF782FF656517E0B04200D2064609
:104520006068E16D3246836828469847012806D0C6
:104530004FF0FF306065002084F8650070BD656550
:104540006D1C761EA56584F86560012070BD70B590
:104550000E460446C58A016A0069FEF797F800EB2B
:104560001511206900F00EF800280AD0206905F026
:104570000F012022C06D00EB41113046FCF792FF85
:10458000012070BD70B50446406D0D46A84201D1B2
:10459000012070BDA06DA8420ED894F864100144AB
:1045A000A94209D9216E281A01EB40214FF400726B
:1045B000E06DFCF732FF0CE06068E16D012283687A
:1045C00028469847012804D04FF0FF30606500204E
:1045D00070BD6565DCE700002DE9FF4F9DB0002050
:1045E0000C4600900690012A27D00A9000200590E2
:1045F0000F901690049015901D98FCF7EFFE002088
:10460000079021698346E069486717A91D98FEF75E
:1046100099FA2069816E0020FBF732FE05464FF0C3
:10462000000AE069CDE9020A002702A82946FEF740
:10463000A5FF50B1022802D005E00120D5E7A86A05
:104640000290E88D03900126E4E0564608A902A8EE
:104650002269FEF7D7FF002828D108980178E9B130
:10466000E529F1D0C27A0F2A21D01107ECD416998E
:1046700061B100211691DDE904128A4206D1FFF7EB
:10468000EFFB1599884201D101200F900020049082
:104690000598401CC0B2012864D06EE02069816E8C
:1046A0000520FBF7EDFD0121FBF7ECFDC4E04A0618
:1046B00011D5029A07920122169200220F92407B96
:1046C000159021F0400005902069DDF80CB0806E57
:1046D000FBF7D2FD009008988646417B15988142F1
:1046E0003FD19EF80000724600F01F00401E00EB14
:1046F000800101EBC0001D9901EB00096249002017
:104700000B5C12F803C019F800308CEA030838F08B
:1047100020080AD113B9BCF1000F02D0401C0D28AB
:10472000EED30498401CC0B204900098002871D0C9
:10473000D0F81880724600200DF1440311F800C033
:1047400012F80CC003F800C0BCF1000F02D0401CEE
:104750000D28F3D31E5441461846FEF793FA0099EC
:10476000886157E000200F90029807902069DDF8DB
:104770000CB0806EFBF780FD0090089A0DF15C0C88
:1047800091460020115C1CF8003081EA030838F0E3
:10479000200806D103B911B1401C0B28F2D3012027
:1047A0000F9099F80B00C0F30018009850B3C1693E
:1047B000104600F0C8F80099C86108981A30FFF751
:1047C000AEFA074608981430FFF7A9FA07EB004144
:1047D0000098B8F1000F01620098079941620099B2
:1047E000A1F82CB000980299816200990398C885BD
:1047F00001D10220069020690699826E0098FBF78D
:1048000043FD01270F9818B10A98404514D117E0CD
:10481000002005903E4307D02069816E0420FBF7FD
:104820002FFD0546012807D0002102A82269FEF7C6
:10483000BEFE00283FF4F8AE002021B0BDE8F08FA6
:104840002098F8B90898C17A21751A30FFF767FAED
:10485000054608981430FFF762FA05EB0040E06166
:104860002169079888672169A1F87CB002982062C5
:104870000398E082C4F80CA008981C30FFF754FAA3
:104880006060A0600120D8E7F44F00002DE9F041FE
:104890000D680E4604462946FFF79AF88046014601
:1048A0002046FDF70FFE002807D0207F012806D004
:1048B000022825D003282AD00020BDE8F08105EB8E
:1048C0004500C0F34800B0F5FF7F04D8E16C084410
:1048D000FFF725FA0DE0E06C08F1010190F8FF7197
:1048E0002046FDF7EFFD0028E7D0E06C007847EAAE
:1048F0000020E90701D000090FE0C0F30B000CE035
:10490000E16C280601EBD050FFF709FA05E0E16CF5
:10491000680601EBD050FFF707FA30600120CCE7C2
:10492000017F032901D000207047006C70470A0AFC
:104930004270017070470A0EC2700A0C82700A0A37
:104940004270017070471FB508216B46421812F87B
:10495000012C202A01D0002205E0491EF6D104E0F6
:10496000845C9C54521C8A42FAD3027A202A02D0D8
:104970002E225A54491C0822845C202C04D05C54FA
:10498000491C521C0B2AF7D300205854411E1846CC
:10499000FEF778F904B010BD2DE9F0470026012795
:1049A0000D46044602297DD378E0206FA84200D945
:1049B000256729462046FFF70BF881460146204629
:1049C000FDF780FD002879D0207F012804D002283F
:1049D00045D0032871D14CE005EB4500C0F34808F1
:1049E000B8F5FF7F15D8E16C01EB0800FFF797F9E8
:1049F000E90703D000F00F01000903E000F4704163
:104A0000C0F30B00E26C814602EB0800FFF78FFF5A
:104A10003BE0E06CEA0790F8FF11884604D001F013
:104A20000F0180F8FF1101E080F8FF6184F85070F9
:104A300009F101012046FDF745FD00283ED0E06C5C
:104A4000EB07027848EA022102D00670080904E068
:104A500002F0F0020270C1F30B00814615E0280657
:104A6000C50DE06C2844FFF75AF98146E06C4653C7
:104A70000BE06806C50DE06C2844FFF755F9814648
:104A8000E06C4651E06E401CE06684F85070494688
:104A90002046FFF7C9F9012812D04D46206B801C33
:104AA000A84202E012E009E007E03FF67EAF0021F5
:104AB0002046FDF707FD002800D00020BDE8F08764
:104AC00000212046FDF7FEFC0028F7D00120F5E785
:104AD0000021A0F12002012A16D9D21E062A13D9DC
:104AE0002D2823D02E2821D00D3A092A0CD9402870
:104AF0001CD0113A192A07D91D3A1D2A04D97D283C
:104B000014D07E2812D000E001212B280BD02C28B5
:104B100009D03B2807D03D2805D05B2803D05D286D
:104B200001D07F2800D90221084670470121FBE708
:104B300010B50446FFF7CCFF022801D0204610BD77
:104B40005F2010BD2DE9F041C3680D460446CBB18E
:104B50000026F5B1656594F864204FF40077A2B3A0
:104B6000A06D8118A94221D19A421FD25C3460689D
:104B7000216800EB42203A46FCF74FFC207A401CAB
:104B800020721FE0F5B1002200F08DF900281AD044
:104B900018E094F86420AAB16368216EA06DDB6808
:104BA000984700280FD084F864600BE0A8420DD825
:104BB000A9420BD9216E281A01EB40203A46E16D3B
:104BC000FCF72BFC0120BDE8F08107E06368216E53
:104BD000DB6898470028F6D084F8646058343A4679
:104BE000D4E90110FCF719FC0120256020736673DD
:104BF000E8E700002DE9F0410446D0F81C80FFF7FB
:104C000077F80746FEF784FE064620694FF40071E8
:104C1000C06DFCF779FC20690B2239A1C56D2846CF
:104C2000FCF740FC1020E872394605F10E00FFF752
:104C30007EFE314605F11000FFF779FE314605F1A1
:104C40001200FFF774FE394605F11600FFF76FFEFC
:104C5000314605F11800FFF76AFE05F12000202219
:104C600029460646FCF71EFCE069010C05F114001C
:104C7000FFF75DFEA08B81B205F11A00FFF757FE2A
:104C80002E20707020693546026C416F914201D12F
:104C9000002141672069406F010C05F11400FFF706
:104CA00046FE2069B0F8740081B205F11A00FFF7E2
:104CB0003EFE2169E069486741462069FDF7E6FC50
:104CC000064601223146206900F0EDF8002814D094
:104CD00020694021C06DFCF717FC012506E0711921
:104CE000002200F0E0F8002807D06D1C2069817FC9
:104CF000A942F4D80220E0820120BDE8F081000042
:104D00002E20202020202020202020002DE9F047E8
:104D100015460E460446FEF75BFE814601462046D8
:104D2000FDF7D0FB002809D0207F4FF001080128B3
:104D300006D0022844D0032848D00020BDE8F087E0
:104D400006EB4600C0F34807C5F30B05B7F5FF7F38
:104D500011D8E06C3844FEF7E2FFF10702D065F3AA
:104D60001F1002E000F4704028430146E06C384414
:104D7000FFF7DDFD3AE0F00707D0E16C91F8FF01A5
:104D800065F31F1081F8FF0102E0E06C80F8FF512D
:104D900084F8508009F101012046FDF793FB0028BB
:104DA000CCD0F00704D0E16CC5F3071008701DE00B
:104DB000E06C017801F0F00141EA1521017015E085
:104DC000E26C3006A9B202EBD050D1E77006C60DF6
:104DD000E06C3044FEF7A8FF18B9E06E08B1401E41
:104DE000E066E06C29463044FFF7A5FD84F850806A
:104DF0000120A3E710B50446C06D4FF40071FCF725
:104E000083FB1449E06DFFF796FDE06D124900F554
:104E1000F270FFF790FDE06DE16E00F5F470FFF7C2
:104E20008AFDE06D216F00F5F670FFF784FDE06DFF
:104E30004AF6552100F5FF70FFF779FDB4F84410EC
:104E4000A06901442046FFF77DFE002800D0012024
:104E500010BD000052526141727241612DE9F04172
:104E60000F460446C68A016A0069FDF70FFC00EB95
:104E700016110D462069FFF785FB002811D0206927
:104E800006F00F012022C06D00EB41103946FCF7FF
:104E900009FB29460122206900F005F8002800D00E
:104EA0000120BDE8F08170B504460D464069E16D12
:104EB00008B1012A09D060680122C36828469847D2
:104EC000002801D00120656570BD0B4600222946EF
:104ED000FBF7C8F9F4E7080001000000D901000061
:104EE000DF010000E5010000EB010000F10100001E
:104EF000F7010000481900104D30000DF9070000BF
:104F00005B080000E907000091080000B1080000FC
:104F1000D3080000FB080000CD090000F7090000DD
:104F2000000000005D0A0000535444494E005354F1
:104F3000444F555400535444455252001004000E3F
:104F40002010000000000A0C0D0F14191E23282D3C
:104F500032373C46500000000110000002001000F3
:104F60000002410001100000020010000004410096
:104F70000120000002002000000441000120000088
:104F8000040020000004410002100000080020007E
:104F90000004410002100400100020000004810001
:104FA00002200800200020000004810002201000E0
:104FB0004000200000040101024020000001200008
:104FC0000002010103404000000120000004010133
:104FD0000340400000013F00000401010340400085
:104FE000FF003F000004010103404000FF003F00BC
:104FF0000004010101030507090E10121416181C04
:105000001E00000000000000B71DC1046E3B8209B5
:10501000D926430DDC7604136B6BC517B24D861A87
:105020000550471EB8ED08260FF0C922D6D68A2FA4
:1050300061CB4B2B649B0C35D386CD310AA08E3CC3
:10504000BDBD4F3870DB114CC7C6D0481EE093453C
:10505000A9FD5241ACAD155F1BB0D45BC29697560B
:10506000758B5652C836196A7F2BD86EA60D9B6376
:1050700011105A6714401D79A35DDC7D7A7B9F7007
:10508000CD665E74E0B6239857ABE29C8E8DA191FD
:10509000399060953CC0278B8BDDE68F52FBA58253
:1050A000E5E66486585B2BBEEF46EABA3660A9B7E0
:1050B000817D68B3842D2FAD3330EEA9EA16ADA4FF
:1050C0005D0B6CA0906D32D42770F3D0FE56B0DD2E
:1050D000494B71D94C1B36C7FB06F7C32220B4CE0F
:1050E000953D75CA28803AF29F9DFBF646BBB8FBFA
:1050F000F1A679FFF4F63EE143EBFFE59ACDBCE87B
:105100002DD07DEC77708634C06D4730194B043D4F
:10511000AE56C539AB0682271C1B4323C53D002E66
:105120007220C12ACF9D8E1278804F16A1A60C1B2B
:1051300016BBCD1F13EB8A01A4F64B057DD00808E2
:10514000CACDC90C07AB9778B0B6567C699015717B
:10515000DE8DD475DBDD936B6CC0526FB5E61162EA
:1051600002FBD066BF469F5E085B5E5AD17D1D572D
:105170006660DC5363309B4DD42D5A490D0B1944A6
:10518000BA16D84097C6A5AC20DB64A8F9FD27A5C0
:105190004EE0E6A14BB0A1BFFCAD60BB258B23B6B2
:1051A0009296E2B22F2BAD8A98366C8E41102F83E7
:1051B000F60DEE87F35DA9994440689D9D662B909E
:1051C0002A7BEA94E71DB4E0500075E4892636E9AD
:1051D0003E3BF7ED3B6BB0F38C7671F7555032FAEE
:1051E000E24DF3FE5FF0BCC6E8ED7DC231CB3ECFB1
:1051F00086D6FFCB8386B8D5349B79D1EDBD3ADC1A
:105200005AA0FBD8EEE00C6959FDCD6D80DB8E60B5
:1052100037C64F643296087A858BC97E5CAD8A7337
:10522000EBB04B77560D044FE110C54B3836864630
:105230008F2B47428A7B005C3D66C158E440825513
:10524000535D43519E3B1D252926DC21F0009F2CF8
:10525000471D5E28424D1936F550D8322C769B3FBB
:105260009B6B5A3B26D6150391CBD40748ED970A82
:10527000FFF0560EFAA011104DBDD014949B931957
:105280002386521D0E562FF1B94BEEF5606DADF829
:10529000D7706CFCD2202BE2653DEAE6BC1BA9EB83
:1052A0000B0668EFB6BB27D701A6E6D3D880A5DEEC
:1052B0006F9D64DA6ACD23C4DDD0E2C004F6A1CDCF
:1052C000B3EB60C97E8D3EBDC990FFB910B6BCB4CA
:1052D000A7AB7DB0A2FB3AAE15E6FBAACCC0B8A73F
:1052E0007BDD79A3C660369B717DF79FA85BB49286
:1052F0001F4675961A163288AD0BF38C742DB0814B
:10530000C330718599908A5D2E8D4B59F7AB085447
:1053100040B6C95045E68E4EF2FB4F4A2BDD0C4796
:105320009CC0CD43217D827B9660437F4F460072B7
:10533000F85BC176FD0B86684A16476C93300461B2
:10534000242DC565E94B9B115E565A1587701918B7
:10535000306DD81C353D9F0282205E065B061D0B1A
:10536000EC1BDC0F51A69337E6BB52333F9D113E39
:105370008880D03A8DD097243ACD5620E3EB152D76
:1053800054F6D4297926A9C5CE3B68C1171D2BCC6C
:10539000A000EAC8A550ADD6124D6CD2CB6B2FDF62
:1053A0007C76EEDBC1CBA1E376D660E7AFF023EAF3
:1053B00018EDE2EE1DBDA5F0AAA064F4738627F9EE
:1053C000C49BE6FD09FDB889BEE0798D67C63A80C9
:1053D000D0DBFB84D58BBC9A62967D9EBBB03E939E
:1053E0000CADFF97B110B0AF060D71ABDF2B32A63D
:1053F0006836F3A26D66B4BCDA7B75B8035D36B56A
:10540000B440F7B124540000000000102800000050
:10541000200100004C54000028000010302800003B
:105420003C0100000000000000000000000E270703
:105430000087930300879303006CDC0200000000E8
:0C54400000000000000000000000000060
:04000005000000E512
:00000001FF
